{
  "_format": "hh-sol-artifact-1",
  "contractName": "SafuuXSacrificeERC",
  "sourceName": "contracts/SafuuXSacrificeERC.sol",
  "abi": [
    {
      "inputs": [
        {
          "internalType": "address payable",
          "name": "_safuuWallet",
          "type": "address"
        },
        {
          "internalType": "address payable",
          "name": "_serviceWallet",
          "type": "address"
        }
      ],
      "stateMutability": "nonpayable",
      "type": "constructor"
    },
    {
      "anonymous": false,
      "inputs": [
        {
          "indexed": true,
          "internalType": "address",
          "name": "accountAddress",
          "type": "address"
        },
        {
          "indexed": false,
          "internalType": "uint256",
          "name": "amount",
          "type": "uint256"
        }
      ],
      "name": "BTCPledged",
      "type": "event"
    },
    {
      "anonymous": false,
      "inputs": [
        {
          "indexed": true,
          "internalType": "string",
          "name": "symbol",
          "type": "string"
        },
        {
          "indexed": true,
          "internalType": "address",
          "name": "accountAddress",
          "type": "address"
        },
        {
          "indexed": false,
          "internalType": "uint256",
          "name": "amount",
          "type": "uint256"
        }
      ],
      "name": "ERC20Deposited",
      "type": "event"
    },
    {
      "anonymous": false,
      "inputs": [
        {
          "indexed": true,
          "internalType": "address",
          "name": "accountAddress",
          "type": "address"
        },
        {
          "indexed": false,
          "internalType": "uint256",
          "name": "amount",
          "type": "uint256"
        }
      ],
      "name": "ETHDeposited",
      "type": "event"
    },
    {
      "anonymous": false,
      "inputs": [
        {
          "indexed": true,
          "internalType": "address",
          "name": "previousOwner",
          "type": "address"
        },
        {
          "indexed": true,
          "internalType": "address",
          "name": "newOwner",
          "type": "address"
        }
      ],
      "name": "OwnershipTransferred",
      "type": "event"
    },
    {
      "inputs": [
        {
          "internalType": "string",
          "name": "",
          "type": "string"
        }
      ],
      "name": "AllowedTokens",
      "outputs": [
        {
          "internalType": "address",
          "name": "",
          "type": "address"
        }
      ],
      "stateMutability": "view",
      "type": "function"
    },
    {
      "inputs": [
        {
          "internalType": "address",
          "name": "",
          "type": "address"
        }
      ],
      "name": "BTCPledge",
      "outputs": [
        {
          "internalType": "uint256",
          "name": "",
          "type": "uint256"
        }
      ],
      "stateMutability": "view",
      "type": "function"
    },
    {
      "inputs": [
        {
          "internalType": "uint256",
          "name": "",
          "type": "uint256"
        }
      ],
      "name": "BonusPercentage",
      "outputs": [
        {
          "internalType": "uint256",
          "name": "",
          "type": "uint256"
        }
      ],
      "stateMutability": "view",
      "type": "function"
    },
    {
      "inputs": [
        {
          "internalType": "string",
          "name": "",
          "type": "string"
        }
      ],
      "name": "ChainlinkContracts",
      "outputs": [
        {
          "internalType": "address",
          "name": "",
          "type": "address"
        }
      ],
      "stateMutability": "view",
      "type": "function"
    },
    {
      "inputs": [
        {
          "internalType": "address",
          "name": "",
          "type": "address"
        },
        {
          "internalType": "address",
          "name": "",
          "type": "address"
        }
      ],
      "name": "ERC20Deposit",
      "outputs": [
        {
          "internalType": "uint256",
          "name": "",
          "type": "uint256"
        }
      ],
      "stateMutability": "view",
      "type": "function"
    },
    {
      "inputs": [
        {
          "internalType": "address",
          "name": "",
          "type": "address"
        }
      ],
      "name": "ETHDeposit",
      "outputs": [
        {
          "internalType": "uint256",
          "name": "",
          "type": "uint256"
        }
      ],
      "stateMutability": "view",
      "type": "function"
    },
    {
      "inputs": [
        {
          "internalType": "uint256",
          "name": "",
          "type": "uint256"
        }
      ],
      "name": "Sacrifice",
      "outputs": [
        {
          "internalType": "uint256",
          "name": "id",
          "type": "uint256"
        },
        {
          "internalType": "string",
          "name": "txHash",
          "type": "string"
        },
        {
          "internalType": "string",
          "name": "tokenSymbol",
          "type": "string"
        },
        {
          "internalType": "address",
          "name": "accountAddress",
          "type": "address"
        },
        {
          "internalType": "uint256",
          "name": "tokenAmount",
          "type": "uint256"
        },
        {
          "internalType": "uint256",
          "name": "tokenPriceUSD",
          "type": "uint256"
        },
        {
          "internalType": "uint256",
          "name": "timestamp",
          "type": "uint256"
        },
        {
          "internalType": "uint256",
          "name": "bonus",
          "type": "uint256"
        },
        {
          "internalType": "uint256",
          "name": "btcIndex",
          "type": "uint256"
        },
        {
          "internalType": "string",
          "name": "status",
          "type": "string"
        }
      ],
      "stateMutability": "view",
      "type": "function"
    },
    {
      "inputs": [
        {
          "internalType": "uint256",
          "name": "",
          "type": "uint256"
        }
      ],
      "name": "SacrificeStatus",
      "outputs": [
        {
          "internalType": "string",
          "name": "",
          "type": "string"
        }
      ],
      "stateMutability": "view",
      "type": "function"
    },
    {
      "inputs": [
        {
          "internalType": "string",
          "name": "",
          "type": "string"
        }
      ],
      "name": "TokenDecimals",
      "outputs": [
        {
          "internalType": "uint256",
          "name": "",
          "type": "uint256"
        }
      ],
      "stateMutability": "view",
      "type": "function"
    },
    {
      "inputs": [],
      "name": "activateBonus",
      "outputs": [],
      "stateMutability": "nonpayable",
      "type": "function"
    },
    {
      "inputs": [],
      "name": "bonusStart",
      "outputs": [
        {
          "internalType": "uint256",
          "name": "",
          "type": "uint256"
        }
      ],
      "stateMutability": "view",
      "type": "function"
    },
    {
      "inputs": [
        {
          "internalType": "string",
          "name": "_symbol",
          "type": "string"
        },
        {
          "internalType": "uint256",
          "name": "_amount",
          "type": "uint256"
        }
      ],
      "name": "depositERC20",
      "outputs": [],
      "stateMutability": "nonpayable",
      "type": "function"
    },
    {
      "inputs": [],
      "name": "depositETH",
      "outputs": [],
      "stateMutability": "payable",
      "type": "function"
    },
    {
      "inputs": [
        {
          "internalType": "address",
          "name": "_account",
          "type": "address"
        },
        {
          "internalType": "string",
          "name": "_symbol",
          "type": "string"
        }
      ],
      "name": "getAccountDeposits",
      "outputs": [
        {
          "internalType": "uint256[]",
          "name": "",
          "type": "uint256[]"
        }
      ],
      "stateMutability": "view",
      "type": "function"
    },
    {
      "inputs": [],
      "name": "getBonus",
      "outputs": [
        {
          "internalType": "uint256",
          "name": "",
          "type": "uint256"
        }
      ],
      "stateMutability": "view",
      "type": "function"
    },
    {
      "inputs": [],
      "name": "getBonusDay",
      "outputs": [
        {
          "internalType": "uint256",
          "name": "",
          "type": "uint256"
        }
      ],
      "stateMutability": "view",
      "type": "function"
    },
    {
      "inputs": [
        {
          "internalType": "address",
          "name": "contractAddress",
          "type": "address"
        }
      ],
      "name": "getChainLinkPrice",
      "outputs": [
        {
          "internalType": "uint256",
          "name": "",
          "type": "uint256"
        }
      ],
      "stateMutability": "view",
      "type": "function"
    },
    {
      "inputs": [],
      "name": "getCurrentBTCIndex",
      "outputs": [
        {
          "internalType": "uint256",
          "name": "",
          "type": "uint256"
        }
      ],
      "stateMutability": "view",
      "type": "function"
    },
    {
      "inputs": [],
      "name": "getCurrentSacrificeID",
      "outputs": [
        {
          "internalType": "uint256",
          "name": "",
          "type": "uint256"
        }
      ],
      "stateMutability": "view",
      "type": "function"
    },
    {
      "inputs": [
        {
          "internalType": "string",
          "name": "_symbol",
          "type": "string"
        }
      ],
      "name": "getPriceBySymbol",
      "outputs": [
        {
          "internalType": "uint256",
          "name": "",
          "type": "uint256"
        }
      ],
      "stateMutability": "view",
      "type": "function"
    },
    {
      "inputs": [],
      "name": "isBonusActive",
      "outputs": [
        {
          "internalType": "bool",
          "name": "",
          "type": "bool"
        }
      ],
      "stateMutability": "view",
      "type": "function"
    },
    {
      "inputs": [],
      "name": "isSacrificeActive",
      "outputs": [
        {
          "internalType": "bool",
          "name": "",
          "type": "bool"
        }
      ],
      "stateMutability": "view",
      "type": "function"
    },
    {
      "inputs": [],
      "name": "nextBTCIndex",
      "outputs": [
        {
          "internalType": "uint256",
          "name": "_value",
          "type": "uint256"
        }
      ],
      "stateMutability": "view",
      "type": "function"
    },
    {
      "inputs": [],
      "name": "nextSacrificeId",
      "outputs": [
        {
          "internalType": "uint256",
          "name": "_value",
          "type": "uint256"
        }
      ],
      "stateMutability": "view",
      "type": "function"
    },
    {
      "inputs": [],
      "name": "owner",
      "outputs": [
        {
          "internalType": "address",
          "name": "",
          "type": "address"
        }
      ],
      "stateMutability": "view",
      "type": "function"
    },
    {
      "inputs": [
        {
          "internalType": "contract IERC20",
          "name": "tokenContract",
          "type": "address"
        },
        {
          "internalType": "address",
          "name": "to",
          "type": "address"
        }
      ],
      "name": "recoverERC20",
      "outputs": [],
      "stateMutability": "nonpayable",
      "type": "function"
    },
    {
      "inputs": [],
      "name": "recoverETH",
      "outputs": [],
      "stateMutability": "nonpayable",
      "type": "function"
    },
    {
      "inputs": [],
      "name": "renounceOwnership",
      "outputs": [],
      "stateMutability": "nonpayable",
      "type": "function"
    },
    {
      "inputs": [],
      "name": "safuuWallet",
      "outputs": [
        {
          "internalType": "address payable",
          "name": "",
          "type": "address"
        }
      ],
      "stateMutability": "view",
      "type": "function"
    },
    {
      "inputs": [],
      "name": "serviceWallet",
      "outputs": [
        {
          "internalType": "address payable",
          "name": "",
          "type": "address"
        }
      ],
      "stateMutability": "view",
      "type": "function"
    },
    {
      "inputs": [
        {
          "internalType": "string",
          "name": "_symbol",
          "type": "string"
        },
        {
          "internalType": "address",
          "name": "_tokenAddress",
          "type": "address"
        }
      ],
      "name": "setAllowedTokens",
      "outputs": [],
      "stateMutability": "nonpayable",
      "type": "function"
    },
    {
      "inputs": [
        {
          "internalType": "uint256",
          "name": "timestamp",
          "type": "uint256"
        }
      ],
      "name": "setBonusStart",
      "outputs": [],
      "stateMutability": "nonpayable",
      "type": "function"
    },
    {
      "inputs": [
        {
          "internalType": "string",
          "name": "_symbol",
          "type": "string"
        },
        {
          "internalType": "address",
          "name": "_tokenAddress",
          "type": "address"
        }
      ],
      "name": "setChainlink",
      "outputs": [],
      "stateMutability": "nonpayable",
      "type": "function"
    },
    {
      "inputs": [
        {
          "internalType": "bool",
          "name": "_isActive",
          "type": "bool"
        }
      ],
      "name": "setSacrificeStatus",
      "outputs": [],
      "stateMutability": "nonpayable",
      "type": "function"
    },
    {
      "inputs": [
        {
          "internalType": "address payable",
          "name": "_safuuWallet",
          "type": "address"
        }
      ],
      "name": "setSafuuWallet",
      "outputs": [],
      "stateMutability": "nonpayable",
      "type": "function"
    },
    {
      "inputs": [
        {
          "internalType": "address payable",
          "name": "_serviceWallet",
          "type": "address"
        }
      ],
      "name": "setServiceWallet",
      "outputs": [],
      "stateMutability": "nonpayable",
      "type": "function"
    },
    {
      "inputs": [
        {
          "internalType": "string",
          "name": "_symbol",
          "type": "string"
        },
        {
          "internalType": "uint256",
          "name": "_decimals",
          "type": "uint256"
        }
      ],
      "name": "setTokenDecimals",
      "outputs": [],
      "stateMutability": "nonpayable",
      "type": "function"
    },
    {
      "inputs": [],
      "name": "totalSacrifice",
      "outputs": [
        {
          "internalType": "uint256",
          "name": "",
          "type": "uint256"
        }
      ],
      "stateMutability": "view",
      "type": "function"
    },
    {
      "inputs": [
        {
          "internalType": "address",
          "name": "newOwner",
          "type": "address"
        }
      ],
      "name": "transferOwnership",
      "outputs": [],
      "stateMutability": "nonpayable",
      "type": "function"
    },
    {
      "inputs": [
        {
          "internalType": "uint256",
          "name": "_day",
          "type": "uint256"
        },
        {
          "internalType": "uint256",
          "name": "_percentage",
          "type": "uint256"
        }
      ],
      "name": "updateBonus",
      "outputs": [],
      "stateMutability": "nonpayable",
      "type": "function"
    },
    {
      "inputs": [
        {
          "internalType": "uint256",
          "name": "sacrificeId",
          "type": "uint256"
        },
        {
          "internalType": "string",
          "name": "_txHash",
          "type": "string"
        },
        {
          "internalType": "uint256",
          "name": "_bonus",
          "type": "uint256"
        },
        {
          "internalType": "uint256",
          "name": "_status",
          "type": "uint256"
        },
        {
          "internalType": "string",
          "name": "_symbol",
          "type": "string"
        },
        {
          "internalType": "address",
          "name": "_account",
          "type": "address"
        },
        {
          "internalType": "uint256",
          "name": "_amount",
          "type": "uint256"
        },
        {
          "internalType": "uint256",
          "name": "_priceUSD",
          "type": "uint256"
        },
        {
          "internalType": "uint256",
          "name": "_timestamp",
          "type": "uint256"
        }
      ],
      "name": "updateSacrificeData",
      "outputs": [],
      "stateMutability": "nonpayable",
      "type": "function"
    }
  ],
  "bytecode": "0x60806040523480156200001157600080fd5b506040516200507738038062005077833981810160405281019062000037919062000d45565b620000576200004b620000f860201b60201c565b6200010060201b60201c565b6001808190555081600460006101000a81548173ffffffffffffffffffffffffffffffffffffffff021916908373ffffffffffffffffffffffffffffffffffffffff16021790555080600560006101000a81548173ffffffffffffffffffffffffffffffffffffffff021916908373ffffffffffffffffffffffffffffffffffffffff160217905550620000f0620001c460201b60201c565b50506200128f565b600033905090565b60008060009054906101000a900473ffffffffffffffffffffffffffffffffffffffff169050816000806101000a81548173ffffffffffffffffffffffffffffffffffffffff021916908373ffffffffffffffffffffffffffffffffffffffff1602179055508173ffffffffffffffffffffffffffffffffffffffff168173ffffffffffffffffffffffffffffffffffffffff167f8be0079c531659141344cd1fd0a4f28419497f9722a3daafe3b4186f6b6457e060405160405180910390a35050565b6001600560146101000a81548160ff0219169083151502179055506000600560156101000a81548160ff0219169083151502179055506200020a6200071d60201b60201c565b6040518060400160405280600781526020017f70656e64696e67000000000000000000000000000000000000000000000000008152506010600060018152602001908152602001600020908162000262919062001006565b506040518060400160405280600981526020017f636f6d706c65746564000000000000000000000000000000000000000000000081525060106000600281526020019081526020016000209081620002bb919062001006565b506040518060400160405280600981526020017f63616e63656c6c656400000000000000000000000000000000000000000000008152506010600060038152602001908152602001600020908162000314919062001006565b50620003706040518060400160405280600481526020017f425553440000000000000000000000000000000000000000000000000000000081525073a8052394650628b50d3a6a059ed13324401af0b062000b0260201b60201c565b620003cb6040518060400160405280600481526020017f55534443000000000000000000000000000000000000000000000000000000008152507392cdf7ae7105ccb0827565482ecbdb7338fc7d2d62000b0260201b60201c565b620004266040518060400160405280600381526020017f425443000000000000000000000000000000000000000000000000000000000081525073eaf4b7edb253fe2d43c756be81dec4c27330120062000b0260201b60201c565b620004816040518060400160405280600381526020017f455448000000000000000000000000000000000000000000000000000000000081525073d4a33860578de61dbabdc8bfdb98fd742fa7028e62000b7560201b60201c565b620004dc6040518060400160405280600381526020017f425443000000000000000000000000000000000000000000000000000000000081525073a39434a63a52e749f02807ae27335515ba4b07f762000b7560201b60201c565b620005376040518060400160405280600481526020017f425553440000000000000000000000000000000000000000000000000000000081525073ab5c49580294aff77670f839ea425f5b78ab3ae762000b7560201b60201c565b620005926040518060400160405280600481526020017f555344430000000000000000000000000000000000000000000000000000000081525073ab5c49580294aff77670f839ea425f5b78ab3ae762000b7560201b60201c565b620005ed6040518060400160405280600481526020017f555344540000000000000000000000000000000000000000000000000000000081525073ab5c49580294aff77670f839ea425f5b78ab3ae762000b7560201b60201c565b6200063c6040518060400160405280600481526020017f4255534400000000000000000000000000000000000000000000000000000000815250670de0b6b3a764000062000be860201b60201c565b620006866040518060400160405280600481526020017f5553444300000000000000000000000000000000000000000000000000000000815250620f424062000be860201b60201c565b620006d06040518060400160405280600481526020017f5553445400000000000000000000000000000000000000000000000000000000815250620f424062000be860201b60201c565b6200071b6040518060400160405280600381526020017f42544300000000000000000000000000000000000000000000000000000000008152506305f5e10062000be860201b60201c565b565b6200072d62000c2160201b60201c565b60001515600560159054906101000a900460ff1615151462000786576040517f08c379a00000000000000000000000000000000000000000000000000000000081526004016200077d9062001174565b60405180910390fd5b6001600560156101000a81548160ff021916908315150217905550636351363b600681905550611388601160006001815260200190815260200160002081905550611194601160006002815260200190815260200160002081905550610fa0601160006003815260200190815260200160002081905550610dac601160006004815260200190815260200160002081905550610bb86011600060058152602001908152602001600020819055506109c46011600060068152602001908152602001600020819055506107d06011600060078152602001908152602001600020819055506105dc60116000600881526020019081526020016000208190555061057860116000600981526020019081526020016000208190555061051460116000600a8152602001908152602001600020819055506104b060116000600b81526020019081526020016000208190555061044c60116000600c8152602001908152602001600020819055506103e860116000600d81526020019081526020016000208190555061038460116000600e81526020019081526020016000208190555061032060116000600f8152602001908152602001600020819055506102bc6011600060108152602001908152602001600020819055506102586011600060118152602001908152602001600020819055506101f460116000601281526020019081526020016000208190555061019060116000601381526020019081526020016000208190555061012c60116000601481526020019081526020016000208190555060c86011600060158152602001908152602001600020819055506064601160006016815260200190815260200160002081905550605a60116000601781526020019081526020016000208190555060506011600060188152602001908152602001600020819055506046601160006019815260200190815260200160002081905550603c60116000601a815260200190815260200160002081905550603260116000601b815260200190815260200160002081905550602860116000601c815260200190815260200160002081905550601e60116000601d815260200190815260200160002081905550601460116000601e815260200190815260200160002081905550600a60116000601f8152602001908152602001600020819055506000601160006020815260200190815260200160002081905550565b62000b1262000c2160201b60201c565b80600d8360405162000b25919062001204565b908152602001604051809103902060006101000a81548173ffffffffffffffffffffffffffffffffffffffff021916908373ffffffffffffffffffffffffffffffffffffffff1602179055505050565b62000b8562000c2160201b60201c565b80600f8360405162000b98919062001204565b908152602001604051809103902060006101000a81548173ffffffffffffffffffffffffffffffffffffffff021916908373ffffffffffffffffffffffffffffffffffffffff1602179055505050565b62000bf862000c2160201b60201c565b80600e8360405162000c0b919062001204565b9081526020016040518091039020819055505050565b62000c31620000f860201b60201c565b73ffffffffffffffffffffffffffffffffffffffff1662000c5762000cb260201b60201c565b73ffffffffffffffffffffffffffffffffffffffff161462000cb0576040517f08c379a000000000000000000000000000000000000000000000000000000000815260040162000ca7906200126d565b60405180910390fd5b565b60008060009054906101000a900473ffffffffffffffffffffffffffffffffffffffff16905090565b600080fd5b600073ffffffffffffffffffffffffffffffffffffffff82169050919050565b600062000d0d8262000ce0565b9050919050565b62000d1f8162000d00565b811462000d2b57600080fd5b50565b60008151905062000d3f8162000d14565b92915050565b6000806040838503121562000d5f5762000d5e62000cdb565b5b600062000d6f8582860162000d2e565b925050602062000d828582860162000d2e565b9150509250929050565b600081519050919050565b7f4e487b7100000000000000000000000000000000000000000000000000000000600052604160045260246000fd5b7f4e487b7100000000000000000000000000000000000000000000000000000000600052602260045260246000fd5b6000600282049050600182168062000e0e57607f821691505b60208210810362000e245762000e2362000dc6565b5b50919050565b60008190508160005260206000209050919050565b60006020601f8301049050919050565b600082821b905092915050565b60006008830262000e8e7fffffffffffffffffffffffffffffffffffffffffffffffffffffffffffffffff8262000e4f565b62000e9a868362000e4f565b95508019841693508086168417925050509392505050565b6000819050919050565b6000819050919050565b600062000ee762000ee162000edb8462000eb2565b62000ebc565b62000eb2565b9050919050565b6000819050919050565b62000f038362000ec6565b62000f1b62000f128262000eee565b84845462000e5c565b825550505050565b600090565b62000f3262000f23565b62000f3f81848462000ef8565b505050565b5b8181101562000f675762000f5b60008262000f28565b60018101905062000f45565b5050565b601f82111562000fb65762000f808162000e2a565b62000f8b8462000e3f565b8101602085101562000f9b578190505b62000fb362000faa8562000e3f565b83018262000f44565b50505b505050565b600082821c905092915050565b600062000fdb6000198460080262000fbb565b1980831691505092915050565b600062000ff6838362000fc8565b9150826002028217905092915050565b620010118262000d8c565b67ffffffffffffffff8111156200102d576200102c62000d97565b5b62001039825462000df5565b6200104682828562000f6b565b600060209050601f8311600181146200107e576000841562001069578287015190505b62001075858262000fe8565b865550620010e5565b601f1984166200108e8662000e2a565b60005b82811015620010b85784890151825560018201915060208501945060208101905062001091565b86831015620010d85784890151620010d4601f89168262000fc8565b8355505b6001600288020188555050505b505050505050565b600082825260208201905092915050565b7f6163746976617465426f6e75733a20426f6e757320616c72656164792061637460008201527f6976617465640000000000000000000000000000000000000000000000000000602082015250565b60006200115c602683620010ed565b91506200116982620010fe565b604082019050919050565b600060208201905081810360008301526200118f816200114d565b9050919050565b600081905092915050565b60005b83811015620011c1578082015181840152602081019050620011a4565b60008484015250505050565b6000620011da8262000d8c565b620011e6818562001196565b9350620011f8818560208601620011a1565b80840191505092915050565b6000620012128284620011cd565b915081905092915050565b7f4f776e61626c653a2063616c6c6572206973206e6f7420746865206f776e6572600082015250565b600062001255602083620010ed565b915062001262826200121d565b602082019050919050565b60006020820190508181036000830152620012888162001246565b9050919050565b613dd8806200129f6000396000f3fe6080604052600436106102465760003560e01c8063886f039a11610139578063d21859bc116100b6578063e8bb2a9f1161007a578063e8bb2a9f14610885578063ed6a432b146108c2578063f2fde38b146108ed578063f6326fb314610916578063f86f359314610920578063ff28ca601461095d57610246565b8063d21859bc146107a2578063d2cba7e5146107cb578063d8e9d96a146107f4578063db44865b14610831578063e14964881461085c57610246565b8063bcdd1b4d116100fd578063bcdd1b4d14610699578063c355eb2d146106d6578063c5a7833e146106ff578063cb49ad3e14610728578063cb8f351e1461076557610246565b8063886f039a146105b25780638bdff161146105db5780638da5cb5b14610606578063a289c13b14610631578063a29e0ef41461066e57610246565b80633903550a116101c75780635641f3c31161018b5780635641f3c3146104d65780636261c66214610501578063715018a61461052c5780637598e2fd1461054357806378a6999b1461058957610246565b80633903550a146103cb5780633ae1ad38146104085780633f064ee814610433578063482cdaac146104705780634fa8de95146104ad57610246565b80631f6f79641161020e5780631f6f79641461030e57806321a8e00b1461033757806323bffccc146103605780632462c37e146103895780633578a508146103b457610246565b80630614117a1461024b5780630cb4bedd1461026257806313e329ba1461028d57806319d38918146102b85780631a403f19146102e3575b600080fd5b34801561025757600080fd5b5061026061099a565b005b34801561026e57600080fd5b506102776109e2565b6040516102849190612722565b60405180910390f35b34801561029957600080fd5b506102a26109f5565b6040516102af919061277e565b60405180910390f35b3480156102c457600080fd5b506102cd610a1b565b6040516102da91906127b2565b60405180910390f35b3480156102ef57600080fd5b506102f8610a27565b60405161030591906127b2565b60405180910390f35b34801561031a57600080fd5b5061033560048036038101906103309190612965565b610a2d565b005b34801561034357600080fd5b5061035e600480360381019061035991906129ed565b610a96565b005b34801561036c57600080fd5b5061038760048036038101906103829190612a59565b610aba565b005b34801561039557600080fd5b5061039e610b06565b6040516103ab9190612722565b60405180910390f35b3480156103c057600080fd5b506103c9610b19565b005b3480156103d757600080fd5b506103f260048036038101906103ed9190612a86565b610ef3565b6040516103ff91906127b2565b60405180910390f35b34801561041457600080fd5b5061041d610f0b565b60405161042a91906127b2565b60405180910390f35b34801561043f57600080fd5b5061045a60048036038101906104559190612a86565b610f17565b60405161046791906127b2565b60405180910390f35b34801561047c57600080fd5b5061049760048036038101906104929190612ab3565b610f2f565b6040516104a491906127b2565b60405180910390f35b3480156104b957600080fd5b506104d460048036038101906104cf9190612965565b610f54565b005b3480156104e257600080fd5b506104eb610fbd565b6040516104f8919061277e565b60405180910390f35b34801561050d57600080fd5b50610516610fe3565b60405161052391906127b2565b60405180910390f35b34801561053857600080fd5b50610541610fe9565b005b34801561054f57600080fd5b5061056a60048036038101906105659190612af3565b610ffd565b6040516105809a99989796959493929190612bae565b60405180910390f35b34801561059557600080fd5b506105b060048036038101906105ab9190612af3565b611209565b005b3480156105be57600080fd5b506105d960048036038101906105d49190612c9d565b61121b565b005b3480156105e757600080fd5b506105f061131f565b6040516105fd91906127b2565b60405180910390f35b34801561061257600080fd5b5061061b61136c565b6040516106289190612cdd565b60405180910390f35b34801561063d57600080fd5b5061065860048036038101906106539190612cf8565b611395565b6040516106659190612e12565b60405180910390f35b34801561067a57600080fd5b50610683611449565b60405161069091906127b2565b60405180910390f35b3480156106a557600080fd5b506106c060048036038101906106bb9190612af3565b61145a565b6040516106cd91906127b2565b60405180910390f35b3480156106e257600080fd5b506106fd60048036038101906106f89190612e60565b611472565b005b34801561070b57600080fd5b5061072660048036038101906107219190612a59565b611497565b005b34801561073457600080fd5b5061074f600480360381019061074a9190612e8d565b6114e3565b60405161075c9190612cdd565b60405180910390f35b34801561077157600080fd5b5061078c60048036038101906107879190612e8d565b61152c565b60405161079991906127b2565b60405180910390f35b3480156107ae57600080fd5b506107c960048036038101906107c49190612ed6565b61155a565b005b3480156107d757600080fd5b506107f260048036038101906107ed9190612ed6565b611bc6565b005b34801561080057600080fd5b5061081b60048036038101906108169190612af3565b611bf5565b6040516108289190612f32565b60405180910390f35b34801561083d57600080fd5b50610846611c95565b60405161085391906127b2565b60405180910390f35b34801561086857600080fd5b50610883600480360381019061087e9190612f54565b611ca6565b005b34801561089157600080fd5b506108ac60048036038101906108a79190612e8d565b611d93565b6040516108b99190612cdd565b60405180910390f35b3480156108ce57600080fd5b506108d7611ddc565b6040516108e491906127b2565b60405180910390f35b3480156108f957600080fd5b50610914600480360381019061090f9190612a86565b611e10565b005b61091e611e93565b005b34801561092c57600080fd5b5061094760048036038101906109429190612e8d565b612345565b60405161095491906127b2565b60405180910390f35b34801561096957600080fd5b50610984600480360381019061097f9190612a86565b612441565b60405161099191906127b2565b60405180910390f35b6109a26124c8565b3373ffffffffffffffffffffffffffffffffffffffff166108fc479081150290604051600060405180830381858888f193505050506109e057600080fd5b565b600560149054906101000a900460ff1681565b600460009054906101000a900473ffffffffffffffffffffffffffffffffffffffff1681565b60028060000154905081565b60075481565b610a356124c8565b80600f83604051610a469190613092565b908152602001604051809103902060006101000a81548173ffffffffffffffffffffffffffffffffffffffff021916908373ffffffffffffffffffffffffffffffffffffffff1602179055505050565b610a9e6124c8565b8060116000848152602001908152602001600020819055505050565b610ac26124c8565b80600560006101000a81548173ffffffffffffffffffffffffffffffffffffffff021916908373ffffffffffffffffffffffffffffffffffffffff16021790555050565b600560159054906101000a900460ff1681565b610b216124c8565b60001515600560159054906101000a900460ff16151514610b77576040517f08c379a0000000000000000000000000000000000000000000000000000000008152600401610b6e9061311b565b60405180910390fd5b6001600560156101000a81548160ff021916908315150217905550636351363b600681905550611388601160006001815260200190815260200160002081905550611194601160006002815260200190815260200160002081905550610fa0601160006003815260200190815260200160002081905550610dac601160006004815260200190815260200160002081905550610bb86011600060058152602001908152602001600020819055506109c46011600060068152602001908152602001600020819055506107d06011600060078152602001908152602001600020819055506105dc60116000600881526020019081526020016000208190555061057860116000600981526020019081526020016000208190555061051460116000600a8152602001908152602001600020819055506104b060116000600b81526020019081526020016000208190555061044c60116000600c8152602001908152602001600020819055506103e860116000600d81526020019081526020016000208190555061038460116000600e81526020019081526020016000208190555061032060116000600f8152602001908152602001600020819055506102bc6011600060108152602001908152602001600020819055506102586011600060118152602001908152602001600020819055506101f460116000601281526020019081526020016000208190555061019060116000601381526020019081526020016000208190555061012c60116000601481526020019081526020016000208190555060c86011600060158152602001908152602001600020819055506064601160006016815260200190815260200160002081905550605a60116000601781526020019081526020016000208190555060506011600060188152602001908152602001600020819055506046601160006019815260200190815260200160002081905550603c60116000601a815260200190815260200160002081905550603260116000601b815260200190815260200160002081905550602860116000601c815260200190815260200160002081905550601e60116000601d815260200190815260200160002081905550601460116000601e815260200190815260200160002081905550600a60116000601f8152602001908152602001600020819055506000601160006020815260200190815260200160002081905550565b600a6020528060005260406000206000915090505481565b60038060000154905081565b60096020528060005260406000206000915090505481565b600b602052816000526040600020602052806000526040600020600091509150505481565b610f5c6124c8565b80600d83604051610f6d9190613092565b908152602001604051809103902060006101000a81548173ffffffffffffffffffffffffffffffffffffffff021916908373ffffffffffffffffffffffffffffffffffffffff1602179055505050565b600560009054906101000a900473ffffffffffffffffffffffffffffffffffffffff1681565b60065481565b610ff16124c8565b610ffb6000612546565b565b60086020528060005260406000206000915090508060000154908060010180546110269061316a565b80601f01602080910402602001604051908101604052809291908181526020018280546110529061316a565b801561109f5780601f106110745761010080835404028352916020019161109f565b820191906000526020600020905b81548152906001019060200180831161108257829003601f168201915b5050505050908060020180546110b49061316a565b80601f01602080910402602001604051908101604052809291908181526020018280546110e09061316a565b801561112d5780601f106111025761010080835404028352916020019161112d565b820191906000526020600020905b81548152906001019060200180831161111057829003601f168201915b5050505050908060030160009054906101000a900473ffffffffffffffffffffffffffffffffffffffff16908060040154908060050154908060060154908060070154908060080154908060090180546111869061316a565b80601f01602080910402602001604051908101604052809291908181526020018280546111b29061316a565b80156111ff5780601f106111d4576101008083540402835291602001916111ff565b820191906000526020600020905b8154815290600101906020018083116111e257829003601f168201915b505050505090508a565b6112116124c8565b8060068190555050565b6112236124c8565b8173ffffffffffffffffffffffffffffffffffffffff1663a9059cbb828473ffffffffffffffffffffffffffffffffffffffff166370a08231306040518263ffffffff1660e01b81526004016112799190612cdd565b602060405180830381865afa158015611296573d6000803e3d6000fd5b505050506040513d601f19601f820116820180604052508101906112ba91906131b0565b6040518363ffffffff1660e01b81526004016112d79291906131dd565b6020604051808303816000875af11580156112f6573d6000803e3d6000fd5b505050506040513d601f19601f8201168201806040525081019061131a919061321b565b505050565b600080600162015180600654426113369190613277565b61134091906132da565b61134a919061330b565b9050600060116000838152602001908152602001600020549050809250505090565b60008060009054906101000a900473ffffffffffffffffffffffffffffffffffffffff16905090565b6060600c60008473ffffffffffffffffffffffffffffffffffffffff1673ffffffffffffffffffffffffffffffffffffffff168152602001908152602001600020826040516113e49190613092565b908152602001604051809103902080548060200260200160405190810160405280929190818152602001828054801561143c57602002820191906000526020600020905b815481526020019060010190808311611428575b5050505050905092915050565b6000611455600361260a565b905090565b60116020528060005260406000206000915090505481565b61147a6124c8565b80600560146101000a81548160ff02191690831515021790555050565b61149f6124c8565b80600460006101000a81548173ffffffffffffffffffffffffffffffffffffffff021916908373ffffffffffffffffffffffffffffffffffffffff16021790555050565b600f818051602081018201805184825260208301602085012081835280955050505050506000915054906101000a900473ffffffffffffffffffffffffffffffffffffffff1681565b600e818051602081018201805184825260208301602085012081835280955050505050506000915090505481565b60026001540361159f576040517f08c379a00000000000000000000000000000000000000000000000000000000081526004016115969061338b565b60405180910390fd5b600260018190555060011515600560149054906101000a900460ff161515146115fd576040517f08c379a00000000000000000000000000000000000000000000000000000000081526004016115f49061341d565b60405180910390fd5b600073ffffffffffffffffffffffffffffffffffffffff16600d836040516116259190613092565b908152602001604051809103902060009054906101000a900473ffffffffffffffffffffffffffffffffffffffff1673ffffffffffffffffffffffffffffffffffffffff16036116aa576040517f08c379a00000000000000000000000000000000000000000000000000000000081526004016116a1906134af565b60405180910390fd5b600081116116ed576040517f08c379a00000000000000000000000000000000000000000000000000000000081526004016116e490613541565b60405180910390fd5b6116f76002612618565b6000600e836040516117099190613092565b908152602001604051809103902054826117239190613561565b9050600061176e600f8560405161173a9190613092565b908152602001604051809103902060009054906101000a900473ffffffffffffffffffffffffffffffffffffffff16612441565b90506000600d856040516117829190613092565b908152602001604051809103902060009054906101000a900473ffffffffffffffffffffffffffffffffffffffff16905082600b60003373ffffffffffffffffffffffffffffffffffffffff1673ffffffffffffffffffffffffffffffffffffffff16815260200190815260200160002060008373ffffffffffffffffffffffffffffffffffffffff1673ffffffffffffffffffffffffffffffffffffffff168152602001908152602001600020600082825461183f919061330b565b92505081905550600c60003373ffffffffffffffffffffffffffffffffffffffff1673ffffffffffffffffffffffffffffffffffffffff168152602001908152602001600020856040516118939190613092565b90815260200160405180910390206118ab600261260a565b90806001815401808255809150506001900390600052602060002001600090919091909150556000612710836118e191906132da565b9050612710856118f19190613561565b816118fc9190613561565b6007600082825461190d919061330b565b925050819055506119c8863386864261192461131f565b6000601060006002815260200190815260200160002080546119459061316a565b80601f01602080910402602001604051908101604052809291908181526020018280546119719061316a565b80156119be5780601f10611993576101008083540402835291602001916119be565b820191906000526020600020905b8154815290600101906020018083116119a157829003601f168201915b505050505061262e565b60006103e86103e6866119db9190613561565b6119e591906132da565b905060006103e86002876119f99190613561565b611a0391906132da565b905060008490508073ffffffffffffffffffffffffffffffffffffffff166323b872dd33600460009054906101000a900473ffffffffffffffffffffffffffffffffffffffff16866040518463ffffffff1660e01b8152600401611a6993929190613602565b6020604051808303816000875af1158015611a88573d6000803e3d6000fd5b505050506040513d601f19601f82011682018060405250810190611aac919061321b565b508073ffffffffffffffffffffffffffffffffffffffff166323b872dd33600560009054906101000a900473ffffffffffffffffffffffffffffffffffffffff16856040518463ffffffff1660e01b8152600401611b0c93929190613602565b6020604051808303816000875af1158015611b2b573d6000803e3d6000fd5b505050506040513d601f19601f82011682018060405250810190611b4f919061321b565b503373ffffffffffffffffffffffffffffffffffffffff1689604051611b759190613092565b60405180910390207f2e1dd9170be11c43e92acd7f40c0bbc51d592864c2b22f70d6b86847eaffbc0a89604051611bac91906127b2565b60405180910390a350505050505050600180819055505050565b611bce6124c8565b80600e83604051611bdf9190613092565b9081526020016040518091039020819055505050565b60106020528060005260406000206000915090508054611c149061316a565b80601f0160208091040260200160405190810160405280929190818152602001828054611c409061316a565b8015611c8d5780601f10611c6257610100808354040283529160200191611c8d565b820191906000526020600020905b815481529060010190602001808311611c7057829003601f168201915b505050505081565b6000611ca1600261260a565b905090565b611cae6124c8565b6000600860008b8152602001908152602001600020905088816001019081611cd691906137db565b5085816002019081611ce891906137db565b50848160030160006101000a81548173ffffffffffffffffffffffffffffffffffffffff021916908373ffffffffffffffffffffffffffffffffffffffff1602179055508381600401819055508281600501819055508181600601819055506011600089815260200190815260200160002054816007018190555060106000888152602001908152602001600020816009019081611d8691906138d8565b5050505050505050505050565b600d818051602081018201805184825260208301602085012081835280955050505050506000915054906101000a900473ffffffffffffffffffffffffffffffffffffffff1681565b60008060016201518060065442611df39190613277565b611dfd91906132da565b611e07919061330b565b90508091505090565b611e186124c8565b600073ffffffffffffffffffffffffffffffffffffffff168173ffffffffffffffffffffffffffffffffffffffff1603611e87576040517f08c379a0000000000000000000000000000000000000000000000000000000008152600401611e7e90613a32565b60405180910390fd5b611e9081612546565b50565b600260015403611ed8576040517f08c379a0000000000000000000000000000000000000000000000000000000008152600401611ecf9061338b565b60405180910390fd5b600260018190555060011515600560149054906101000a900460ff16151514611f36576040517f08c379a0000000000000000000000000000000000000000000000000000000008152600401611f2d90613a9e565b60405180910390fd5b60003411611f79576040517f08c379a0000000000000000000000000000000000000000000000000000000008152600401611f7090613b30565b60405180910390fd5b611f836002612618565b6000611fca600f604051611f9690613b9c565b908152602001604051809103902060009054906101000a900473ffffffffffffffffffffffffffffffffffffffff16612441565b905034600a60003373ffffffffffffffffffffffffffffffffffffffff1673ffffffffffffffffffffffffffffffffffffffff168152602001908152602001600020600082825461201b919061330b565b92505081905550600c60003373ffffffffffffffffffffffffffffffffffffffff1673ffffffffffffffffffffffffffffffffffffffff16815260200190815260200160002060405161206d90613b9c565b9081526020016040518091039020612085600261260a565b90806001815401808255809150506001900390600052602060002001600090919091909150556000612710826120bb91906132da565b9050655af3107a4000346120cf91906132da565b816120da9190613561565b600760008282546120eb919061330b565b925050819055506121db6040518060400160405280600381526020017f45544800000000000000000000000000000000000000000000000000000000008152503334854261213761131f565b6000601060006002815260200190815260200160002080546121589061316a565b80601f01602080910402602001604051908101604052809291908181526020018280546121849061316a565b80156121d15780601f106121a6576101008083540402835291602001916121d1565b820191906000526020600020905b8154815290600101906020018083116121b457829003601f168201915b505050505061262e565b60006103e86103e6346121ee9190613561565b6121f891906132da565b905060006103e860023461220c9190613561565b61221691906132da565b9050600460009054906101000a900473ffffffffffffffffffffffffffffffffffffffff1673ffffffffffffffffffffffffffffffffffffffff166108fc839081150290604051600060405180830381858888f19350505050158015612280573d6000803e3d6000fd5b50600560009054906101000a900473ffffffffffffffffffffffffffffffffffffffff1673ffffffffffffffffffffffffffffffffffffffff166108fc829081150290604051600060405180830381858888f193505050501580156122e9573d6000803e3d6000fd5b503373ffffffffffffffffffffffffffffffffffffffff167f6c703791f399558807424f489ccd811c72b4ff0b74af547264fad7c646776df03460405161233091906127b2565b60405180910390a25050505060018081905550565b60008073ffffffffffffffffffffffffffffffffffffffff16600f8360405161236e9190613092565b908152602001604051809103902060009054906101000a900473ffffffffffffffffffffffffffffffffffffffff1673ffffffffffffffffffffffffffffffffffffffff16036123f3576040517f08c379a00000000000000000000000000000000000000000000000000000000081526004016123ea90613c23565b60405180910390fd5b61243a600f836040516124069190613092565b908152602001604051809103902060009054906101000a900473ffffffffffffffffffffffffffffffffffffffff16612441565b9050919050565b60008082905060008173ffffffffffffffffffffffffffffffffffffffff1663feaf968c6040518163ffffffff1660e01b815260040160a060405180830381865afa158015612494573d6000803e3d6000fd5b505050506040513d601f19601f820116820180604052508101906124b89190613cbb565b5050509150508092505050919050565b6124d06126ff565b73ffffffffffffffffffffffffffffffffffffffff166124ee61136c565b73ffffffffffffffffffffffffffffffffffffffff1614612544576040517f08c379a000000000000000000000000000000000000000000000000000000000815260040161253b90613d82565b60405180910390fd5b565b60008060009054906101000a900473ffffffffffffffffffffffffffffffffffffffff169050816000806101000a81548173ffffffffffffffffffffffffffffffffffffffff021916908373ffffffffffffffffffffffffffffffffffffffff1602179055508173ffffffffffffffffffffffffffffffffffffffff168173ffffffffffffffffffffffffffffffffffffffff167f8be0079c531659141344cd1fd0a4f28419497f9722a3daafe3b4186f6b6457e060405160405180910390a35050565b600081600001549050919050565b6001816000016000828254019250508190555050565b60006008600061263e600261260a565b81526020019081526020016000209050612658600261260a565b81600001819055508881600201908161267191906137db565b50878160030160006101000a81548173ffffffffffffffffffffffffffffffffffffffff021916908373ffffffffffffffffffffffffffffffffffffffff160217905550868160040181905550858160050181905550848160060181905550838160070181905550828160080181905550818160090190816126f391906137db565b50505050505050505050565b600033905090565b60008115159050919050565b61271c81612707565b82525050565b60006020820190506127376000830184612713565b92915050565b600073ffffffffffffffffffffffffffffffffffffffff82169050919050565b60006127688261273d565b9050919050565b6127788161275d565b82525050565b6000602082019050612793600083018461276f565b92915050565b6000819050919050565b6127ac81612799565b82525050565b60006020820190506127c760008301846127a3565b92915050565b6000604051905090565b600080fd5b600080fd5b600080fd5b600080fd5b6000601f19601f8301169050919050565b7f4e487b7100000000000000000000000000000000000000000000000000000000600052604160045260246000fd5b612834826127eb565b810181811067ffffffffffffffff82111715612853576128526127fc565b5b80604052505050565b60006128666127cd565b9050612872828261282b565b919050565b600067ffffffffffffffff821115612892576128916127fc565b5b61289b826127eb565b9050602081019050919050565b82818337600083830152505050565b60006128ca6128c584612877565b61285c565b9050828152602081018484840111156128e6576128e56127e6565b5b6128f18482856128a8565b509392505050565b600082601f83011261290e5761290d6127e1565b5b813561291e8482602086016128b7565b91505092915050565b60006129328261273d565b9050919050565b61294281612927565b811461294d57600080fd5b50565b60008135905061295f81612939565b92915050565b6000806040838503121561297c5761297b6127d7565b5b600083013567ffffffffffffffff81111561299a576129996127dc565b5b6129a6858286016128f9565b92505060206129b785828601612950565b9150509250929050565b6129ca81612799565b81146129d557600080fd5b50565b6000813590506129e7816129c1565b92915050565b60008060408385031215612a0457612a036127d7565b5b6000612a12858286016129d8565b9250506020612a23858286016129d8565b9150509250929050565b612a368161275d565b8114612a4157600080fd5b50565b600081359050612a5381612a2d565b92915050565b600060208284031215612a6f57612a6e6127d7565b5b6000612a7d84828501612a44565b91505092915050565b600060208284031215612a9c57612a9b6127d7565b5b6000612aaa84828501612950565b91505092915050565b60008060408385031215612aca57612ac96127d7565b5b6000612ad885828601612950565b9250506020612ae985828601612950565b9150509250929050565b600060208284031215612b0957612b086127d7565b5b6000612b17848285016129d8565b91505092915050565b600081519050919050565b600082825260208201905092915050565b60005b83811015612b5a578082015181840152602081019050612b3f565b60008484015250505050565b6000612b7182612b20565b612b7b8185612b2b565b9350612b8b818560208601612b3c565b612b94816127eb565b840191505092915050565b612ba881612927565b82525050565b600061014082019050612bc4600083018d6127a3565b8181036020830152612bd6818c612b66565b90508181036040830152612bea818b612b66565b9050612bf9606083018a612b9f565b612c0660808301896127a3565b612c1360a08301886127a3565b612c2060c08301876127a3565b612c2d60e08301866127a3565b612c3b6101008301856127a3565b818103610120830152612c4e8184612b66565b90509b9a5050505050505050505050565b6000612c6a82612927565b9050919050565b612c7a81612c5f565b8114612c8557600080fd5b50565b600081359050612c9781612c71565b92915050565b60008060408385031215612cb457612cb36127d7565b5b6000612cc285828601612c88565b9250506020612cd385828601612950565b9150509250929050565b6000602082019050612cf26000830184612b9f565b92915050565b60008060408385031215612d0f57612d0e6127d7565b5b6000612d1d85828601612950565b925050602083013567ffffffffffffffff811115612d3e57612d3d6127dc565b5b612d4a858286016128f9565b9150509250929050565b600081519050919050565b600082825260208201905092915050565b6000819050602082019050919050565b612d8981612799565b82525050565b6000612d9b8383612d80565b60208301905092915050565b6000602082019050919050565b6000612dbf82612d54565b612dc98185612d5f565b9350612dd483612d70565b8060005b83811015612e05578151612dec8882612d8f565b9750612df783612da7565b925050600181019050612dd8565b5085935050505092915050565b60006020820190508181036000830152612e2c8184612db4565b905092915050565b612e3d81612707565b8114612e4857600080fd5b50565b600081359050612e5a81612e34565b92915050565b600060208284031215612e7657612e756127d7565b5b6000612e8484828501612e4b565b91505092915050565b600060208284031215612ea357612ea26127d7565b5b600082013567ffffffffffffffff811115612ec157612ec06127dc565b5b612ecd848285016128f9565b91505092915050565b60008060408385031215612eed57612eec6127d7565b5b600083013567ffffffffffffffff811115612f0b57612f0a6127dc565b5b612f17858286016128f9565b9250506020612f28858286016129d8565b9150509250929050565b60006020820190508181036000830152612f4c8184612b66565b905092915050565b60008060008060008060008060006101208a8c031215612f7757612f766127d7565b5b6000612f858c828d016129d8565b99505060208a013567ffffffffffffffff811115612fa657612fa56127dc565b5b612fb28c828d016128f9565b9850506040612fc38c828d016129d8565b9750506060612fd48c828d016129d8565b96505060808a013567ffffffffffffffff811115612ff557612ff46127dc565b5b6130018c828d016128f9565b95505060a06130128c828d01612950565b94505060c06130238c828d016129d8565b93505060e06130348c828d016129d8565b9250506101006130468c828d016129d8565b9150509295985092959850929598565b600081905092915050565b600061306c82612b20565b6130768185613056565b9350613086818560208601612b3c565b80840191505092915050565b600061309e8284613061565b915081905092915050565b7f6163746976617465426f6e75733a20426f6e757320616c72656164792061637460008201527f6976617465640000000000000000000000000000000000000000000000000000602082015250565b6000613105602683612b2b565b9150613110826130a9565b604082019050919050565b60006020820190508181036000830152613134816130f8565b9050919050565b7f4e487b7100000000000000000000000000000000000000000000000000000000600052602260045260246000fd5b6000600282049050600182168061318257607f821691505b6020821081036131955761319461313b565b5b50919050565b6000815190506131aa816129c1565b92915050565b6000602082840312156131c6576131c56127d7565b5b60006131d48482850161319b565b91505092915050565b60006040820190506131f26000830185612b9f565b6131ff60208301846127a3565b9392505050565b60008151905061321581612e34565b92915050565b600060208284031215613231576132306127d7565b5b600061323f84828501613206565b91505092915050565b7f4e487b7100000000000000000000000000000000000000000000000000000000600052601160045260246000fd5b600061328282612799565b915061328d83612799565b92508282039050818111156132a5576132a4613248565b5b92915050565b7f4e487b7100000000000000000000000000000000000000000000000000000000600052601260045260246000fd5b60006132e582612799565b91506132f083612799565b925082613300576132ff6132ab565b5b828204905092915050565b600061331682612799565b915061332183612799565b925082820190508082111561333957613338613248565b5b92915050565b7f5265656e7472616e637947756172643a207265656e7472616e742063616c6c00600082015250565b6000613375601f83612b2b565b91506133808261333f565b602082019050919050565b600060208201905081810360008301526133a481613368565b9050919050565b7f6465706f73697445524332303a20536163726966696365206e6f74206163746960008201527f7665000000000000000000000000000000000000000000000000000000000000602082015250565b6000613407602283612b2b565b9150613412826133ab565b604082019050919050565b60006020820190508181036000830152613436816133fa565b9050919050565b7f6465706f73697445524332303a2041646472657373206e6f742070617274206f60008201527f6620616c6c6f77656420746f6b656e206c697374000000000000000000000000602082015250565b6000613499603483612b2b565b91506134a48261343d565b604082019050919050565b600060208201905081810360008301526134c88161348c565b9050919050565b7f6465706f73697445524332303a20416d6f756e74206d7573742062652067726560008201527f61746572207468616e205a45524f000000000000000000000000000000000000602082015250565b600061352b602e83612b2b565b9150613536826134cf565b604082019050919050565b6000602082019050818103600083015261355a8161351e565b9050919050565b600061356c82612799565b915061357783612799565b925082820261358581612799565b9150828204841483151761359c5761359b613248565b5b5092915050565b6000819050919050565b60006135c86135c36135be8461273d565b6135a3565b61273d565b9050919050565b60006135da826135ad565b9050919050565b60006135ec826135cf565b9050919050565b6135fc816135e1565b82525050565b60006060820190506136176000830186612b9f565b61362460208301856135f3565b61363160408301846127a3565b949350505050565b60008190508160005260206000209050919050565b60006020601f8301049050919050565b600082821b905092915050565b60006008830261369b7fffffffffffffffffffffffffffffffffffffffffffffffffffffffffffffffff8261365e565b6136a5868361365e565b95508019841693508086168417925050509392505050565b60006136d86136d36136ce84612799565b6135a3565b612799565b9050919050565b6000819050919050565b6136f2836136bd565b6137066136fe826136df565b84845461366b565b825550505050565b600090565b61371b61370e565b6137268184846136e9565b505050565b5b8181101561374a5761373f600082613713565b60018101905061372c565b5050565b601f82111561378f5761376081613639565b6137698461364e565b81016020851015613778578190505b61378c6137848561364e565b83018261372b565b50505b505050565b600082821c905092915050565b60006137b260001984600802613794565b1980831691505092915050565b60006137cb83836137a1565b9150826002028217905092915050565b6137e482612b20565b67ffffffffffffffff8111156137fd576137fc6127fc565b5b613807825461316a565b61381282828561374e565b600060209050601f8311600181146138455760008415613833578287015190505b61383d85826137bf565b8655506138a5565b601f19841661385386613639565b60005b8281101561387b57848901518255600182019150602085019450602081019050613856565b868310156138985784890151613894601f8916826137a1565b8355505b6001600288020188555050505b505050505050565b6000815490506138bc8161316a565b9050919050565b60008190508160005260206000209050919050565b8181036138e65750506139be565b6138ef826138ad565b67ffffffffffffffff811115613908576139076127fc565b5b613912825461316a565b61391d82828561374e565b6000601f83116001811461394c576000841561393a578287015490505b61394485826137bf565b8655506139b7565b601f19841661395a876138c3565b965061396586613639565b60005b8281101561398d57848901548255600182019150600185019450602081019050613968565b868310156139aa57848901546139a6601f8916826137a1565b8355505b6001600288020188555050505b5050505050505b565b7f4f776e61626c653a206e6577206f776e657220697320746865207a65726f206160008201527f6464726573730000000000000000000000000000000000000000000000000000602082015250565b6000613a1c602683612b2b565b9150613a27826139c0565b604082019050919050565b60006020820190508181036000830152613a4b81613a0f565b9050919050565b7f6465706f7369744554483a20536163726966696365206e6f7420616374697665600082015250565b6000613a88602083612b2b565b9150613a9382613a52565b602082019050919050565b60006020820190508181036000830152613ab781613a7b565b9050919050565b7f6465706f7369744554483a20416d6f756e74206d75737420626520677265617460008201527f6572207468616e205a45524f0000000000000000000000000000000000000000602082015250565b6000613b1a602c83612b2b565b9150613b2582613abe565b604082019050919050565b60006020820190508181036000830152613b4981613b0d565b9050919050565b7f4554480000000000000000000000000000000000000000000000000000000000600082015250565b6000613b86600383613056565b9150613b9182613b50565b600382019050919050565b6000613ba782613b79565b9150819050919050565b7f676574436861696e4c696e6b50726963653a2041646472657373206e6f74207060008201527f617274206f6620436861696e6c696e6b20746f6b656e206c6973740000000000602082015250565b6000613c0d603b83612b2b565b9150613c1882613bb1565b604082019050919050565b60006020820190508181036000830152613c3c81613c00565b9050919050565b600069ffffffffffffffffffff82169050919050565b613c6281613c43565b8114613c6d57600080fd5b50565b600081519050613c7f81613c59565b92915050565b6000819050919050565b613c9881613c85565b8114613ca357600080fd5b50565b600081519050613cb581613c8f565b92915050565b600080600080600060a08688031215613cd757613cd66127d7565b5b6000613ce588828901613c70565b9550506020613cf688828901613ca6565b9450506040613d078882890161319b565b9350506060613d188882890161319b565b9250506080613d2988828901613c70565b9150509295509295909350565b7f4f776e61626c653a2063616c6c6572206973206e6f7420746865206f776e6572600082015250565b6000613d6c602083612b2b565b9150613d7782613d36565b602082019050919050565b60006020820190508181036000830152613d9b81613d5f565b905091905056fea2646970667358221220563a36fd04f6ea81581579c1bd1b559581e5ca5cfa045dd972fba5c9e5d3a78364736f6c63430008110033",
  "linkReferences": {},
  "deployedLinkReferences": {}
}