{"contracts/SafuuXSacrificeBTCB.sol":{"SafuuXSacrificeBTCB":{"abi":[{"inputs":[{"internalType":"address","name":"_safuuWallet","type":"address"},{"internalType":"address","name":"_serviceWallet","type":"address"}],"stateMutability":"nonpayable","type":"constructor"},{"anonymous":false,"inputs":[{"indexed":true,"internalType":"string","name":"symbol","type":"string"},{"indexed":true,"internalType":"address","name":"accountAddress","type":"address"},{"indexed":false,"internalType":"uint256","name":"amount","type":"uint256"}],"name":"BTCDeposited","type":"event"},{"anonymous":false,"inputs":[{"indexed":true,"internalType":"address","name":"previousOwner","type":"address"},{"indexed":true,"internalType":"address","name":"newOwner","type":"address"}],"name":"OwnershipTransferred","type":"event"},{"inputs":[{"internalType":"string","name":"","type":"string"}],"name":"AllowedTokens","outputs":[{"internalType":"address","name":"","type":"address"}],"stateMutability":"view","type":"function"},{"inputs":[{"internalType":"address","name":"","type":"address"},{"internalType":"address","name":"","type":"address"}],"name":"BTCDeposit","outputs":[{"internalType":"uint256","name":"","type":"uint256"}],"stateMutability":"view","type":"function"},{"inputs":[{"internalType":"string","name":"","type":"string"}],"name":"ChainlinkContracts","outputs":[{"internalType":"address","name":"","type":"address"}],"stateMutability":"view","type":"function"},{"inputs":[{"internalType":"uint256","name":"","type":"uint256"}],"name":"Sacrifice","outputs":[{"internalType":"uint256","name":"id","type":"uint256"},{"internalType":"string","name":"tokenSymbol","type":"string"},{"internalType":"address","name":"accountAddress","type":"address"},{"internalType":"uint256","name":"tokenAmount","type":"uint256"},{"internalType":"uint256","name":"tokenPriceUSD","type":"uint256"},{"internalType":"uint256","name":"timestamp","type":"uint256"},{"internalType":"string","name":"status","type":"string"}],"stateMutability":"view","type":"function"},{"inputs":[{"internalType":"uint256","name":"","type":"uint256"}],"name":"SacrificeStatus","outputs":[{"internalType":"string","name":"","type":"string"}],"stateMutability":"view","type":"function"},{"inputs":[{"internalType":"string","name":"","type":"string"}],"name":"TokenDecimals","outputs":[{"internalType":"uint256","name":"","type":"uint256"}],"stateMutability":"view","type":"function"},{"inputs":[{"internalType":"string","name":"_symbol","type":"string"},{"internalType":"uint256","name":"_amount","type":"uint256"}],"name":"depositBTC","outputs":[{"internalType":"uint256","name":"","type":"uint256"}],"stateMutability":"nonpayable","type":"function"},{"inputs":[{"internalType":"address","name":"_account","type":"address"},{"internalType":"string","name":"_symbol","type":"string"}],"name":"getAccountDeposits","outputs":[{"internalType":"uint256[]","name":"","type":"uint256[]"}],"stateMutability":"view","type":"function"},{"inputs":[{"internalType":"address","name":"contractAddress","type":"address"}],"name":"getChainLinkPrice","outputs":[{"internalType":"uint256","name":"","type":"uint256"}],"stateMutability":"view","type":"function"},{"inputs":[],"name":"getCurrentSacrificeID","outputs":[{"internalType":"uint256","name":"","type":"uint256"}],"stateMutability":"view","type":"function"},{"inputs":[{"internalType":"string","name":"_symbol","type":"string"}],"name":"getPriceBySymbol","outputs":[{"internalType":"uint256","name":"","type":"uint256"}],"stateMutability":"view","type":"function"},{"inputs":[],"name":"isSacrificeActive","outputs":[{"internalType":"bool","name":"","type":"bool"}],"stateMutability":"view","type":"function"},{"inputs":[],"name":"nextSacrificeId","outputs":[{"internalType":"uint256","name":"_value","type":"uint256"}],"stateMutability":"view","type":"function"},{"inputs":[],"name":"owner","outputs":[{"internalType":"address","name":"","type":"address"}],"stateMutability":"view","type":"function"},{"inputs":[{"internalType":"contract IERC20","name":"tokenContract","type":"address"},{"internalType":"address","name":"to","type":"address"}],"name":"recoverBEP20","outputs":[],"stateMutability":"nonpayable","type":"function"},{"inputs":[],"name":"recoverBNB","outputs":[],"stateMutability":"nonpayable","type":"function"},{"inputs":[],"name":"renounceOwnership","outputs":[],"stateMutability":"nonpayable","type":"function"},{"inputs":[],"name":"safuuWallet","outputs":[{"internalType":"address","name":"","type":"address"}],"stateMutability":"view","type":"function"},{"inputs":[],"name":"serviceWallet","outputs":[{"internalType":"address","name":"","type":"address"}],"stateMutability":"view","type":"function"},{"inputs":[{"internalType":"string","name":"_symbol","type":"string"},{"internalType":"address","name":"_tokenAddress","type":"address"}],"name":"setAllowedTokens","outputs":[],"stateMutability":"nonpayable","type":"function"},{"inputs":[{"internalType":"string","name":"_symbol","type":"string"},{"internalType":"address","name":"_tokenAddress","type":"address"}],"name":"setChainlink","outputs":[],"stateMutability":"nonpayable","type":"function"},{"inputs":[{"internalType":"bool","name":"_isActive","type":"bool"}],"name":"setSacrificeStatus","outputs":[],"stateMutability":"nonpayable","type":"function"},{"inputs":[{"internalType":"address","name":"_safuuWallet","type":"address"}],"name":"setSafuuWallet","outputs":[],"stateMutability":"nonpayable","type":"function"},{"inputs":[{"internalType":"address","name":"_serviceWallet","type":"address"}],"name":"setServiceWallet","outputs":[],"stateMutability":"nonpayable","type":"function"},{"inputs":[{"internalType":"string","name":"_symbol","type":"string"},{"internalType":"uint256","name":"_decimals","type":"uint256"}],"name":"setTokenDecimals","outputs":[],"stateMutability":"nonpayable","type":"function"},{"inputs":[{"internalType":"uint256","name":"_totalSacrificeUSD","type":"uint256"}],"name":"setTotalSacrifice","outputs":[],"stateMutability":"nonpayable","type":"function"},{"inputs":[],"name":"totalSacrifice","outputs":[{"internalType":"uint256","name":"","type":"uint256"}],"stateMutability":"view","type":"function"},{"inputs":[{"internalType":"string","name":"","type":"string"}],"name":"totalSacrificeAmount","outputs":[{"internalType":"uint256","name":"","type":"uint256"}],"stateMutability":"view","type":"function"},{"inputs":[{"internalType":"address","name":"newOwner","type":"address"}],"name":"transferOwnership","outputs":[],"stateMutability":"nonpayable","type":"function"},{"inputs":[{"internalType":"uint256","name":"sacrificeId","type":"uint256"},{"internalType":"uint256","name":"_status","type":"uint256"},{"internalType":"address","name":"_account","type":"address"},{"internalType":"uint256","name":"_amount","type":"uint256"},{"internalType":"uint256","name":"_priceUSD","type":"uint256"},{"internalType":"uint256","name":"_timestamp","type":"uint256"}],"name":"updateSacrificeData","outputs":[],"stateMutability":"nonpayable","type":"function"}],"evm":{"bytecode":{"linkReferences":{},"object":"60806040523480156200001157600080fd5b50604051620036d8380380620036d8833981810160405281019062000037919062000634565b620000576200004b620000f860201b60201c565b6200010060201b60201c565b6001808190555081600360006101000a81548173ffffffffffffffffffffffffffffffffffffffff021916908373ffffffffffffffffffffffffffffffffffffffff16021790555080600460006101000a81548173ffffffffffffffffffffffffffffffffffffffff021916908373ffffffffffffffffffffffffffffffffffffffff160217905550620000f0620001c460201b60201c565b505062000ae6565b600033905090565b60008060009054906101000a900473ffffffffffffffffffffffffffffffffffffffff169050816000806101000a81548173ffffffffffffffffffffffffffffffffffffffff021916908373ffffffffffffffffffffffffffffffffffffffff1602179055508173ffffffffffffffffffffffffffffffffffffffff168173ffffffffffffffffffffffffffffffffffffffff167f8be0079c531659141344cd1fd0a4f28419497f9722a3daafe3b4186f6b6457e060405160405180910390a35050565b6000600460146101000a81548160ff0219169083151502179055506040518060400160405280600781526020017f70656e64696e6700000000000000000000000000000000000000000000000000815250600d6000600181526020019081526020016000209081620002379190620008f5565b506040518060400160405280600981526020017f636f6d706c657465640000000000000000000000000000000000000000000000815250600d6000600281526020019081526020016000209081620002909190620008f5565b506040518060400160405280600981526020017f63616e63656c6c65640000000000000000000000000000000000000000000000815250600d6000600381526020019081526020016000209081620002e99190620008f5565b50620003456040518060400160405280600381526020017f42544300000000000000000000000000000000000000000000000000000000008152507311dae0cd6a361e07cc996f054dc7cc2506affea2620003f160201b60201c565b620003a06040518060400160405280600381526020017f4254430000000000000000000000000000000000000000000000000000000000815250735741306c21795fdcbb9b265ea0255f499dfe515c6200046460201b60201c565b620003ef6040518060400160405280600381526020017f4254430000000000000000000000000000000000000000000000000000000000815250670de0b6b3a7640000620004d760201b60201c565b565b620004016200051060201b60201c565b80600a8360405162000414919062000a4a565b908152602001604051809103902060006101000a81548173ffffffffffffffffffffffffffffffffffffffff021916908373ffffffffffffffffffffffffffffffffffffffff1602179055505050565b620004746200051060201b60201c565b80600c8360405162000487919062000a4a565b908152602001604051809103902060006101000a81548173ffffffffffffffffffffffffffffffffffffffff021916908373ffffffffffffffffffffffffffffffffffffffff1602179055505050565b620004e76200051060201b60201c565b80600b83604051620004fa919062000a4a565b9081526020016040518091039020819055505050565b62000520620000f860201b60201c565b73ffffffffffffffffffffffffffffffffffffffff1662000546620005a160201b60201c565b73ffffffffffffffffffffffffffffffffffffffff16146200059f576040517f08c379a0000000000000000000000000000000000000000000000000000000008152600401620005969062000ac4565b60405180910390fd5b565b60008060009054906101000a900473ffffffffffffffffffffffffffffffffffffffff16905090565b600080fd5b600073ffffffffffffffffffffffffffffffffffffffff82169050919050565b6000620005fc82620005cf565b9050919050565b6200060e81620005ef565b81146200061a57600080fd5b50565b6000815190506200062e8162000603565b92915050565b600080604083850312156200064e576200064d620005ca565b5b60006200065e858286016200061d565b925050602062000671858286016200061d565b9150509250929050565b600081519050919050565b7f4e487b7100000000000000000000000000000000000000000000000000000000600052604160045260246000fd5b7f4e487b7100000000000000000000000000000000000000000000000000000000600052602260045260246000fd5b60006002820490506001821680620006fd57607f821691505b602082108103620007135762000712620006b5565b5b50919050565b60008190508160005260206000209050919050565b60006020601f8301049050919050565b600082821b905092915050565b6000600883026200077d7fffffffffffffffffffffffffffffffffffffffffffffffffffffffffffffffff826200073e565b6200078986836200073e565b95508019841693508086168417925050509392505050565b6000819050919050565b6000819050919050565b6000620007d6620007d0620007ca84620007a1565b620007ab565b620007a1565b9050919050565b6000819050919050565b620007f283620007b5565b6200080a6200080182620007dd565b8484546200074b565b825550505050565b600090565b6200082162000812565b6200082e818484620007e7565b505050565b5b8181101562000856576200084a60008262000817565b60018101905062000834565b5050565b601f821115620008a5576200086f8162000719565b6200087a846200072e565b810160208510156200088a578190505b620008a262000899856200072e565b83018262000833565b50505b505050565b600082821c905092915050565b6000620008ca60001984600802620008aa565b1980831691505092915050565b6000620008e58383620008b7565b9150826002028217905092915050565b62000900826200067b565b67ffffffffffffffff8111156200091c576200091b62000686565b5b620009288254620006e4565b620009358282856200085a565b600060209050601f8311600181146200096d576000841562000958578287015190505b620009648582620008d7565b865550620009d4565b601f1984166200097d8662000719565b60005b82811015620009a75784890151825560018201915060208501945060208101905062000980565b86831015620009c75784890151620009c3601f891682620008b7565b8355505b6001600288020188555050505b505050505050565b600081905092915050565b60005b8381101562000a07578082015181840152602081019050620009ea565b60008484015250505050565b600062000a20826200067b565b62000a2c8185620009dc565b935062000a3e818560208601620009e7565b80840191505092915050565b600062000a58828462000a13565b915081905092915050565b600082825260208201905092915050565b7f4f776e61626c653a2063616c6c6572206973206e6f7420746865206f776e6572600082015250565b600062000aac60208362000a63565b915062000ab98262000a74565b602082019050919050565b6000602082019050818103600083015262000adf8162000a9d565b9050919050565b612be28062000af66000396000f3fe608060405234801561001057600080fd5b50600436106101da5760003560e01c8063a61e590111610104578063cc8c155d116100a2578063e8bb2a9f11610071578063e8bb2a9f14610547578063f2fde38b14610577578063f86f359314610593578063ff28ca60146105c3576101da565b8063cc8c155d146104ad578063d2cba7e5146104dd578063d8e9d96a146104f9578063db44865b14610529576101da565b8063c355eb2d116100de578063c355eb2d14610415578063c5a7833e14610431578063cb49ad3e1461044d578063cb8f351e1461047d576101da565b8063a61e5901146103ad578063b8cb9247146103c9578063bf71521c146103e5576101da565b8063531e0e9c1161017c578063715018a61161014b578063715018a61461031f5780637598e2fd146103295780638da5cb5b1461035f578063a289c13b1461037d576101da565b8063531e0e9c146102ab5780635641f3c3146102db5780636792e38a146102f95780636bfdf8a014610315576101da565b80631a403f19116101b85780631a403f19146102395780631f6f79641461025757806323bffccc146102735780634fa8de951461028f576101da565b80630cb4bedd146101df57806313e329ba146101fd57806319d389181461021b575b600080fd5b6101e76105f3565b6040516101f4919061194a565b60405180910390f35b610205610606565b60405161021291906119a6565b60405180910390f35b61022361062c565b60405161023091906119da565b60405180910390f35b610241610638565b60405161024e91906119da565b60405180910390f35b610271600480360381019061026c9190611b7b565b61063e565b005b61028d60048036038101906102889190611bd7565b6106a7565b005b6102a960048036038101906102a49190611b7b565b6106f3565b005b6102c560048036038101906102c09190611c30565b61075c565b6040516102d291906119da565b60405180910390f35b6102e3610e09565b6040516102f091906119a6565b60405180910390f35b610313600480360381019061030e9190611cca565b610e2f565b005b61031d610f33565b005b610327610f7b565b005b610343600480360381019061033e9190611d0a565b610f8f565b6040516103569796959493929190611db6565b60405180910390f35b610367611101565b60405161037491906119a6565b60405180910390f35b61039760048036038101906103929190611e33565b61112a565b6040516103a49190611f4d565b60405180910390f35b6103c760048036038101906103c29190611d0a565b6111de565b005b6103e360048036038101906103de9190611f6f565b6111f0565b005b6103ff60048036038101906103fa9190611ffc565b61129a565b60405161040c91906119da565b60405180910390f35b61042f600480360381019061042a9190612071565b6112c8565b005b61044b60048036038101906104469190611bd7565b6112ed565b005b61046760048036038101906104629190611ffc565b611339565b60405161047491906119a6565b60405180910390f35b61049760048036038101906104929190611ffc565b611382565b6040516104a491906119da565b60405180910390f35b6104c760048036038101906104c2919061209e565b6113b0565b6040516104d491906119da565b60405180910390f35b6104f760048036038101906104f29190611c30565b6113d5565b005b610513600480360381019061050e9190611d0a565b611404565b60405161052091906120de565b60405180910390f35b6105316114a4565b60405161053e91906119da565b60405180910390f35b610561600480360381019061055c9190611ffc565b6114b5565b60405161056e91906119a6565b60405180910390f35b610591600480360381019061058c9190611bd7565b6114fe565b005b6105ad60048036038101906105a89190611ffc565b611581565b6040516105ba91906119da565b60405180910390f35b6105dd60048036038101906105d89190611bd7565b61167d565b6040516105ea91906119da565b60405180910390f35b600460149054906101000a900460ff1681565b600360009054906101000a900473ffffffffffffffffffffffffffffffffffffffff1681565b60028060000154905081565b60055481565b610646611704565b80600c83604051610657919061213c565b908152602001604051809103902060006101000a81548173ffffffffffffffffffffffffffffffffffffffff021916908373ffffffffffffffffffffffffffffffffffffffff1602179055505050565b6106af611704565b80600460006101000a81548173ffffffffffffffffffffffffffffffffffffffff021916908373ffffffffffffffffffffffffffffffffffffffff16021790555050565b6106fb611704565b80600a8360405161070c919061213c565b908152602001604051809103902060006101000a81548173ffffffffffffffffffffffffffffffffffffffff021916908373ffffffffffffffffffffffffffffffffffffffff1602179055505050565b60006002600154036107a3576040517f08c379a000000000000000000000000000000000000000000000000000000000815260040161079a9061219f565b60405180910390fd5b600260018190555060011515600460149054906101000a900460ff16151514610801576040517f08c379a00000000000000000000000000000000000000000000000000000000081526004016107f89061220b565b60405180910390fd5b600073ffffffffffffffffffffffffffffffffffffffff16600a84604051610829919061213c565b908152602001604051809103902060009054906101000a900473ffffffffffffffffffffffffffffffffffffffff1673ffffffffffffffffffffffffffffffffffffffff16036108ae576040517f08c379a00000000000000000000000000000000000000000000000000000000081526004016108a59061229d565b60405180910390fd5b600082116108f1576040517f08c379a00000000000000000000000000000000000000000000000000000000081526004016108e89061232f565b60405180910390fd5b6108fb6002611782565b6000612710600b85604051610910919061213c565b90815260200160405180910390205461092991906123ad565b90506000818461093991906123de565b90506000610984600c87604051610950919061213c565b908152602001604051809103902060009054906101000a900473ffffffffffffffffffffffffffffffffffffffff1661167d565b90506000600a87604051610998919061213c565b908152602001604051809103902060009054906101000a900473ffffffffffffffffffffffffffffffffffffffff16905082600860003373ffffffffffffffffffffffffffffffffffffffff1673ffffffffffffffffffffffffffffffffffffffff16815260200190815260200160002060008373ffffffffffffffffffffffffffffffffffffffff1673ffffffffffffffffffffffffffffffffffffffff1681526020019081526020016000206000828254610a559190612420565b92505081905550600960003373ffffffffffffffffffffffffffffffffffffffff1673ffffffffffffffffffffffffffffffffffffffff16815260200190815260200160002087604051610aa9919061213c565b9081526020016040518091039020610ac16002611798565b9080600181540180825580915050600190039060005260206000200160009091909190915055600061271083610af791906123ad565b90508681610b0591906123de565b60056000828254610b169190612420565b9250508190555086600789604051610b2e919061213c565b90815260200160405180910390206000828254610b4b9190612420565b92505081905550610bfc8833868642600d6000600281526020019081526020016000208054610b7990612483565b80601f0160208091040260200160405190810160405280929190818152602001828054610ba590612483565b8015610bf25780601f10610bc757610100808354040283529160200191610bf2565b820191906000526020600020905b815481529060010190602001808311610bd557829003601f168201915b50505050506117a6565b60006103e86103e686610c0f91906123de565b610c1991906123ad565b905060006103e8600287610c2d91906123de565b610c3791906123ad565b905060008490508073ffffffffffffffffffffffffffffffffffffffff166323b872dd33600360009054906101000a900473ffffffffffffffffffffffffffffffffffffffff16866040518463ffffffff1660e01b8152600401610c9d939291906124b4565b6020604051808303816000875af1158015610cbc573d6000803e3d6000fd5b505050506040513d601f19601f82011682018060405250810190610ce09190612500565b508073ffffffffffffffffffffffffffffffffffffffff166323b872dd33600460009054906101000a900473ffffffffffffffffffffffffffffffffffffffff16856040518463ffffffff1660e01b8152600401610d40939291906124b4565b6020604051808303816000875af1158015610d5f573d6000803e3d6000fd5b505050506040513d601f19601f82011682018060405250810190610d839190612500565b503373ffffffffffffffffffffffffffffffffffffffff168b604051610da9919061213c565b60405180910390207fa986c6dbfd1a19903790abda864e9d9ce49c45b2113f621b2108e529806c002489604051610de091906119da565b60405180910390a3610df26002611798565b985050505050505050506001808190555092915050565b600460009054906101000a900473ffffffffffffffffffffffffffffffffffffffff1681565b610e37611704565b8173ffffffffffffffffffffffffffffffffffffffff1663a9059cbb828473ffffffffffffffffffffffffffffffffffffffff166370a08231306040518263ffffffff1660e01b8152600401610e8d91906119a6565b602060405180830381865afa158015610eaa573d6000803e3d6000fd5b505050506040513d601f19601f82011682018060405250810190610ece9190612542565b6040518363ffffffff1660e01b8152600401610eeb92919061256f565b6020604051808303816000875af1158015610f0a573d6000803e3d6000fd5b505050506040513d601f19601f82011682018060405250810190610f2e9190612500565b505050565b610f3b611704565b3373ffffffffffffffffffffffffffffffffffffffff166108fc479081150290604051600060405180830381858888f19350505050610f7957600080fd5b565b610f83611704565b610f8d6000611863565b565b6006602052806000526040600020600091509050806000015490806001018054610fb890612483565b80601f0160208091040260200160405190810160405280929190818152602001828054610fe490612483565b80156110315780601f1061100657610100808354040283529160200191611031565b820191906000526020600020905b81548152906001019060200180831161101457829003601f168201915b5050505050908060020160009054906101000a900473ffffffffffffffffffffffffffffffffffffffff169080600301549080600401549080600501549080600601805461107e90612483565b80601f01602080910402602001604051908101604052809291908181526020018280546110aa90612483565b80156110f75780601f106110cc576101008083540402835291602001916110f7565b820191906000526020600020905b8154815290600101906020018083116110da57829003601f168201915b5050505050905087565b60008060009054906101000a900473ffffffffffffffffffffffffffffffffffffffff16905090565b6060600960008473ffffffffffffffffffffffffffffffffffffffff1673ffffffffffffffffffffffffffffffffffffffff16815260200190815260200160002082604051611179919061213c565b90815260200160405180910390208054806020026020016040519081016040528092919081815260200182805480156111d157602002820191906000526020600020905b8154815260200190600101908083116111bd575b5050505050905092915050565b6111e6611704565b8060058190555050565b6111f8611704565b6000600660008881526020019081526020016000209050848160020160006101000a81548173ffffffffffffffffffffffffffffffffffffffff021916908373ffffffffffffffffffffffffffffffffffffffff160217905550838160030181905550828160040181905550818160050181905550600d6000878152602001908152602001600020816006019081611290919061276f565b5050505050505050565b6007818051602081018201805184825260208301602085012081835280955050505050506000915090505481565b6112d0611704565b80600460146101000a81548160ff02191690831515021790555050565b6112f5611704565b80600360006101000a81548173ffffffffffffffffffffffffffffffffffffffff021916908373ffffffffffffffffffffffffffffffffffffffff16021790555050565b600c818051602081018201805184825260208301602085012081835280955050505050506000915054906101000a900473ffffffffffffffffffffffffffffffffffffffff1681565b600b818051602081018201805184825260208301602085012081835280955050505050506000915090505481565b6008602052816000526040600020602052806000526040600020600091509150505481565b6113dd611704565b80600b836040516113ee919061213c565b9081526020016040518091039020819055505050565b600d602052806000526040600020600091509050805461142390612483565b80601f016020809104026020016040519081016040528092919081815260200182805461144f90612483565b801561149c5780601f106114715761010080835404028352916020019161149c565b820191906000526020600020905b81548152906001019060200180831161147f57829003601f168201915b505050505081565b60006114b06002611798565b905090565b600a818051602081018201805184825260208301602085012081835280955050505050506000915054906101000a900473ffffffffffffffffffffffffffffffffffffffff1681565b611506611704565b600073ffffffffffffffffffffffffffffffffffffffff168173ffffffffffffffffffffffffffffffffffffffff1603611575576040517f08c379a000000000000000000000000000000000000000000000000000000000815260040161156c906128c9565b60405180910390fd5b61157e81611863565b50565b60008073ffffffffffffffffffffffffffffffffffffffff16600c836040516115aa919061213c565b908152602001604051809103902060009054906101000a900473ffffffffffffffffffffffffffffffffffffffff1673ffffffffffffffffffffffffffffffffffffffff160361162f576040517f08c379a00000000000000000000000000000000000000000000000000000000081526004016116269061295b565b60405180910390fd5b611676600c83604051611642919061213c565b908152602001604051809103902060009054906101000a900473ffffffffffffffffffffffffffffffffffffffff1661167d565b9050919050565b60008082905060008173ffffffffffffffffffffffffffffffffffffffff1663feaf968c6040518163ffffffff1660e01b815260040160a060405180830381865afa1580156116d0573d6000803e3d6000fd5b505050506040513d601f19601f820116820180604052508101906116f491906129f3565b5050509150508092505050919050565b61170c611927565b73ffffffffffffffffffffffffffffffffffffffff1661172a611101565b73ffffffffffffffffffffffffffffffffffffffff1614611780576040517f08c379a000000000000000000000000000000000000000000000000000000000815260040161177790612aba565b60405180910390fd5b565b6001816000016000828254019250508190555050565b600081600001549050919050565b6000600660006117b66002611798565b815260200190815260200160002090506117d06002611798565b8160000181905550868160010190816117e99190612ada565b50858160020160006101000a81548173ffffffffffffffffffffffffffffffffffffffff021916908373ffffffffffffffffffffffffffffffffffffffff160217905550848160030181905550838160040181905550828160050181905550818160060190816118599190612ada565b5050505050505050565b60008060009054906101000a900473ffffffffffffffffffffffffffffffffffffffff169050816000806101000a81548173ffffffffffffffffffffffffffffffffffffffff021916908373ffffffffffffffffffffffffffffffffffffffff1602179055508173ffffffffffffffffffffffffffffffffffffffff168173ffffffffffffffffffffffffffffffffffffffff167f8be0079c531659141344cd1fd0a4f28419497f9722a3daafe3b4186f6b6457e060405160405180910390a35050565b600033905090565b60008115159050919050565b6119448161192f565b82525050565b600060208201905061195f600083018461193b565b92915050565b600073ffffffffffffffffffffffffffffffffffffffff82169050919050565b600061199082611965565b9050919050565b6119a081611985565b82525050565b60006020820190506119bb6000830184611997565b92915050565b6000819050919050565b6119d4816119c1565b82525050565b60006020820190506119ef60008301846119cb565b92915050565b6000604051905090565b600080fd5b600080fd5b600080fd5b600080fd5b6000601f19601f8301169050919050565b7f4e487b7100000000000000000000000000000000000000000000000000000000600052604160045260246000fd5b611a5c82611a13565b810181811067ffffffffffffffff82111715611a7b57611a7a611a24565b5b80604052505050565b6000611a8e6119f5565b9050611a9a8282611a53565b919050565b600067ffffffffffffffff821115611aba57611ab9611a24565b5b611ac382611a13565b9050602081019050919050565b82818337600083830152505050565b6000611af2611aed84611a9f565b611a84565b905082815260208101848484011115611b0e57611b0d611a0e565b5b611b19848285611ad0565b509392505050565b600082601f830112611b3657611b35611a09565b5b8135611b46848260208601611adf565b91505092915050565b611b5881611985565b8114611b6357600080fd5b50565b600081359050611b7581611b4f565b92915050565b60008060408385031215611b9257611b916119ff565b5b600083013567ffffffffffffffff811115611bb057611baf611a04565b5b611bbc85828601611b21565b9250506020611bcd85828601611b66565b9150509250929050565b600060208284031215611bed57611bec6119ff565b5b6000611bfb84828501611b66565b91505092915050565b611c0d816119c1565b8114611c1857600080fd5b50565b600081359050611c2a81611c04565b92915050565b60008060408385031215611c4757611c466119ff565b5b600083013567ffffffffffffffff811115611c6557611c64611a04565b5b611c7185828601611b21565b9250506020611c8285828601611c1b565b9150509250929050565b6000611c9782611985565b9050919050565b611ca781611c8c565b8114611cb257600080fd5b50565b600081359050611cc481611c9e565b92915050565b60008060408385031215611ce157611ce06119ff565b5b6000611cef85828601611cb5565b9250506020611d0085828601611b66565b9150509250929050565b600060208284031215611d2057611d1f6119ff565b5b6000611d2e84828501611c1b565b91505092915050565b600081519050919050565b600082825260208201905092915050565b60005b83811015611d71578082015181840152602081019050611d56565b60008484015250505050565b6000611d8882611d37565b611d928185611d42565b9350611da2818560208601611d53565b611dab81611a13565b840191505092915050565b600060e082019050611dcb600083018a6119cb565b8181036020830152611ddd8189611d7d565b9050611dec6040830188611997565b611df960608301876119cb565b611e0660808301866119cb565b611e1360a08301856119cb565b81810360c0830152611e258184611d7d565b905098975050505050505050565b60008060408385031215611e4a57611e496119ff565b5b6000611e5885828601611b66565b925050602083013567ffffffffffffffff811115611e7957611e78611a04565b5b611e8585828601611b21565b9150509250929050565b600081519050919050565b600082825260208201905092915050565b6000819050602082019050919050565b611ec4816119c1565b82525050565b6000611ed68383611ebb565b60208301905092915050565b6000602082019050919050565b6000611efa82611e8f565b611f048185611e9a565b9350611f0f83611eab565b8060005b83811015611f40578151611f278882611eca565b9750611f3283611ee2565b925050600181019050611f13565b5085935050505092915050565b60006020820190508181036000830152611f678184611eef565b905092915050565b60008060008060008060c08789031215611f8c57611f8b6119ff565b5b6000611f9a89828a01611c1b565b9650506020611fab89828a01611c1b565b9550506040611fbc89828a01611b66565b9450506060611fcd89828a01611c1b565b9350506080611fde89828a01611c1b565b92505060a0611fef89828a01611c1b565b9150509295509295509295565b600060208284031215612012576120116119ff565b5b600082013567ffffffffffffffff8111156120305761202f611a04565b5b61203c84828501611b21565b91505092915050565b61204e8161192f565b811461205957600080fd5b50565b60008135905061206b81612045565b92915050565b600060208284031215612087576120866119ff565b5b60006120958482850161205c565b91505092915050565b600080604083850312156120b5576120b46119ff565b5b60006120c385828601611b66565b92505060206120d485828601611b66565b9150509250929050565b600060208201905081810360008301526120f88184611d7d565b905092915050565b600081905092915050565b600061211682611d37565b6121208185612100565b9350612130818560208601611d53565b80840191505092915050565b6000612148828461210b565b915081905092915050565b7f5265656e7472616e637947756172643a207265656e7472616e742063616c6c00600082015250565b6000612189601f83611d42565b915061219482612153565b602082019050919050565b600060208201905081810360008301526121b88161217c565b9050919050565b7f6465706f7369744254433a20536163726966696365206e6f7420616374697665600082015250565b60006121f5602083611d42565b9150612200826121bf565b602082019050919050565b60006020820190508181036000830152612224816121e8565b9050919050565b7f6465706f7369744254433a2041646472657373206e6f742070617274206f662060008201527f616c6c6f77656420746f6b656e206c6973740000000000000000000000000000602082015250565b6000612287603283611d42565b91506122928261222b565b604082019050919050565b600060208201905081810360008301526122b68161227a565b9050919050565b7f6465706f7369744254433a20416d6f756e74206d75737420626520677265617460008201527f6572207468616e205a45524f0000000000000000000000000000000000000000602082015250565b6000612319602c83611d42565b9150612324826122bd565b604082019050919050565b600060208201905081810360008301526123488161230c565b9050919050565b7f4e487b7100000000000000000000000000000000000000000000000000000000600052601260045260246000fd5b7f4e487b7100000000000000000000000000000000000000000000000000000000600052601160045260246000fd5b60006123b8826119c1565b91506123c3836119c1565b9250826123d3576123d261234f565b5b828204905092915050565b60006123e9826119c1565b91506123f4836119c1565b9250828202612402816119c1565b915082820484148315176124195761241861237e565b5b5092915050565b600061242b826119c1565b9150612436836119c1565b925082820190508082111561244e5761244d61237e565b5b92915050565b7f4e487b7100000000000000000000000000000000000000000000000000000000600052602260045260246000fd5b6000600282049050600182168061249b57607f821691505b6020821081036124ae576124ad612454565b5b50919050565b60006060820190506124c96000830186611997565b6124d66020830185611997565b6124e360408301846119cb565b949350505050565b6000815190506124fa81612045565b92915050565b600060208284031215612516576125156119ff565b5b6000612524848285016124eb565b91505092915050565b60008151905061253c81611c04565b92915050565b600060208284031215612558576125576119ff565b5b60006125668482850161252d565b91505092915050565b60006040820190506125846000830185611997565b61259160208301846119cb565b9392505050565b6000815490506125a781612483565b9050919050565b60008190508160005260206000209050919050565b60008190508160005260206000209050919050565b60006020601f8301049050919050565b600082821b905092915050565b6000600883026126257fffffffffffffffffffffffffffffffffffffffffffffffffffffffffffffffff826125e8565b61262f86836125e8565b95508019841693508086168417925050509392505050565b6000819050919050565b600061266c612667612662846119c1565b612647565b6119c1565b9050919050565b6000819050919050565b61268683612651565b61269a61269282612673565b8484546125f5565b825550505050565b600090565b6126af6126a2565b6126ba81848461267d565b505050565b5b818110156126de576126d36000826126a7565b6001810190506126c0565b5050565b601f821115612723576126f4816125ae565b6126fd846125d8565b8101602085101561270c578190505b612720612718856125d8565b8301826126bf565b50505b505050565b600082821c905092915050565b600061274660001984600802612728565b1980831691505092915050565b600061275f8383612735565b9150826002028217905092915050565b81810361277d575050612855565b61278682612598565b67ffffffffffffffff81111561279f5761279e611a24565b5b6127a98254612483565b6127b48282856126e2565b6000601f8311600181146127e357600084156127d1578287015490505b6127db8582612753565b86555061284e565b601f1984166127f1876125c3565b96506127fc866125ae565b60005b82811015612824578489015482556001820191506001850194506020810190506127ff565b86831015612841578489015461283d601f891682612735565b8355505b6001600288020188555050505b5050505050505b565b7f4f776e61626c653a206e6577206f776e657220697320746865207a65726f206160008201527f6464726573730000000000000000000000000000000000000000000000000000602082015250565b60006128b3602683611d42565b91506128be82612857565b604082019050919050565b600060208201905081810360008301526128e2816128a6565b9050919050565b7f676574436861696e4c696e6b50726963653a2041646472657373206e6f74207060008201527f617274206f6620436861696e6c696e6b20746f6b656e206c6973740000000000602082015250565b6000612945603b83611d42565b9150612950826128e9565b604082019050919050565b6000602082019050818103600083015261297481612938565b9050919050565b600069ffffffffffffffffffff82169050919050565b61299a8161297b565b81146129a557600080fd5b50565b6000815190506129b781612991565b92915050565b6000819050919050565b6129d0816129bd565b81146129db57600080fd5b50565b6000815190506129ed816129c7565b92915050565b600080600080600060a08688031215612a0f57612a0e6119ff565b5b6000612a1d888289016129a8565b9550506020612a2e888289016129de565b9450506040612a3f8882890161252d565b9350506060612a508882890161252d565b9250506080612a61888289016129a8565b9150509295509295909350565b7f4f776e61626c653a2063616c6c6572206973206e6f7420746865206f776e6572600082015250565b6000612aa4602083611d42565b9150612aaf82612a6e565b602082019050919050565b60006020820190508181036000830152612ad381612a97565b9050919050565b612ae382611d37565b67ffffffffffffffff811115612afc57612afb611a24565b5b612b068254612483565b612b118282856126e2565b600060209050601f831160018114612b445760008415612b32578287015190505b612b3c8582612753565b865550612ba4565b601f198416612b52866125ae565b60005b82811015612b7a57848901518255600182019150602085019450602081019050612b55565b86831015612b975784890151612b93601f891682612735565b8355505b6001600288020188555050505b50505050505056fea2646970667358221220f151e0a160bb5a59b2400cca4456dbc7d869ebbe42724f821ec306148f0c026f64736f6c63430008110033","opcodes":"PUSH1 0x80 PUSH1 0x40 MSTORE CALLVALUE DUP1 ISZERO PUSH3 0x11 JUMPI PUSH1 0x0 DUP1 REVERT JUMPDEST POP PUSH1 0x40 MLOAD PUSH3 0x36D8 CODESIZE SUB DUP1 PUSH3 0x36D8 DUP4 CODECOPY DUP2 DUP2 ADD PUSH1 0x40 MSTORE DUP2 ADD SWAP1 PUSH3 0x37 SWAP2 SWAP1 PUSH3 0x634 JUMP JUMPDEST PUSH3 0x57 PUSH3 0x4B PUSH3 0xF8 PUSH1 0x20 SHL PUSH1 0x20 SHR JUMP JUMPDEST PUSH3 0x100 PUSH1 0x20 SHL PUSH1 0x20 SHR JUMP JUMPDEST PUSH1 0x1 DUP1 DUP2 SWAP1 SSTORE POP DUP2 PUSH1 0x3 PUSH1 0x0 PUSH2 0x100 EXP DUP2 SLOAD DUP2 PUSH20 0xFFFFFFFFFFFFFFFFFFFFFFFFFFFFFFFFFFFFFFFF MUL NOT AND SWAP1 DUP4 PUSH20 0xFFFFFFFFFFFFFFFFFFFFFFFFFFFFFFFFFFFFFFFF AND MUL OR SWAP1 SSTORE POP DUP1 PUSH1 0x4 PUSH1 0x0 PUSH2 0x100 EXP DUP2 SLOAD DUP2 PUSH20 0xFFFFFFFFFFFFFFFFFFFFFFFFFFFFFFFFFFFFFFFF MUL NOT AND SWAP1 DUP4 PUSH20 0xFFFFFFFFFFFFFFFFFFFFFFFFFFFFFFFFFFFFFFFF AND MUL OR SWAP1 SSTORE POP PUSH3 0xF0 PUSH3 0x1C4 PUSH1 0x20 SHL PUSH1 0x20 SHR JUMP JUMPDEST POP POP PUSH3 0xAE6 JUMP JUMPDEST PUSH1 0x0 CALLER SWAP1 POP SWAP1 JUMP JUMPDEST PUSH1 0x0 DUP1 PUSH1 0x0 SWAP1 SLOAD SWAP1 PUSH2 0x100 EXP SWAP1 DIV PUSH20 0xFFFFFFFFFFFFFFFFFFFFFFFFFFFFFFFFFFFFFFFF AND SWAP1 POP DUP2 PUSH1 0x0 DUP1 PUSH2 0x100 EXP DUP2 SLOAD DUP2 PUSH20 0xFFFFFFFFFFFFFFFFFFFFFFFFFFFFFFFFFFFFFFFF MUL NOT AND SWAP1 DUP4 PUSH20 0xFFFFFFFFFFFFFFFFFFFFFFFFFFFFFFFFFFFFFFFF AND MUL OR SWAP1 SSTORE POP DUP2 PUSH20 0xFFFFFFFFFFFFFFFFFFFFFFFFFFFFFFFFFFFFFFFF AND DUP2 PUSH20 0xFFFFFFFFFFFFFFFFFFFFFFFFFFFFFFFFFFFFFFFF AND PUSH32 0x8BE0079C531659141344CD1FD0A4F28419497F9722A3DAAFE3B4186F6B6457E0 PUSH1 0x40 MLOAD PUSH1 0x40 MLOAD DUP1 SWAP2 SUB SWAP1 LOG3 POP POP JUMP JUMPDEST PUSH1 0x0 PUSH1 0x4 PUSH1 0x14 PUSH2 0x100 EXP DUP2 SLOAD DUP2 PUSH1 0xFF MUL NOT AND SWAP1 DUP4 ISZERO ISZERO MUL OR SWAP1 SSTORE POP PUSH1 0x40 MLOAD DUP1 PUSH1 0x40 ADD PUSH1 0x40 MSTORE DUP1 PUSH1 0x7 DUP2 MSTORE PUSH1 0x20 ADD PUSH32 0x70656E64696E6700000000000000000000000000000000000000000000000000 DUP2 MSTORE POP PUSH1 0xD PUSH1 0x0 PUSH1 0x1 DUP2 MSTORE PUSH1 0x20 ADD SWAP1 DUP2 MSTORE PUSH1 0x20 ADD PUSH1 0x0 KECCAK256 SWAP1 DUP2 PUSH3 0x237 SWAP2 SWAP1 PUSH3 0x8F5 JUMP JUMPDEST POP PUSH1 0x40 MLOAD DUP1 PUSH1 0x40 ADD PUSH1 0x40 MSTORE DUP1 PUSH1 0x9 DUP2 MSTORE PUSH1 0x20 ADD PUSH32 0x636F6D706C657465640000000000000000000000000000000000000000000000 DUP2 MSTORE POP PUSH1 0xD PUSH1 0x0 PUSH1 0x2 DUP2 MSTORE PUSH1 0x20 ADD SWAP1 DUP2 MSTORE PUSH1 0x20 ADD PUSH1 0x0 KECCAK256 SWAP1 DUP2 PUSH3 0x290 SWAP2 SWAP1 PUSH3 0x8F5 JUMP JUMPDEST POP PUSH1 0x40 MLOAD DUP1 PUSH1 0x40 ADD PUSH1 0x40 MSTORE DUP1 PUSH1 0x9 DUP2 MSTORE PUSH1 0x20 ADD PUSH32 0x63616E63656C6C65640000000000000000000000000000000000000000000000 DUP2 MSTORE POP PUSH1 0xD PUSH1 0x0 PUSH1 0x3 DUP2 MSTORE PUSH1 0x20 ADD SWAP1 DUP2 MSTORE PUSH1 0x20 ADD PUSH1 0x0 KECCAK256 SWAP1 DUP2 PUSH3 0x2E9 SWAP2 SWAP1 PUSH3 0x8F5 JUMP JUMPDEST POP PUSH3 0x345 PUSH1 0x40 MLOAD DUP1 PUSH1 0x40 ADD PUSH1 0x40 MSTORE DUP1 PUSH1 0x3 DUP2 MSTORE PUSH1 0x20 ADD PUSH32 0x4254430000000000000000000000000000000000000000000000000000000000 DUP2 MSTORE POP PUSH20 0x11DAE0CD6A361E07CC996F054DC7CC2506AFFEA2 PUSH3 0x3F1 PUSH1 0x20 SHL PUSH1 0x20 SHR JUMP JUMPDEST PUSH3 0x3A0 PUSH1 0x40 MLOAD DUP1 PUSH1 0x40 ADD PUSH1 0x40 MSTORE DUP1 PUSH1 0x3 DUP2 MSTORE PUSH1 0x20 ADD PUSH32 0x4254430000000000000000000000000000000000000000000000000000000000 DUP2 MSTORE POP PUSH20 0x5741306C21795FDCBB9B265EA0255F499DFE515C PUSH3 0x464 PUSH1 0x20 SHL PUSH1 0x20 SHR JUMP JUMPDEST PUSH3 0x3EF PUSH1 0x40 MLOAD DUP1 PUSH1 0x40 ADD PUSH1 0x40 MSTORE DUP1 PUSH1 0x3 DUP2 MSTORE PUSH1 0x20 ADD PUSH32 0x4254430000000000000000000000000000000000000000000000000000000000 DUP2 MSTORE POP PUSH8 0xDE0B6B3A7640000 PUSH3 0x4D7 PUSH1 0x20 SHL PUSH1 0x20 SHR JUMP JUMPDEST JUMP JUMPDEST PUSH3 0x401 PUSH3 0x510 PUSH1 0x20 SHL PUSH1 0x20 SHR JUMP JUMPDEST DUP1 PUSH1 0xA DUP4 PUSH1 0x40 MLOAD PUSH3 0x414 SWAP2 SWAP1 PUSH3 0xA4A JUMP JUMPDEST SWAP1 DUP2 MSTORE PUSH1 0x20 ADD PUSH1 0x40 MLOAD DUP1 SWAP2 SUB SWAP1 KECCAK256 PUSH1 0x0 PUSH2 0x100 EXP DUP2 SLOAD DUP2 PUSH20 0xFFFFFFFFFFFFFFFFFFFFFFFFFFFFFFFFFFFFFFFF MUL NOT AND SWAP1 DUP4 PUSH20 0xFFFFFFFFFFFFFFFFFFFFFFFFFFFFFFFFFFFFFFFF AND MUL OR SWAP1 SSTORE POP POP POP JUMP JUMPDEST PUSH3 0x474 PUSH3 0x510 PUSH1 0x20 SHL PUSH1 0x20 SHR JUMP JUMPDEST DUP1 PUSH1 0xC DUP4 PUSH1 0x40 MLOAD PUSH3 0x487 SWAP2 SWAP1 PUSH3 0xA4A JUMP JUMPDEST SWAP1 DUP2 MSTORE PUSH1 0x20 ADD PUSH1 0x40 MLOAD DUP1 SWAP2 SUB SWAP1 KECCAK256 PUSH1 0x0 PUSH2 0x100 EXP DUP2 SLOAD DUP2 PUSH20 0xFFFFFFFFFFFFFFFFFFFFFFFFFFFFFFFFFFFFFFFF MUL NOT AND SWAP1 DUP4 PUSH20 0xFFFFFFFFFFFFFFFFFFFFFFFFFFFFFFFFFFFFFFFF AND MUL OR SWAP1 SSTORE POP POP POP JUMP JUMPDEST PUSH3 0x4E7 PUSH3 0x510 PUSH1 0x20 SHL PUSH1 0x20 SHR JUMP JUMPDEST DUP1 PUSH1 0xB DUP4 PUSH1 0x40 MLOAD PUSH3 0x4FA SWAP2 SWAP1 PUSH3 0xA4A JUMP JUMPDEST SWAP1 DUP2 MSTORE PUSH1 0x20 ADD PUSH1 0x40 MLOAD DUP1 SWAP2 SUB SWAP1 KECCAK256 DUP2 SWAP1 SSTORE POP POP POP JUMP JUMPDEST PUSH3 0x520 PUSH3 0xF8 PUSH1 0x20 SHL PUSH1 0x20 SHR JUMP JUMPDEST PUSH20 0xFFFFFFFFFFFFFFFFFFFFFFFFFFFFFFFFFFFFFFFF AND PUSH3 0x546 PUSH3 0x5A1 PUSH1 0x20 SHL PUSH1 0x20 SHR JUMP JUMPDEST PUSH20 0xFFFFFFFFFFFFFFFFFFFFFFFFFFFFFFFFFFFFFFFF AND EQ PUSH3 0x59F JUMPI PUSH1 0x40 MLOAD PUSH32 0x8C379A000000000000000000000000000000000000000000000000000000000 DUP2 MSTORE PUSH1 0x4 ADD PUSH3 0x596 SWAP1 PUSH3 0xAC4 JUMP JUMPDEST PUSH1 0x40 MLOAD DUP1 SWAP2 SUB SWAP1 REVERT JUMPDEST JUMP JUMPDEST PUSH1 0x0 DUP1 PUSH1 0x0 SWAP1 SLOAD SWAP1 PUSH2 0x100 EXP SWAP1 DIV PUSH20 0xFFFFFFFFFFFFFFFFFFFFFFFFFFFFFFFFFFFFFFFF AND SWAP1 POP SWAP1 JUMP JUMPDEST PUSH1 0x0 DUP1 REVERT JUMPDEST PUSH1 0x0 PUSH20 0xFFFFFFFFFFFFFFFFFFFFFFFFFFFFFFFFFFFFFFFF DUP3 AND SWAP1 POP SWAP2 SWAP1 POP JUMP JUMPDEST PUSH1 0x0 PUSH3 0x5FC DUP3 PUSH3 0x5CF JUMP JUMPDEST SWAP1 POP SWAP2 SWAP1 POP JUMP JUMPDEST PUSH3 0x60E DUP2 PUSH3 0x5EF JUMP JUMPDEST DUP2 EQ PUSH3 0x61A JUMPI PUSH1 0x0 DUP1 REVERT JUMPDEST POP JUMP JUMPDEST PUSH1 0x0 DUP2 MLOAD SWAP1 POP PUSH3 0x62E DUP2 PUSH3 0x603 JUMP JUMPDEST SWAP3 SWAP2 POP POP JUMP JUMPDEST PUSH1 0x0 DUP1 PUSH1 0x40 DUP4 DUP6 SUB SLT ISZERO PUSH3 0x64E JUMPI PUSH3 0x64D PUSH3 0x5CA JUMP JUMPDEST JUMPDEST PUSH1 0x0 PUSH3 0x65E DUP6 DUP3 DUP7 ADD PUSH3 0x61D JUMP JUMPDEST SWAP3 POP POP PUSH1 0x20 PUSH3 0x671 DUP6 DUP3 DUP7 ADD PUSH3 0x61D JUMP JUMPDEST SWAP2 POP POP SWAP3 POP SWAP3 SWAP1 POP JUMP JUMPDEST PUSH1 0x0 DUP2 MLOAD SWAP1 POP SWAP2 SWAP1 POP JUMP JUMPDEST PUSH32 0x4E487B7100000000000000000000000000000000000000000000000000000000 PUSH1 0x0 MSTORE PUSH1 0x41 PUSH1 0x4 MSTORE PUSH1 0x24 PUSH1 0x0 REVERT JUMPDEST PUSH32 0x4E487B7100000000000000000000000000000000000000000000000000000000 PUSH1 0x0 MSTORE PUSH1 0x22 PUSH1 0x4 MSTORE PUSH1 0x24 PUSH1 0x0 REVERT JUMPDEST PUSH1 0x0 PUSH1 0x2 DUP3 DIV SWAP1 POP PUSH1 0x1 DUP3 AND DUP1 PUSH3 0x6FD JUMPI PUSH1 0x7F DUP3 AND SWAP2 POP JUMPDEST PUSH1 0x20 DUP3 LT DUP2 SUB PUSH3 0x713 JUMPI PUSH3 0x712 PUSH3 0x6B5 JUMP JUMPDEST JUMPDEST POP SWAP2 SWAP1 POP JUMP JUMPDEST PUSH1 0x0 DUP2 SWAP1 POP DUP2 PUSH1 0x0 MSTORE PUSH1 0x20 PUSH1 0x0 KECCAK256 SWAP1 POP SWAP2 SWAP1 POP JUMP JUMPDEST PUSH1 0x0 PUSH1 0x20 PUSH1 0x1F DUP4 ADD DIV SWAP1 POP SWAP2 SWAP1 POP JUMP JUMPDEST PUSH1 0x0 DUP3 DUP3 SHL SWAP1 POP SWAP3 SWAP2 POP POP JUMP JUMPDEST PUSH1 0x0 PUSH1 0x8 DUP4 MUL PUSH3 0x77D PUSH32 0xFFFFFFFFFFFFFFFFFFFFFFFFFFFFFFFFFFFFFFFFFFFFFFFFFFFFFFFFFFFFFFFF DUP3 PUSH3 0x73E JUMP JUMPDEST PUSH3 0x789 DUP7 DUP4 PUSH3 0x73E JUMP JUMPDEST SWAP6 POP DUP1 NOT DUP5 AND SWAP4 POP DUP1 DUP7 AND DUP5 OR SWAP3 POP POP POP SWAP4 SWAP3 POP POP POP JUMP JUMPDEST PUSH1 0x0 DUP2 SWAP1 POP SWAP2 SWAP1 POP JUMP JUMPDEST PUSH1 0x0 DUP2 SWAP1 POP SWAP2 SWAP1 POP JUMP JUMPDEST PUSH1 0x0 PUSH3 0x7D6 PUSH3 0x7D0 PUSH3 0x7CA DUP5 PUSH3 0x7A1 JUMP JUMPDEST PUSH3 0x7AB JUMP JUMPDEST PUSH3 0x7A1 JUMP JUMPDEST SWAP1 POP SWAP2 SWAP1 POP JUMP JUMPDEST PUSH1 0x0 DUP2 SWAP1 POP SWAP2 SWAP1 POP JUMP JUMPDEST PUSH3 0x7F2 DUP4 PUSH3 0x7B5 JUMP JUMPDEST PUSH3 0x80A PUSH3 0x801 DUP3 PUSH3 0x7DD JUMP JUMPDEST DUP5 DUP5 SLOAD PUSH3 0x74B JUMP JUMPDEST DUP3 SSTORE POP POP POP POP JUMP JUMPDEST PUSH1 0x0 SWAP1 JUMP JUMPDEST PUSH3 0x821 PUSH3 0x812 JUMP JUMPDEST PUSH3 0x82E DUP2 DUP5 DUP5 PUSH3 0x7E7 JUMP JUMPDEST POP POP POP JUMP JUMPDEST JUMPDEST DUP2 DUP2 LT ISZERO PUSH3 0x856 JUMPI PUSH3 0x84A PUSH1 0x0 DUP3 PUSH3 0x817 JUMP JUMPDEST PUSH1 0x1 DUP2 ADD SWAP1 POP PUSH3 0x834 JUMP JUMPDEST POP POP JUMP JUMPDEST PUSH1 0x1F DUP3 GT ISZERO PUSH3 0x8A5 JUMPI PUSH3 0x86F DUP2 PUSH3 0x719 JUMP JUMPDEST PUSH3 0x87A DUP5 PUSH3 0x72E JUMP JUMPDEST DUP2 ADD PUSH1 0x20 DUP6 LT ISZERO PUSH3 0x88A JUMPI DUP2 SWAP1 POP JUMPDEST PUSH3 0x8A2 PUSH3 0x899 DUP6 PUSH3 0x72E JUMP JUMPDEST DUP4 ADD DUP3 PUSH3 0x833 JUMP JUMPDEST POP POP JUMPDEST POP POP POP JUMP JUMPDEST PUSH1 0x0 DUP3 DUP3 SHR SWAP1 POP SWAP3 SWAP2 POP POP JUMP JUMPDEST PUSH1 0x0 PUSH3 0x8CA PUSH1 0x0 NOT DUP5 PUSH1 0x8 MUL PUSH3 0x8AA JUMP JUMPDEST NOT DUP1 DUP4 AND SWAP2 POP POP SWAP3 SWAP2 POP POP JUMP JUMPDEST PUSH1 0x0 PUSH3 0x8E5 DUP4 DUP4 PUSH3 0x8B7 JUMP JUMPDEST SWAP2 POP DUP3 PUSH1 0x2 MUL DUP3 OR SWAP1 POP SWAP3 SWAP2 POP POP JUMP JUMPDEST PUSH3 0x900 DUP3 PUSH3 0x67B JUMP JUMPDEST PUSH8 0xFFFFFFFFFFFFFFFF DUP2 GT ISZERO PUSH3 0x91C JUMPI PUSH3 0x91B PUSH3 0x686 JUMP JUMPDEST JUMPDEST PUSH3 0x928 DUP3 SLOAD PUSH3 0x6E4 JUMP JUMPDEST PUSH3 0x935 DUP3 DUP3 DUP6 PUSH3 0x85A JUMP JUMPDEST PUSH1 0x0 PUSH1 0x20 SWAP1 POP PUSH1 0x1F DUP4 GT PUSH1 0x1 DUP2 EQ PUSH3 0x96D JUMPI PUSH1 0x0 DUP5 ISZERO PUSH3 0x958 JUMPI DUP3 DUP8 ADD MLOAD SWAP1 POP JUMPDEST PUSH3 0x964 DUP6 DUP3 PUSH3 0x8D7 JUMP JUMPDEST DUP7 SSTORE POP PUSH3 0x9D4 JUMP JUMPDEST PUSH1 0x1F NOT DUP5 AND PUSH3 0x97D DUP7 PUSH3 0x719 JUMP JUMPDEST PUSH1 0x0 JUMPDEST DUP3 DUP2 LT ISZERO PUSH3 0x9A7 JUMPI DUP5 DUP10 ADD MLOAD DUP3 SSTORE PUSH1 0x1 DUP3 ADD SWAP2 POP PUSH1 0x20 DUP6 ADD SWAP5 POP PUSH1 0x20 DUP2 ADD SWAP1 POP PUSH3 0x980 JUMP JUMPDEST DUP7 DUP4 LT ISZERO PUSH3 0x9C7 JUMPI DUP5 DUP10 ADD MLOAD PUSH3 0x9C3 PUSH1 0x1F DUP10 AND DUP3 PUSH3 0x8B7 JUMP JUMPDEST DUP4 SSTORE POP JUMPDEST PUSH1 0x1 PUSH1 0x2 DUP9 MUL ADD DUP9 SSTORE POP POP POP JUMPDEST POP POP POP POP POP POP JUMP JUMPDEST PUSH1 0x0 DUP2 SWAP1 POP SWAP3 SWAP2 POP POP JUMP JUMPDEST PUSH1 0x0 JUMPDEST DUP4 DUP2 LT ISZERO PUSH3 0xA07 JUMPI DUP1 DUP3 ADD MLOAD DUP2 DUP5 ADD MSTORE PUSH1 0x20 DUP2 ADD SWAP1 POP PUSH3 0x9EA JUMP JUMPDEST PUSH1 0x0 DUP5 DUP5 ADD MSTORE POP POP POP POP JUMP JUMPDEST PUSH1 0x0 PUSH3 0xA20 DUP3 PUSH3 0x67B JUMP JUMPDEST PUSH3 0xA2C DUP2 DUP6 PUSH3 0x9DC JUMP JUMPDEST SWAP4 POP PUSH3 0xA3E DUP2 DUP6 PUSH1 0x20 DUP7 ADD PUSH3 0x9E7 JUMP JUMPDEST DUP1 DUP5 ADD SWAP2 POP POP SWAP3 SWAP2 POP POP JUMP JUMPDEST PUSH1 0x0 PUSH3 0xA58 DUP3 DUP5 PUSH3 0xA13 JUMP JUMPDEST SWAP2 POP DUP2 SWAP1 POP SWAP3 SWAP2 POP POP JUMP JUMPDEST PUSH1 0x0 DUP3 DUP3 MSTORE PUSH1 0x20 DUP3 ADD SWAP1 POP SWAP3 SWAP2 POP POP JUMP JUMPDEST PUSH32 0x4F776E61626C653A2063616C6C6572206973206E6F7420746865206F776E6572 PUSH1 0x0 DUP3 ADD MSTORE POP JUMP JUMPDEST PUSH1 0x0 PUSH3 0xAAC PUSH1 0x20 DUP4 PUSH3 0xA63 JUMP JUMPDEST SWAP2 POP PUSH3 0xAB9 DUP3 PUSH3 0xA74 JUMP JUMPDEST PUSH1 0x20 DUP3 ADD SWAP1 POP SWAP2 SWAP1 POP JUMP JUMPDEST PUSH1 0x0 PUSH1 0x20 DUP3 ADD SWAP1 POP DUP2 DUP2 SUB PUSH1 0x0 DUP4 ADD MSTORE PUSH3 0xADF DUP2 PUSH3 0xA9D JUMP JUMPDEST SWAP1 POP SWAP2 SWAP1 POP JUMP JUMPDEST PUSH2 0x2BE2 DUP1 PUSH3 0xAF6 PUSH1 0x0 CODECOPY PUSH1 0x0 RETURN INVALID PUSH1 0x80 PUSH1 0x40 MSTORE CALLVALUE DUP1 ISZERO PUSH2 0x10 JUMPI PUSH1 0x0 DUP1 REVERT JUMPDEST POP PUSH1 0x4 CALLDATASIZE LT PUSH2 0x1DA JUMPI PUSH1 0x0 CALLDATALOAD PUSH1 0xE0 SHR DUP1 PUSH4 0xA61E5901 GT PUSH2 0x104 JUMPI DUP1 PUSH4 0xCC8C155D GT PUSH2 0xA2 JUMPI DUP1 PUSH4 0xE8BB2A9F GT PUSH2 0x71 JUMPI DUP1 PUSH4 0xE8BB2A9F EQ PUSH2 0x547 JUMPI DUP1 PUSH4 0xF2FDE38B EQ PUSH2 0x577 JUMPI DUP1 PUSH4 0xF86F3593 EQ PUSH2 0x593 JUMPI DUP1 PUSH4 0xFF28CA60 EQ PUSH2 0x5C3 JUMPI PUSH2 0x1DA JUMP JUMPDEST DUP1 PUSH4 0xCC8C155D EQ PUSH2 0x4AD JUMPI DUP1 PUSH4 0xD2CBA7E5 EQ PUSH2 0x4DD JUMPI DUP1 PUSH4 0xD8E9D96A EQ PUSH2 0x4F9 JUMPI DUP1 PUSH4 0xDB44865B EQ PUSH2 0x529 JUMPI PUSH2 0x1DA JUMP JUMPDEST DUP1 PUSH4 0xC355EB2D GT PUSH2 0xDE JUMPI DUP1 PUSH4 0xC355EB2D EQ PUSH2 0x415 JUMPI DUP1 PUSH4 0xC5A7833E EQ PUSH2 0x431 JUMPI DUP1 PUSH4 0xCB49AD3E EQ PUSH2 0x44D JUMPI DUP1 PUSH4 0xCB8F351E EQ PUSH2 0x47D JUMPI PUSH2 0x1DA JUMP JUMPDEST DUP1 PUSH4 0xA61E5901 EQ PUSH2 0x3AD JUMPI DUP1 PUSH4 0xB8CB9247 EQ PUSH2 0x3C9 JUMPI DUP1 PUSH4 0xBF71521C EQ PUSH2 0x3E5 JUMPI PUSH2 0x1DA JUMP JUMPDEST DUP1 PUSH4 0x531E0E9C GT PUSH2 0x17C JUMPI DUP1 PUSH4 0x715018A6 GT PUSH2 0x14B JUMPI DUP1 PUSH4 0x715018A6 EQ PUSH2 0x31F JUMPI DUP1 PUSH4 0x7598E2FD EQ PUSH2 0x329 JUMPI DUP1 PUSH4 0x8DA5CB5B EQ PUSH2 0x35F JUMPI DUP1 PUSH4 0xA289C13B EQ PUSH2 0x37D JUMPI PUSH2 0x1DA JUMP JUMPDEST DUP1 PUSH4 0x531E0E9C EQ PUSH2 0x2AB JUMPI DUP1 PUSH4 0x5641F3C3 EQ PUSH2 0x2DB JUMPI DUP1 PUSH4 0x6792E38A EQ PUSH2 0x2F9 JUMPI DUP1 PUSH4 0x6BFDF8A0 EQ PUSH2 0x315 JUMPI PUSH2 0x1DA JUMP JUMPDEST DUP1 PUSH4 0x1A403F19 GT PUSH2 0x1B8 JUMPI DUP1 PUSH4 0x1A403F19 EQ PUSH2 0x239 JUMPI DUP1 PUSH4 0x1F6F7964 EQ PUSH2 0x257 JUMPI DUP1 PUSH4 0x23BFFCCC EQ PUSH2 0x273 JUMPI DUP1 PUSH4 0x4FA8DE95 EQ PUSH2 0x28F JUMPI PUSH2 0x1DA JUMP JUMPDEST DUP1 PUSH4 0xCB4BEDD EQ PUSH2 0x1DF JUMPI DUP1 PUSH4 0x13E329BA EQ PUSH2 0x1FD JUMPI DUP1 PUSH4 0x19D38918 EQ PUSH2 0x21B JUMPI JUMPDEST PUSH1 0x0 DUP1 REVERT JUMPDEST PUSH2 0x1E7 PUSH2 0x5F3 JUMP JUMPDEST PUSH1 0x40 MLOAD PUSH2 0x1F4 SWAP2 SWAP1 PUSH2 0x194A JUMP JUMPDEST PUSH1 0x40 MLOAD DUP1 SWAP2 SUB SWAP1 RETURN JUMPDEST PUSH2 0x205 PUSH2 0x606 JUMP JUMPDEST PUSH1 0x40 MLOAD PUSH2 0x212 SWAP2 SWAP1 PUSH2 0x19A6 JUMP JUMPDEST PUSH1 0x40 MLOAD DUP1 SWAP2 SUB SWAP1 RETURN JUMPDEST PUSH2 0x223 PUSH2 0x62C JUMP JUMPDEST PUSH1 0x40 MLOAD PUSH2 0x230 SWAP2 SWAP1 PUSH2 0x19DA JUMP JUMPDEST PUSH1 0x40 MLOAD DUP1 SWAP2 SUB SWAP1 RETURN JUMPDEST PUSH2 0x241 PUSH2 0x638 JUMP JUMPDEST PUSH1 0x40 MLOAD PUSH2 0x24E SWAP2 SWAP1 PUSH2 0x19DA JUMP JUMPDEST PUSH1 0x40 MLOAD DUP1 SWAP2 SUB SWAP1 RETURN JUMPDEST PUSH2 0x271 PUSH1 0x4 DUP1 CALLDATASIZE SUB DUP2 ADD SWAP1 PUSH2 0x26C SWAP2 SWAP1 PUSH2 0x1B7B JUMP JUMPDEST PUSH2 0x63E JUMP JUMPDEST STOP JUMPDEST PUSH2 0x28D PUSH1 0x4 DUP1 CALLDATASIZE SUB DUP2 ADD SWAP1 PUSH2 0x288 SWAP2 SWAP1 PUSH2 0x1BD7 JUMP JUMPDEST PUSH2 0x6A7 JUMP JUMPDEST STOP JUMPDEST PUSH2 0x2A9 PUSH1 0x4 DUP1 CALLDATASIZE SUB DUP2 ADD SWAP1 PUSH2 0x2A4 SWAP2 SWAP1 PUSH2 0x1B7B JUMP JUMPDEST PUSH2 0x6F3 JUMP JUMPDEST STOP JUMPDEST PUSH2 0x2C5 PUSH1 0x4 DUP1 CALLDATASIZE SUB DUP2 ADD SWAP1 PUSH2 0x2C0 SWAP2 SWAP1 PUSH2 0x1C30 JUMP JUMPDEST PUSH2 0x75C JUMP JUMPDEST PUSH1 0x40 MLOAD PUSH2 0x2D2 SWAP2 SWAP1 PUSH2 0x19DA JUMP JUMPDEST PUSH1 0x40 MLOAD DUP1 SWAP2 SUB SWAP1 RETURN JUMPDEST PUSH2 0x2E3 PUSH2 0xE09 JUMP JUMPDEST PUSH1 0x40 MLOAD PUSH2 0x2F0 SWAP2 SWAP1 PUSH2 0x19A6 JUMP JUMPDEST PUSH1 0x40 MLOAD DUP1 SWAP2 SUB SWAP1 RETURN JUMPDEST PUSH2 0x313 PUSH1 0x4 DUP1 CALLDATASIZE SUB DUP2 ADD SWAP1 PUSH2 0x30E SWAP2 SWAP1 PUSH2 0x1CCA JUMP JUMPDEST PUSH2 0xE2F JUMP JUMPDEST STOP JUMPDEST PUSH2 0x31D PUSH2 0xF33 JUMP JUMPDEST STOP JUMPDEST PUSH2 0x327 PUSH2 0xF7B JUMP JUMPDEST STOP JUMPDEST PUSH2 0x343 PUSH1 0x4 DUP1 CALLDATASIZE SUB DUP2 ADD SWAP1 PUSH2 0x33E SWAP2 SWAP1 PUSH2 0x1D0A JUMP JUMPDEST PUSH2 0xF8F JUMP JUMPDEST PUSH1 0x40 MLOAD PUSH2 0x356 SWAP8 SWAP7 SWAP6 SWAP5 SWAP4 SWAP3 SWAP2 SWAP1 PUSH2 0x1DB6 JUMP JUMPDEST PUSH1 0x40 MLOAD DUP1 SWAP2 SUB SWAP1 RETURN JUMPDEST PUSH2 0x367 PUSH2 0x1101 JUMP JUMPDEST PUSH1 0x40 MLOAD PUSH2 0x374 SWAP2 SWAP1 PUSH2 0x19A6 JUMP JUMPDEST PUSH1 0x40 MLOAD DUP1 SWAP2 SUB SWAP1 RETURN JUMPDEST PUSH2 0x397 PUSH1 0x4 DUP1 CALLDATASIZE SUB DUP2 ADD SWAP1 PUSH2 0x392 SWAP2 SWAP1 PUSH2 0x1E33 JUMP JUMPDEST PUSH2 0x112A JUMP JUMPDEST PUSH1 0x40 MLOAD PUSH2 0x3A4 SWAP2 SWAP1 PUSH2 0x1F4D JUMP JUMPDEST PUSH1 0x40 MLOAD DUP1 SWAP2 SUB SWAP1 RETURN JUMPDEST PUSH2 0x3C7 PUSH1 0x4 DUP1 CALLDATASIZE SUB DUP2 ADD SWAP1 PUSH2 0x3C2 SWAP2 SWAP1 PUSH2 0x1D0A JUMP JUMPDEST PUSH2 0x11DE JUMP JUMPDEST STOP JUMPDEST PUSH2 0x3E3 PUSH1 0x4 DUP1 CALLDATASIZE SUB DUP2 ADD SWAP1 PUSH2 0x3DE SWAP2 SWAP1 PUSH2 0x1F6F JUMP JUMPDEST PUSH2 0x11F0 JUMP JUMPDEST STOP JUMPDEST PUSH2 0x3FF PUSH1 0x4 DUP1 CALLDATASIZE SUB DUP2 ADD SWAP1 PUSH2 0x3FA SWAP2 SWAP1 PUSH2 0x1FFC JUMP JUMPDEST PUSH2 0x129A JUMP JUMPDEST PUSH1 0x40 MLOAD PUSH2 0x40C SWAP2 SWAP1 PUSH2 0x19DA JUMP JUMPDEST PUSH1 0x40 MLOAD DUP1 SWAP2 SUB SWAP1 RETURN JUMPDEST PUSH2 0x42F PUSH1 0x4 DUP1 CALLDATASIZE SUB DUP2 ADD SWAP1 PUSH2 0x42A SWAP2 SWAP1 PUSH2 0x2071 JUMP JUMPDEST PUSH2 0x12C8 JUMP JUMPDEST STOP JUMPDEST PUSH2 0x44B PUSH1 0x4 DUP1 CALLDATASIZE SUB DUP2 ADD SWAP1 PUSH2 0x446 SWAP2 SWAP1 PUSH2 0x1BD7 JUMP JUMPDEST PUSH2 0x12ED JUMP JUMPDEST STOP JUMPDEST PUSH2 0x467 PUSH1 0x4 DUP1 CALLDATASIZE SUB DUP2 ADD SWAP1 PUSH2 0x462 SWAP2 SWAP1 PUSH2 0x1FFC JUMP JUMPDEST PUSH2 0x1339 JUMP JUMPDEST PUSH1 0x40 MLOAD PUSH2 0x474 SWAP2 SWAP1 PUSH2 0x19A6 JUMP JUMPDEST PUSH1 0x40 MLOAD DUP1 SWAP2 SUB SWAP1 RETURN JUMPDEST PUSH2 0x497 PUSH1 0x4 DUP1 CALLDATASIZE SUB DUP2 ADD SWAP1 PUSH2 0x492 SWAP2 SWAP1 PUSH2 0x1FFC JUMP JUMPDEST PUSH2 0x1382 JUMP JUMPDEST PUSH1 0x40 MLOAD PUSH2 0x4A4 SWAP2 SWAP1 PUSH2 0x19DA JUMP JUMPDEST PUSH1 0x40 MLOAD DUP1 SWAP2 SUB SWAP1 RETURN JUMPDEST PUSH2 0x4C7 PUSH1 0x4 DUP1 CALLDATASIZE SUB DUP2 ADD SWAP1 PUSH2 0x4C2 SWAP2 SWAP1 PUSH2 0x209E JUMP JUMPDEST PUSH2 0x13B0 JUMP JUMPDEST PUSH1 0x40 MLOAD PUSH2 0x4D4 SWAP2 SWAP1 PUSH2 0x19DA JUMP JUMPDEST PUSH1 0x40 MLOAD DUP1 SWAP2 SUB SWAP1 RETURN JUMPDEST PUSH2 0x4F7 PUSH1 0x4 DUP1 CALLDATASIZE SUB DUP2 ADD SWAP1 PUSH2 0x4F2 SWAP2 SWAP1 PUSH2 0x1C30 JUMP JUMPDEST PUSH2 0x13D5 JUMP JUMPDEST STOP JUMPDEST PUSH2 0x513 PUSH1 0x4 DUP1 CALLDATASIZE SUB DUP2 ADD SWAP1 PUSH2 0x50E SWAP2 SWAP1 PUSH2 0x1D0A JUMP JUMPDEST PUSH2 0x1404 JUMP JUMPDEST PUSH1 0x40 MLOAD PUSH2 0x520 SWAP2 SWAP1 PUSH2 0x20DE JUMP JUMPDEST PUSH1 0x40 MLOAD DUP1 SWAP2 SUB SWAP1 RETURN JUMPDEST PUSH2 0x531 PUSH2 0x14A4 JUMP JUMPDEST PUSH1 0x40 MLOAD PUSH2 0x53E SWAP2 SWAP1 PUSH2 0x19DA JUMP JUMPDEST PUSH1 0x40 MLOAD DUP1 SWAP2 SUB SWAP1 RETURN JUMPDEST PUSH2 0x561 PUSH1 0x4 DUP1 CALLDATASIZE SUB DUP2 ADD SWAP1 PUSH2 0x55C SWAP2 SWAP1 PUSH2 0x1FFC JUMP JUMPDEST PUSH2 0x14B5 JUMP JUMPDEST PUSH1 0x40 MLOAD PUSH2 0x56E SWAP2 SWAP1 PUSH2 0x19A6 JUMP JUMPDEST PUSH1 0x40 MLOAD DUP1 SWAP2 SUB SWAP1 RETURN JUMPDEST PUSH2 0x591 PUSH1 0x4 DUP1 CALLDATASIZE SUB DUP2 ADD SWAP1 PUSH2 0x58C SWAP2 SWAP1 PUSH2 0x1BD7 JUMP JUMPDEST PUSH2 0x14FE JUMP JUMPDEST STOP JUMPDEST PUSH2 0x5AD PUSH1 0x4 DUP1 CALLDATASIZE SUB DUP2 ADD SWAP1 PUSH2 0x5A8 SWAP2 SWAP1 PUSH2 0x1FFC JUMP JUMPDEST PUSH2 0x1581 JUMP JUMPDEST PUSH1 0x40 MLOAD PUSH2 0x5BA SWAP2 SWAP1 PUSH2 0x19DA JUMP JUMPDEST PUSH1 0x40 MLOAD DUP1 SWAP2 SUB SWAP1 RETURN JUMPDEST PUSH2 0x5DD PUSH1 0x4 DUP1 CALLDATASIZE SUB DUP2 ADD SWAP1 PUSH2 0x5D8 SWAP2 SWAP1 PUSH2 0x1BD7 JUMP JUMPDEST PUSH2 0x167D JUMP JUMPDEST PUSH1 0x40 MLOAD PUSH2 0x5EA SWAP2 SWAP1 PUSH2 0x19DA JUMP JUMPDEST PUSH1 0x40 MLOAD DUP1 SWAP2 SUB SWAP1 RETURN JUMPDEST PUSH1 0x4 PUSH1 0x14 SWAP1 SLOAD SWAP1 PUSH2 0x100 EXP SWAP1 DIV PUSH1 0xFF AND DUP2 JUMP JUMPDEST PUSH1 0x3 PUSH1 0x0 SWAP1 SLOAD SWAP1 PUSH2 0x100 EXP SWAP1 DIV PUSH20 0xFFFFFFFFFFFFFFFFFFFFFFFFFFFFFFFFFFFFFFFF AND DUP2 JUMP JUMPDEST PUSH1 0x2 DUP1 PUSH1 0x0 ADD SLOAD SWAP1 POP DUP2 JUMP JUMPDEST PUSH1 0x5 SLOAD DUP2 JUMP JUMPDEST PUSH2 0x646 PUSH2 0x1704 JUMP JUMPDEST DUP1 PUSH1 0xC DUP4 PUSH1 0x40 MLOAD PUSH2 0x657 SWAP2 SWAP1 PUSH2 0x213C JUMP JUMPDEST SWAP1 DUP2 MSTORE PUSH1 0x20 ADD PUSH1 0x40 MLOAD DUP1 SWAP2 SUB SWAP1 KECCAK256 PUSH1 0x0 PUSH2 0x100 EXP DUP2 SLOAD DUP2 PUSH20 0xFFFFFFFFFFFFFFFFFFFFFFFFFFFFFFFFFFFFFFFF MUL NOT AND SWAP1 DUP4 PUSH20 0xFFFFFFFFFFFFFFFFFFFFFFFFFFFFFFFFFFFFFFFF AND MUL OR SWAP1 SSTORE POP POP POP JUMP JUMPDEST PUSH2 0x6AF PUSH2 0x1704 JUMP JUMPDEST DUP1 PUSH1 0x4 PUSH1 0x0 PUSH2 0x100 EXP DUP2 SLOAD DUP2 PUSH20 0xFFFFFFFFFFFFFFFFFFFFFFFFFFFFFFFFFFFFFFFF MUL NOT AND SWAP1 DUP4 PUSH20 0xFFFFFFFFFFFFFFFFFFFFFFFFFFFFFFFFFFFFFFFF AND MUL OR SWAP1 SSTORE POP POP JUMP JUMPDEST PUSH2 0x6FB PUSH2 0x1704 JUMP JUMPDEST DUP1 PUSH1 0xA DUP4 PUSH1 0x40 MLOAD PUSH2 0x70C SWAP2 SWAP1 PUSH2 0x213C JUMP JUMPDEST SWAP1 DUP2 MSTORE PUSH1 0x20 ADD PUSH1 0x40 MLOAD DUP1 SWAP2 SUB SWAP1 KECCAK256 PUSH1 0x0 PUSH2 0x100 EXP DUP2 SLOAD DUP2 PUSH20 0xFFFFFFFFFFFFFFFFFFFFFFFFFFFFFFFFFFFFFFFF MUL NOT AND SWAP1 DUP4 PUSH20 0xFFFFFFFFFFFFFFFFFFFFFFFFFFFFFFFFFFFFFFFF AND MUL OR SWAP1 SSTORE POP POP POP JUMP JUMPDEST PUSH1 0x0 PUSH1 0x2 PUSH1 0x1 SLOAD SUB PUSH2 0x7A3 JUMPI PUSH1 0x40 MLOAD PUSH32 0x8C379A000000000000000000000000000000000000000000000000000000000 DUP2 MSTORE PUSH1 0x4 ADD PUSH2 0x79A SWAP1 PUSH2 0x219F JUMP JUMPDEST PUSH1 0x40 MLOAD DUP1 SWAP2 SUB SWAP1 REVERT JUMPDEST PUSH1 0x2 PUSH1 0x1 DUP2 SWAP1 SSTORE POP PUSH1 0x1 ISZERO ISZERO PUSH1 0x4 PUSH1 0x14 SWAP1 SLOAD SWAP1 PUSH2 0x100 EXP SWAP1 DIV PUSH1 0xFF AND ISZERO ISZERO EQ PUSH2 0x801 JUMPI PUSH1 0x40 MLOAD PUSH32 0x8C379A000000000000000000000000000000000000000000000000000000000 DUP2 MSTORE PUSH1 0x4 ADD PUSH2 0x7F8 SWAP1 PUSH2 0x220B JUMP JUMPDEST PUSH1 0x40 MLOAD DUP1 SWAP2 SUB SWAP1 REVERT JUMPDEST PUSH1 0x0 PUSH20 0xFFFFFFFFFFFFFFFFFFFFFFFFFFFFFFFFFFFFFFFF AND PUSH1 0xA DUP5 PUSH1 0x40 MLOAD PUSH2 0x829 SWAP2 SWAP1 PUSH2 0x213C JUMP JUMPDEST SWAP1 DUP2 MSTORE PUSH1 0x20 ADD PUSH1 0x40 MLOAD DUP1 SWAP2 SUB SWAP1 KECCAK256 PUSH1 0x0 SWAP1 SLOAD SWAP1 PUSH2 0x100 EXP SWAP1 DIV PUSH20 0xFFFFFFFFFFFFFFFFFFFFFFFFFFFFFFFFFFFFFFFF AND PUSH20 0xFFFFFFFFFFFFFFFFFFFFFFFFFFFFFFFFFFFFFFFF AND SUB PUSH2 0x8AE JUMPI PUSH1 0x40 MLOAD PUSH32 0x8C379A000000000000000000000000000000000000000000000000000000000 DUP2 MSTORE PUSH1 0x4 ADD PUSH2 0x8A5 SWAP1 PUSH2 0x229D JUMP JUMPDEST PUSH1 0x40 MLOAD DUP1 SWAP2 SUB SWAP1 REVERT JUMPDEST PUSH1 0x0 DUP3 GT PUSH2 0x8F1 JUMPI PUSH1 0x40 MLOAD PUSH32 0x8C379A000000000000000000000000000000000000000000000000000000000 DUP2 MSTORE PUSH1 0x4 ADD PUSH2 0x8E8 SWAP1 PUSH2 0x232F JUMP JUMPDEST PUSH1 0x40 MLOAD DUP1 SWAP2 SUB SWAP1 REVERT JUMPDEST PUSH2 0x8FB PUSH1 0x2 PUSH2 0x1782 JUMP JUMPDEST PUSH1 0x0 PUSH2 0x2710 PUSH1 0xB DUP6 PUSH1 0x40 MLOAD PUSH2 0x910 SWAP2 SWAP1 PUSH2 0x213C JUMP JUMPDEST SWAP1 DUP2 MSTORE PUSH1 0x20 ADD PUSH1 0x40 MLOAD DUP1 SWAP2 SUB SWAP1 KECCAK256 SLOAD PUSH2 0x929 SWAP2 SWAP1 PUSH2 0x23AD JUMP JUMPDEST SWAP1 POP PUSH1 0x0 DUP2 DUP5 PUSH2 0x939 SWAP2 SWAP1 PUSH2 0x23DE JUMP JUMPDEST SWAP1 POP PUSH1 0x0 PUSH2 0x984 PUSH1 0xC DUP8 PUSH1 0x40 MLOAD PUSH2 0x950 SWAP2 SWAP1 PUSH2 0x213C JUMP JUMPDEST SWAP1 DUP2 MSTORE PUSH1 0x20 ADD PUSH1 0x40 MLOAD DUP1 SWAP2 SUB SWAP1 KECCAK256 PUSH1 0x0 SWAP1 SLOAD SWAP1 PUSH2 0x100 EXP SWAP1 DIV PUSH20 0xFFFFFFFFFFFFFFFFFFFFFFFFFFFFFFFFFFFFFFFF AND PUSH2 0x167D JUMP JUMPDEST SWAP1 POP PUSH1 0x0 PUSH1 0xA DUP8 PUSH1 0x40 MLOAD PUSH2 0x998 SWAP2 SWAP1 PUSH2 0x213C JUMP JUMPDEST SWAP1 DUP2 MSTORE PUSH1 0x20 ADD PUSH1 0x40 MLOAD DUP1 SWAP2 SUB SWAP1 KECCAK256 PUSH1 0x0 SWAP1 SLOAD SWAP1 PUSH2 0x100 EXP SWAP1 DIV PUSH20 0xFFFFFFFFFFFFFFFFFFFFFFFFFFFFFFFFFFFFFFFF AND SWAP1 POP DUP3 PUSH1 0x8 PUSH1 0x0 CALLER PUSH20 0xFFFFFFFFFFFFFFFFFFFFFFFFFFFFFFFFFFFFFFFF AND PUSH20 0xFFFFFFFFFFFFFFFFFFFFFFFFFFFFFFFFFFFFFFFF AND DUP2 MSTORE PUSH1 0x20 ADD SWAP1 DUP2 MSTORE PUSH1 0x20 ADD PUSH1 0x0 KECCAK256 PUSH1 0x0 DUP4 PUSH20 0xFFFFFFFFFFFFFFFFFFFFFFFFFFFFFFFFFFFFFFFF AND PUSH20 0xFFFFFFFFFFFFFFFFFFFFFFFFFFFFFFFFFFFFFFFF AND DUP2 MSTORE PUSH1 0x20 ADD SWAP1 DUP2 MSTORE PUSH1 0x20 ADD PUSH1 0x0 KECCAK256 PUSH1 0x0 DUP3 DUP3 SLOAD PUSH2 0xA55 SWAP2 SWAP1 PUSH2 0x2420 JUMP JUMPDEST SWAP3 POP POP DUP2 SWAP1 SSTORE POP PUSH1 0x9 PUSH1 0x0 CALLER PUSH20 0xFFFFFFFFFFFFFFFFFFFFFFFFFFFFFFFFFFFFFFFF AND PUSH20 0xFFFFFFFFFFFFFFFFFFFFFFFFFFFFFFFFFFFFFFFF AND DUP2 MSTORE PUSH1 0x20 ADD SWAP1 DUP2 MSTORE PUSH1 0x20 ADD PUSH1 0x0 KECCAK256 DUP8 PUSH1 0x40 MLOAD PUSH2 0xAA9 SWAP2 SWAP1 PUSH2 0x213C JUMP JUMPDEST SWAP1 DUP2 MSTORE PUSH1 0x20 ADD PUSH1 0x40 MLOAD DUP1 SWAP2 SUB SWAP1 KECCAK256 PUSH2 0xAC1 PUSH1 0x2 PUSH2 0x1798 JUMP JUMPDEST SWAP1 DUP1 PUSH1 0x1 DUP2 SLOAD ADD DUP1 DUP3 SSTORE DUP1 SWAP2 POP POP PUSH1 0x1 SWAP1 SUB SWAP1 PUSH1 0x0 MSTORE PUSH1 0x20 PUSH1 0x0 KECCAK256 ADD PUSH1 0x0 SWAP1 SWAP2 SWAP1 SWAP2 SWAP1 SWAP2 POP SSTORE PUSH1 0x0 PUSH2 0x2710 DUP4 PUSH2 0xAF7 SWAP2 SWAP1 PUSH2 0x23AD JUMP JUMPDEST SWAP1 POP DUP7 DUP2 PUSH2 0xB05 SWAP2 SWAP1 PUSH2 0x23DE JUMP JUMPDEST PUSH1 0x5 PUSH1 0x0 DUP3 DUP3 SLOAD PUSH2 0xB16 SWAP2 SWAP1 PUSH2 0x2420 JUMP JUMPDEST SWAP3 POP POP DUP2 SWAP1 SSTORE POP DUP7 PUSH1 0x7 DUP10 PUSH1 0x40 MLOAD PUSH2 0xB2E SWAP2 SWAP1 PUSH2 0x213C JUMP JUMPDEST SWAP1 DUP2 MSTORE PUSH1 0x20 ADD PUSH1 0x40 MLOAD DUP1 SWAP2 SUB SWAP1 KECCAK256 PUSH1 0x0 DUP3 DUP3 SLOAD PUSH2 0xB4B SWAP2 SWAP1 PUSH2 0x2420 JUMP JUMPDEST SWAP3 POP POP DUP2 SWAP1 SSTORE POP PUSH2 0xBFC DUP9 CALLER DUP7 DUP7 TIMESTAMP PUSH1 0xD PUSH1 0x0 PUSH1 0x2 DUP2 MSTORE PUSH1 0x20 ADD SWAP1 DUP2 MSTORE PUSH1 0x20 ADD PUSH1 0x0 KECCAK256 DUP1 SLOAD PUSH2 0xB79 SWAP1 PUSH2 0x2483 JUMP JUMPDEST DUP1 PUSH1 0x1F ADD PUSH1 0x20 DUP1 SWAP2 DIV MUL PUSH1 0x20 ADD PUSH1 0x40 MLOAD SWAP1 DUP2 ADD PUSH1 0x40 MSTORE DUP1 SWAP3 SWAP2 SWAP1 DUP2 DUP2 MSTORE PUSH1 0x20 ADD DUP3 DUP1 SLOAD PUSH2 0xBA5 SWAP1 PUSH2 0x2483 JUMP JUMPDEST DUP1 ISZERO PUSH2 0xBF2 JUMPI DUP1 PUSH1 0x1F LT PUSH2 0xBC7 JUMPI PUSH2 0x100 DUP1 DUP4 SLOAD DIV MUL DUP4 MSTORE SWAP2 PUSH1 0x20 ADD SWAP2 PUSH2 0xBF2 JUMP JUMPDEST DUP3 ADD SWAP2 SWAP1 PUSH1 0x0 MSTORE PUSH1 0x20 PUSH1 0x0 KECCAK256 SWAP1 JUMPDEST DUP2 SLOAD DUP2 MSTORE SWAP1 PUSH1 0x1 ADD SWAP1 PUSH1 0x20 ADD DUP1 DUP4 GT PUSH2 0xBD5 JUMPI DUP3 SWAP1 SUB PUSH1 0x1F AND DUP3 ADD SWAP2 JUMPDEST POP POP POP POP POP PUSH2 0x17A6 JUMP JUMPDEST PUSH1 0x0 PUSH2 0x3E8 PUSH2 0x3E6 DUP7 PUSH2 0xC0F SWAP2 SWAP1 PUSH2 0x23DE JUMP JUMPDEST PUSH2 0xC19 SWAP2 SWAP1 PUSH2 0x23AD JUMP JUMPDEST SWAP1 POP PUSH1 0x0 PUSH2 0x3E8 PUSH1 0x2 DUP8 PUSH2 0xC2D SWAP2 SWAP1 PUSH2 0x23DE JUMP JUMPDEST PUSH2 0xC37 SWAP2 SWAP1 PUSH2 0x23AD JUMP JUMPDEST SWAP1 POP PUSH1 0x0 DUP5 SWAP1 POP DUP1 PUSH20 0xFFFFFFFFFFFFFFFFFFFFFFFFFFFFFFFFFFFFFFFF AND PUSH4 0x23B872DD CALLER PUSH1 0x3 PUSH1 0x0 SWAP1 SLOAD SWAP1 PUSH2 0x100 EXP SWAP1 DIV PUSH20 0xFFFFFFFFFFFFFFFFFFFFFFFFFFFFFFFFFFFFFFFF AND DUP7 PUSH1 0x40 MLOAD DUP5 PUSH4 0xFFFFFFFF AND PUSH1 0xE0 SHL DUP2 MSTORE PUSH1 0x4 ADD PUSH2 0xC9D SWAP4 SWAP3 SWAP2 SWAP1 PUSH2 0x24B4 JUMP JUMPDEST PUSH1 0x20 PUSH1 0x40 MLOAD DUP1 DUP4 SUB DUP2 PUSH1 0x0 DUP8 GAS CALL ISZERO DUP1 ISZERO PUSH2 0xCBC JUMPI RETURNDATASIZE PUSH1 0x0 DUP1 RETURNDATACOPY RETURNDATASIZE PUSH1 0x0 REVERT JUMPDEST POP POP POP POP PUSH1 0x40 MLOAD RETURNDATASIZE PUSH1 0x1F NOT PUSH1 0x1F DUP3 ADD AND DUP3 ADD DUP1 PUSH1 0x40 MSTORE POP DUP2 ADD SWAP1 PUSH2 0xCE0 SWAP2 SWAP1 PUSH2 0x2500 JUMP JUMPDEST POP DUP1 PUSH20 0xFFFFFFFFFFFFFFFFFFFFFFFFFFFFFFFFFFFFFFFF AND PUSH4 0x23B872DD CALLER PUSH1 0x4 PUSH1 0x0 SWAP1 SLOAD SWAP1 PUSH2 0x100 EXP SWAP1 DIV PUSH20 0xFFFFFFFFFFFFFFFFFFFFFFFFFFFFFFFFFFFFFFFF AND DUP6 PUSH1 0x40 MLOAD DUP5 PUSH4 0xFFFFFFFF AND PUSH1 0xE0 SHL DUP2 MSTORE PUSH1 0x4 ADD PUSH2 0xD40 SWAP4 SWAP3 SWAP2 SWAP1 PUSH2 0x24B4 JUMP JUMPDEST PUSH1 0x20 PUSH1 0x40 MLOAD DUP1 DUP4 SUB DUP2 PUSH1 0x0 DUP8 GAS CALL ISZERO DUP1 ISZERO PUSH2 0xD5F JUMPI RETURNDATASIZE PUSH1 0x0 DUP1 RETURNDATACOPY RETURNDATASIZE PUSH1 0x0 REVERT JUMPDEST POP POP POP POP PUSH1 0x40 MLOAD RETURNDATASIZE PUSH1 0x1F NOT PUSH1 0x1F DUP3 ADD AND DUP3 ADD DUP1 PUSH1 0x40 MSTORE POP DUP2 ADD SWAP1 PUSH2 0xD83 SWAP2 SWAP1 PUSH2 0x2500 JUMP JUMPDEST POP CALLER PUSH20 0xFFFFFFFFFFFFFFFFFFFFFFFFFFFFFFFFFFFFFFFF AND DUP12 PUSH1 0x40 MLOAD PUSH2 0xDA9 SWAP2 SWAP1 PUSH2 0x213C JUMP JUMPDEST PUSH1 0x40 MLOAD DUP1 SWAP2 SUB SWAP1 KECCAK256 PUSH32 0xA986C6DBFD1A19903790ABDA864E9D9CE49C45B2113F621B2108E529806C0024 DUP10 PUSH1 0x40 MLOAD PUSH2 0xDE0 SWAP2 SWAP1 PUSH2 0x19DA JUMP JUMPDEST PUSH1 0x40 MLOAD DUP1 SWAP2 SUB SWAP1 LOG3 PUSH2 0xDF2 PUSH1 0x2 PUSH2 0x1798 JUMP JUMPDEST SWAP9 POP POP POP POP POP POP POP POP POP PUSH1 0x1 DUP1 DUP2 SWAP1 SSTORE POP SWAP3 SWAP2 POP POP JUMP JUMPDEST PUSH1 0x4 PUSH1 0x0 SWAP1 SLOAD SWAP1 PUSH2 0x100 EXP SWAP1 DIV PUSH20 0xFFFFFFFFFFFFFFFFFFFFFFFFFFFFFFFFFFFFFFFF AND DUP2 JUMP JUMPDEST PUSH2 0xE37 PUSH2 0x1704 JUMP JUMPDEST DUP2 PUSH20 0xFFFFFFFFFFFFFFFFFFFFFFFFFFFFFFFFFFFFFFFF AND PUSH4 0xA9059CBB DUP3 DUP5 PUSH20 0xFFFFFFFFFFFFFFFFFFFFFFFFFFFFFFFFFFFFFFFF AND PUSH4 0x70A08231 ADDRESS PUSH1 0x40 MLOAD DUP3 PUSH4 0xFFFFFFFF AND PUSH1 0xE0 SHL DUP2 MSTORE PUSH1 0x4 ADD PUSH2 0xE8D SWAP2 SWAP1 PUSH2 0x19A6 JUMP JUMPDEST PUSH1 0x20 PUSH1 0x40 MLOAD DUP1 DUP4 SUB DUP2 DUP7 GAS STATICCALL ISZERO DUP1 ISZERO PUSH2 0xEAA JUMPI RETURNDATASIZE PUSH1 0x0 DUP1 RETURNDATACOPY RETURNDATASIZE PUSH1 0x0 REVERT JUMPDEST POP POP POP POP PUSH1 0x40 MLOAD RETURNDATASIZE PUSH1 0x1F NOT PUSH1 0x1F DUP3 ADD AND DUP3 ADD DUP1 PUSH1 0x40 MSTORE POP DUP2 ADD SWAP1 PUSH2 0xECE SWAP2 SWAP1 PUSH2 0x2542 JUMP JUMPDEST PUSH1 0x40 MLOAD DUP4 PUSH4 0xFFFFFFFF AND PUSH1 0xE0 SHL DUP2 MSTORE PUSH1 0x4 ADD PUSH2 0xEEB SWAP3 SWAP2 SWAP1 PUSH2 0x256F JUMP JUMPDEST PUSH1 0x20 PUSH1 0x40 MLOAD DUP1 DUP4 SUB DUP2 PUSH1 0x0 DUP8 GAS CALL ISZERO DUP1 ISZERO PUSH2 0xF0A JUMPI RETURNDATASIZE PUSH1 0x0 DUP1 RETURNDATACOPY RETURNDATASIZE PUSH1 0x0 REVERT JUMPDEST POP POP POP POP PUSH1 0x40 MLOAD RETURNDATASIZE PUSH1 0x1F NOT PUSH1 0x1F DUP3 ADD AND DUP3 ADD DUP1 PUSH1 0x40 MSTORE POP DUP2 ADD SWAP1 PUSH2 0xF2E SWAP2 SWAP1 PUSH2 0x2500 JUMP JUMPDEST POP POP POP JUMP JUMPDEST PUSH2 0xF3B PUSH2 0x1704 JUMP JUMPDEST CALLER PUSH20 0xFFFFFFFFFFFFFFFFFFFFFFFFFFFFFFFFFFFFFFFF AND PUSH2 0x8FC SELFBALANCE SWAP1 DUP2 ISZERO MUL SWAP1 PUSH1 0x40 MLOAD PUSH1 0x0 PUSH1 0x40 MLOAD DUP1 DUP4 SUB DUP2 DUP6 DUP9 DUP9 CALL SWAP4 POP POP POP POP PUSH2 0xF79 JUMPI PUSH1 0x0 DUP1 REVERT JUMPDEST JUMP JUMPDEST PUSH2 0xF83 PUSH2 0x1704 JUMP JUMPDEST PUSH2 0xF8D PUSH1 0x0 PUSH2 0x1863 JUMP JUMPDEST JUMP JUMPDEST PUSH1 0x6 PUSH1 0x20 MSTORE DUP1 PUSH1 0x0 MSTORE PUSH1 0x40 PUSH1 0x0 KECCAK256 PUSH1 0x0 SWAP2 POP SWAP1 POP DUP1 PUSH1 0x0 ADD SLOAD SWAP1 DUP1 PUSH1 0x1 ADD DUP1 SLOAD PUSH2 0xFB8 SWAP1 PUSH2 0x2483 JUMP JUMPDEST DUP1 PUSH1 0x1F ADD PUSH1 0x20 DUP1 SWAP2 DIV MUL PUSH1 0x20 ADD PUSH1 0x40 MLOAD SWAP1 DUP2 ADD PUSH1 0x40 MSTORE DUP1 SWAP3 SWAP2 SWAP1 DUP2 DUP2 MSTORE PUSH1 0x20 ADD DUP3 DUP1 SLOAD PUSH2 0xFE4 SWAP1 PUSH2 0x2483 JUMP JUMPDEST DUP1 ISZERO PUSH2 0x1031 JUMPI DUP1 PUSH1 0x1F LT PUSH2 0x1006 JUMPI PUSH2 0x100 DUP1 DUP4 SLOAD DIV MUL DUP4 MSTORE SWAP2 PUSH1 0x20 ADD SWAP2 PUSH2 0x1031 JUMP JUMPDEST DUP3 ADD SWAP2 SWAP1 PUSH1 0x0 MSTORE PUSH1 0x20 PUSH1 0x0 KECCAK256 SWAP1 JUMPDEST DUP2 SLOAD DUP2 MSTORE SWAP1 PUSH1 0x1 ADD SWAP1 PUSH1 0x20 ADD DUP1 DUP4 GT PUSH2 0x1014 JUMPI DUP3 SWAP1 SUB PUSH1 0x1F AND DUP3 ADD SWAP2 JUMPDEST POP POP POP POP POP SWAP1 DUP1 PUSH1 0x2 ADD PUSH1 0x0 SWAP1 SLOAD SWAP1 PUSH2 0x100 EXP SWAP1 DIV PUSH20 0xFFFFFFFFFFFFFFFFFFFFFFFFFFFFFFFFFFFFFFFF AND SWAP1 DUP1 PUSH1 0x3 ADD SLOAD SWAP1 DUP1 PUSH1 0x4 ADD SLOAD SWAP1 DUP1 PUSH1 0x5 ADD SLOAD SWAP1 DUP1 PUSH1 0x6 ADD DUP1 SLOAD PUSH2 0x107E SWAP1 PUSH2 0x2483 JUMP JUMPDEST DUP1 PUSH1 0x1F ADD PUSH1 0x20 DUP1 SWAP2 DIV MUL PUSH1 0x20 ADD PUSH1 0x40 MLOAD SWAP1 DUP2 ADD PUSH1 0x40 MSTORE DUP1 SWAP3 SWAP2 SWAP1 DUP2 DUP2 MSTORE PUSH1 0x20 ADD DUP3 DUP1 SLOAD PUSH2 0x10AA SWAP1 PUSH2 0x2483 JUMP JUMPDEST DUP1 ISZERO PUSH2 0x10F7 JUMPI DUP1 PUSH1 0x1F LT PUSH2 0x10CC JUMPI PUSH2 0x100 DUP1 DUP4 SLOAD DIV MUL DUP4 MSTORE SWAP2 PUSH1 0x20 ADD SWAP2 PUSH2 0x10F7 JUMP JUMPDEST DUP3 ADD SWAP2 SWAP1 PUSH1 0x0 MSTORE PUSH1 0x20 PUSH1 0x0 KECCAK256 SWAP1 JUMPDEST DUP2 SLOAD DUP2 MSTORE SWAP1 PUSH1 0x1 ADD SWAP1 PUSH1 0x20 ADD DUP1 DUP4 GT PUSH2 0x10DA JUMPI DUP3 SWAP1 SUB PUSH1 0x1F AND DUP3 ADD SWAP2 JUMPDEST POP POP POP POP POP SWAP1 POP DUP8 JUMP JUMPDEST PUSH1 0x0 DUP1 PUSH1 0x0 SWAP1 SLOAD SWAP1 PUSH2 0x100 EXP SWAP1 DIV PUSH20 0xFFFFFFFFFFFFFFFFFFFFFFFFFFFFFFFFFFFFFFFF AND SWAP1 POP SWAP1 JUMP JUMPDEST PUSH1 0x60 PUSH1 0x9 PUSH1 0x0 DUP5 PUSH20 0xFFFFFFFFFFFFFFFFFFFFFFFFFFFFFFFFFFFFFFFF AND PUSH20 0xFFFFFFFFFFFFFFFFFFFFFFFFFFFFFFFFFFFFFFFF AND DUP2 MSTORE PUSH1 0x20 ADD SWAP1 DUP2 MSTORE PUSH1 0x20 ADD PUSH1 0x0 KECCAK256 DUP3 PUSH1 0x40 MLOAD PUSH2 0x1179 SWAP2 SWAP1 PUSH2 0x213C JUMP JUMPDEST SWAP1 DUP2 MSTORE PUSH1 0x20 ADD PUSH1 0x40 MLOAD DUP1 SWAP2 SUB SWAP1 KECCAK256 DUP1 SLOAD DUP1 PUSH1 0x20 MUL PUSH1 0x20 ADD PUSH1 0x40 MLOAD SWAP1 DUP2 ADD PUSH1 0x40 MSTORE DUP1 SWAP3 SWAP2 SWAP1 DUP2 DUP2 MSTORE PUSH1 0x20 ADD DUP3 DUP1 SLOAD DUP1 ISZERO PUSH2 0x11D1 JUMPI PUSH1 0x20 MUL DUP3 ADD SWAP2 SWAP1 PUSH1 0x0 MSTORE PUSH1 0x20 PUSH1 0x0 KECCAK256 SWAP1 JUMPDEST DUP2 SLOAD DUP2 MSTORE PUSH1 0x20 ADD SWAP1 PUSH1 0x1 ADD SWAP1 DUP1 DUP4 GT PUSH2 0x11BD JUMPI JUMPDEST POP POP POP POP POP SWAP1 POP SWAP3 SWAP2 POP POP JUMP JUMPDEST PUSH2 0x11E6 PUSH2 0x1704 JUMP JUMPDEST DUP1 PUSH1 0x5 DUP2 SWAP1 SSTORE POP POP JUMP JUMPDEST PUSH2 0x11F8 PUSH2 0x1704 JUMP JUMPDEST PUSH1 0x0 PUSH1 0x6 PUSH1 0x0 DUP9 DUP2 MSTORE PUSH1 0x20 ADD SWAP1 DUP2 MSTORE PUSH1 0x20 ADD PUSH1 0x0 KECCAK256 SWAP1 POP DUP5 DUP2 PUSH1 0x2 ADD PUSH1 0x0 PUSH2 0x100 EXP DUP2 SLOAD DUP2 PUSH20 0xFFFFFFFFFFFFFFFFFFFFFFFFFFFFFFFFFFFFFFFF MUL NOT AND SWAP1 DUP4 PUSH20 0xFFFFFFFFFFFFFFFFFFFFFFFFFFFFFFFFFFFFFFFF AND MUL OR SWAP1 SSTORE POP DUP4 DUP2 PUSH1 0x3 ADD DUP2 SWAP1 SSTORE POP DUP3 DUP2 PUSH1 0x4 ADD DUP2 SWAP1 SSTORE POP DUP2 DUP2 PUSH1 0x5 ADD DUP2 SWAP1 SSTORE POP PUSH1 0xD PUSH1 0x0 DUP8 DUP2 MSTORE PUSH1 0x20 ADD SWAP1 DUP2 MSTORE PUSH1 0x20 ADD PUSH1 0x0 KECCAK256 DUP2 PUSH1 0x6 ADD SWAP1 DUP2 PUSH2 0x1290 SWAP2 SWAP1 PUSH2 0x276F JUMP JUMPDEST POP POP POP POP POP POP POP POP JUMP JUMPDEST PUSH1 0x7 DUP2 DUP1 MLOAD PUSH1 0x20 DUP2 ADD DUP3 ADD DUP1 MLOAD DUP5 DUP3 MSTORE PUSH1 0x20 DUP4 ADD PUSH1 0x20 DUP6 ADD KECCAK256 DUP2 DUP4 MSTORE DUP1 SWAP6 POP POP POP POP POP POP PUSH1 0x0 SWAP2 POP SWAP1 POP SLOAD DUP2 JUMP JUMPDEST PUSH2 0x12D0 PUSH2 0x1704 JUMP JUMPDEST DUP1 PUSH1 0x4 PUSH1 0x14 PUSH2 0x100 EXP DUP2 SLOAD DUP2 PUSH1 0xFF MUL NOT AND SWAP1 DUP4 ISZERO ISZERO MUL OR SWAP1 SSTORE POP POP JUMP JUMPDEST PUSH2 0x12F5 PUSH2 0x1704 JUMP JUMPDEST DUP1 PUSH1 0x3 PUSH1 0x0 PUSH2 0x100 EXP DUP2 SLOAD DUP2 PUSH20 0xFFFFFFFFFFFFFFFFFFFFFFFFFFFFFFFFFFFFFFFF MUL NOT AND SWAP1 DUP4 PUSH20 0xFFFFFFFFFFFFFFFFFFFFFFFFFFFFFFFFFFFFFFFF AND MUL OR SWAP1 SSTORE POP POP JUMP JUMPDEST PUSH1 0xC DUP2 DUP1 MLOAD PUSH1 0x20 DUP2 ADD DUP3 ADD DUP1 MLOAD DUP5 DUP3 MSTORE PUSH1 0x20 DUP4 ADD PUSH1 0x20 DUP6 ADD KECCAK256 DUP2 DUP4 MSTORE DUP1 SWAP6 POP POP POP POP POP POP PUSH1 0x0 SWAP2 POP SLOAD SWAP1 PUSH2 0x100 EXP SWAP1 DIV PUSH20 0xFFFFFFFFFFFFFFFFFFFFFFFFFFFFFFFFFFFFFFFF AND DUP2 JUMP JUMPDEST PUSH1 0xB DUP2 DUP1 MLOAD PUSH1 0x20 DUP2 ADD DUP3 ADD DUP1 MLOAD DUP5 DUP3 MSTORE PUSH1 0x20 DUP4 ADD PUSH1 0x20 DUP6 ADD KECCAK256 DUP2 DUP4 MSTORE DUP1 SWAP6 POP POP POP POP POP POP PUSH1 0x0 SWAP2 POP SWAP1 POP SLOAD DUP2 JUMP JUMPDEST PUSH1 0x8 PUSH1 0x20 MSTORE DUP2 PUSH1 0x0 MSTORE PUSH1 0x40 PUSH1 0x0 KECCAK256 PUSH1 0x20 MSTORE DUP1 PUSH1 0x0 MSTORE PUSH1 0x40 PUSH1 0x0 KECCAK256 PUSH1 0x0 SWAP2 POP SWAP2 POP POP SLOAD DUP2 JUMP JUMPDEST PUSH2 0x13DD PUSH2 0x1704 JUMP JUMPDEST DUP1 PUSH1 0xB DUP4 PUSH1 0x40 MLOAD PUSH2 0x13EE SWAP2 SWAP1 PUSH2 0x213C JUMP JUMPDEST SWAP1 DUP2 MSTORE PUSH1 0x20 ADD PUSH1 0x40 MLOAD DUP1 SWAP2 SUB SWAP1 KECCAK256 DUP2 SWAP1 SSTORE POP POP POP JUMP JUMPDEST PUSH1 0xD PUSH1 0x20 MSTORE DUP1 PUSH1 0x0 MSTORE PUSH1 0x40 PUSH1 0x0 KECCAK256 PUSH1 0x0 SWAP2 POP SWAP1 POP DUP1 SLOAD PUSH2 0x1423 SWAP1 PUSH2 0x2483 JUMP JUMPDEST DUP1 PUSH1 0x1F ADD PUSH1 0x20 DUP1 SWAP2 DIV MUL PUSH1 0x20 ADD PUSH1 0x40 MLOAD SWAP1 DUP2 ADD PUSH1 0x40 MSTORE DUP1 SWAP3 SWAP2 SWAP1 DUP2 DUP2 MSTORE PUSH1 0x20 ADD DUP3 DUP1 SLOAD PUSH2 0x144F SWAP1 PUSH2 0x2483 JUMP JUMPDEST DUP1 ISZERO PUSH2 0x149C JUMPI DUP1 PUSH1 0x1F LT PUSH2 0x1471 JUMPI PUSH2 0x100 DUP1 DUP4 SLOAD DIV MUL DUP4 MSTORE SWAP2 PUSH1 0x20 ADD SWAP2 PUSH2 0x149C JUMP JUMPDEST DUP3 ADD SWAP2 SWAP1 PUSH1 0x0 MSTORE PUSH1 0x20 PUSH1 0x0 KECCAK256 SWAP1 JUMPDEST DUP2 SLOAD DUP2 MSTORE SWAP1 PUSH1 0x1 ADD SWAP1 PUSH1 0x20 ADD DUP1 DUP4 GT PUSH2 0x147F JUMPI DUP3 SWAP1 SUB PUSH1 0x1F AND DUP3 ADD SWAP2 JUMPDEST POP POP POP POP POP DUP2 JUMP JUMPDEST PUSH1 0x0 PUSH2 0x14B0 PUSH1 0x2 PUSH2 0x1798 JUMP JUMPDEST SWAP1 POP SWAP1 JUMP JUMPDEST PUSH1 0xA DUP2 DUP1 MLOAD PUSH1 0x20 DUP2 ADD DUP3 ADD DUP1 MLOAD DUP5 DUP3 MSTORE PUSH1 0x20 DUP4 ADD PUSH1 0x20 DUP6 ADD KECCAK256 DUP2 DUP4 MSTORE DUP1 SWAP6 POP POP POP POP POP POP PUSH1 0x0 SWAP2 POP SLOAD SWAP1 PUSH2 0x100 EXP SWAP1 DIV PUSH20 0xFFFFFFFFFFFFFFFFFFFFFFFFFFFFFFFFFFFFFFFF AND DUP2 JUMP JUMPDEST PUSH2 0x1506 PUSH2 0x1704 JUMP JUMPDEST PUSH1 0x0 PUSH20 0xFFFFFFFFFFFFFFFFFFFFFFFFFFFFFFFFFFFFFFFF AND DUP2 PUSH20 0xFFFFFFFFFFFFFFFFFFFFFFFFFFFFFFFFFFFFFFFF AND SUB PUSH2 0x1575 JUMPI PUSH1 0x40 MLOAD PUSH32 0x8C379A000000000000000000000000000000000000000000000000000000000 DUP2 MSTORE PUSH1 0x4 ADD PUSH2 0x156C SWAP1 PUSH2 0x28C9 JUMP JUMPDEST PUSH1 0x40 MLOAD DUP1 SWAP2 SUB SWAP1 REVERT JUMPDEST PUSH2 0x157E DUP2 PUSH2 0x1863 JUMP JUMPDEST POP JUMP JUMPDEST PUSH1 0x0 DUP1 PUSH20 0xFFFFFFFFFFFFFFFFFFFFFFFFFFFFFFFFFFFFFFFF AND PUSH1 0xC DUP4 PUSH1 0x40 MLOAD PUSH2 0x15AA SWAP2 SWAP1 PUSH2 0x213C JUMP JUMPDEST SWAP1 DUP2 MSTORE PUSH1 0x20 ADD PUSH1 0x40 MLOAD DUP1 SWAP2 SUB SWAP1 KECCAK256 PUSH1 0x0 SWAP1 SLOAD SWAP1 PUSH2 0x100 EXP SWAP1 DIV PUSH20 0xFFFFFFFFFFFFFFFFFFFFFFFFFFFFFFFFFFFFFFFF AND PUSH20 0xFFFFFFFFFFFFFFFFFFFFFFFFFFFFFFFFFFFFFFFF AND SUB PUSH2 0x162F JUMPI PUSH1 0x40 MLOAD PUSH32 0x8C379A000000000000000000000000000000000000000000000000000000000 DUP2 MSTORE PUSH1 0x4 ADD PUSH2 0x1626 SWAP1 PUSH2 0x295B JUMP JUMPDEST PUSH1 0x40 MLOAD DUP1 SWAP2 SUB SWAP1 REVERT JUMPDEST PUSH2 0x1676 PUSH1 0xC DUP4 PUSH1 0x40 MLOAD PUSH2 0x1642 SWAP2 SWAP1 PUSH2 0x213C JUMP JUMPDEST SWAP1 DUP2 MSTORE PUSH1 0x20 ADD PUSH1 0x40 MLOAD DUP1 SWAP2 SUB SWAP1 KECCAK256 PUSH1 0x0 SWAP1 SLOAD SWAP1 PUSH2 0x100 EXP SWAP1 DIV PUSH20 0xFFFFFFFFFFFFFFFFFFFFFFFFFFFFFFFFFFFFFFFF AND PUSH2 0x167D JUMP JUMPDEST SWAP1 POP SWAP2 SWAP1 POP JUMP JUMPDEST PUSH1 0x0 DUP1 DUP3 SWAP1 POP PUSH1 0x0 DUP2 PUSH20 0xFFFFFFFFFFFFFFFFFFFFFFFFFFFFFFFFFFFFFFFF AND PUSH4 0xFEAF968C PUSH1 0x40 MLOAD DUP2 PUSH4 0xFFFFFFFF AND PUSH1 0xE0 SHL DUP2 MSTORE PUSH1 0x4 ADD PUSH1 0xA0 PUSH1 0x40 MLOAD DUP1 DUP4 SUB DUP2 DUP7 GAS STATICCALL ISZERO DUP1 ISZERO PUSH2 0x16D0 JUMPI RETURNDATASIZE PUSH1 0x0 DUP1 RETURNDATACOPY RETURNDATASIZE PUSH1 0x0 REVERT JUMPDEST POP POP POP POP PUSH1 0x40 MLOAD RETURNDATASIZE PUSH1 0x1F NOT PUSH1 0x1F DUP3 ADD AND DUP3 ADD DUP1 PUSH1 0x40 MSTORE POP DUP2 ADD SWAP1 PUSH2 0x16F4 SWAP2 SWAP1 PUSH2 0x29F3 JUMP JUMPDEST POP POP POP SWAP2 POP POP DUP1 SWAP3 POP POP POP SWAP2 SWAP1 POP JUMP JUMPDEST PUSH2 0x170C PUSH2 0x1927 JUMP JUMPDEST PUSH20 0xFFFFFFFFFFFFFFFFFFFFFFFFFFFFFFFFFFFFFFFF AND PUSH2 0x172A PUSH2 0x1101 JUMP JUMPDEST PUSH20 0xFFFFFFFFFFFFFFFFFFFFFFFFFFFFFFFFFFFFFFFF AND EQ PUSH2 0x1780 JUMPI PUSH1 0x40 MLOAD PUSH32 0x8C379A000000000000000000000000000000000000000000000000000000000 DUP2 MSTORE PUSH1 0x4 ADD PUSH2 0x1777 SWAP1 PUSH2 0x2ABA JUMP JUMPDEST PUSH1 0x40 MLOAD DUP1 SWAP2 SUB SWAP1 REVERT JUMPDEST JUMP JUMPDEST PUSH1 0x1 DUP2 PUSH1 0x0 ADD PUSH1 0x0 DUP3 DUP3 SLOAD ADD SWAP3 POP POP DUP2 SWAP1 SSTORE POP POP JUMP JUMPDEST PUSH1 0x0 DUP2 PUSH1 0x0 ADD SLOAD SWAP1 POP SWAP2 SWAP1 POP JUMP JUMPDEST PUSH1 0x0 PUSH1 0x6 PUSH1 0x0 PUSH2 0x17B6 PUSH1 0x2 PUSH2 0x1798 JUMP JUMPDEST DUP2 MSTORE PUSH1 0x20 ADD SWAP1 DUP2 MSTORE PUSH1 0x20 ADD PUSH1 0x0 KECCAK256 SWAP1 POP PUSH2 0x17D0 PUSH1 0x2 PUSH2 0x1798 JUMP JUMPDEST DUP2 PUSH1 0x0 ADD DUP2 SWAP1 SSTORE POP DUP7 DUP2 PUSH1 0x1 ADD SWAP1 DUP2 PUSH2 0x17E9 SWAP2 SWAP1 PUSH2 0x2ADA JUMP JUMPDEST POP DUP6 DUP2 PUSH1 0x2 ADD PUSH1 0x0 PUSH2 0x100 EXP DUP2 SLOAD DUP2 PUSH20 0xFFFFFFFFFFFFFFFFFFFFFFFFFFFFFFFFFFFFFFFF MUL NOT AND SWAP1 DUP4 PUSH20 0xFFFFFFFFFFFFFFFFFFFFFFFFFFFFFFFFFFFFFFFF AND MUL OR SWAP1 SSTORE POP DUP5 DUP2 PUSH1 0x3 ADD DUP2 SWAP1 SSTORE POP DUP4 DUP2 PUSH1 0x4 ADD DUP2 SWAP1 SSTORE POP DUP3 DUP2 PUSH1 0x5 ADD DUP2 SWAP1 SSTORE POP DUP2 DUP2 PUSH1 0x6 ADD SWAP1 DUP2 PUSH2 0x1859 SWAP2 SWAP1 PUSH2 0x2ADA JUMP JUMPDEST POP POP POP POP POP POP POP POP JUMP JUMPDEST PUSH1 0x0 DUP1 PUSH1 0x0 SWAP1 SLOAD SWAP1 PUSH2 0x100 EXP SWAP1 DIV PUSH20 0xFFFFFFFFFFFFFFFFFFFFFFFFFFFFFFFFFFFFFFFF AND SWAP1 POP DUP2 PUSH1 0x0 DUP1 PUSH2 0x100 EXP DUP2 SLOAD DUP2 PUSH20 0xFFFFFFFFFFFFFFFFFFFFFFFFFFFFFFFFFFFFFFFF MUL NOT AND SWAP1 DUP4 PUSH20 0xFFFFFFFFFFFFFFFFFFFFFFFFFFFFFFFFFFFFFFFF AND MUL OR SWAP1 SSTORE POP DUP2 PUSH20 0xFFFFFFFFFFFFFFFFFFFFFFFFFFFFFFFFFFFFFFFF AND DUP2 PUSH20 0xFFFFFFFFFFFFFFFFFFFFFFFFFFFFFFFFFFFFFFFF AND PUSH32 0x8BE0079C531659141344CD1FD0A4F28419497F9722A3DAAFE3B4186F6B6457E0 PUSH1 0x40 MLOAD PUSH1 0x40 MLOAD DUP1 SWAP2 SUB SWAP1 LOG3 POP POP JUMP JUMPDEST PUSH1 0x0 CALLER SWAP1 POP SWAP1 JUMP JUMPDEST PUSH1 0x0 DUP2 ISZERO ISZERO SWAP1 POP SWAP2 SWAP1 POP JUMP JUMPDEST PUSH2 0x1944 DUP2 PUSH2 0x192F JUMP JUMPDEST DUP3 MSTORE POP POP JUMP JUMPDEST PUSH1 0x0 PUSH1 0x20 DUP3 ADD SWAP1 POP PUSH2 0x195F PUSH1 0x0 DUP4 ADD DUP5 PUSH2 0x193B JUMP JUMPDEST SWAP3 SWAP2 POP POP JUMP JUMPDEST PUSH1 0x0 PUSH20 0xFFFFFFFFFFFFFFFFFFFFFFFFFFFFFFFFFFFFFFFF DUP3 AND SWAP1 POP SWAP2 SWAP1 POP JUMP JUMPDEST PUSH1 0x0 PUSH2 0x1990 DUP3 PUSH2 0x1965 JUMP JUMPDEST SWAP1 POP SWAP2 SWAP1 POP JUMP JUMPDEST PUSH2 0x19A0 DUP2 PUSH2 0x1985 JUMP JUMPDEST DUP3 MSTORE POP POP JUMP JUMPDEST PUSH1 0x0 PUSH1 0x20 DUP3 ADD SWAP1 POP PUSH2 0x19BB PUSH1 0x0 DUP4 ADD DUP5 PUSH2 0x1997 JUMP JUMPDEST SWAP3 SWAP2 POP POP JUMP JUMPDEST PUSH1 0x0 DUP2 SWAP1 POP SWAP2 SWAP1 POP JUMP JUMPDEST PUSH2 0x19D4 DUP2 PUSH2 0x19C1 JUMP JUMPDEST DUP3 MSTORE POP POP JUMP JUMPDEST PUSH1 0x0 PUSH1 0x20 DUP3 ADD SWAP1 POP PUSH2 0x19EF PUSH1 0x0 DUP4 ADD DUP5 PUSH2 0x19CB JUMP JUMPDEST SWAP3 SWAP2 POP POP JUMP JUMPDEST PUSH1 0x0 PUSH1 0x40 MLOAD SWAP1 POP SWAP1 JUMP JUMPDEST PUSH1 0x0 DUP1 REVERT JUMPDEST PUSH1 0x0 DUP1 REVERT JUMPDEST PUSH1 0x0 DUP1 REVERT JUMPDEST PUSH1 0x0 DUP1 REVERT JUMPDEST PUSH1 0x0 PUSH1 0x1F NOT PUSH1 0x1F DUP4 ADD AND SWAP1 POP SWAP2 SWAP1 POP JUMP JUMPDEST PUSH32 0x4E487B7100000000000000000000000000000000000000000000000000000000 PUSH1 0x0 MSTORE PUSH1 0x41 PUSH1 0x4 MSTORE PUSH1 0x24 PUSH1 0x0 REVERT JUMPDEST PUSH2 0x1A5C DUP3 PUSH2 0x1A13 JUMP JUMPDEST DUP2 ADD DUP2 DUP2 LT PUSH8 0xFFFFFFFFFFFFFFFF DUP3 GT OR ISZERO PUSH2 0x1A7B JUMPI PUSH2 0x1A7A PUSH2 0x1A24 JUMP JUMPDEST JUMPDEST DUP1 PUSH1 0x40 MSTORE POP POP POP JUMP JUMPDEST PUSH1 0x0 PUSH2 0x1A8E PUSH2 0x19F5 JUMP JUMPDEST SWAP1 POP PUSH2 0x1A9A DUP3 DUP3 PUSH2 0x1A53 JUMP JUMPDEST SWAP2 SWAP1 POP JUMP JUMPDEST PUSH1 0x0 PUSH8 0xFFFFFFFFFFFFFFFF DUP3 GT ISZERO PUSH2 0x1ABA JUMPI PUSH2 0x1AB9 PUSH2 0x1A24 JUMP JUMPDEST JUMPDEST PUSH2 0x1AC3 DUP3 PUSH2 0x1A13 JUMP JUMPDEST SWAP1 POP PUSH1 0x20 DUP2 ADD SWAP1 POP SWAP2 SWAP1 POP JUMP JUMPDEST DUP3 DUP2 DUP4 CALLDATACOPY PUSH1 0x0 DUP4 DUP4 ADD MSTORE POP POP POP JUMP JUMPDEST PUSH1 0x0 PUSH2 0x1AF2 PUSH2 0x1AED DUP5 PUSH2 0x1A9F JUMP JUMPDEST PUSH2 0x1A84 JUMP JUMPDEST SWAP1 POP DUP3 DUP2 MSTORE PUSH1 0x20 DUP2 ADD DUP5 DUP5 DUP5 ADD GT ISZERO PUSH2 0x1B0E JUMPI PUSH2 0x1B0D PUSH2 0x1A0E JUMP JUMPDEST JUMPDEST PUSH2 0x1B19 DUP5 DUP3 DUP6 PUSH2 0x1AD0 JUMP JUMPDEST POP SWAP4 SWAP3 POP POP POP JUMP JUMPDEST PUSH1 0x0 DUP3 PUSH1 0x1F DUP4 ADD SLT PUSH2 0x1B36 JUMPI PUSH2 0x1B35 PUSH2 0x1A09 JUMP JUMPDEST JUMPDEST DUP2 CALLDATALOAD PUSH2 0x1B46 DUP5 DUP3 PUSH1 0x20 DUP7 ADD PUSH2 0x1ADF JUMP JUMPDEST SWAP2 POP POP SWAP3 SWAP2 POP POP JUMP JUMPDEST PUSH2 0x1B58 DUP2 PUSH2 0x1985 JUMP JUMPDEST DUP2 EQ PUSH2 0x1B63 JUMPI PUSH1 0x0 DUP1 REVERT JUMPDEST POP JUMP JUMPDEST PUSH1 0x0 DUP2 CALLDATALOAD SWAP1 POP PUSH2 0x1B75 DUP2 PUSH2 0x1B4F JUMP JUMPDEST SWAP3 SWAP2 POP POP JUMP JUMPDEST PUSH1 0x0 DUP1 PUSH1 0x40 DUP4 DUP6 SUB SLT ISZERO PUSH2 0x1B92 JUMPI PUSH2 0x1B91 PUSH2 0x19FF JUMP JUMPDEST JUMPDEST PUSH1 0x0 DUP4 ADD CALLDATALOAD PUSH8 0xFFFFFFFFFFFFFFFF DUP2 GT ISZERO PUSH2 0x1BB0 JUMPI PUSH2 0x1BAF PUSH2 0x1A04 JUMP JUMPDEST JUMPDEST PUSH2 0x1BBC DUP6 DUP3 DUP7 ADD PUSH2 0x1B21 JUMP JUMPDEST SWAP3 POP POP PUSH1 0x20 PUSH2 0x1BCD DUP6 DUP3 DUP7 ADD PUSH2 0x1B66 JUMP JUMPDEST SWAP2 POP POP SWAP3 POP SWAP3 SWAP1 POP JUMP JUMPDEST PUSH1 0x0 PUSH1 0x20 DUP3 DUP5 SUB SLT ISZERO PUSH2 0x1BED JUMPI PUSH2 0x1BEC PUSH2 0x19FF JUMP JUMPDEST JUMPDEST PUSH1 0x0 PUSH2 0x1BFB DUP5 DUP3 DUP6 ADD PUSH2 0x1B66 JUMP JUMPDEST SWAP2 POP POP SWAP3 SWAP2 POP POP JUMP JUMPDEST PUSH2 0x1C0D DUP2 PUSH2 0x19C1 JUMP JUMPDEST DUP2 EQ PUSH2 0x1C18 JUMPI PUSH1 0x0 DUP1 REVERT JUMPDEST POP JUMP JUMPDEST PUSH1 0x0 DUP2 CALLDATALOAD SWAP1 POP PUSH2 0x1C2A DUP2 PUSH2 0x1C04 JUMP JUMPDEST SWAP3 SWAP2 POP POP JUMP JUMPDEST PUSH1 0x0 DUP1 PUSH1 0x40 DUP4 DUP6 SUB SLT ISZERO PUSH2 0x1C47 JUMPI PUSH2 0x1C46 PUSH2 0x19FF JUMP JUMPDEST JUMPDEST PUSH1 0x0 DUP4 ADD CALLDATALOAD PUSH8 0xFFFFFFFFFFFFFFFF DUP2 GT ISZERO PUSH2 0x1C65 JUMPI PUSH2 0x1C64 PUSH2 0x1A04 JUMP JUMPDEST JUMPDEST PUSH2 0x1C71 DUP6 DUP3 DUP7 ADD PUSH2 0x1B21 JUMP JUMPDEST SWAP3 POP POP PUSH1 0x20 PUSH2 0x1C82 DUP6 DUP3 DUP7 ADD PUSH2 0x1C1B JUMP JUMPDEST SWAP2 POP POP SWAP3 POP SWAP3 SWAP1 POP JUMP JUMPDEST PUSH1 0x0 PUSH2 0x1C97 DUP3 PUSH2 0x1985 JUMP JUMPDEST SWAP1 POP SWAP2 SWAP1 POP JUMP JUMPDEST PUSH2 0x1CA7 DUP2 PUSH2 0x1C8C JUMP JUMPDEST DUP2 EQ PUSH2 0x1CB2 JUMPI PUSH1 0x0 DUP1 REVERT JUMPDEST POP JUMP JUMPDEST PUSH1 0x0 DUP2 CALLDATALOAD SWAP1 POP PUSH2 0x1CC4 DUP2 PUSH2 0x1C9E JUMP JUMPDEST SWAP3 SWAP2 POP POP JUMP JUMPDEST PUSH1 0x0 DUP1 PUSH1 0x40 DUP4 DUP6 SUB SLT ISZERO PUSH2 0x1CE1 JUMPI PUSH2 0x1CE0 PUSH2 0x19FF JUMP JUMPDEST JUMPDEST PUSH1 0x0 PUSH2 0x1CEF DUP6 DUP3 DUP7 ADD PUSH2 0x1CB5 JUMP JUMPDEST SWAP3 POP POP PUSH1 0x20 PUSH2 0x1D00 DUP6 DUP3 DUP7 ADD PUSH2 0x1B66 JUMP JUMPDEST SWAP2 POP POP SWAP3 POP SWAP3 SWAP1 POP JUMP JUMPDEST PUSH1 0x0 PUSH1 0x20 DUP3 DUP5 SUB SLT ISZERO PUSH2 0x1D20 JUMPI PUSH2 0x1D1F PUSH2 0x19FF JUMP JUMPDEST JUMPDEST PUSH1 0x0 PUSH2 0x1D2E DUP5 DUP3 DUP6 ADD PUSH2 0x1C1B JUMP JUMPDEST SWAP2 POP POP SWAP3 SWAP2 POP POP JUMP JUMPDEST PUSH1 0x0 DUP2 MLOAD SWAP1 POP SWAP2 SWAP1 POP JUMP JUMPDEST PUSH1 0x0 DUP3 DUP3 MSTORE PUSH1 0x20 DUP3 ADD SWAP1 POP SWAP3 SWAP2 POP POP JUMP JUMPDEST PUSH1 0x0 JUMPDEST DUP4 DUP2 LT ISZERO PUSH2 0x1D71 JUMPI DUP1 DUP3 ADD MLOAD DUP2 DUP5 ADD MSTORE PUSH1 0x20 DUP2 ADD SWAP1 POP PUSH2 0x1D56 JUMP JUMPDEST PUSH1 0x0 DUP5 DUP5 ADD MSTORE POP POP POP POP JUMP JUMPDEST PUSH1 0x0 PUSH2 0x1D88 DUP3 PUSH2 0x1D37 JUMP JUMPDEST PUSH2 0x1D92 DUP2 DUP6 PUSH2 0x1D42 JUMP JUMPDEST SWAP4 POP PUSH2 0x1DA2 DUP2 DUP6 PUSH1 0x20 DUP7 ADD PUSH2 0x1D53 JUMP JUMPDEST PUSH2 0x1DAB DUP2 PUSH2 0x1A13 JUMP JUMPDEST DUP5 ADD SWAP2 POP POP SWAP3 SWAP2 POP POP JUMP JUMPDEST PUSH1 0x0 PUSH1 0xE0 DUP3 ADD SWAP1 POP PUSH2 0x1DCB PUSH1 0x0 DUP4 ADD DUP11 PUSH2 0x19CB JUMP JUMPDEST DUP2 DUP2 SUB PUSH1 0x20 DUP4 ADD MSTORE PUSH2 0x1DDD DUP2 DUP10 PUSH2 0x1D7D JUMP JUMPDEST SWAP1 POP PUSH2 0x1DEC PUSH1 0x40 DUP4 ADD DUP9 PUSH2 0x1997 JUMP JUMPDEST PUSH2 0x1DF9 PUSH1 0x60 DUP4 ADD DUP8 PUSH2 0x19CB JUMP JUMPDEST PUSH2 0x1E06 PUSH1 0x80 DUP4 ADD DUP7 PUSH2 0x19CB JUMP JUMPDEST PUSH2 0x1E13 PUSH1 0xA0 DUP4 ADD DUP6 PUSH2 0x19CB JUMP JUMPDEST DUP2 DUP2 SUB PUSH1 0xC0 DUP4 ADD MSTORE PUSH2 0x1E25 DUP2 DUP5 PUSH2 0x1D7D JUMP JUMPDEST SWAP1 POP SWAP9 SWAP8 POP POP POP POP POP POP POP POP JUMP JUMPDEST PUSH1 0x0 DUP1 PUSH1 0x40 DUP4 DUP6 SUB SLT ISZERO PUSH2 0x1E4A JUMPI PUSH2 0x1E49 PUSH2 0x19FF JUMP JUMPDEST JUMPDEST PUSH1 0x0 PUSH2 0x1E58 DUP6 DUP3 DUP7 ADD PUSH2 0x1B66 JUMP JUMPDEST SWAP3 POP POP PUSH1 0x20 DUP4 ADD CALLDATALOAD PUSH8 0xFFFFFFFFFFFFFFFF DUP2 GT ISZERO PUSH2 0x1E79 JUMPI PUSH2 0x1E78 PUSH2 0x1A04 JUMP JUMPDEST JUMPDEST PUSH2 0x1E85 DUP6 DUP3 DUP7 ADD PUSH2 0x1B21 JUMP JUMPDEST SWAP2 POP POP SWAP3 POP SWAP3 SWAP1 POP JUMP JUMPDEST PUSH1 0x0 DUP2 MLOAD SWAP1 POP SWAP2 SWAP1 POP JUMP JUMPDEST PUSH1 0x0 DUP3 DUP3 MSTORE PUSH1 0x20 DUP3 ADD SWAP1 POP SWAP3 SWAP2 POP POP JUMP JUMPDEST PUSH1 0x0 DUP2 SWAP1 POP PUSH1 0x20 DUP3 ADD SWAP1 POP SWAP2 SWAP1 POP JUMP JUMPDEST PUSH2 0x1EC4 DUP2 PUSH2 0x19C1 JUMP JUMPDEST DUP3 MSTORE POP POP JUMP JUMPDEST PUSH1 0x0 PUSH2 0x1ED6 DUP4 DUP4 PUSH2 0x1EBB JUMP JUMPDEST PUSH1 0x20 DUP4 ADD SWAP1 POP SWAP3 SWAP2 POP POP JUMP JUMPDEST PUSH1 0x0 PUSH1 0x20 DUP3 ADD SWAP1 POP SWAP2 SWAP1 POP JUMP JUMPDEST PUSH1 0x0 PUSH2 0x1EFA DUP3 PUSH2 0x1E8F JUMP JUMPDEST PUSH2 0x1F04 DUP2 DUP6 PUSH2 0x1E9A JUMP JUMPDEST SWAP4 POP PUSH2 0x1F0F DUP4 PUSH2 0x1EAB JUMP JUMPDEST DUP1 PUSH1 0x0 JUMPDEST DUP4 DUP2 LT ISZERO PUSH2 0x1F40 JUMPI DUP2 MLOAD PUSH2 0x1F27 DUP9 DUP3 PUSH2 0x1ECA JUMP JUMPDEST SWAP8 POP PUSH2 0x1F32 DUP4 PUSH2 0x1EE2 JUMP JUMPDEST SWAP3 POP POP PUSH1 0x1 DUP2 ADD SWAP1 POP PUSH2 0x1F13 JUMP JUMPDEST POP DUP6 SWAP4 POP POP POP POP SWAP3 SWAP2 POP POP JUMP JUMPDEST PUSH1 0x0 PUSH1 0x20 DUP3 ADD SWAP1 POP DUP2 DUP2 SUB PUSH1 0x0 DUP4 ADD MSTORE PUSH2 0x1F67 DUP2 DUP5 PUSH2 0x1EEF JUMP JUMPDEST SWAP1 POP SWAP3 SWAP2 POP POP JUMP JUMPDEST PUSH1 0x0 DUP1 PUSH1 0x0 DUP1 PUSH1 0x0 DUP1 PUSH1 0xC0 DUP8 DUP10 SUB SLT ISZERO PUSH2 0x1F8C JUMPI PUSH2 0x1F8B PUSH2 0x19FF JUMP JUMPDEST JUMPDEST PUSH1 0x0 PUSH2 0x1F9A DUP10 DUP3 DUP11 ADD PUSH2 0x1C1B JUMP JUMPDEST SWAP7 POP POP PUSH1 0x20 PUSH2 0x1FAB DUP10 DUP3 DUP11 ADD PUSH2 0x1C1B JUMP JUMPDEST SWAP6 POP POP PUSH1 0x40 PUSH2 0x1FBC DUP10 DUP3 DUP11 ADD PUSH2 0x1B66 JUMP JUMPDEST SWAP5 POP POP PUSH1 0x60 PUSH2 0x1FCD DUP10 DUP3 DUP11 ADD PUSH2 0x1C1B JUMP JUMPDEST SWAP4 POP POP PUSH1 0x80 PUSH2 0x1FDE DUP10 DUP3 DUP11 ADD PUSH2 0x1C1B JUMP JUMPDEST SWAP3 POP POP PUSH1 0xA0 PUSH2 0x1FEF DUP10 DUP3 DUP11 ADD PUSH2 0x1C1B JUMP JUMPDEST SWAP2 POP POP SWAP3 SWAP6 POP SWAP3 SWAP6 POP SWAP3 SWAP6 JUMP JUMPDEST PUSH1 0x0 PUSH1 0x20 DUP3 DUP5 SUB SLT ISZERO PUSH2 0x2012 JUMPI PUSH2 0x2011 PUSH2 0x19FF JUMP JUMPDEST JUMPDEST PUSH1 0x0 DUP3 ADD CALLDATALOAD PUSH8 0xFFFFFFFFFFFFFFFF DUP2 GT ISZERO PUSH2 0x2030 JUMPI PUSH2 0x202F PUSH2 0x1A04 JUMP JUMPDEST JUMPDEST PUSH2 0x203C DUP5 DUP3 DUP6 ADD PUSH2 0x1B21 JUMP JUMPDEST SWAP2 POP POP SWAP3 SWAP2 POP POP JUMP JUMPDEST PUSH2 0x204E DUP2 PUSH2 0x192F JUMP JUMPDEST DUP2 EQ PUSH2 0x2059 JUMPI PUSH1 0x0 DUP1 REVERT JUMPDEST POP JUMP JUMPDEST PUSH1 0x0 DUP2 CALLDATALOAD SWAP1 POP PUSH2 0x206B DUP2 PUSH2 0x2045 JUMP JUMPDEST SWAP3 SWAP2 POP POP JUMP JUMPDEST PUSH1 0x0 PUSH1 0x20 DUP3 DUP5 SUB SLT ISZERO PUSH2 0x2087 JUMPI PUSH2 0x2086 PUSH2 0x19FF JUMP JUMPDEST JUMPDEST PUSH1 0x0 PUSH2 0x2095 DUP5 DUP3 DUP6 ADD PUSH2 0x205C JUMP JUMPDEST SWAP2 POP POP SWAP3 SWAP2 POP POP JUMP JUMPDEST PUSH1 0x0 DUP1 PUSH1 0x40 DUP4 DUP6 SUB SLT ISZERO PUSH2 0x20B5 JUMPI PUSH2 0x20B4 PUSH2 0x19FF JUMP JUMPDEST JUMPDEST PUSH1 0x0 PUSH2 0x20C3 DUP6 DUP3 DUP7 ADD PUSH2 0x1B66 JUMP JUMPDEST SWAP3 POP POP PUSH1 0x20 PUSH2 0x20D4 DUP6 DUP3 DUP7 ADD PUSH2 0x1B66 JUMP JUMPDEST SWAP2 POP POP SWAP3 POP SWAP3 SWAP1 POP JUMP JUMPDEST PUSH1 0x0 PUSH1 0x20 DUP3 ADD SWAP1 POP DUP2 DUP2 SUB PUSH1 0x0 DUP4 ADD MSTORE PUSH2 0x20F8 DUP2 DUP5 PUSH2 0x1D7D JUMP JUMPDEST SWAP1 POP SWAP3 SWAP2 POP POP JUMP JUMPDEST PUSH1 0x0 DUP2 SWAP1 POP SWAP3 SWAP2 POP POP JUMP JUMPDEST PUSH1 0x0 PUSH2 0x2116 DUP3 PUSH2 0x1D37 JUMP JUMPDEST PUSH2 0x2120 DUP2 DUP6 PUSH2 0x2100 JUMP JUMPDEST SWAP4 POP PUSH2 0x2130 DUP2 DUP6 PUSH1 0x20 DUP7 ADD PUSH2 0x1D53 JUMP JUMPDEST DUP1 DUP5 ADD SWAP2 POP POP SWAP3 SWAP2 POP POP JUMP JUMPDEST PUSH1 0x0 PUSH2 0x2148 DUP3 DUP5 PUSH2 0x210B JUMP JUMPDEST SWAP2 POP DUP2 SWAP1 POP SWAP3 SWAP2 POP POP JUMP JUMPDEST PUSH32 0x5265656E7472616E637947756172643A207265656E7472616E742063616C6C00 PUSH1 0x0 DUP3 ADD MSTORE POP JUMP JUMPDEST PUSH1 0x0 PUSH2 0x2189 PUSH1 0x1F DUP4 PUSH2 0x1D42 JUMP JUMPDEST SWAP2 POP PUSH2 0x2194 DUP3 PUSH2 0x2153 JUMP JUMPDEST PUSH1 0x20 DUP3 ADD SWAP1 POP SWAP2 SWAP1 POP JUMP JUMPDEST PUSH1 0x0 PUSH1 0x20 DUP3 ADD SWAP1 POP DUP2 DUP2 SUB PUSH1 0x0 DUP4 ADD MSTORE PUSH2 0x21B8 DUP2 PUSH2 0x217C JUMP JUMPDEST SWAP1 POP SWAP2 SWAP1 POP JUMP JUMPDEST PUSH32 0x6465706F7369744254433A20536163726966696365206E6F7420616374697665 PUSH1 0x0 DUP3 ADD MSTORE POP JUMP JUMPDEST PUSH1 0x0 PUSH2 0x21F5 PUSH1 0x20 DUP4 PUSH2 0x1D42 JUMP JUMPDEST SWAP2 POP PUSH2 0x2200 DUP3 PUSH2 0x21BF JUMP JUMPDEST PUSH1 0x20 DUP3 ADD SWAP1 POP SWAP2 SWAP1 POP JUMP JUMPDEST PUSH1 0x0 PUSH1 0x20 DUP3 ADD SWAP1 POP DUP2 DUP2 SUB PUSH1 0x0 DUP4 ADD MSTORE PUSH2 0x2224 DUP2 PUSH2 0x21E8 JUMP JUMPDEST SWAP1 POP SWAP2 SWAP1 POP JUMP JUMPDEST PUSH32 0x6465706F7369744254433A2041646472657373206E6F742070617274206F6620 PUSH1 0x0 DUP3 ADD MSTORE PUSH32 0x616C6C6F77656420746F6B656E206C6973740000000000000000000000000000 PUSH1 0x20 DUP3 ADD MSTORE POP JUMP JUMPDEST PUSH1 0x0 PUSH2 0x2287 PUSH1 0x32 DUP4 PUSH2 0x1D42 JUMP JUMPDEST SWAP2 POP PUSH2 0x2292 DUP3 PUSH2 0x222B JUMP JUMPDEST PUSH1 0x40 DUP3 ADD SWAP1 POP SWAP2 SWAP1 POP JUMP JUMPDEST PUSH1 0x0 PUSH1 0x20 DUP3 ADD SWAP1 POP DUP2 DUP2 SUB PUSH1 0x0 DUP4 ADD MSTORE PUSH2 0x22B6 DUP2 PUSH2 0x227A JUMP JUMPDEST SWAP1 POP SWAP2 SWAP1 POP JUMP JUMPDEST PUSH32 0x6465706F7369744254433A20416D6F756E74206D757374206265206772656174 PUSH1 0x0 DUP3 ADD MSTORE PUSH32 0x6572207468616E205A45524F0000000000000000000000000000000000000000 PUSH1 0x20 DUP3 ADD MSTORE POP JUMP JUMPDEST PUSH1 0x0 PUSH2 0x2319 PUSH1 0x2C DUP4 PUSH2 0x1D42 JUMP JUMPDEST SWAP2 POP PUSH2 0x2324 DUP3 PUSH2 0x22BD JUMP JUMPDEST PUSH1 0x40 DUP3 ADD SWAP1 POP SWAP2 SWAP1 POP JUMP JUMPDEST PUSH1 0x0 PUSH1 0x20 DUP3 ADD SWAP1 POP DUP2 DUP2 SUB PUSH1 0x0 DUP4 ADD MSTORE PUSH2 0x2348 DUP2 PUSH2 0x230C JUMP JUMPDEST SWAP1 POP SWAP2 SWAP1 POP JUMP JUMPDEST PUSH32 0x4E487B7100000000000000000000000000000000000000000000000000000000 PUSH1 0x0 MSTORE PUSH1 0x12 PUSH1 0x4 MSTORE PUSH1 0x24 PUSH1 0x0 REVERT JUMPDEST PUSH32 0x4E487B7100000000000000000000000000000000000000000000000000000000 PUSH1 0x0 MSTORE PUSH1 0x11 PUSH1 0x4 MSTORE PUSH1 0x24 PUSH1 0x0 REVERT JUMPDEST PUSH1 0x0 PUSH2 0x23B8 DUP3 PUSH2 0x19C1 JUMP JUMPDEST SWAP2 POP PUSH2 0x23C3 DUP4 PUSH2 0x19C1 JUMP JUMPDEST SWAP3 POP DUP3 PUSH2 0x23D3 JUMPI PUSH2 0x23D2 PUSH2 0x234F JUMP JUMPDEST JUMPDEST DUP3 DUP3 DIV SWAP1 POP SWAP3 SWAP2 POP POP JUMP JUMPDEST PUSH1 0x0 PUSH2 0x23E9 DUP3 PUSH2 0x19C1 JUMP JUMPDEST SWAP2 POP PUSH2 0x23F4 DUP4 PUSH2 0x19C1 JUMP JUMPDEST SWAP3 POP DUP3 DUP3 MUL PUSH2 0x2402 DUP2 PUSH2 0x19C1 JUMP JUMPDEST SWAP2 POP DUP3 DUP3 DIV DUP5 EQ DUP4 ISZERO OR PUSH2 0x2419 JUMPI PUSH2 0x2418 PUSH2 0x237E JUMP JUMPDEST JUMPDEST POP SWAP3 SWAP2 POP POP JUMP JUMPDEST PUSH1 0x0 PUSH2 0x242B DUP3 PUSH2 0x19C1 JUMP JUMPDEST SWAP2 POP PUSH2 0x2436 DUP4 PUSH2 0x19C1 JUMP JUMPDEST SWAP3 POP DUP3 DUP3 ADD SWAP1 POP DUP1 DUP3 GT ISZERO PUSH2 0x244E JUMPI PUSH2 0x244D PUSH2 0x237E JUMP JUMPDEST JUMPDEST SWAP3 SWAP2 POP POP JUMP JUMPDEST PUSH32 0x4E487B7100000000000000000000000000000000000000000000000000000000 PUSH1 0x0 MSTORE PUSH1 0x22 PUSH1 0x4 MSTORE PUSH1 0x24 PUSH1 0x0 REVERT JUMPDEST PUSH1 0x0 PUSH1 0x2 DUP3 DIV SWAP1 POP PUSH1 0x1 DUP3 AND DUP1 PUSH2 0x249B JUMPI PUSH1 0x7F DUP3 AND SWAP2 POP JUMPDEST PUSH1 0x20 DUP3 LT DUP2 SUB PUSH2 0x24AE JUMPI PUSH2 0x24AD PUSH2 0x2454 JUMP JUMPDEST JUMPDEST POP SWAP2 SWAP1 POP JUMP JUMPDEST PUSH1 0x0 PUSH1 0x60 DUP3 ADD SWAP1 POP PUSH2 0x24C9 PUSH1 0x0 DUP4 ADD DUP7 PUSH2 0x1997 JUMP JUMPDEST PUSH2 0x24D6 PUSH1 0x20 DUP4 ADD DUP6 PUSH2 0x1997 JUMP JUMPDEST PUSH2 0x24E3 PUSH1 0x40 DUP4 ADD DUP5 PUSH2 0x19CB JUMP JUMPDEST SWAP5 SWAP4 POP POP POP POP JUMP JUMPDEST PUSH1 0x0 DUP2 MLOAD SWAP1 POP PUSH2 0x24FA DUP2 PUSH2 0x2045 JUMP JUMPDEST SWAP3 SWAP2 POP POP JUMP JUMPDEST PUSH1 0x0 PUSH1 0x20 DUP3 DUP5 SUB SLT ISZERO PUSH2 0x2516 JUMPI PUSH2 0x2515 PUSH2 0x19FF JUMP JUMPDEST JUMPDEST PUSH1 0x0 PUSH2 0x2524 DUP5 DUP3 DUP6 ADD PUSH2 0x24EB JUMP JUMPDEST SWAP2 POP POP SWAP3 SWAP2 POP POP JUMP JUMPDEST PUSH1 0x0 DUP2 MLOAD SWAP1 POP PUSH2 0x253C DUP2 PUSH2 0x1C04 JUMP JUMPDEST SWAP3 SWAP2 POP POP JUMP JUMPDEST PUSH1 0x0 PUSH1 0x20 DUP3 DUP5 SUB SLT ISZERO PUSH2 0x2558 JUMPI PUSH2 0x2557 PUSH2 0x19FF JUMP JUMPDEST JUMPDEST PUSH1 0x0 PUSH2 0x2566 DUP5 DUP3 DUP6 ADD PUSH2 0x252D JUMP JUMPDEST SWAP2 POP POP SWAP3 SWAP2 POP POP JUMP JUMPDEST PUSH1 0x0 PUSH1 0x40 DUP3 ADD SWAP1 POP PUSH2 0x2584 PUSH1 0x0 DUP4 ADD DUP6 PUSH2 0x1997 JUMP JUMPDEST PUSH2 0x2591 PUSH1 0x20 DUP4 ADD DUP5 PUSH2 0x19CB JUMP JUMPDEST SWAP4 SWAP3 POP POP POP JUMP JUMPDEST PUSH1 0x0 DUP2 SLOAD SWAP1 POP PUSH2 0x25A7 DUP2 PUSH2 0x2483 JUMP JUMPDEST SWAP1 POP SWAP2 SWAP1 POP JUMP JUMPDEST PUSH1 0x0 DUP2 SWAP1 POP DUP2 PUSH1 0x0 MSTORE PUSH1 0x20 PUSH1 0x0 KECCAK256 SWAP1 POP SWAP2 SWAP1 POP JUMP JUMPDEST PUSH1 0x0 DUP2 SWAP1 POP DUP2 PUSH1 0x0 MSTORE PUSH1 0x20 PUSH1 0x0 KECCAK256 SWAP1 POP SWAP2 SWAP1 POP JUMP JUMPDEST PUSH1 0x0 PUSH1 0x20 PUSH1 0x1F DUP4 ADD DIV SWAP1 POP SWAP2 SWAP1 POP JUMP JUMPDEST PUSH1 0x0 DUP3 DUP3 SHL SWAP1 POP SWAP3 SWAP2 POP POP JUMP JUMPDEST PUSH1 0x0 PUSH1 0x8 DUP4 MUL PUSH2 0x2625 PUSH32 0xFFFFFFFFFFFFFFFFFFFFFFFFFFFFFFFFFFFFFFFFFFFFFFFFFFFFFFFFFFFFFFFF DUP3 PUSH2 0x25E8 JUMP JUMPDEST PUSH2 0x262F DUP7 DUP4 PUSH2 0x25E8 JUMP JUMPDEST SWAP6 POP DUP1 NOT DUP5 AND SWAP4 POP DUP1 DUP7 AND DUP5 OR SWAP3 POP POP POP SWAP4 SWAP3 POP POP POP JUMP JUMPDEST PUSH1 0x0 DUP2 SWAP1 POP SWAP2 SWAP1 POP JUMP JUMPDEST PUSH1 0x0 PUSH2 0x266C PUSH2 0x2667 PUSH2 0x2662 DUP5 PUSH2 0x19C1 JUMP JUMPDEST PUSH2 0x2647 JUMP JUMPDEST PUSH2 0x19C1 JUMP JUMPDEST SWAP1 POP SWAP2 SWAP1 POP JUMP JUMPDEST PUSH1 0x0 DUP2 SWAP1 POP SWAP2 SWAP1 POP JUMP JUMPDEST PUSH2 0x2686 DUP4 PUSH2 0x2651 JUMP JUMPDEST PUSH2 0x269A PUSH2 0x2692 DUP3 PUSH2 0x2673 JUMP JUMPDEST DUP5 DUP5 SLOAD PUSH2 0x25F5 JUMP JUMPDEST DUP3 SSTORE POP POP POP POP JUMP JUMPDEST PUSH1 0x0 SWAP1 JUMP JUMPDEST PUSH2 0x26AF PUSH2 0x26A2 JUMP JUMPDEST PUSH2 0x26BA DUP2 DUP5 DUP5 PUSH2 0x267D JUMP JUMPDEST POP POP POP JUMP JUMPDEST JUMPDEST DUP2 DUP2 LT ISZERO PUSH2 0x26DE JUMPI PUSH2 0x26D3 PUSH1 0x0 DUP3 PUSH2 0x26A7 JUMP JUMPDEST PUSH1 0x1 DUP2 ADD SWAP1 POP PUSH2 0x26C0 JUMP JUMPDEST POP POP JUMP JUMPDEST PUSH1 0x1F DUP3 GT ISZERO PUSH2 0x2723 JUMPI PUSH2 0x26F4 DUP2 PUSH2 0x25AE JUMP JUMPDEST PUSH2 0x26FD DUP5 PUSH2 0x25D8 JUMP JUMPDEST DUP2 ADD PUSH1 0x20 DUP6 LT ISZERO PUSH2 0x270C JUMPI DUP2 SWAP1 POP JUMPDEST PUSH2 0x2720 PUSH2 0x2718 DUP6 PUSH2 0x25D8 JUMP JUMPDEST DUP4 ADD DUP3 PUSH2 0x26BF JUMP JUMPDEST POP POP JUMPDEST POP POP POP JUMP JUMPDEST PUSH1 0x0 DUP3 DUP3 SHR SWAP1 POP SWAP3 SWAP2 POP POP JUMP JUMPDEST PUSH1 0x0 PUSH2 0x2746 PUSH1 0x0 NOT DUP5 PUSH1 0x8 MUL PUSH2 0x2728 JUMP JUMPDEST NOT DUP1 DUP4 AND SWAP2 POP POP SWAP3 SWAP2 POP POP JUMP JUMPDEST PUSH1 0x0 PUSH2 0x275F DUP4 DUP4 PUSH2 0x2735 JUMP JUMPDEST SWAP2 POP DUP3 PUSH1 0x2 MUL DUP3 OR SWAP1 POP SWAP3 SWAP2 POP POP JUMP JUMPDEST DUP2 DUP2 SUB PUSH2 0x277D JUMPI POP POP PUSH2 0x2855 JUMP JUMPDEST PUSH2 0x2786 DUP3 PUSH2 0x2598 JUMP JUMPDEST PUSH8 0xFFFFFFFFFFFFFFFF DUP2 GT ISZERO PUSH2 0x279F JUMPI PUSH2 0x279E PUSH2 0x1A24 JUMP JUMPDEST JUMPDEST PUSH2 0x27A9 DUP3 SLOAD PUSH2 0x2483 JUMP JUMPDEST PUSH2 0x27B4 DUP3 DUP3 DUP6 PUSH2 0x26E2 JUMP JUMPDEST PUSH1 0x0 PUSH1 0x1F DUP4 GT PUSH1 0x1 DUP2 EQ PUSH2 0x27E3 JUMPI PUSH1 0x0 DUP5 ISZERO PUSH2 0x27D1 JUMPI DUP3 DUP8 ADD SLOAD SWAP1 POP JUMPDEST PUSH2 0x27DB DUP6 DUP3 PUSH2 0x2753 JUMP JUMPDEST DUP7 SSTORE POP PUSH2 0x284E JUMP JUMPDEST PUSH1 0x1F NOT DUP5 AND PUSH2 0x27F1 DUP8 PUSH2 0x25C3 JUMP JUMPDEST SWAP7 POP PUSH2 0x27FC DUP7 PUSH2 0x25AE JUMP JUMPDEST PUSH1 0x0 JUMPDEST DUP3 DUP2 LT ISZERO PUSH2 0x2824 JUMPI DUP5 DUP10 ADD SLOAD DUP3 SSTORE PUSH1 0x1 DUP3 ADD SWAP2 POP PUSH1 0x1 DUP6 ADD SWAP5 POP PUSH1 0x20 DUP2 ADD SWAP1 POP PUSH2 0x27FF JUMP JUMPDEST DUP7 DUP4 LT ISZERO PUSH2 0x2841 JUMPI DUP5 DUP10 ADD SLOAD PUSH2 0x283D PUSH1 0x1F DUP10 AND DUP3 PUSH2 0x2735 JUMP JUMPDEST DUP4 SSTORE POP JUMPDEST PUSH1 0x1 PUSH1 0x2 DUP9 MUL ADD DUP9 SSTORE POP POP POP JUMPDEST POP POP POP POP POP POP JUMPDEST JUMP JUMPDEST PUSH32 0x4F776E61626C653A206E6577206F776E657220697320746865207A65726F2061 PUSH1 0x0 DUP3 ADD MSTORE PUSH32 0x6464726573730000000000000000000000000000000000000000000000000000 PUSH1 0x20 DUP3 ADD MSTORE POP JUMP JUMPDEST PUSH1 0x0 PUSH2 0x28B3 PUSH1 0x26 DUP4 PUSH2 0x1D42 JUMP JUMPDEST SWAP2 POP PUSH2 0x28BE DUP3 PUSH2 0x2857 JUMP JUMPDEST PUSH1 0x40 DUP3 ADD SWAP1 POP SWAP2 SWAP1 POP JUMP JUMPDEST PUSH1 0x0 PUSH1 0x20 DUP3 ADD SWAP1 POP DUP2 DUP2 SUB PUSH1 0x0 DUP4 ADD MSTORE PUSH2 0x28E2 DUP2 PUSH2 0x28A6 JUMP JUMPDEST SWAP1 POP SWAP2 SWAP1 POP JUMP JUMPDEST PUSH32 0x676574436861696E4C696E6B50726963653A2041646472657373206E6F742070 PUSH1 0x0 DUP3 ADD MSTORE PUSH32 0x617274206F6620436861696E6C696E6B20746F6B656E206C6973740000000000 PUSH1 0x20 DUP3 ADD MSTORE POP JUMP JUMPDEST PUSH1 0x0 PUSH2 0x2945 PUSH1 0x3B DUP4 PUSH2 0x1D42 JUMP JUMPDEST SWAP2 POP PUSH2 0x2950 DUP3 PUSH2 0x28E9 JUMP JUMPDEST PUSH1 0x40 DUP3 ADD SWAP1 POP SWAP2 SWAP1 POP JUMP JUMPDEST PUSH1 0x0 PUSH1 0x20 DUP3 ADD SWAP1 POP DUP2 DUP2 SUB PUSH1 0x0 DUP4 ADD MSTORE PUSH2 0x2974 DUP2 PUSH2 0x2938 JUMP JUMPDEST SWAP1 POP SWAP2 SWAP1 POP JUMP JUMPDEST PUSH1 0x0 PUSH10 0xFFFFFFFFFFFFFFFFFFFF DUP3 AND SWAP1 POP SWAP2 SWAP1 POP JUMP JUMPDEST PUSH2 0x299A DUP2 PUSH2 0x297B JUMP JUMPDEST DUP2 EQ PUSH2 0x29A5 JUMPI PUSH1 0x0 DUP1 REVERT JUMPDEST POP JUMP JUMPDEST PUSH1 0x0 DUP2 MLOAD SWAP1 POP PUSH2 0x29B7 DUP2 PUSH2 0x2991 JUMP JUMPDEST SWAP3 SWAP2 POP POP JUMP JUMPDEST PUSH1 0x0 DUP2 SWAP1 POP SWAP2 SWAP1 POP JUMP JUMPDEST PUSH2 0x29D0 DUP2 PUSH2 0x29BD JUMP JUMPDEST DUP2 EQ PUSH2 0x29DB JUMPI PUSH1 0x0 DUP1 REVERT JUMPDEST POP JUMP JUMPDEST PUSH1 0x0 DUP2 MLOAD SWAP1 POP PUSH2 0x29ED DUP2 PUSH2 0x29C7 JUMP JUMPDEST SWAP3 SWAP2 POP POP JUMP JUMPDEST PUSH1 0x0 DUP1 PUSH1 0x0 DUP1 PUSH1 0x0 PUSH1 0xA0 DUP7 DUP9 SUB SLT ISZERO PUSH2 0x2A0F JUMPI PUSH2 0x2A0E PUSH2 0x19FF JUMP JUMPDEST JUMPDEST PUSH1 0x0 PUSH2 0x2A1D DUP9 DUP3 DUP10 ADD PUSH2 0x29A8 JUMP JUMPDEST SWAP6 POP POP PUSH1 0x20 PUSH2 0x2A2E DUP9 DUP3 DUP10 ADD PUSH2 0x29DE JUMP JUMPDEST SWAP5 POP POP PUSH1 0x40 PUSH2 0x2A3F DUP9 DUP3 DUP10 ADD PUSH2 0x252D JUMP JUMPDEST SWAP4 POP POP PUSH1 0x60 PUSH2 0x2A50 DUP9 DUP3 DUP10 ADD PUSH2 0x252D JUMP JUMPDEST SWAP3 POP POP PUSH1 0x80 PUSH2 0x2A61 DUP9 DUP3 DUP10 ADD PUSH2 0x29A8 JUMP JUMPDEST SWAP2 POP POP SWAP3 SWAP6 POP SWAP3 SWAP6 SWAP1 SWAP4 POP JUMP JUMPDEST PUSH32 0x4F776E61626C653A2063616C6C6572206973206E6F7420746865206F776E6572 PUSH1 0x0 DUP3 ADD MSTORE POP JUMP JUMPDEST PUSH1 0x0 PUSH2 0x2AA4 PUSH1 0x20 DUP4 PUSH2 0x1D42 JUMP JUMPDEST SWAP2 POP PUSH2 0x2AAF DUP3 PUSH2 0x2A6E JUMP JUMPDEST PUSH1 0x20 DUP3 ADD SWAP1 POP SWAP2 SWAP1 POP JUMP JUMPDEST PUSH1 0x0 PUSH1 0x20 DUP3 ADD SWAP1 POP DUP2 DUP2 SUB PUSH1 0x0 DUP4 ADD MSTORE PUSH2 0x2AD3 DUP2 PUSH2 0x2A97 JUMP JUMPDEST SWAP1 POP SWAP2 SWAP1 POP JUMP JUMPDEST PUSH2 0x2AE3 DUP3 PUSH2 0x1D37 JUMP JUMPDEST PUSH8 0xFFFFFFFFFFFFFFFF DUP2 GT ISZERO PUSH2 0x2AFC JUMPI PUSH2 0x2AFB PUSH2 0x1A24 JUMP JUMPDEST JUMPDEST PUSH2 0x2B06 DUP3 SLOAD PUSH2 0x2483 JUMP JUMPDEST PUSH2 0x2B11 DUP3 DUP3 DUP6 PUSH2 0x26E2 JUMP JUMPDEST PUSH1 0x0 PUSH1 0x20 SWAP1 POP PUSH1 0x1F DUP4 GT PUSH1 0x1 DUP2 EQ PUSH2 0x2B44 JUMPI PUSH1 0x0 DUP5 ISZERO PUSH2 0x2B32 JUMPI DUP3 DUP8 ADD MLOAD SWAP1 POP JUMPDEST PUSH2 0x2B3C DUP6 DUP3 PUSH2 0x2753 JUMP JUMPDEST DUP7 SSTORE POP PUSH2 0x2BA4 JUMP JUMPDEST PUSH1 0x1F NOT DUP5 AND PUSH2 0x2B52 DUP7 PUSH2 0x25AE JUMP JUMPDEST PUSH1 0x0 JUMPDEST DUP3 DUP2 LT ISZERO PUSH2 0x2B7A JUMPI DUP5 DUP10 ADD MLOAD DUP3 SSTORE PUSH1 0x1 DUP3 ADD SWAP2 POP PUSH1 0x20 DUP6 ADD SWAP5 POP PUSH1 0x20 DUP2 ADD SWAP1 POP PUSH2 0x2B55 JUMP JUMPDEST DUP7 DUP4 LT ISZERO PUSH2 0x2B97 JUMPI DUP5 DUP10 ADD MLOAD PUSH2 0x2B93 PUSH1 0x1F DUP10 AND DUP3 PUSH2 0x2735 JUMP JUMPDEST DUP4 SSTORE POP JUMPDEST PUSH1 0x1 PUSH1 0x2 DUP9 MUL ADD DUP9 SSTORE POP POP POP JUMPDEST POP POP POP POP POP POP JUMP INVALID LOG2 PUSH5 0x6970667358 0x22 SLT KECCAK256 CALL MLOAD 0xE0 LOG1 PUSH1 0xBB GAS MSIZE 0xB2 BLOCKHASH 0xC 0xCA DIFFICULTY JUMP 0xDB 0xC7 0xD8 PUSH10 0xEBBE42724F821EC30614 DUP16 0xC MUL PUSH16 0x64736F6C634300081100330000000000 "},"methodIdentifiers":{"AllowedTokens(string)":"e8bb2a9f","BTCDeposit(address,address)":"cc8c155d","ChainlinkContracts(string)":"cb49ad3e","Sacrifice(uint256)":"7598e2fd","SacrificeStatus(uint256)":"d8e9d96a","TokenDecimals(string)":"cb8f351e","depositBTC(string,uint256)":"531e0e9c","getAccountDeposits(address,string)":"a289c13b","getChainLinkPrice(address)":"ff28ca60","getCurrentSacrificeID()":"db44865b","getPriceBySymbol(string)":"f86f3593","isSacrificeActive()":"0cb4bedd","nextSacrificeId()":"19d38918","owner()":"8da5cb5b","recoverBEP20(address,address)":"6792e38a","recoverBNB()":"6bfdf8a0","renounceOwnership()":"715018a6","safuuWallet()":"13e329ba","serviceWallet()":"5641f3c3","setAllowedTokens(string,address)":"4fa8de95","setChainlink(string,address)":"1f6f7964","setSacrificeStatus(bool)":"c355eb2d","setSafuuWallet(address)":"c5a7833e","setServiceWallet(address)":"23bffccc","setTokenDecimals(string,uint256)":"d2cba7e5","setTotalSacrifice(uint256)":"a61e5901","totalSacrifice()":"1a403f19","totalSacrificeAmount(string)":"bf71521c","transferOwnership(address)":"f2fde38b","updateSacrificeData(uint256,uint256,address,uint256,uint256,uint256)":"b8cb9247"}}}}}