{
  "_format": "hh-sol-artifact-1",
  "contractName": "SafuuXSacrificeWBTC",
  "sourceName": "contracts/SafuuXSacrificeWBTC.sol",
  "abi": [
    {
      "inputs": [
        {
          "internalType": "address payable",
          "name": "_safuuWallet",
          "type": "address"
        },
        {
          "internalType": "address payable",
          "name": "_serviceWallet",
          "type": "address"
        }
      ],
      "stateMutability": "nonpayable",
      "type": "constructor"
    },
    {
      "anonymous": false,
      "inputs": [
        {
          "indexed": true,
          "internalType": "string",
          "name": "symbol",
          "type": "string"
        },
        {
          "indexed": true,
          "internalType": "address",
          "name": "accountAddress",
          "type": "address"
        },
        {
          "indexed": false,
          "internalType": "uint256",
          "name": "amount",
          "type": "uint256"
        }
      ],
      "name": "BTCDeposited",
      "type": "event"
    },
    {
      "anonymous": false,
      "inputs": [
        {
          "indexed": true,
          "internalType": "address",
          "name": "previousOwner",
          "type": "address"
        },
        {
          "indexed": true,
          "internalType": "address",
          "name": "newOwner",
          "type": "address"
        }
      ],
      "name": "OwnershipTransferred",
      "type": "event"
    },
    {
      "inputs": [
        {
          "internalType": "string",
          "name": "",
          "type": "string"
        }
      ],
      "name": "AllowedTokens",
      "outputs": [
        {
          "internalType": "address",
          "name": "",
          "type": "address"
        }
      ],
      "stateMutability": "view",
      "type": "function"
    },
    {
      "inputs": [
        {
          "internalType": "address",
          "name": "",
          "type": "address"
        },
        {
          "internalType": "address",
          "name": "",
          "type": "address"
        }
      ],
      "name": "BTCDeposit",
      "outputs": [
        {
          "internalType": "uint256",
          "name": "",
          "type": "uint256"
        }
      ],
      "stateMutability": "view",
      "type": "function"
    },
    {
      "inputs": [
        {
          "internalType": "string",
          "name": "",
          "type": "string"
        }
      ],
      "name": "ChainlinkContracts",
      "outputs": [
        {
          "internalType": "address",
          "name": "",
          "type": "address"
        }
      ],
      "stateMutability": "view",
      "type": "function"
    },
    {
      "inputs": [
        {
          "internalType": "uint256",
          "name": "",
          "type": "uint256"
        }
      ],
      "name": "Sacrifice",
      "outputs": [
        {
          "internalType": "uint256",
          "name": "id",
          "type": "uint256"
        },
        {
          "internalType": "string",
          "name": "tokenSymbol",
          "type": "string"
        },
        {
          "internalType": "address",
          "name": "accountAddress",
          "type": "address"
        },
        {
          "internalType": "uint256",
          "name": "tokenAmount",
          "type": "uint256"
        },
        {
          "internalType": "uint256",
          "name": "tokenPriceUSD",
          "type": "uint256"
        },
        {
          "internalType": "uint256",
          "name": "timestamp",
          "type": "uint256"
        },
        {
          "internalType": "string",
          "name": "status",
          "type": "string"
        }
      ],
      "stateMutability": "view",
      "type": "function"
    },
    {
      "inputs": [
        {
          "internalType": "uint256",
          "name": "",
          "type": "uint256"
        }
      ],
      "name": "SacrificeStatus",
      "outputs": [
        {
          "internalType": "string",
          "name": "",
          "type": "string"
        }
      ],
      "stateMutability": "view",
      "type": "function"
    },
    {
      "inputs": [
        {
          "internalType": "string",
          "name": "",
          "type": "string"
        }
      ],
      "name": "TokenDecimals",
      "outputs": [
        {
          "internalType": "uint256",
          "name": "",
          "type": "uint256"
        }
      ],
      "stateMutability": "view",
      "type": "function"
    },
    {
      "inputs": [
        {
          "internalType": "string",
          "name": "_symbol",
          "type": "string"
        },
        {
          "internalType": "uint256",
          "name": "_amount",
          "type": "uint256"
        }
      ],
      "name": "depositBTC",
      "outputs": [
        {
          "internalType": "uint256",
          "name": "",
          "type": "uint256"
        }
      ],
      "stateMutability": "nonpayable",
      "type": "function"
    },
    {
      "inputs": [
        {
          "internalType": "address",
          "name": "_account",
          "type": "address"
        },
        {
          "internalType": "string",
          "name": "_symbol",
          "type": "string"
        }
      ],
      "name": "getAccountDeposits",
      "outputs": [
        {
          "internalType": "uint256[]",
          "name": "",
          "type": "uint256[]"
        }
      ],
      "stateMutability": "view",
      "type": "function"
    },
    {
      "inputs": [
        {
          "internalType": "address",
          "name": "contractAddress",
          "type": "address"
        }
      ],
      "name": "getChainLinkPrice",
      "outputs": [
        {
          "internalType": "uint256",
          "name": "",
          "type": "uint256"
        }
      ],
      "stateMutability": "view",
      "type": "function"
    },
    {
      "inputs": [],
      "name": "getCurrentSacrificeID",
      "outputs": [
        {
          "internalType": "uint256",
          "name": "",
          "type": "uint256"
        }
      ],
      "stateMutability": "view",
      "type": "function"
    },
    {
      "inputs": [
        {
          "internalType": "string",
          "name": "_symbol",
          "type": "string"
        }
      ],
      "name": "getPriceBySymbol",
      "outputs": [
        {
          "internalType": "uint256",
          "name": "",
          "type": "uint256"
        }
      ],
      "stateMutability": "view",
      "type": "function"
    },
    {
      "inputs": [],
      "name": "isSacrificeActive",
      "outputs": [
        {
          "internalType": "bool",
          "name": "",
          "type": "bool"
        }
      ],
      "stateMutability": "view",
      "type": "function"
    },
    {
      "inputs": [],
      "name": "nextSacrificeId",
      "outputs": [
        {
          "internalType": "uint256",
          "name": "_value",
          "type": "uint256"
        }
      ],
      "stateMutability": "view",
      "type": "function"
    },
    {
      "inputs": [],
      "name": "owner",
      "outputs": [
        {
          "internalType": "address",
          "name": "",
          "type": "address"
        }
      ],
      "stateMutability": "view",
      "type": "function"
    },
    {
      "inputs": [
        {
          "internalType": "contract IERC20",
          "name": "tokenContract",
          "type": "address"
        },
        {
          "internalType": "address",
          "name": "to",
          "type": "address"
        }
      ],
      "name": "recoverERC20",
      "outputs": [],
      "stateMutability": "nonpayable",
      "type": "function"
    },
    {
      "inputs": [],
      "name": "recoverETH",
      "outputs": [],
      "stateMutability": "nonpayable",
      "type": "function"
    },
    {
      "inputs": [],
      "name": "renounceOwnership",
      "outputs": [],
      "stateMutability": "nonpayable",
      "type": "function"
    },
    {
      "inputs": [],
      "name": "safuuWallet",
      "outputs": [
        {
          "internalType": "address payable",
          "name": "",
          "type": "address"
        }
      ],
      "stateMutability": "view",
      "type": "function"
    },
    {
      "inputs": [],
      "name": "serviceWallet",
      "outputs": [
        {
          "internalType": "address payable",
          "name": "",
          "type": "address"
        }
      ],
      "stateMutability": "view",
      "type": "function"
    },
    {
      "inputs": [
        {
          "internalType": "string",
          "name": "_symbol",
          "type": "string"
        },
        {
          "internalType": "address",
          "name": "_tokenAddress",
          "type": "address"
        }
      ],
      "name": "setAllowedTokens",
      "outputs": [],
      "stateMutability": "nonpayable",
      "type": "function"
    },
    {
      "inputs": [
        {
          "internalType": "string",
          "name": "_symbol",
          "type": "string"
        },
        {
          "internalType": "address",
          "name": "_tokenAddress",
          "type": "address"
        }
      ],
      "name": "setChainlink",
      "outputs": [],
      "stateMutability": "nonpayable",
      "type": "function"
    },
    {
      "inputs": [
        {
          "internalType": "bool",
          "name": "_isActive",
          "type": "bool"
        }
      ],
      "name": "setSacrificeStatus",
      "outputs": [],
      "stateMutability": "nonpayable",
      "type": "function"
    },
    {
      "inputs": [
        {
          "internalType": "address payable",
          "name": "_safuuWallet",
          "type": "address"
        }
      ],
      "name": "setSafuuWallet",
      "outputs": [],
      "stateMutability": "nonpayable",
      "type": "function"
    },
    {
      "inputs": [
        {
          "internalType": "address payable",
          "name": "_serviceWallet",
          "type": "address"
        }
      ],
      "name": "setServiceWallet",
      "outputs": [],
      "stateMutability": "nonpayable",
      "type": "function"
    },
    {
      "inputs": [
        {
          "internalType": "string",
          "name": "_symbol",
          "type": "string"
        },
        {
          "internalType": "uint256",
          "name": "_decimals",
          "type": "uint256"
        }
      ],
      "name": "setTokenDecimals",
      "outputs": [],
      "stateMutability": "nonpayable",
      "type": "function"
    },
    {
      "inputs": [],
      "name": "totalSacrifice",
      "outputs": [
        {
          "internalType": "uint256",
          "name": "",
          "type": "uint256"
        }
      ],
      "stateMutability": "view",
      "type": "function"
    },
    {
      "inputs": [
        {
          "internalType": "address",
          "name": "newOwner",
          "type": "address"
        }
      ],
      "name": "transferOwnership",
      "outputs": [],
      "stateMutability": "nonpayable",
      "type": "function"
    },
    {
      "inputs": [
        {
          "internalType": "uint256",
          "name": "sacrificeId",
          "type": "uint256"
        },
        {
          "internalType": "uint256",
          "name": "_status",
          "type": "uint256"
        },
        {
          "internalType": "string",
          "name": "_symbol",
          "type": "string"
        },
        {
          "internalType": "address",
          "name": "_account",
          "type": "address"
        },
        {
          "internalType": "uint256",
          "name": "_amount",
          "type": "uint256"
        },
        {
          "internalType": "uint256",
          "name": "_priceUSD",
          "type": "uint256"
        },
        {
          "internalType": "uint256",
          "name": "_timestamp",
          "type": "uint256"
        }
      ],
      "name": "updateSacrificeData",
      "outputs": [],
      "stateMutability": "nonpayable",
      "type": "function"
    }
  ],
  "bytecode": "0x60806040523480156200001157600080fd5b506040516200376b3803806200376b833981810160405281019062000037919062000630565b620000576200004b620000f860201b60201c565b6200010060201b60201c565b6001808190555081600360006101000a81548173ffffffffffffffffffffffffffffffffffffffff021916908373ffffffffffffffffffffffffffffffffffffffff16021790555080600460006101000a81548173ffffffffffffffffffffffffffffffffffffffff021916908373ffffffffffffffffffffffffffffffffffffffff160217905550620000f0620001c460201b60201c565b505062000ae2565b600033905090565b60008060009054906101000a900473ffffffffffffffffffffffffffffffffffffffff169050816000806101000a81548173ffffffffffffffffffffffffffffffffffffffff021916908373ffffffffffffffffffffffffffffffffffffffff1602179055508173ffffffffffffffffffffffffffffffffffffffff168173ffffffffffffffffffffffffffffffffffffffff167f8be0079c531659141344cd1fd0a4f28419497f9722a3daafe3b4186f6b6457e060405160405180910390a35050565b6000600460146101000a81548160ff0219169083151502179055506040518060400160405280600781526020017f70656e64696e6700000000000000000000000000000000000000000000000000815250600c6000600181526020019081526020016000209081620002379190620008f1565b506040518060400160405280600981526020017f636f6d706c657465640000000000000000000000000000000000000000000000815250600c6000600281526020019081526020016000209081620002909190620008f1565b506040518060400160405280600981526020017f63616e63656c6c65640000000000000000000000000000000000000000000000815250600c6000600381526020019081526020016000209081620002e99190620008f1565b50620003456040518060400160405280600381526020017f425443000000000000000000000000000000000000000000000000000000000081525073eaf4b7edb253fe2d43c756be81dec4c273301200620003ed60201b60201c565b620003a06040518060400160405280600381526020017f425443000000000000000000000000000000000000000000000000000000000081525073a39434a63a52e749f02807ae27335515ba4b07f76200046060201b60201c565b620003eb6040518060400160405280600381526020017f42544300000000000000000000000000000000000000000000000000000000008152506305f5e100620004d360201b60201c565b565b620003fd6200050c60201b60201c565b8060098360405162000410919062000a46565b908152602001604051809103902060006101000a81548173ffffffffffffffffffffffffffffffffffffffff021916908373ffffffffffffffffffffffffffffffffffffffff1602179055505050565b620004706200050c60201b60201c565b80600b8360405162000483919062000a46565b908152602001604051809103902060006101000a81548173ffffffffffffffffffffffffffffffffffffffff021916908373ffffffffffffffffffffffffffffffffffffffff1602179055505050565b620004e36200050c60201b60201c565b80600a83604051620004f6919062000a46565b9081526020016040518091039020819055505050565b6200051c620000f860201b60201c565b73ffffffffffffffffffffffffffffffffffffffff16620005426200059d60201b60201c565b73ffffffffffffffffffffffffffffffffffffffff16146200059b576040517f08c379a0000000000000000000000000000000000000000000000000000000008152600401620005929062000ac0565b60405180910390fd5b565b60008060009054906101000a900473ffffffffffffffffffffffffffffffffffffffff16905090565b600080fd5b600073ffffffffffffffffffffffffffffffffffffffff82169050919050565b6000620005f882620005cb565b9050919050565b6200060a81620005eb565b81146200061657600080fd5b50565b6000815190506200062a81620005ff565b92915050565b600080604083850312156200064a5762000649620005c6565b5b60006200065a8582860162000619565b92505060206200066d8582860162000619565b9150509250929050565b600081519050919050565b7f4e487b7100000000000000000000000000000000000000000000000000000000600052604160045260246000fd5b7f4e487b7100000000000000000000000000000000000000000000000000000000600052602260045260246000fd5b60006002820490506001821680620006f957607f821691505b6020821081036200070f576200070e620006b1565b5b50919050565b60008190508160005260206000209050919050565b60006020601f8301049050919050565b600082821b905092915050565b600060088302620007797fffffffffffffffffffffffffffffffffffffffffffffffffffffffffffffffff826200073a565b6200078586836200073a565b95508019841693508086168417925050509392505050565b6000819050919050565b6000819050919050565b6000620007d2620007cc620007c6846200079d565b620007a7565b6200079d565b9050919050565b6000819050919050565b620007ee83620007b1565b62000806620007fd82620007d9565b84845462000747565b825550505050565b600090565b6200081d6200080e565b6200082a818484620007e3565b505050565b5b8181101562000852576200084660008262000813565b60018101905062000830565b5050565b601f821115620008a1576200086b8162000715565b62000876846200072a565b8101602085101562000886578190505b6200089e62000895856200072a565b8301826200082f565b50505b505050565b600082821c905092915050565b6000620008c660001984600802620008a6565b1980831691505092915050565b6000620008e18383620008b3565b9150826002028217905092915050565b620008fc8262000677565b67ffffffffffffffff81111562000918576200091762000682565b5b620009248254620006e0565b6200093182828562000856565b600060209050601f83116001811462000969576000841562000954578287015190505b620009608582620008d3565b865550620009d0565b601f198416620009798662000715565b60005b82811015620009a3578489015182556001820191506020850194506020810190506200097c565b86831015620009c35784890151620009bf601f891682620008b3565b8355505b6001600288020188555050505b505050505050565b600081905092915050565b60005b8381101562000a03578082015181840152602081019050620009e6565b60008484015250505050565b600062000a1c8262000677565b62000a288185620009d8565b935062000a3a818560208601620009e3565b80840191505092915050565b600062000a54828462000a0f565b915081905092915050565b600082825260208201905092915050565b7f4f776e61626c653a2063616c6c6572206973206e6f7420746865206f776e6572600082015250565b600062000aa860208362000a5f565b915062000ab58262000a70565b602082019050919050565b6000602082019050818103600083015262000adb8162000a99565b9050919050565b612c798062000af26000396000f3fe608060405234801561001057600080fd5b50600436106101c45760003560e01c80638da5cb5b116100f9578063d2cba7e511610097578063e8bb2a9f11610071578063e8bb2a9f146104e5578063f2fde38b14610515578063f86f359314610531578063ff28ca6014610561576101c4565b8063d2cba7e51461047b578063d8e9d96a14610497578063db44865b146104c7576101c4565b8063c5a7833e116100d3578063c5a7833e146103cf578063cb49ad3e146103eb578063cb8f351e1461041b578063cc8c155d1461044b576101c4565b80638da5cb5b14610365578063a289c13b14610383578063c355eb2d146103b3576101c4565b806323bffccc116101665780635641f3c3116101405780635641f3c3146102eb578063715018a6146103095780637598e2fd14610313578063886f039a14610349576101c4565b806323bffccc146102835780634fa8de951461029f578063531e0e9c146102bb576101c4565b806313e329ba116101a257806313e329ba1461020d57806319d389181461022b5780631a403f19146102495780631f6f796414610267576101c4565b80630614117a146101c95780630b390e03146101d35780630cb4bedd146101ef575b600080fd5b6101d1610591565b005b6101ed60048036038101906101e89190611a65565b6105d9565b005b6101f7610696565b6040516102049190611b3e565b60405180910390f35b6102156106a9565b6040516102229190611b7a565b60405180910390f35b6102336106cf565b6040516102409190611ba4565b60405180910390f35b6102516106db565b60405161025e9190611ba4565b60405180910390f35b610281600480360381019061027c9190611bbf565b6106e1565b005b61029d60048036038101906102989190611c47565b61074a565b005b6102b960048036038101906102b49190611bbf565b610796565b005b6102d560048036038101906102d09190611c74565b6107ff565b6040516102e29190611ba4565b60405180910390f35b6102f3610e83565b6040516103009190611b7a565b60405180910390f35b610311610ea9565b005b61032d60048036038101906103289190611cd0565b610ebd565b6040516103409796959493929190611d8b565b60405180910390f35b610363600480360381019061035e9190611e46565b61102f565b005b61036d611133565b60405161037a9190611e86565b60405180910390f35b61039d60048036038101906103989190611ea1565b61115c565b6040516103aa9190611fbb565b60405180910390f35b6103cd60048036038101906103c89190612009565b611210565b005b6103e960048036038101906103e49190611c47565b611235565b005b61040560048036038101906104009190612036565b611281565b6040516104129190611e86565b60405180910390f35b61043560048036038101906104309190612036565b6112ca565b6040516104429190611ba4565b60405180910390f35b6104656004803603810190610460919061207f565b6112f8565b6040516104729190611ba4565b60405180910390f35b61049560048036038101906104909190611c74565b61131d565b005b6104b160048036038101906104ac9190611cd0565b61134c565b6040516104be91906120bf565b60405180910390f35b6104cf6113ec565b6040516104dc9190611ba4565b60405180910390f35b6104ff60048036038101906104fa9190612036565b6113fd565b60405161050c9190611e86565b60405180910390f35b61052f600480360381019061052a91906120e1565b611446565b005b61054b60048036038101906105469190612036565b6114c9565b6040516105589190611ba4565b60405180910390f35b61057b600480360381019061057691906120e1565b6115c5565b6040516105889190611ba4565b60405180910390f35b61059961164c565b3373ffffffffffffffffffffffffffffffffffffffff166108fc479081150290604051600060405180830381858888f193505050506105d757600080fd5b565b6105e161164c565b600060066000898152602001908152602001600020905085816001019081610609919061231a565b50848160020160006101000a81548173ffffffffffffffffffffffffffffffffffffffff021916908373ffffffffffffffffffffffffffffffffffffffff160217905550838160030181905550828160040181905550818160050181905550600c600088815260200190815260200160002081600601908161068b9190612417565b505050505050505050565b600460149054906101000a900460ff1681565b600360009054906101000a900473ffffffffffffffffffffffffffffffffffffffff1681565b60028060000154905081565b60055481565b6106e961164c565b80600b836040516106fa919061253b565b908152602001604051809103902060006101000a81548173ffffffffffffffffffffffffffffffffffffffff021916908373ffffffffffffffffffffffffffffffffffffffff1602179055505050565b61075261164c565b80600460006101000a81548173ffffffffffffffffffffffffffffffffffffffff021916908373ffffffffffffffffffffffffffffffffffffffff16021790555050565b61079e61164c565b806009836040516107af919061253b565b908152602001604051809103902060006101000a81548173ffffffffffffffffffffffffffffffffffffffff021916908373ffffffffffffffffffffffffffffffffffffffff1602179055505050565b6000600260015403610846576040517f08c379a000000000000000000000000000000000000000000000000000000000815260040161083d9061259e565b60405180910390fd5b600260018190555060011515600460149054906101000a900460ff161515146108a4576040517f08c379a000000000000000000000000000000000000000000000000000000000815260040161089b9061260a565b60405180910390fd5b600073ffffffffffffffffffffffffffffffffffffffff166009846040516108cc919061253b565b908152602001604051809103902060009054906101000a900473ffffffffffffffffffffffffffffffffffffffff1673ffffffffffffffffffffffffffffffffffffffff1603610951576040517f08c379a00000000000000000000000000000000000000000000000000000000081526004016109489061269c565b60405180910390fd5b60008211610994576040517f08c379a000000000000000000000000000000000000000000000000000000000815260040161098b9061272e565b60405180910390fd5b61099e60026116ca565b60006002600a856040516109b2919061253b565b9081526020016040518091039020546109cb919061277d565b9050600081846109db91906127b1565b90506000610a26600b876040516109f2919061253b565b908152602001604051809103902060009054906101000a900473ffffffffffffffffffffffffffffffffffffffff166115c5565b90506000600987604051610a3a919061253b565b908152602001604051809103902060009054906101000a900473ffffffffffffffffffffffffffffffffffffffff16905082600760003373ffffffffffffffffffffffffffffffffffffffff1673ffffffffffffffffffffffffffffffffffffffff16815260200190815260200160002060008373ffffffffffffffffffffffffffffffffffffffff1673ffffffffffffffffffffffffffffffffffffffff1681526020019081526020016000206000828254610af791906127f3565b92505081905550600860003373ffffffffffffffffffffffffffffffffffffffff1673ffffffffffffffffffffffffffffffffffffffff16815260200190815260200160002087604051610b4b919061253b565b9081526020016040518091039020610b6360026116e0565b9080600181540180825580915050600190039060005260206000200160009091909190915055600061271083610b999190612856565b905061271087610ba991906127b1565b81610bb491906127b1565b60056000828254610bc591906127f3565b92505081905550610c768833868642600c6000600281526020019081526020016000208054610bf39061213d565b80601f0160208091040260200160405190810160405280929190818152602001828054610c1f9061213d565b8015610c6c5780601f10610c4157610100808354040283529160200191610c6c565b820191906000526020600020905b815481529060010190602001808311610c4f57829003601f168201915b50505050506116ee565b60006103e86103e686610c8991906127b1565b610c939190612856565b905060006103e8600287610ca791906127b1565b610cb19190612856565b905060008490508073ffffffffffffffffffffffffffffffffffffffff166323b872dd33600360009054906101000a900473ffffffffffffffffffffffffffffffffffffffff16866040518463ffffffff1660e01b8152600401610d17939291906128dc565b6020604051808303816000875af1158015610d36573d6000803e3d6000fd5b505050506040513d601f19601f82011682018060405250810190610d5a9190612928565b508073ffffffffffffffffffffffffffffffffffffffff166323b872dd33600460009054906101000a900473ffffffffffffffffffffffffffffffffffffffff16856040518463ffffffff1660e01b8152600401610dba939291906128dc565b6020604051808303816000875af1158015610dd9573d6000803e3d6000fd5b505050506040513d601f19601f82011682018060405250810190610dfd9190612928565b503373ffffffffffffffffffffffffffffffffffffffff168b604051610e23919061253b565b60405180910390207fa986c6dbfd1a19903790abda864e9d9ce49c45b2113f621b2108e529806c002489604051610e5a9190611ba4565b60405180910390a3610e6c60026116e0565b985050505050505050506001808190555092915050565b600460009054906101000a900473ffffffffffffffffffffffffffffffffffffffff1681565b610eb161164c565b610ebb60006117ab565b565b6006602052806000526040600020600091509050806000015490806001018054610ee69061213d565b80601f0160208091040260200160405190810160405280929190818152602001828054610f129061213d565b8015610f5f5780601f10610f3457610100808354040283529160200191610f5f565b820191906000526020600020905b815481529060010190602001808311610f4257829003601f168201915b5050505050908060020160009054906101000a900473ffffffffffffffffffffffffffffffffffffffff1690806003015490806004015490806005015490806006018054610fac9061213d565b80601f0160208091040260200160405190810160405280929190818152602001828054610fd89061213d565b80156110255780601f10610ffa57610100808354040283529160200191611025565b820191906000526020600020905b81548152906001019060200180831161100857829003601f168201915b5050505050905087565b61103761164c565b8173ffffffffffffffffffffffffffffffffffffffff1663a9059cbb828473ffffffffffffffffffffffffffffffffffffffff166370a08231306040518263ffffffff1660e01b815260040161108d9190611e86565b602060405180830381865afa1580156110aa573d6000803e3d6000fd5b505050506040513d601f19601f820116820180604052508101906110ce919061296a565b6040518363ffffffff1660e01b81526004016110eb929190612997565b6020604051808303816000875af115801561110a573d6000803e3d6000fd5b505050506040513d601f19601f8201168201806040525081019061112e9190612928565b505050565b60008060009054906101000a900473ffffffffffffffffffffffffffffffffffffffff16905090565b6060600860008473ffffffffffffffffffffffffffffffffffffffff1673ffffffffffffffffffffffffffffffffffffffff168152602001908152602001600020826040516111ab919061253b565b908152602001604051809103902080548060200260200160405190810160405280929190818152602001828054801561120357602002820191906000526020600020905b8154815260200190600101908083116111ef575b5050505050905092915050565b61121861164c565b80600460146101000a81548160ff02191690831515021790555050565b61123d61164c565b80600360006101000a81548173ffffffffffffffffffffffffffffffffffffffff021916908373ffffffffffffffffffffffffffffffffffffffff16021790555050565b600b818051602081018201805184825260208301602085012081835280955050505050506000915054906101000a900473ffffffffffffffffffffffffffffffffffffffff1681565b600a818051602081018201805184825260208301602085012081835280955050505050506000915090505481565b6007602052816000526040600020602052806000526040600020600091509150505481565b61132561164c565b80600a83604051611336919061253b565b9081526020016040518091039020819055505050565b600c602052806000526040600020600091509050805461136b9061213d565b80601f01602080910402602001604051908101604052809291908181526020018280546113979061213d565b80156113e45780601f106113b9576101008083540402835291602001916113e4565b820191906000526020600020905b8154815290600101906020018083116113c757829003601f168201915b505050505081565b60006113f860026116e0565b905090565b6009818051602081018201805184825260208301602085012081835280955050505050506000915054906101000a900473ffffffffffffffffffffffffffffffffffffffff1681565b61144e61164c565b600073ffffffffffffffffffffffffffffffffffffffff168173ffffffffffffffffffffffffffffffffffffffff16036114bd576040517f08c379a00000000000000000000000000000000000000000000000000000000081526004016114b490612a32565b60405180910390fd5b6114c6816117ab565b50565b60008073ffffffffffffffffffffffffffffffffffffffff16600b836040516114f2919061253b565b908152602001604051809103902060009054906101000a900473ffffffffffffffffffffffffffffffffffffffff1673ffffffffffffffffffffffffffffffffffffffff1603611577576040517f08c379a000000000000000000000000000000000000000000000000000000000815260040161156e90612ac4565b60405180910390fd5b6115be600b8360405161158a919061253b565b908152602001604051809103902060009054906101000a900473ffffffffffffffffffffffffffffffffffffffff166115c5565b9050919050565b60008082905060008173ffffffffffffffffffffffffffffffffffffffff1663feaf968c6040518163ffffffff1660e01b815260040160a060405180830381865afa158015611618573d6000803e3d6000fd5b505050506040513d601f19601f8201168201806040525081019061163c9190612b5c565b5050509150508092505050919050565b61165461186f565b73ffffffffffffffffffffffffffffffffffffffff16611672611133565b73ffffffffffffffffffffffffffffffffffffffff16146116c8576040517f08c379a00000000000000000000000000000000000000000000000000000000081526004016116bf90612c23565b60405180910390fd5b565b6001816000016000828254019250508190555050565b600081600001549050919050565b6000600660006116fe60026116e0565b8152602001908152602001600020905061171860026116e0565b816000018190555086816001019081611731919061231a565b50858160020160006101000a81548173ffffffffffffffffffffffffffffffffffffffff021916908373ffffffffffffffffffffffffffffffffffffffff160217905550848160030181905550838160040181905550828160050181905550818160060190816117a1919061231a565b5050505050505050565b60008060009054906101000a900473ffffffffffffffffffffffffffffffffffffffff169050816000806101000a81548173ffffffffffffffffffffffffffffffffffffffff021916908373ffffffffffffffffffffffffffffffffffffffff1602179055508173ffffffffffffffffffffffffffffffffffffffff168173ffffffffffffffffffffffffffffffffffffffff167f8be0079c531659141344cd1fd0a4f28419497f9722a3daafe3b4186f6b6457e060405160405180910390a35050565b600033905090565b6000604051905090565b600080fd5b600080fd5b6000819050919050565b61189e8161188b565b81146118a957600080fd5b50565b6000813590506118bb81611895565b92915050565b600080fd5b600080fd5b6000601f19601f8301169050919050565b7f4e487b7100000000000000000000000000000000000000000000000000000000600052604160045260246000fd5b611914826118cb565b810181811067ffffffffffffffff82111715611933576119326118dc565b5b80604052505050565b6000611946611877565b9050611952828261190b565b919050565b600067ffffffffffffffff821115611972576119716118dc565b5b61197b826118cb565b9050602081019050919050565b82818337600083830152505050565b60006119aa6119a584611957565b61193c565b9050828152602081018484840111156119c6576119c56118c6565b5b6119d1848285611988565b509392505050565b600082601f8301126119ee576119ed6118c1565b5b81356119fe848260208601611997565b91505092915050565b600073ffffffffffffffffffffffffffffffffffffffff82169050919050565b6000611a3282611a07565b9050919050565b611a4281611a27565b8114611a4d57600080fd5b50565b600081359050611a5f81611a39565b92915050565b600080600080600080600060e0888a031215611a8457611a83611881565b5b6000611a928a828b016118ac565b9750506020611aa38a828b016118ac565b965050604088013567ffffffffffffffff811115611ac457611ac3611886565b5b611ad08a828b016119d9565b9550506060611ae18a828b01611a50565b9450506080611af28a828b016118ac565b93505060a0611b038a828b016118ac565b92505060c0611b148a828b016118ac565b91505092959891949750929550565b60008115159050919050565b611b3881611b23565b82525050565b6000602082019050611b536000830184611b2f565b92915050565b6000611b6482611a07565b9050919050565b611b7481611b59565b82525050565b6000602082019050611b8f6000830184611b6b565b92915050565b611b9e8161188b565b82525050565b6000602082019050611bb96000830184611b95565b92915050565b60008060408385031215611bd657611bd5611881565b5b600083013567ffffffffffffffff811115611bf457611bf3611886565b5b611c00858286016119d9565b9250506020611c1185828601611a50565b9150509250929050565b611c2481611b59565b8114611c2f57600080fd5b50565b600081359050611c4181611c1b565b92915050565b600060208284031215611c5d57611c5c611881565b5b6000611c6b84828501611c32565b91505092915050565b60008060408385031215611c8b57611c8a611881565b5b600083013567ffffffffffffffff811115611ca957611ca8611886565b5b611cb5858286016119d9565b9250506020611cc6858286016118ac565b9150509250929050565b600060208284031215611ce657611ce5611881565b5b6000611cf4848285016118ac565b91505092915050565b600081519050919050565b600082825260208201905092915050565b60005b83811015611d37578082015181840152602081019050611d1c565b60008484015250505050565b6000611d4e82611cfd565b611d588185611d08565b9350611d68818560208601611d19565b611d71816118cb565b840191505092915050565b611d8581611a27565b82525050565b600060e082019050611da0600083018a611b95565b8181036020830152611db28189611d43565b9050611dc16040830188611d7c565b611dce6060830187611b95565b611ddb6080830186611b95565b611de860a0830185611b95565b81810360c0830152611dfa8184611d43565b905098975050505050505050565b6000611e1382611a27565b9050919050565b611e2381611e08565b8114611e2e57600080fd5b50565b600081359050611e4081611e1a565b92915050565b60008060408385031215611e5d57611e5c611881565b5b6000611e6b85828601611e31565b9250506020611e7c85828601611a50565b9150509250929050565b6000602082019050611e9b6000830184611d7c565b92915050565b60008060408385031215611eb857611eb7611881565b5b6000611ec685828601611a50565b925050602083013567ffffffffffffffff811115611ee757611ee6611886565b5b611ef3858286016119d9565b9150509250929050565b600081519050919050565b600082825260208201905092915050565b6000819050602082019050919050565b611f328161188b565b82525050565b6000611f448383611f29565b60208301905092915050565b6000602082019050919050565b6000611f6882611efd565b611f728185611f08565b9350611f7d83611f19565b8060005b83811015611fae578151611f958882611f38565b9750611fa083611f50565b925050600181019050611f81565b5085935050505092915050565b60006020820190508181036000830152611fd58184611f5d565b905092915050565b611fe681611b23565b8114611ff157600080fd5b50565b60008135905061200381611fdd565b92915050565b60006020828403121561201f5761201e611881565b5b600061202d84828501611ff4565b91505092915050565b60006020828403121561204c5761204b611881565b5b600082013567ffffffffffffffff81111561206a57612069611886565b5b612076848285016119d9565b91505092915050565b6000806040838503121561209657612095611881565b5b60006120a485828601611a50565b92505060206120b585828601611a50565b9150509250929050565b600060208201905081810360008301526120d98184611d43565b905092915050565b6000602082840312156120f7576120f6611881565b5b600061210584828501611a50565b91505092915050565b7f4e487b7100000000000000000000000000000000000000000000000000000000600052602260045260246000fd5b6000600282049050600182168061215557607f821691505b6020821081036121685761216761210e565b5b50919050565b60008190508160005260206000209050919050565b60006020601f8301049050919050565b600082821b905092915050565b6000600883026121d07fffffffffffffffffffffffffffffffffffffffffffffffffffffffffffffffff82612193565b6121da8683612193565b95508019841693508086168417925050509392505050565b6000819050919050565b600061221761221261220d8461188b565b6121f2565b61188b565b9050919050565b6000819050919050565b612231836121fc565b61224561223d8261221e565b8484546121a0565b825550505050565b600090565b61225a61224d565b612265818484612228565b505050565b5b818110156122895761227e600082612252565b60018101905061226b565b5050565b601f8211156122ce5761229f8161216e565b6122a884612183565b810160208510156122b7578190505b6122cb6122c385612183565b83018261226a565b50505b505050565b600082821c905092915050565b60006122f1600019846008026122d3565b1980831691505092915050565b600061230a83836122e0565b9150826002028217905092915050565b61232382611cfd565b67ffffffffffffffff81111561233c5761233b6118dc565b5b612346825461213d565b61235182828561228d565b600060209050601f8311600181146123845760008415612372578287015190505b61237c85826122fe565b8655506123e4565b601f1984166123928661216e565b60005b828110156123ba57848901518255600182019150602085019450602081019050612395565b868310156123d757848901516123d3601f8916826122e0565b8355505b6001600288020188555050505b505050505050565b6000815490506123fb8161213d565b9050919050565b60008190508160005260206000209050919050565b8181036124255750506124fd565b61242e826123ec565b67ffffffffffffffff811115612447576124466118dc565b5b612451825461213d565b61245c82828561228d565b6000601f83116001811461248b5760008415612479578287015490505b61248385826122fe565b8655506124f6565b601f19841661249987612402565b96506124a48661216e565b60005b828110156124cc578489015482556001820191506001850194506020810190506124a7565b868310156124e957848901546124e5601f8916826122e0565b8355505b6001600288020188555050505b5050505050505b565b600081905092915050565b600061251582611cfd565b61251f81856124ff565b935061252f818560208601611d19565b80840191505092915050565b6000612547828461250a565b915081905092915050565b7f5265656e7472616e637947756172643a207265656e7472616e742063616c6c00600082015250565b6000612588601f83611d08565b915061259382612552565b602082019050919050565b600060208201905081810360008301526125b78161257b565b9050919050565b7f6465706f7369744254433a20536163726966696365206e6f7420616374697665600082015250565b60006125f4602083611d08565b91506125ff826125be565b602082019050919050565b60006020820190508181036000830152612623816125e7565b9050919050565b7f6465706f7369744254433a2041646472657373206e6f742070617274206f662060008201527f616c6c6f77656420746f6b656e206c6973740000000000000000000000000000602082015250565b6000612686603283611d08565b91506126918261262a565b604082019050919050565b600060208201905081810360008301526126b581612679565b9050919050565b7f6465706f7369744254433a20416d6f756e74206d75737420626520677265617460008201527f6572207468616e205a45524f0000000000000000000000000000000000000000602082015250565b6000612718602c83611d08565b9150612723826126bc565b604082019050919050565b600060208201905081810360008301526127478161270b565b9050919050565b7f4e487b7100000000000000000000000000000000000000000000000000000000600052601160045260246000fd5b60006127888261188b565b91506127938361188b565b92508282039050818111156127ab576127aa61274e565b5b92915050565b60006127bc8261188b565b91506127c78361188b565b92508282026127d58161188b565b915082820484148315176127ec576127eb61274e565b5b5092915050565b60006127fe8261188b565b91506128098361188b565b92508282019050808211156128215761282061274e565b5b92915050565b7f4e487b7100000000000000000000000000000000000000000000000000000000600052601260045260246000fd5b60006128618261188b565b915061286c8361188b565b92508261287c5761287b612827565b5b828204905092915050565b60006128a261289d61289884611a07565b6121f2565b611a07565b9050919050565b60006128b482612887565b9050919050565b60006128c6826128a9565b9050919050565b6128d6816128bb565b82525050565b60006060820190506128f16000830186611d7c565b6128fe60208301856128cd565b61290b6040830184611b95565b949350505050565b60008151905061292281611fdd565b92915050565b60006020828403121561293e5761293d611881565b5b600061294c84828501612913565b91505092915050565b60008151905061296481611895565b92915050565b6000602082840312156129805761297f611881565b5b600061298e84828501612955565b91505092915050565b60006040820190506129ac6000830185611d7c565b6129b96020830184611b95565b9392505050565b7f4f776e61626c653a206e6577206f776e657220697320746865207a65726f206160008201527f6464726573730000000000000000000000000000000000000000000000000000602082015250565b6000612a1c602683611d08565b9150612a27826129c0565b604082019050919050565b60006020820190508181036000830152612a4b81612a0f565b9050919050565b7f676574436861696e4c696e6b50726963653a2041646472657373206e6f74207060008201527f617274206f6620436861696e6c696e6b20746f6b656e206c6973740000000000602082015250565b6000612aae603b83611d08565b9150612ab982612a52565b604082019050919050565b60006020820190508181036000830152612add81612aa1565b9050919050565b600069ffffffffffffffffffff82169050919050565b612b0381612ae4565b8114612b0e57600080fd5b50565b600081519050612b2081612afa565b92915050565b6000819050919050565b612b3981612b26565b8114612b4457600080fd5b50565b600081519050612b5681612b30565b92915050565b600080600080600060a08688031215612b7857612b77611881565b5b6000612b8688828901612b11565b9550506020612b9788828901612b47565b9450506040612ba888828901612955565b9350506060612bb988828901612955565b9250506080612bca88828901612b11565b9150509295509295909350565b7f4f776e61626c653a2063616c6c6572206973206e6f7420746865206f776e6572600082015250565b6000612c0d602083611d08565b9150612c1882612bd7565b602082019050919050565b60006020820190508181036000830152612c3c81612c00565b905091905056fea26469706673582212201ce825a9d888844331e4b0a12704302cc7ad60a6a41b4664926c49bff8d8e61c64736f6c63430008110033",
  "linkReferences": {},
  "deployedLinkReferences": {}
}