{
  "_format": "hh-sol-artifact-1",
  "contractName": "SafuuXSacrificeWBTC",
  "sourceName": "contracts/SafuuXSacrificeWBTC.sol",
  "abi": [
    {
      "inputs": [
        {
          "internalType": "address",
          "name": "_safuuWallet",
          "type": "address"
        },
        {
          "internalType": "address",
          "name": "_serviceWallet",
          "type": "address"
        }
      ],
      "stateMutability": "nonpayable",
      "type": "constructor"
    },
    {
      "anonymous": false,
      "inputs": [
        {
          "indexed": true,
          "internalType": "string",
          "name": "symbol",
          "type": "string"
        },
        {
          "indexed": true,
          "internalType": "address",
          "name": "accountAddress",
          "type": "address"
        },
        {
          "indexed": false,
          "internalType": "uint256",
          "name": "amount",
          "type": "uint256"
        }
      ],
      "name": "BTCDeposited",
      "type": "event"
    },
    {
      "anonymous": false,
      "inputs": [
        {
          "indexed": true,
          "internalType": "address",
          "name": "previousOwner",
          "type": "address"
        },
        {
          "indexed": true,
          "internalType": "address",
          "name": "newOwner",
          "type": "address"
        }
      ],
      "name": "OwnershipTransferred",
      "type": "event"
    },
    {
      "inputs": [
        {
          "internalType": "string",
          "name": "",
          "type": "string"
        }
      ],
      "name": "AllowedTokens",
      "outputs": [
        {
          "internalType": "address",
          "name": "",
          "type": "address"
        }
      ],
      "stateMutability": "view",
      "type": "function"
    },
    {
      "inputs": [
        {
          "internalType": "address",
          "name": "",
          "type": "address"
        },
        {
          "internalType": "address",
          "name": "",
          "type": "address"
        }
      ],
      "name": "BTCDeposit",
      "outputs": [
        {
          "internalType": "uint256",
          "name": "",
          "type": "uint256"
        }
      ],
      "stateMutability": "view",
      "type": "function"
    },
    {
      "inputs": [
        {
          "internalType": "string",
          "name": "",
          "type": "string"
        }
      ],
      "name": "ChainlinkContracts",
      "outputs": [
        {
          "internalType": "address",
          "name": "",
          "type": "address"
        }
      ],
      "stateMutability": "view",
      "type": "function"
    },
    {
      "inputs": [
        {
          "internalType": "uint256",
          "name": "",
          "type": "uint256"
        }
      ],
      "name": "Sacrifice",
      "outputs": [
        {
          "internalType": "uint256",
          "name": "id",
          "type": "uint256"
        },
        {
          "internalType": "string",
          "name": "tokenSymbol",
          "type": "string"
        },
        {
          "internalType": "address",
          "name": "accountAddress",
          "type": "address"
        },
        {
          "internalType": "uint256",
          "name": "tokenAmount",
          "type": "uint256"
        },
        {
          "internalType": "uint256",
          "name": "tokenPriceUSD",
          "type": "uint256"
        },
        {
          "internalType": "uint256",
          "name": "timestamp",
          "type": "uint256"
        },
        {
          "internalType": "string",
          "name": "status",
          "type": "string"
        }
      ],
      "stateMutability": "view",
      "type": "function"
    },
    {
      "inputs": [
        {
          "internalType": "uint256",
          "name": "",
          "type": "uint256"
        }
      ],
      "name": "SacrificeStatus",
      "outputs": [
        {
          "internalType": "string",
          "name": "",
          "type": "string"
        }
      ],
      "stateMutability": "view",
      "type": "function"
    },
    {
      "inputs": [
        {
          "internalType": "string",
          "name": "",
          "type": "string"
        }
      ],
      "name": "TokenDecimals",
      "outputs": [
        {
          "internalType": "uint256",
          "name": "",
          "type": "uint256"
        }
      ],
      "stateMutability": "view",
      "type": "function"
    },
    {
      "inputs": [
        {
          "internalType": "string",
          "name": "_symbol",
          "type": "string"
        },
        {
          "internalType": "uint256",
          "name": "_amount",
          "type": "uint256"
        }
      ],
      "name": "depositBTC",
      "outputs": [
        {
          "internalType": "uint256",
          "name": "",
          "type": "uint256"
        }
      ],
      "stateMutability": "nonpayable",
      "type": "function"
    },
    {
      "inputs": [
        {
          "internalType": "address",
          "name": "_account",
          "type": "address"
        },
        {
          "internalType": "string",
          "name": "_symbol",
          "type": "string"
        }
      ],
      "name": "getAccountDeposits",
      "outputs": [
        {
          "internalType": "uint256[]",
          "name": "",
          "type": "uint256[]"
        }
      ],
      "stateMutability": "view",
      "type": "function"
    },
    {
      "inputs": [
        {
          "internalType": "address",
          "name": "contractAddress",
          "type": "address"
        }
      ],
      "name": "getChainLinkPrice",
      "outputs": [
        {
          "internalType": "uint256",
          "name": "",
          "type": "uint256"
        }
      ],
      "stateMutability": "view",
      "type": "function"
    },
    {
      "inputs": [],
      "name": "getCurrentSacrificeID",
      "outputs": [
        {
          "internalType": "uint256",
          "name": "",
          "type": "uint256"
        }
      ],
      "stateMutability": "view",
      "type": "function"
    },
    {
      "inputs": [
        {
          "internalType": "string",
          "name": "_symbol",
          "type": "string"
        }
      ],
      "name": "getPriceBySymbol",
      "outputs": [
        {
          "internalType": "uint256",
          "name": "",
          "type": "uint256"
        }
      ],
      "stateMutability": "view",
      "type": "function"
    },
    {
      "inputs": [],
      "name": "isSacrificeActive",
      "outputs": [
        {
          "internalType": "bool",
          "name": "",
          "type": "bool"
        }
      ],
      "stateMutability": "view",
      "type": "function"
    },
    {
      "inputs": [],
      "name": "nextSacrificeId",
      "outputs": [
        {
          "internalType": "uint256",
          "name": "_value",
          "type": "uint256"
        }
      ],
      "stateMutability": "view",
      "type": "function"
    },
    {
      "inputs": [],
      "name": "owner",
      "outputs": [
        {
          "internalType": "address",
          "name": "",
          "type": "address"
        }
      ],
      "stateMutability": "view",
      "type": "function"
    },
    {
      "inputs": [
        {
          "internalType": "contract IERC20",
          "name": "tokenContract",
          "type": "address"
        },
        {
          "internalType": "address",
          "name": "to",
          "type": "address"
        }
      ],
      "name": "recoverERC20",
      "outputs": [],
      "stateMutability": "nonpayable",
      "type": "function"
    },
    {
      "inputs": [],
      "name": "recoverETH",
      "outputs": [],
      "stateMutability": "nonpayable",
      "type": "function"
    },
    {
      "inputs": [],
      "name": "renounceOwnership",
      "outputs": [],
      "stateMutability": "nonpayable",
      "type": "function"
    },
    {
      "inputs": [],
      "name": "safuuWallet",
      "outputs": [
        {
          "internalType": "address",
          "name": "",
          "type": "address"
        }
      ],
      "stateMutability": "view",
      "type": "function"
    },
    {
      "inputs": [],
      "name": "serviceWallet",
      "outputs": [
        {
          "internalType": "address",
          "name": "",
          "type": "address"
        }
      ],
      "stateMutability": "view",
      "type": "function"
    },
    {
      "inputs": [
        {
          "internalType": "string",
          "name": "_symbol",
          "type": "string"
        },
        {
          "internalType": "address",
          "name": "_tokenAddress",
          "type": "address"
        }
      ],
      "name": "setAllowedTokens",
      "outputs": [],
      "stateMutability": "nonpayable",
      "type": "function"
    },
    {
      "inputs": [
        {
          "internalType": "string",
          "name": "_symbol",
          "type": "string"
        },
        {
          "internalType": "address",
          "name": "_tokenAddress",
          "type": "address"
        }
      ],
      "name": "setChainlink",
      "outputs": [],
      "stateMutability": "nonpayable",
      "type": "function"
    },
    {
      "inputs": [
        {
          "internalType": "bool",
          "name": "_isActive",
          "type": "bool"
        }
      ],
      "name": "setSacrificeStatus",
      "outputs": [],
      "stateMutability": "nonpayable",
      "type": "function"
    },
    {
      "inputs": [
        {
          "internalType": "address",
          "name": "_safuuWallet",
          "type": "address"
        }
      ],
      "name": "setSafuuWallet",
      "outputs": [],
      "stateMutability": "nonpayable",
      "type": "function"
    },
    {
      "inputs": [
        {
          "internalType": "address",
          "name": "_serviceWallet",
          "type": "address"
        }
      ],
      "name": "setServiceWallet",
      "outputs": [],
      "stateMutability": "nonpayable",
      "type": "function"
    },
    {
      "inputs": [
        {
          "internalType": "string",
          "name": "_symbol",
          "type": "string"
        },
        {
          "internalType": "uint256",
          "name": "_decimals",
          "type": "uint256"
        }
      ],
      "name": "setTokenDecimals",
      "outputs": [],
      "stateMutability": "nonpayable",
      "type": "function"
    },
    {
      "inputs": [
        {
          "internalType": "uint256",
          "name": "_totalSacrificeUSD",
          "type": "uint256"
        }
      ],
      "name": "setTotalSacrifice",
      "outputs": [],
      "stateMutability": "nonpayable",
      "type": "function"
    },
    {
      "inputs": [],
      "name": "totalSacrifice",
      "outputs": [
        {
          "internalType": "uint256",
          "name": "",
          "type": "uint256"
        }
      ],
      "stateMutability": "view",
      "type": "function"
    },
    {
      "inputs": [
        {
          "internalType": "string",
          "name": "",
          "type": "string"
        }
      ],
      "name": "totalSacrificeAmount",
      "outputs": [
        {
          "internalType": "uint256",
          "name": "",
          "type": "uint256"
        }
      ],
      "stateMutability": "view",
      "type": "function"
    },
    {
      "inputs": [
        {
          "internalType": "address",
          "name": "newOwner",
          "type": "address"
        }
      ],
      "name": "transferOwnership",
      "outputs": [],
      "stateMutability": "nonpayable",
      "type": "function"
    },
    {
      "inputs": [
        {
          "internalType": "uint256",
          "name": "sacrificeId",
          "type": "uint256"
        },
        {
          "internalType": "uint256",
          "name": "_status",
          "type": "uint256"
        },
        {
          "internalType": "address",
          "name": "_account",
          "type": "address"
        },
        {
          "internalType": "uint256",
          "name": "_amount",
          "type": "uint256"
        },
        {
          "internalType": "uint256",
          "name": "_priceUSD",
          "type": "uint256"
        },
        {
          "internalType": "uint256",
          "name": "_timestamp",
          "type": "uint256"
        }
      ],
      "name": "updateSacrificeData",
      "outputs": [],
      "stateMutability": "nonpayable",
      "type": "function"
    }
  ],
  "bytecode": "0x60806040523480156200001157600080fd5b50604051620036d4380380620036d4833981810160405281019062000037919062000630565b620000576200004b620000f860201b60201c565b6200010060201b60201c565b6001808190555081600360006101000a81548173ffffffffffffffffffffffffffffffffffffffff021916908373ffffffffffffffffffffffffffffffffffffffff16021790555080600460006101000a81548173ffffffffffffffffffffffffffffffffffffffff021916908373ffffffffffffffffffffffffffffffffffffffff160217905550620000f0620001c460201b60201c565b505062000ae2565b600033905090565b60008060009054906101000a900473ffffffffffffffffffffffffffffffffffffffff169050816000806101000a81548173ffffffffffffffffffffffffffffffffffffffff021916908373ffffffffffffffffffffffffffffffffffffffff1602179055508173ffffffffffffffffffffffffffffffffffffffff168173ffffffffffffffffffffffffffffffffffffffff167f8be0079c531659141344cd1fd0a4f28419497f9722a3daafe3b4186f6b6457e060405160405180910390a35050565b6000600460146101000a81548160ff0219169083151502179055506040518060400160405280600781526020017f70656e64696e6700000000000000000000000000000000000000000000000000815250600d6000600181526020019081526020016000209081620002379190620008f1565b506040518060400160405280600981526020017f636f6d706c657465640000000000000000000000000000000000000000000000815250600d6000600281526020019081526020016000209081620002909190620008f1565b506040518060400160405280600981526020017f63616e63656c6c65640000000000000000000000000000000000000000000000815250600d6000600381526020019081526020016000209081620002e99190620008f1565b50620003456040518060400160405280600381526020017f425443000000000000000000000000000000000000000000000000000000000081525073eaf4b7edb253fe2d43c756be81dec4c273301200620003ed60201b60201c565b620003a06040518060400160405280600381526020017f425443000000000000000000000000000000000000000000000000000000000081525073a39434a63a52e749f02807ae27335515ba4b07f76200046060201b60201c565b620003eb6040518060400160405280600381526020017f42544300000000000000000000000000000000000000000000000000000000008152506305f5e100620004d360201b60201c565b565b620003fd6200050c60201b60201c565b80600a8360405162000410919062000a46565b908152602001604051809103902060006101000a81548173ffffffffffffffffffffffffffffffffffffffff021916908373ffffffffffffffffffffffffffffffffffffffff1602179055505050565b620004706200050c60201b60201c565b80600c8360405162000483919062000a46565b908152602001604051809103902060006101000a81548173ffffffffffffffffffffffffffffffffffffffff021916908373ffffffffffffffffffffffffffffffffffffffff1602179055505050565b620004e36200050c60201b60201c565b80600b83604051620004f6919062000a46565b9081526020016040518091039020819055505050565b6200051c620000f860201b60201c565b73ffffffffffffffffffffffffffffffffffffffff16620005426200059d60201b60201c565b73ffffffffffffffffffffffffffffffffffffffff16146200059b576040517f08c379a0000000000000000000000000000000000000000000000000000000008152600401620005929062000ac0565b60405180910390fd5b565b60008060009054906101000a900473ffffffffffffffffffffffffffffffffffffffff16905090565b600080fd5b600073ffffffffffffffffffffffffffffffffffffffff82169050919050565b6000620005f882620005cb565b9050919050565b6200060a81620005eb565b81146200061657600080fd5b50565b6000815190506200062a81620005ff565b92915050565b600080604083850312156200064a5762000649620005c6565b5b60006200065a8582860162000619565b92505060206200066d8582860162000619565b9150509250929050565b600081519050919050565b7f4e487b7100000000000000000000000000000000000000000000000000000000600052604160045260246000fd5b7f4e487b7100000000000000000000000000000000000000000000000000000000600052602260045260246000fd5b60006002820490506001821680620006f957607f821691505b6020821081036200070f576200070e620006b1565b5b50919050565b60008190508160005260206000209050919050565b60006020601f8301049050919050565b600082821b905092915050565b600060088302620007797fffffffffffffffffffffffffffffffffffffffffffffffffffffffffffffffff826200073a565b6200078586836200073a565b95508019841693508086168417925050509392505050565b6000819050919050565b6000819050919050565b6000620007d2620007cc620007c6846200079d565b620007a7565b6200079d565b9050919050565b6000819050919050565b620007ee83620007b1565b62000806620007fd82620007d9565b84845462000747565b825550505050565b600090565b6200081d6200080e565b6200082a818484620007e3565b505050565b5b8181101562000852576200084660008262000813565b60018101905062000830565b5050565b601f821115620008a1576200086b8162000715565b62000876846200072a565b8101602085101562000886578190505b6200089e62000895856200072a565b8301826200082f565b50505b505050565b600082821c905092915050565b6000620008c660001984600802620008a6565b1980831691505092915050565b6000620008e18383620008b3565b9150826002028217905092915050565b620008fc8262000677565b67ffffffffffffffff81111562000918576200091762000682565b5b620009248254620006e0565b6200093182828562000856565b600060209050601f83116001811462000969576000841562000954578287015190505b620009608582620008d3565b865550620009d0565b601f198416620009798662000715565b60005b82811015620009a3578489015182556001820191506020850194506020810190506200097c565b86831015620009c35784890151620009bf601f891682620008b3565b8355505b6001600288020188555050505b505050505050565b600081905092915050565b60005b8381101562000a03578082015181840152602081019050620009e6565b60008484015250505050565b600062000a1c8262000677565b62000a288185620009d8565b935062000a3a818560208601620009e3565b80840191505092915050565b600062000a54828462000a0f565b915081905092915050565b600082825260208201905092915050565b7f4f776e61626c653a2063616c6c6572206973206e6f7420746865206f776e6572600082015250565b600062000aa860208362000a5f565b915062000ab58262000a70565b602082019050919050565b6000602082019050818103600083015262000adb8162000a99565b9050919050565b612be28062000af26000396000f3fe608060405234801561001057600080fd5b50600436106101da5760003560e01c8063a61e590111610104578063cc8c155d116100a2578063e8bb2a9f11610071578063e8bb2a9f14610547578063f2fde38b14610577578063f86f359314610593578063ff28ca60146105c3576101da565b8063cc8c155d146104ad578063d2cba7e5146104dd578063d8e9d96a146104f9578063db44865b14610529576101da565b8063c355eb2d116100de578063c355eb2d14610415578063c5a7833e14610431578063cb49ad3e1461044d578063cb8f351e1461047d576101da565b8063a61e5901146103ad578063b8cb9247146103c9578063bf71521c146103e5576101da565b80634fa8de951161017c5780637598e2fd1161014b5780637598e2fd1461030d578063886f039a146103435780638da5cb5b1461035f578063a289c13b1461037d576101da565b80634fa8de9514610299578063531e0e9c146102b55780635641f3c3146102e5578063715018a614610303576101da565b806319d38918116101b857806319d38918146102255780631a403f19146102435780631f6f79641461026157806323bffccc1461027d576101da565b80630614117a146101df5780630cb4bedd146101e957806313e329ba14610207575b600080fd5b6101e76105f3565b005b6101f161063b565b6040516101fe919061194a565b60405180910390f35b61020f61064e565b60405161021c91906119a6565b60405180910390f35b61022d610674565b60405161023a91906119da565b60405180910390f35b61024b610680565b60405161025891906119da565b60405180910390f35b61027b60048036038101906102769190611b7b565b610686565b005b61029760048036038101906102929190611bd7565b6106ef565b005b6102b360048036038101906102ae9190611b7b565b61073b565b005b6102cf60048036038101906102ca9190611c30565b6107a4565b6040516102dc91906119da565b60405180910390f35b6102ed610e51565b6040516102fa91906119a6565b60405180910390f35b61030b610e77565b005b61032760048036038101906103229190611c8c565b610e8b565b60405161033a9796959493929190611d38565b60405180910390f35b61035d60048036038101906103589190611df3565b610ffd565b005b610367611101565b60405161037491906119a6565b60405180910390f35b61039760048036038101906103929190611e33565b61112a565b6040516103a49190611f4d565b60405180910390f35b6103c760048036038101906103c29190611c8c565b6111de565b005b6103e360048036038101906103de9190611f6f565b6111f0565b005b6103ff60048036038101906103fa9190611ffc565b61129a565b60405161040c91906119da565b60405180910390f35b61042f600480360381019061042a9190612071565b6112c8565b005b61044b60048036038101906104469190611bd7565b6112ed565b005b61046760048036038101906104629190611ffc565b611339565b60405161047491906119a6565b60405180910390f35b61049760048036038101906104929190611ffc565b611382565b6040516104a491906119da565b60405180910390f35b6104c760048036038101906104c2919061209e565b6113b0565b6040516104d491906119da565b60405180910390f35b6104f760048036038101906104f29190611c30565b6113d5565b005b610513600480360381019061050e9190611c8c565b611404565b60405161052091906120de565b60405180910390f35b6105316114a4565b60405161053e91906119da565b60405180910390f35b610561600480360381019061055c9190611ffc565b6114b5565b60405161056e91906119a6565b60405180910390f35b610591600480360381019061058c9190611bd7565b6114fe565b005b6105ad60048036038101906105a89190611ffc565b611581565b6040516105ba91906119da565b60405180910390f35b6105dd60048036038101906105d89190611bd7565b61167d565b6040516105ea91906119da565b60405180910390f35b6105fb611704565b3373ffffffffffffffffffffffffffffffffffffffff166108fc479081150290604051600060405180830381858888f1935050505061063957600080fd5b565b600460149054906101000a900460ff1681565b600360009054906101000a900473ffffffffffffffffffffffffffffffffffffffff1681565b60028060000154905081565b60055481565b61068e611704565b80600c8360405161069f919061213c565b908152602001604051809103902060006101000a81548173ffffffffffffffffffffffffffffffffffffffff021916908373ffffffffffffffffffffffffffffffffffffffff1602179055505050565b6106f7611704565b80600460006101000a81548173ffffffffffffffffffffffffffffffffffffffff021916908373ffffffffffffffffffffffffffffffffffffffff16021790555050565b610743611704565b80600a83604051610754919061213c565b908152602001604051809103902060006101000a81548173ffffffffffffffffffffffffffffffffffffffff021916908373ffffffffffffffffffffffffffffffffffffffff1602179055505050565b60006002600154036107eb576040517f08c379a00000000000000000000000000000000000000000000000000000000081526004016107e29061219f565b60405180910390fd5b600260018190555060011515600460149054906101000a900460ff16151514610849576040517f08c379a00000000000000000000000000000000000000000000000000000000081526004016108409061220b565b60405180910390fd5b600073ffffffffffffffffffffffffffffffffffffffff16600a84604051610871919061213c565b908152602001604051809103902060009054906101000a900473ffffffffffffffffffffffffffffffffffffffff1673ffffffffffffffffffffffffffffffffffffffff16036108f6576040517f08c379a00000000000000000000000000000000000000000000000000000000081526004016108ed9061229d565b60405180910390fd5b60008211610939576040517f08c379a00000000000000000000000000000000000000000000000000000000081526004016109309061232f565b60405180910390fd5b6109436002611782565b6000612710600b85604051610958919061213c565b90815260200160405180910390205461097191906123ad565b90506000818461098191906123de565b905060006109cc600c87604051610998919061213c565b908152602001604051809103902060009054906101000a900473ffffffffffffffffffffffffffffffffffffffff1661167d565b90506000600a876040516109e0919061213c565b908152602001604051809103902060009054906101000a900473ffffffffffffffffffffffffffffffffffffffff16905082600860003373ffffffffffffffffffffffffffffffffffffffff1673ffffffffffffffffffffffffffffffffffffffff16815260200190815260200160002060008373ffffffffffffffffffffffffffffffffffffffff1673ffffffffffffffffffffffffffffffffffffffff1681526020019081526020016000206000828254610a9d9190612420565b92505081905550600960003373ffffffffffffffffffffffffffffffffffffffff1673ffffffffffffffffffffffffffffffffffffffff16815260200190815260200160002087604051610af1919061213c565b9081526020016040518091039020610b096002611798565b9080600181540180825580915050600190039060005260206000200160009091909190915055600061271083610b3f91906123ad565b90508681610b4d91906123de565b60056000828254610b5e9190612420565b9250508190555086600789604051610b76919061213c565b90815260200160405180910390206000828254610b939190612420565b92505081905550610c448833868642600d6000600281526020019081526020016000208054610bc190612483565b80601f0160208091040260200160405190810160405280929190818152602001828054610bed90612483565b8015610c3a5780601f10610c0f57610100808354040283529160200191610c3a565b820191906000526020600020905b815481529060010190602001808311610c1d57829003601f168201915b50505050506117a6565b60006103e86103e686610c5791906123de565b610c6191906123ad565b905060006103e8600287610c7591906123de565b610c7f91906123ad565b905060008490508073ffffffffffffffffffffffffffffffffffffffff166323b872dd33600360009054906101000a900473ffffffffffffffffffffffffffffffffffffffff16866040518463ffffffff1660e01b8152600401610ce5939291906124b4565b6020604051808303816000875af1158015610d04573d6000803e3d6000fd5b505050506040513d601f19601f82011682018060405250810190610d289190612500565b508073ffffffffffffffffffffffffffffffffffffffff166323b872dd33600460009054906101000a900473ffffffffffffffffffffffffffffffffffffffff16856040518463ffffffff1660e01b8152600401610d88939291906124b4565b6020604051808303816000875af1158015610da7573d6000803e3d6000fd5b505050506040513d601f19601f82011682018060405250810190610dcb9190612500565b503373ffffffffffffffffffffffffffffffffffffffff168b604051610df1919061213c565b60405180910390207fa986c6dbfd1a19903790abda864e9d9ce49c45b2113f621b2108e529806c002489604051610e2891906119da565b60405180910390a3610e3a6002611798565b985050505050505050506001808190555092915050565b600460009054906101000a900473ffffffffffffffffffffffffffffffffffffffff1681565b610e7f611704565b610e896000611863565b565b6006602052806000526040600020600091509050806000015490806001018054610eb490612483565b80601f0160208091040260200160405190810160405280929190818152602001828054610ee090612483565b8015610f2d5780601f10610f0257610100808354040283529160200191610f2d565b820191906000526020600020905b815481529060010190602001808311610f1057829003601f168201915b5050505050908060020160009054906101000a900473ffffffffffffffffffffffffffffffffffffffff1690806003015490806004015490806005015490806006018054610f7a90612483565b80601f0160208091040260200160405190810160405280929190818152602001828054610fa690612483565b8015610ff35780601f10610fc857610100808354040283529160200191610ff3565b820191906000526020600020905b815481529060010190602001808311610fd657829003601f168201915b5050505050905087565b611005611704565b8173ffffffffffffffffffffffffffffffffffffffff1663a9059cbb828473ffffffffffffffffffffffffffffffffffffffff166370a08231306040518263ffffffff1660e01b815260040161105b91906119a6565b602060405180830381865afa158015611078573d6000803e3d6000fd5b505050506040513d601f19601f8201168201806040525081019061109c9190612542565b6040518363ffffffff1660e01b81526004016110b992919061256f565b6020604051808303816000875af11580156110d8573d6000803e3d6000fd5b505050506040513d601f19601f820116820180604052508101906110fc9190612500565b505050565b60008060009054906101000a900473ffffffffffffffffffffffffffffffffffffffff16905090565b6060600960008473ffffffffffffffffffffffffffffffffffffffff1673ffffffffffffffffffffffffffffffffffffffff16815260200190815260200160002082604051611179919061213c565b90815260200160405180910390208054806020026020016040519081016040528092919081815260200182805480156111d157602002820191906000526020600020905b8154815260200190600101908083116111bd575b5050505050905092915050565b6111e6611704565b8060058190555050565b6111f8611704565b6000600660008881526020019081526020016000209050848160020160006101000a81548173ffffffffffffffffffffffffffffffffffffffff021916908373ffffffffffffffffffffffffffffffffffffffff160217905550838160030181905550828160040181905550818160050181905550600d6000878152602001908152602001600020816006019081611290919061276f565b5050505050505050565b6007818051602081018201805184825260208301602085012081835280955050505050506000915090505481565b6112d0611704565b80600460146101000a81548160ff02191690831515021790555050565b6112f5611704565b80600360006101000a81548173ffffffffffffffffffffffffffffffffffffffff021916908373ffffffffffffffffffffffffffffffffffffffff16021790555050565b600c818051602081018201805184825260208301602085012081835280955050505050506000915054906101000a900473ffffffffffffffffffffffffffffffffffffffff1681565b600b818051602081018201805184825260208301602085012081835280955050505050506000915090505481565b6008602052816000526040600020602052806000526040600020600091509150505481565b6113dd611704565b80600b836040516113ee919061213c565b9081526020016040518091039020819055505050565b600d602052806000526040600020600091509050805461142390612483565b80601f016020809104026020016040519081016040528092919081815260200182805461144f90612483565b801561149c5780601f106114715761010080835404028352916020019161149c565b820191906000526020600020905b81548152906001019060200180831161147f57829003601f168201915b505050505081565b60006114b06002611798565b905090565b600a818051602081018201805184825260208301602085012081835280955050505050506000915054906101000a900473ffffffffffffffffffffffffffffffffffffffff1681565b611506611704565b600073ffffffffffffffffffffffffffffffffffffffff168173ffffffffffffffffffffffffffffffffffffffff1603611575576040517f08c379a000000000000000000000000000000000000000000000000000000000815260040161156c906128c9565b60405180910390fd5b61157e81611863565b50565b60008073ffffffffffffffffffffffffffffffffffffffff16600c836040516115aa919061213c565b908152602001604051809103902060009054906101000a900473ffffffffffffffffffffffffffffffffffffffff1673ffffffffffffffffffffffffffffffffffffffff160361162f576040517f08c379a00000000000000000000000000000000000000000000000000000000081526004016116269061295b565b60405180910390fd5b611676600c83604051611642919061213c565b908152602001604051809103902060009054906101000a900473ffffffffffffffffffffffffffffffffffffffff1661167d565b9050919050565b60008082905060008173ffffffffffffffffffffffffffffffffffffffff1663feaf968c6040518163ffffffff1660e01b815260040160a060405180830381865afa1580156116d0573d6000803e3d6000fd5b505050506040513d601f19601f820116820180604052508101906116f491906129f3565b5050509150508092505050919050565b61170c611927565b73ffffffffffffffffffffffffffffffffffffffff1661172a611101565b73ffffffffffffffffffffffffffffffffffffffff1614611780576040517f08c379a000000000000000000000000000000000000000000000000000000000815260040161177790612aba565b60405180910390fd5b565b6001816000016000828254019250508190555050565b600081600001549050919050565b6000600660006117b66002611798565b815260200190815260200160002090506117d06002611798565b8160000181905550868160010190816117e99190612ada565b50858160020160006101000a81548173ffffffffffffffffffffffffffffffffffffffff021916908373ffffffffffffffffffffffffffffffffffffffff160217905550848160030181905550838160040181905550828160050181905550818160060190816118599190612ada565b5050505050505050565b60008060009054906101000a900473ffffffffffffffffffffffffffffffffffffffff169050816000806101000a81548173ffffffffffffffffffffffffffffffffffffffff021916908373ffffffffffffffffffffffffffffffffffffffff1602179055508173ffffffffffffffffffffffffffffffffffffffff168173ffffffffffffffffffffffffffffffffffffffff167f8be0079c531659141344cd1fd0a4f28419497f9722a3daafe3b4186f6b6457e060405160405180910390a35050565b600033905090565b60008115159050919050565b6119448161192f565b82525050565b600060208201905061195f600083018461193b565b92915050565b600073ffffffffffffffffffffffffffffffffffffffff82169050919050565b600061199082611965565b9050919050565b6119a081611985565b82525050565b60006020820190506119bb6000830184611997565b92915050565b6000819050919050565b6119d4816119c1565b82525050565b60006020820190506119ef60008301846119cb565b92915050565b6000604051905090565b600080fd5b600080fd5b600080fd5b600080fd5b6000601f19601f8301169050919050565b7f4e487b7100000000000000000000000000000000000000000000000000000000600052604160045260246000fd5b611a5c82611a13565b810181811067ffffffffffffffff82111715611a7b57611a7a611a24565b5b80604052505050565b6000611a8e6119f5565b9050611a9a8282611a53565b919050565b600067ffffffffffffffff821115611aba57611ab9611a24565b5b611ac382611a13565b9050602081019050919050565b82818337600083830152505050565b6000611af2611aed84611a9f565b611a84565b905082815260208101848484011115611b0e57611b0d611a0e565b5b611b19848285611ad0565b509392505050565b600082601f830112611b3657611b35611a09565b5b8135611b46848260208601611adf565b91505092915050565b611b5881611985565b8114611b6357600080fd5b50565b600081359050611b7581611b4f565b92915050565b60008060408385031215611b9257611b916119ff565b5b600083013567ffffffffffffffff811115611bb057611baf611a04565b5b611bbc85828601611b21565b9250506020611bcd85828601611b66565b9150509250929050565b600060208284031215611bed57611bec6119ff565b5b6000611bfb84828501611b66565b91505092915050565b611c0d816119c1565b8114611c1857600080fd5b50565b600081359050611c2a81611c04565b92915050565b60008060408385031215611c4757611c466119ff565b5b600083013567ffffffffffffffff811115611c6557611c64611a04565b5b611c7185828601611b21565b9250506020611c8285828601611c1b565b9150509250929050565b600060208284031215611ca257611ca16119ff565b5b6000611cb084828501611c1b565b91505092915050565b600081519050919050565b600082825260208201905092915050565b60005b83811015611cf3578082015181840152602081019050611cd8565b60008484015250505050565b6000611d0a82611cb9565b611d148185611cc4565b9350611d24818560208601611cd5565b611d2d81611a13565b840191505092915050565b600060e082019050611d4d600083018a6119cb565b8181036020830152611d5f8189611cff565b9050611d6e6040830188611997565b611d7b60608301876119cb565b611d8860808301866119cb565b611d9560a08301856119cb565b81810360c0830152611da78184611cff565b905098975050505050505050565b6000611dc082611985565b9050919050565b611dd081611db5565b8114611ddb57600080fd5b50565b600081359050611ded81611dc7565b92915050565b60008060408385031215611e0a57611e096119ff565b5b6000611e1885828601611dde565b9250506020611e2985828601611b66565b9150509250929050565b60008060408385031215611e4a57611e496119ff565b5b6000611e5885828601611b66565b925050602083013567ffffffffffffffff811115611e7957611e78611a04565b5b611e8585828601611b21565b9150509250929050565b600081519050919050565b600082825260208201905092915050565b6000819050602082019050919050565b611ec4816119c1565b82525050565b6000611ed68383611ebb565b60208301905092915050565b6000602082019050919050565b6000611efa82611e8f565b611f048185611e9a565b9350611f0f83611eab565b8060005b83811015611f40578151611f278882611eca565b9750611f3283611ee2565b925050600181019050611f13565b5085935050505092915050565b60006020820190508181036000830152611f678184611eef565b905092915050565b60008060008060008060c08789031215611f8c57611f8b6119ff565b5b6000611f9a89828a01611c1b565b9650506020611fab89828a01611c1b565b9550506040611fbc89828a01611b66565b9450506060611fcd89828a01611c1b565b9350506080611fde89828a01611c1b565b92505060a0611fef89828a01611c1b565b9150509295509295509295565b600060208284031215612012576120116119ff565b5b600082013567ffffffffffffffff8111156120305761202f611a04565b5b61203c84828501611b21565b91505092915050565b61204e8161192f565b811461205957600080fd5b50565b60008135905061206b81612045565b92915050565b600060208284031215612087576120866119ff565b5b60006120958482850161205c565b91505092915050565b600080604083850312156120b5576120b46119ff565b5b60006120c385828601611b66565b92505060206120d485828601611b66565b9150509250929050565b600060208201905081810360008301526120f88184611cff565b905092915050565b600081905092915050565b600061211682611cb9565b6121208185612100565b9350612130818560208601611cd5565b80840191505092915050565b6000612148828461210b565b915081905092915050565b7f5265656e7472616e637947756172643a207265656e7472616e742063616c6c00600082015250565b6000612189601f83611cc4565b915061219482612153565b602082019050919050565b600060208201905081810360008301526121b88161217c565b9050919050565b7f6465706f7369744254433a20536163726966696365206e6f7420616374697665600082015250565b60006121f5602083611cc4565b9150612200826121bf565b602082019050919050565b60006020820190508181036000830152612224816121e8565b9050919050565b7f6465706f7369744254433a2041646472657373206e6f742070617274206f662060008201527f616c6c6f77656420746f6b656e206c6973740000000000000000000000000000602082015250565b6000612287603283611cc4565b91506122928261222b565b604082019050919050565b600060208201905081810360008301526122b68161227a565b9050919050565b7f6465706f7369744254433a20416d6f756e74206d75737420626520677265617460008201527f6572207468616e205a45524f0000000000000000000000000000000000000000602082015250565b6000612319602c83611cc4565b9150612324826122bd565b604082019050919050565b600060208201905081810360008301526123488161230c565b9050919050565b7f4e487b7100000000000000000000000000000000000000000000000000000000600052601260045260246000fd5b7f4e487b7100000000000000000000000000000000000000000000000000000000600052601160045260246000fd5b60006123b8826119c1565b91506123c3836119c1565b9250826123d3576123d261234f565b5b828204905092915050565b60006123e9826119c1565b91506123f4836119c1565b9250828202612402816119c1565b915082820484148315176124195761241861237e565b5b5092915050565b600061242b826119c1565b9150612436836119c1565b925082820190508082111561244e5761244d61237e565b5b92915050565b7f4e487b7100000000000000000000000000000000000000000000000000000000600052602260045260246000fd5b6000600282049050600182168061249b57607f821691505b6020821081036124ae576124ad612454565b5b50919050565b60006060820190506124c96000830186611997565b6124d66020830185611997565b6124e360408301846119cb565b949350505050565b6000815190506124fa81612045565b92915050565b600060208284031215612516576125156119ff565b5b6000612524848285016124eb565b91505092915050565b60008151905061253c81611c04565b92915050565b600060208284031215612558576125576119ff565b5b60006125668482850161252d565b91505092915050565b60006040820190506125846000830185611997565b61259160208301846119cb565b9392505050565b6000815490506125a781612483565b9050919050565b60008190508160005260206000209050919050565b60008190508160005260206000209050919050565b60006020601f8301049050919050565b600082821b905092915050565b6000600883026126257fffffffffffffffffffffffffffffffffffffffffffffffffffffffffffffffff826125e8565b61262f86836125e8565b95508019841693508086168417925050509392505050565b6000819050919050565b600061266c612667612662846119c1565b612647565b6119c1565b9050919050565b6000819050919050565b61268683612651565b61269a61269282612673565b8484546125f5565b825550505050565b600090565b6126af6126a2565b6126ba81848461267d565b505050565b5b818110156126de576126d36000826126a7565b6001810190506126c0565b5050565b601f821115612723576126f4816125ae565b6126fd846125d8565b8101602085101561270c578190505b612720612718856125d8565b8301826126bf565b50505b505050565b600082821c905092915050565b600061274660001984600802612728565b1980831691505092915050565b600061275f8383612735565b9150826002028217905092915050565b81810361277d575050612855565b61278682612598565b67ffffffffffffffff81111561279f5761279e611a24565b5b6127a98254612483565b6127b48282856126e2565b6000601f8311600181146127e357600084156127d1578287015490505b6127db8582612753565b86555061284e565b601f1984166127f1876125c3565b96506127fc866125ae565b60005b82811015612824578489015482556001820191506001850194506020810190506127ff565b86831015612841578489015461283d601f891682612735565b8355505b6001600288020188555050505b5050505050505b565b7f4f776e61626c653a206e6577206f776e657220697320746865207a65726f206160008201527f6464726573730000000000000000000000000000000000000000000000000000602082015250565b60006128b3602683611cc4565b91506128be82612857565b604082019050919050565b600060208201905081810360008301526128e2816128a6565b9050919050565b7f676574436861696e4c696e6b50726963653a2041646472657373206e6f74207060008201527f617274206f6620436861696e6c696e6b20746f6b656e206c6973740000000000602082015250565b6000612945603b83611cc4565b9150612950826128e9565b604082019050919050565b6000602082019050818103600083015261297481612938565b9050919050565b600069ffffffffffffffffffff82169050919050565b61299a8161297b565b81146129a557600080fd5b50565b6000815190506129b781612991565b92915050565b6000819050919050565b6129d0816129bd565b81146129db57600080fd5b50565b6000815190506129ed816129c7565b92915050565b600080600080600060a08688031215612a0f57612a0e6119ff565b5b6000612a1d888289016129a8565b9550506020612a2e888289016129de565b9450506040612a3f8882890161252d565b9350506060612a508882890161252d565b9250506080612a61888289016129a8565b9150509295509295909350565b7f4f776e61626c653a2063616c6c6572206973206e6f7420746865206f776e6572600082015250565b6000612aa4602083611cc4565b9150612aaf82612a6e565b602082019050919050565b60006020820190508181036000830152612ad381612a97565b9050919050565b612ae382611cb9565b67ffffffffffffffff811115612afc57612afb611a24565b5b612b068254612483565b612b118282856126e2565b600060209050601f831160018114612b445760008415612b32578287015190505b612b3c8582612753565b865550612ba4565b601f198416612b52866125ae565b60005b82811015612b7a57848901518255600182019150602085019450602081019050612b55565b86831015612b975784890151612b93601f891682612735565b8355505b6001600288020188555050505b50505050505056fea2646970667358221220f474bc4830a8f9c643d622aabae187a4a40b6d5d2cc65d172f147337933cd93564736f6c63430008110033",
  "linkReferences": {},
  "deployedLinkReferences": {}
}