{
  "_format": "hh-sol-artifact-1",
  "contractName": "SafuuXSacrificeBSC",
  "sourceName": "contracts/SafuuXSacrificeBSC.sol",
  "abi": [
    {
      "inputs": [
        {
          "internalType": "address payable",
          "name": "_safuuWallet",
          "type": "address"
        },
        {
          "internalType": "address payable",
          "name": "_serviceWallet",
          "type": "address"
        }
      ],
      "stateMutability": "nonpayable",
      "type": "constructor"
    },
    {
      "anonymous": false,
      "inputs": [
        {
          "indexed": true,
          "internalType": "string",
          "name": "symbol",
          "type": "string"
        },
        {
          "indexed": true,
          "internalType": "address",
          "name": "accountAddress",
          "type": "address"
        },
        {
          "indexed": false,
          "internalType": "uint256",
          "name": "amount",
          "type": "uint256"
        }
      ],
      "name": "BEP20Deposited",
      "type": "event"
    },
    {
      "anonymous": false,
      "inputs": [
        {
          "indexed": true,
          "internalType": "address",
          "name": "accountAddress",
          "type": "address"
        },
        {
          "indexed": false,
          "internalType": "uint256",
          "name": "amount",
          "type": "uint256"
        }
      ],
      "name": "BNBDeposited",
      "type": "event"
    },
    {
      "anonymous": false,
      "inputs": [
        {
          "indexed": true,
          "internalType": "address",
          "name": "accountAddress",
          "type": "address"
        },
        {
          "indexed": false,
          "internalType": "uint256",
          "name": "amount",
          "type": "uint256"
        }
      ],
      "name": "BTCPledged",
      "type": "event"
    },
    {
      "anonymous": false,
      "inputs": [
        {
          "indexed": true,
          "internalType": "address",
          "name": "previousOwner",
          "type": "address"
        },
        {
          "indexed": true,
          "internalType": "address",
          "name": "newOwner",
          "type": "address"
        }
      ],
      "name": "OwnershipTransferred",
      "type": "event"
    },
    {
      "anonymous": false,
      "inputs": [
        {
          "indexed": true,
          "internalType": "address",
          "name": "accountAddress",
          "type": "address"
        },
        {
          "indexed": false,
          "internalType": "uint256",
          "name": "amount",
          "type": "uint256"
        }
      ],
      "name": "SAFUUDeposited",
      "type": "event"
    },
    {
      "inputs": [
        {
          "internalType": "string",
          "name": "",
          "type": "string"
        }
      ],
      "name": "AllowedTokens",
      "outputs": [
        {
          "internalType": "address",
          "name": "",
          "type": "address"
        }
      ],
      "stateMutability": "view",
      "type": "function"
    },
    {
      "inputs": [
        {
          "internalType": "address",
          "name": "",
          "type": "address"
        },
        {
          "internalType": "address",
          "name": "",
          "type": "address"
        }
      ],
      "name": "BEP20Deposit",
      "outputs": [
        {
          "internalType": "uint256",
          "name": "",
          "type": "uint256"
        }
      ],
      "stateMutability": "view",
      "type": "function"
    },
    {
      "inputs": [
        {
          "internalType": "address",
          "name": "",
          "type": "address"
        }
      ],
      "name": "BNBDeposit",
      "outputs": [
        {
          "internalType": "uint256",
          "name": "",
          "type": "uint256"
        }
      ],
      "stateMutability": "view",
      "type": "function"
    },
    {
      "inputs": [
        {
          "internalType": "address",
          "name": "",
          "type": "address"
        }
      ],
      "name": "BTCPledge",
      "outputs": [
        {
          "internalType": "uint256",
          "name": "",
          "type": "uint256"
        }
      ],
      "stateMutability": "view",
      "type": "function"
    },
    {
      "inputs": [
        {
          "internalType": "uint256",
          "name": "",
          "type": "uint256"
        }
      ],
      "name": "BonusPercentage",
      "outputs": [
        {
          "internalType": "uint256",
          "name": "",
          "type": "uint256"
        }
      ],
      "stateMutability": "view",
      "type": "function"
    },
    {
      "inputs": [
        {
          "internalType": "string",
          "name": "",
          "type": "string"
        }
      ],
      "name": "ChainlinkContracts",
      "outputs": [
        {
          "internalType": "address",
          "name": "",
          "type": "address"
        }
      ],
      "stateMutability": "view",
      "type": "function"
    },
    {
      "inputs": [
        {
          "internalType": "uint256",
          "name": "",
          "type": "uint256"
        }
      ],
      "name": "Sacrifice",
      "outputs": [
        {
          "internalType": "uint256",
          "name": "id",
          "type": "uint256"
        },
        {
          "internalType": "string",
          "name": "txHash",
          "type": "string"
        },
        {
          "internalType": "string",
          "name": "tokenSymbol",
          "type": "string"
        },
        {
          "internalType": "address",
          "name": "accountAddress",
          "type": "address"
        },
        {
          "internalType": "uint256",
          "name": "tokenAmount",
          "type": "uint256"
        },
        {
          "internalType": "uint256",
          "name": "tokenPriceUSD",
          "type": "uint256"
        },
        {
          "internalType": "uint256",
          "name": "timestamp",
          "type": "uint256"
        },
        {
          "internalType": "uint256",
          "name": "bonus",
          "type": "uint256"
        },
        {
          "internalType": "uint256",
          "name": "btcIndex",
          "type": "uint256"
        },
        {
          "internalType": "string",
          "name": "status",
          "type": "string"
        }
      ],
      "stateMutability": "view",
      "type": "function"
    },
    {
      "inputs": [
        {
          "internalType": "uint256",
          "name": "",
          "type": "uint256"
        }
      ],
      "name": "SacrificeStatus",
      "outputs": [
        {
          "internalType": "string",
          "name": "",
          "type": "string"
        }
      ],
      "stateMutability": "view",
      "type": "function"
    },
    {
      "inputs": [],
      "name": "activateBonus",
      "outputs": [],
      "stateMutability": "nonpayable",
      "type": "function"
    },
    {
      "inputs": [],
      "name": "bonusStart",
      "outputs": [
        {
          "internalType": "uint256",
          "name": "",
          "type": "uint256"
        }
      ],
      "stateMutability": "view",
      "type": "function"
    },
    {
      "inputs": [
        {
          "internalType": "string",
          "name": "_symbol",
          "type": "string"
        },
        {
          "internalType": "uint256",
          "name": "_amount",
          "type": "uint256"
        }
      ],
      "name": "depositBEP20",
      "outputs": [],
      "stateMutability": "nonpayable",
      "type": "function"
    },
    {
      "inputs": [],
      "name": "depositBNB",
      "outputs": [],
      "stateMutability": "payable",
      "type": "function"
    },
    {
      "inputs": [
        {
          "internalType": "uint256",
          "name": "_amount",
          "type": "uint256"
        }
      ],
      "name": "depositSafuu",
      "outputs": [],
      "stateMutability": "nonpayable",
      "type": "function"
    },
    {
      "inputs": [
        {
          "internalType": "address",
          "name": "_account",
          "type": "address"
        },
        {
          "internalType": "string",
          "name": "_symbol",
          "type": "string"
        }
      ],
      "name": "getAccountDeposits",
      "outputs": [
        {
          "internalType": "uint256[]",
          "name": "",
          "type": "uint256[]"
        }
      ],
      "stateMutability": "view",
      "type": "function"
    },
    {
      "inputs": [],
      "name": "getBonus",
      "outputs": [
        {
          "internalType": "uint256",
          "name": "",
          "type": "uint256"
        }
      ],
      "stateMutability": "view",
      "type": "function"
    },
    {
      "inputs": [
        {
          "internalType": "address",
          "name": "contractAddress",
          "type": "address"
        }
      ],
      "name": "getChainLinkPrice",
      "outputs": [
        {
          "internalType": "uint256",
          "name": "",
          "type": "uint256"
        }
      ],
      "stateMutability": "view",
      "type": "function"
    },
    {
      "inputs": [],
      "name": "getCurrentBTCIndex",
      "outputs": [
        {
          "internalType": "uint256",
          "name": "",
          "type": "uint256"
        }
      ],
      "stateMutability": "view",
      "type": "function"
    },
    {
      "inputs": [],
      "name": "getCurrentSacrificeID",
      "outputs": [
        {
          "internalType": "uint256",
          "name": "",
          "type": "uint256"
        }
      ],
      "stateMutability": "view",
      "type": "function"
    },
    {
      "inputs": [
        {
          "internalType": "string",
          "name": "_symbol",
          "type": "string"
        }
      ],
      "name": "getPriceBySymbol",
      "outputs": [
        {
          "internalType": "uint256",
          "name": "",
          "type": "uint256"
        }
      ],
      "stateMutability": "view",
      "type": "function"
    },
    {
      "inputs": [],
      "name": "isBonusActive",
      "outputs": [
        {
          "internalType": "bool",
          "name": "",
          "type": "bool"
        }
      ],
      "stateMutability": "view",
      "type": "function"
    },
    {
      "inputs": [],
      "name": "isSacrificeActive",
      "outputs": [
        {
          "internalType": "bool",
          "name": "",
          "type": "bool"
        }
      ],
      "stateMutability": "view",
      "type": "function"
    },
    {
      "inputs": [],
      "name": "nextBTCIndex",
      "outputs": [
        {
          "internalType": "uint256",
          "name": "_value",
          "type": "uint256"
        }
      ],
      "stateMutability": "view",
      "type": "function"
    },
    {
      "inputs": [],
      "name": "nextSacrificeId",
      "outputs": [
        {
          "internalType": "uint256",
          "name": "_value",
          "type": "uint256"
        }
      ],
      "stateMutability": "view",
      "type": "function"
    },
    {
      "inputs": [],
      "name": "owner",
      "outputs": [
        {
          "internalType": "address",
          "name": "",
          "type": "address"
        }
      ],
      "stateMutability": "view",
      "type": "function"
    },
    {
      "inputs": [
        {
          "internalType": "uint256",
          "name": "_amount",
          "type": "uint256"
        }
      ],
      "name": "pledgeBTC",
      "outputs": [
        {
          "internalType": "uint256",
          "name": "",
          "type": "uint256"
        }
      ],
      "stateMutability": "nonpayable",
      "type": "function"
    },
    {
      "inputs": [
        {
          "internalType": "contract IERC20",
          "name": "tokenContract",
          "type": "address"
        },
        {
          "internalType": "address",
          "name": "to",
          "type": "address"
        }
      ],
      "name": "recoverBEP20",
      "outputs": [],
      "stateMutability": "nonpayable",
      "type": "function"
    },
    {
      "inputs": [],
      "name": "recoverBNB",
      "outputs": [],
      "stateMutability": "nonpayable",
      "type": "function"
    },
    {
      "inputs": [],
      "name": "renounceOwnership",
      "outputs": [],
      "stateMutability": "nonpayable",
      "type": "function"
    },
    {
      "inputs": [],
      "name": "safuuBonus",
      "outputs": [
        {
          "internalType": "uint256",
          "name": "",
          "type": "uint256"
        }
      ],
      "stateMutability": "view",
      "type": "function"
    },
    {
      "inputs": [],
      "name": "safuuPriceUSD",
      "outputs": [
        {
          "internalType": "uint256",
          "name": "",
          "type": "uint256"
        }
      ],
      "stateMutability": "view",
      "type": "function"
    },
    {
      "inputs": [],
      "name": "safuuWallet",
      "outputs": [
        {
          "internalType": "address payable",
          "name": "",
          "type": "address"
        }
      ],
      "stateMutability": "view",
      "type": "function"
    },
    {
      "inputs": [],
      "name": "serviceWallet",
      "outputs": [
        {
          "internalType": "address payable",
          "name": "",
          "type": "address"
        }
      ],
      "stateMutability": "view",
      "type": "function"
    },
    {
      "inputs": [
        {
          "internalType": "string",
          "name": "_symbol",
          "type": "string"
        },
        {
          "internalType": "address",
          "name": "_tokenAddress",
          "type": "address"
        }
      ],
      "name": "setAllowedTokens",
      "outputs": [],
      "stateMutability": "nonpayable",
      "type": "function"
    },
    {
      "inputs": [
        {
          "internalType": "string",
          "name": "_symbol",
          "type": "string"
        },
        {
          "internalType": "address",
          "name": "_tokenAddress",
          "type": "address"
        }
      ],
      "name": "setChainlink",
      "outputs": [],
      "stateMutability": "nonpayable",
      "type": "function"
    },
    {
      "inputs": [
        {
          "internalType": "bool",
          "name": "_isActive",
          "type": "bool"
        }
      ],
      "name": "setSacrificeStatus",
      "outputs": [],
      "stateMutability": "nonpayable",
      "type": "function"
    },
    {
      "inputs": [
        {
          "internalType": "uint256",
          "name": "_safuuPriceUSD",
          "type": "uint256"
        }
      ],
      "name": "setSafuuPriceUSD",
      "outputs": [],
      "stateMutability": "nonpayable",
      "type": "function"
    },
    {
      "inputs": [
        {
          "internalType": "address payable",
          "name": "_safuuWallet",
          "type": "address"
        }
      ],
      "name": "setSafuuWallet",
      "outputs": [],
      "stateMutability": "nonpayable",
      "type": "function"
    },
    {
      "inputs": [
        {
          "internalType": "address payable",
          "name": "_serviceWallet",
          "type": "address"
        }
      ],
      "name": "setServiceWallet",
      "outputs": [],
      "stateMutability": "nonpayable",
      "type": "function"
    },
    {
      "inputs": [],
      "name": "totalSacrifice",
      "outputs": [
        {
          "internalType": "uint256",
          "name": "",
          "type": "uint256"
        }
      ],
      "stateMutability": "view",
      "type": "function"
    },
    {
      "inputs": [
        {
          "internalType": "address",
          "name": "newOwner",
          "type": "address"
        }
      ],
      "name": "transferOwnership",
      "outputs": [],
      "stateMutability": "nonpayable",
      "type": "function"
    },
    {
      "inputs": [
        {
          "internalType": "uint256",
          "name": "_day",
          "type": "uint256"
        },
        {
          "internalType": "uint256",
          "name": "_percentage",
          "type": "uint256"
        }
      ],
      "name": "updateBonus",
      "outputs": [],
      "stateMutability": "nonpayable",
      "type": "function"
    },
    {
      "inputs": [
        {
          "internalType": "uint256",
          "name": "sacrificeId",
          "type": "uint256"
        },
        {
          "internalType": "string",
          "name": "_txHash",
          "type": "string"
        },
        {
          "internalType": "uint256",
          "name": "_bonus",
          "type": "uint256"
        },
        {
          "internalType": "uint256",
          "name": "_status",
          "type": "uint256"
        }
      ],
      "name": "updateSacrificeData",
      "outputs": [],
      "stateMutability": "nonpayable",
      "type": "function"
    }
  ],
  "bytecode": "0x60806040523480156200001157600080fd5b50604051620057973803806200579783398181016040528101906200003791906200084d565b620000576200004b620000f860201b60201c565b6200010060201b60201c565b6001808190555081600460006101000a81548173ffffffffffffffffffffffffffffffffffffffff021916908373ffffffffffffffffffffffffffffffffffffffff16021790555080600560006101000a81548173ffffffffffffffffffffffffffffffffffffffff021916908373ffffffffffffffffffffffffffffffffffffffff160217905550620000f0620001c460201b60201c565b505062000cff565b600033905090565b60008060009054906101000a900473ffffffffffffffffffffffffffffffffffffffff169050816000806101000a81548173ffffffffffffffffffffffffffffffffffffffff021916908373ffffffffffffffffffffffffffffffffffffffff1602179055508173ffffffffffffffffffffffffffffffffffffffff168173ffffffffffffffffffffffffffffffffffffffff167f8be0079c531659141344cd1fd0a4f28419497f9722a3daafe3b4186f6b6457e060405160405180910390a35050565b6000600560146101000a81548160ff0219169083151502179055506000600560156101000a81548160ff02191690831515021790555061ea606009819055506040518060400160405280600781526020017f70656e64696e6700000000000000000000000000000000000000000000000000815250601160006001815260200190815260200160002090816200025b919062000b0e565b506040518060400160405280600981526020017f636f6d706c65746564000000000000000000000000000000000000000000000081525060116000600281526020019081526020016000209081620002b4919062000b0e565b506040518060400160405280600981526020017f63616e63656c6c65640000000000000000000000000000000000000000000000815250601160006003815260200190815260200160002090816200030d919062000b0e565b50620003696040518060400160405280600481526020017f425553440000000000000000000000000000000000000000000000000000000081525073e9e7cea3dedca5984780bafc599bd69add087d566200064360201b60201c565b620003c46040518060400160405280600481526020017f5553444300000000000000000000000000000000000000000000000000000000815250738ac76a51cc950d9822d68b83fe1ad97b32cd580d6200064360201b60201c565b6200041f6040518060400160405280600481526020017f55534454000000000000000000000000000000000000000000000000000000008152507355d398326f99059ff775485246999027b31979556200064360201b60201c565b6200047a6040518060400160405280600581526020017f534146555500000000000000000000000000000000000000000000000000000081525073e5ba47fd94cb645ba4119222e34fb33f59c7cd906200064360201b60201c565b620004d56040518060400160405280600381526020017f424e420000000000000000000000000000000000000000000000000000000000815250730567f2323251f0aab15c8dfb1967e4e8a7d42aee620006b660201b60201c565b620005306040518060400160405280600381526020017f425443000000000000000000000000000000000000000000000000000000000081525073264990fbd0a4796a3e3d8e37c4d5f87a3aca5ebf620006b660201b60201c565b6200058b6040518060400160405280600481526020017f425553440000000000000000000000000000000000000000000000000000000081525073cbb98864ef56e9042e7d2efef76141f15731b82f620006b660201b60201c565b620005e66040518060400160405280600481526020017f55534443000000000000000000000000000000000000000000000000000000008152507351597f405303c4377e36123cbc172b13269ea163620006b660201b60201c565b620006416040518060400160405280600481526020017f555344540000000000000000000000000000000000000000000000000000000081525073b97ad0e74fa7d920791e90258a6e2085088b4320620006b660201b60201c565b565b620006536200072960201b60201c565b80600f8360405162000666919062000c63565b908152602001604051809103902060006101000a81548173ffffffffffffffffffffffffffffffffffffffff021916908373ffffffffffffffffffffffffffffffffffffffff1602179055505050565b620006c66200072960201b60201c565b80601083604051620006d9919062000c63565b908152602001604051809103902060006101000a81548173ffffffffffffffffffffffffffffffffffffffff021916908373ffffffffffffffffffffffffffffffffffffffff1602179055505050565b62000739620000f860201b60201c565b73ffffffffffffffffffffffffffffffffffffffff166200075f620007ba60201b60201c565b73ffffffffffffffffffffffffffffffffffffffff1614620007b8576040517f08c379a0000000000000000000000000000000000000000000000000000000008152600401620007af9062000cdd565b60405180910390fd5b565b60008060009054906101000a900473ffffffffffffffffffffffffffffffffffffffff16905090565b600080fd5b600073ffffffffffffffffffffffffffffffffffffffff82169050919050565b60006200081582620007e8565b9050919050565b620008278162000808565b81146200083357600080fd5b50565b60008151905062000847816200081c565b92915050565b60008060408385031215620008675762000866620007e3565b5b6000620008778582860162000836565b92505060206200088a8582860162000836565b9150509250929050565b600081519050919050565b7f4e487b7100000000000000000000000000000000000000000000000000000000600052604160045260246000fd5b7f4e487b7100000000000000000000000000000000000000000000000000000000600052602260045260246000fd5b600060028204905060018216806200091657607f821691505b6020821081036200092c576200092b620008ce565b5b50919050565b60008190508160005260206000209050919050565b60006020601f8301049050919050565b600082821b905092915050565b600060088302620009967fffffffffffffffffffffffffffffffffffffffffffffffffffffffffffffffff8262000957565b620009a2868362000957565b95508019841693508086168417925050509392505050565b6000819050919050565b6000819050919050565b6000620009ef620009e9620009e384620009ba565b620009c4565b620009ba565b9050919050565b6000819050919050565b62000a0b83620009ce565b62000a2362000a1a82620009f6565b84845462000964565b825550505050565b600090565b62000a3a62000a2b565b62000a4781848462000a00565b505050565b5b8181101562000a6f5762000a6360008262000a30565b60018101905062000a4d565b5050565b601f82111562000abe5762000a888162000932565b62000a938462000947565b8101602085101562000aa3578190505b62000abb62000ab28562000947565b83018262000a4c565b50505b505050565b600082821c905092915050565b600062000ae36000198460080262000ac3565b1980831691505092915050565b600062000afe838362000ad0565b9150826002028217905092915050565b62000b198262000894565b67ffffffffffffffff81111562000b355762000b346200089f565b5b62000b418254620008fd565b62000b4e82828562000a73565b600060209050601f83116001811462000b86576000841562000b71578287015190505b62000b7d858262000af0565b86555062000bed565b601f19841662000b968662000932565b60005b8281101562000bc05784890151825560018201915060208501945060208101905062000b99565b8683101562000be0578489015162000bdc601f89168262000ad0565b8355505b6001600288020188555050505b505050505050565b600081905092915050565b60005b8381101562000c2057808201518184015260208101905062000c03565b60008484015250505050565b600062000c398262000894565b62000c45818562000bf5565b935062000c5781856020860162000c00565b80840191505092915050565b600062000c71828462000c2c565b915081905092915050565b600082825260208201905092915050565b7f4f776e61626c653a2063616c6c6572206973206e6f7420746865206f776e6572600082015250565b600062000cc560208362000c7c565b915062000cd28262000c8d565b602082019050919050565b6000602082019050818103600083015262000cf88162000cb6565b9050919050565b614a888062000d0f6000396000f3fe6080604052600436106102515760003560e01c8063715018a611610139578063c355eb2d116100b6578063db44865b1161007a578063db44865b1461089c578063deb7eb7e146108c7578063e8bb2a9f146108f0578063f2fde38b1461092d578063f86f359314610956578063ff28ca601461099357610251565b8063c355eb2d146107a5578063c5a7833e146107ce578063cb49ad3e146107f7578063d3c3b82014610834578063d8e9d96a1461085f57610251565b80639eeb452d116100fd5780639eeb452d1461069a578063a289c13b146106c3578063a29e0ef414610700578063b625d8251461072b578063bcdd1b4d1461076857610251565b8063715018a6146105bc5780637598e2fd146105d357806380666150146106195780638bdff161146106445780638da5cb5b1461066f57610251565b80632462c37e116101d257806342220f341161019657806342220f34146104f35780634fa8de95146104fd5780635641f3c3146105265780636261c662146105515780636792e38a1461057c5780636bfdf8a0146105a557610251565b80632462c37e14610420578063282259521461044b5780633578a508146104745780633ae1ad381461048b5780633f064ee8146104b657610251565b806319d389181161021957806319d389181461034f5780631a403f191461037a5780631f6f7964146103a557806321a8e00b146103ce57806323bffccc146103f757610251565b8063029589e4146102565780630cb4bedd146102935780630f45f82c146102be57806313e329ba146102e75780631622ef0f14610312575b600080fd5b34801561026257600080fd5b5061027d600480360381019061027891906130a0565b6109d0565b60405161028a91906130e6565b60405180910390f35b34801561029f57600080fd5b506102a86109e8565b6040516102b5919061311c565b60405180910390f35b3480156102ca57600080fd5b506102e560048036038101906102e091906132a9565b6109fb565b005b3480156102f357600080fd5b506102fc610a73565b604051610309919061334d565b60405180910390f35b34801561031e57600080fd5b5061033960048036038101906103349190613368565b610a99565b60405161034691906130e6565b60405180910390f35b34801561035b57600080fd5b50610364610e59565b60405161037191906130e6565b60405180910390f35b34801561038657600080fd5b5061038f610e65565b60405161039c91906130e6565b60405180910390f35b3480156103b157600080fd5b506103cc60048036038101906103c79190613395565b610e6b565b005b3480156103da57600080fd5b506103f560048036038101906103f091906133f1565b610ed4565b005b34801561040357600080fd5b5061041e6004803603810190610419919061345d565b610ef8565b005b34801561042c57600080fd5b50610435610f44565b604051610442919061311c565b60405180910390f35b34801561045757600080fd5b50610472600480360381019061046d9190613368565b610f57565b005b34801561048057600080fd5b506104896114a7565b005b34801561049757600080fd5b506104a0611886565b6040516104ad91906130e6565b60405180910390f35b3480156104c257600080fd5b506104dd60048036038101906104d891906130a0565b611892565b6040516104ea91906130e6565b60405180910390f35b6104fb6118aa565b005b34801561050957600080fd5b50610524600480360381019061051f9190613395565b611d5c565b005b34801561053257600080fd5b5061053b611dc5565b604051610548919061334d565b60405180910390f35b34801561055d57600080fd5b50610566611deb565b60405161057391906130e6565b60405180910390f35b34801561058857600080fd5b506105a3600480360381019061059e91906134c8565b611df1565b005b3480156105b157600080fd5b506105ba611ef5565b005b3480156105c857600080fd5b506105d1611f3d565b005b3480156105df57600080fd5b506105fa60048036038101906105f59190613368565b611f51565b6040516106109a99989796959493929190613596565b60405180910390f35b34801561062557600080fd5b5061062e61215d565b60405161063b91906130e6565b60405180910390f35b34801561065057600080fd5b50610659612163565b60405161066691906130e6565b60405180910390f35b34801561067b57600080fd5b506106846121b0565b6040516106919190613647565b60405180910390f35b3480156106a657600080fd5b506106c160048036038101906106bc9190613368565b6121d9565b005b3480156106cf57600080fd5b506106ea60048036038101906106e59190613662565b6121eb565b6040516106f7919061377c565b60405180910390f35b34801561070c57600080fd5b5061071561229f565b60405161072291906130e6565b60405180910390f35b34801561073757600080fd5b50610752600480360381019061074d919061379e565b6122b0565b60405161075f91906130e6565b60405180910390f35b34801561077457600080fd5b5061078f600480360381019061078a9190613368565b6122d5565b60405161079c91906130e6565b60405180910390f35b3480156107b157600080fd5b506107cc60048036038101906107c7919061380a565b6122ed565b005b3480156107da57600080fd5b506107f560048036038101906107f0919061345d565b612312565b005b34801561080357600080fd5b5061081e60048036038101906108199190613837565b61235e565b60405161082b9190613647565b60405180910390f35b34801561084057600080fd5b506108496123a7565b60405161085691906130e6565b60405180910390f35b34801561086b57600080fd5b5061088660048036038101906108819190613368565b6123ad565b6040516108939190613880565b60405180910390f35b3480156108a857600080fd5b506108b161244d565b6040516108be91906130e6565b60405180910390f35b3480156108d357600080fd5b506108ee60048036038101906108e991906138a2565b61245e565b005b3480156108fc57600080fd5b5061091760048036038101906109129190613837565b612ba0565b6040516109249190613647565b60405180910390f35b34801561093957600080fd5b50610954600480360381019061094f91906130a0565b612be9565b005b34801561096257600080fd5b5061097d60048036038101906109789190613837565b612c6c565b60405161098a91906130e6565b60405180910390f35b34801561099f57600080fd5b506109ba60048036038101906109b591906130a0565b612d68565b6040516109c791906130e6565b60405180910390f35b600c6020528060005260406000206000915090505481565b600560149054906101000a900460ff1681565b610a03612def565b6000600a6000868152602001908152602001600020905083816001019081610a2b9190613b0a565b506012600084815260200190815260200160002054816007018190555060116000838152602001908152602001600020816009019081610a6b9190613c07565b505050505050565b600460009054906101000a900473ffffffffffffffffffffffffffffffffffffffff1681565b6000600260015403610ae0576040517f08c379a0000000000000000000000000000000000000000000000000000000008152600401610ad790613d3b565b60405180910390fd5b600260018190555060011515600560149054906101000a900460ff16151514610b3e576040517f08c379a0000000000000000000000000000000000000000000000000000000008152600401610b3590613da7565b60405180910390fd5b60008211610b81576040517f08c379a0000000000000000000000000000000000000000000000000000000008152600401610b7890613e39565b60405180910390fd5b610b8b6003612e6d565b610b956002612e6d565b81600b60003373ffffffffffffffffffffffffffffffffffffffff1673ffffffffffffffffffffffffffffffffffffffff1681526020019081526020016000206000828254610be49190613e88565b925050819055506000610c326010604051610bfe90613f13565b908152602001604051809103902060009054906101000a900473ffffffffffffffffffffffffffffffffffffffff16612d68565b9050600e60003373ffffffffffffffffffffffffffffffffffffffff1673ffffffffffffffffffffffffffffffffffffffff168152602001908152602001600020604051610c7f90613f13565b9081526020016040518091039020610c976002612e83565b9080600181540180825580915050600190039060005260206000200160009091909190915055600061271082610ccd9190613f57565b905061271084610cdd9190613f88565b81610ce89190613f88565b60086000828254610cf99190613e88565b92505081905550610df16040518060400160405280600381526020017f425443000000000000000000000000000000000000000000000000000000000081525033868542610d45612163565b610d4f6003612e83565b60116000600181526020019081526020016000208054610d6e9061392d565b80601f0160208091040260200160405190810160405280929190818152602001828054610d9a9061392d565b8015610de75780601f10610dbc57610100808354040283529160200191610de7565b820191906000526020600020905b815481529060010190602001808311610dca57829003601f168201915b5050505050612e91565b3373ffffffffffffffffffffffffffffffffffffffff167f0e0bc6b95a3bb2170a96186c22cddc5efbf78a4ca40fc5aa0abaa02d8a6d2c6485604051610e3791906130e6565b60405180910390a2610e496003612e83565b9250505060018081905550919050565b60028060000154905081565b60085481565b610e73612def565b80601083604051610e849190613ffb565b908152602001604051809103902060006101000a81548173ffffffffffffffffffffffffffffffffffffffff021916908373ffffffffffffffffffffffffffffffffffffffff1602179055505050565b610edc612def565b8060126000848152602001908152602001600020819055505050565b610f00612def565b80600560006101000a81548173ffffffffffffffffffffffffffffffffffffffff021916908373ffffffffffffffffffffffffffffffffffffffff16021790555050565b600560159054906101000a900460ff1681565b600260015403610f9c576040517f08c379a0000000000000000000000000000000000000000000000000000000008152600401610f9390613d3b565b60405180910390fd5b600260018190555060011515600560149054906101000a900460ff16151514610ffa576040517f08c379a0000000000000000000000000000000000000000000000000000000008152600401610ff190614084565b60405180910390fd5b600073ffffffffffffffffffffffffffffffffffffffff16600f604051611020906140f0565b908152602001604051809103902060009054906101000a900473ffffffffffffffffffffffffffffffffffffffff1673ffffffffffffffffffffffffffffffffffffffff16036110a5576040517f08c379a000000000000000000000000000000000000000000000000000000000815260040161109c90614177565b60405180910390fd5b600081116110e8576040517f08c379a00000000000000000000000000000000000000000000000000000000081526004016110df90614209565b60405180910390fd5b6110f26002612e6d565b60006110fc612163565b6007546111099190613e88565b90506000620186a08361111c9190613f88565b90506000600f60405161112e906140f0565b908152602001604051809103902060009054906101000a900473ffffffffffffffffffffffffffffffffffffffff16905081600d60003373ffffffffffffffffffffffffffffffffffffffff1673ffffffffffffffffffffffffffffffffffffffff16815260200190815260200160002060008373ffffffffffffffffffffffffffffffffffffffff1673ffffffffffffffffffffffffffffffffffffffff16815260200190815260200160002060008282546111eb9190613e88565b92505081905550600e60003373ffffffffffffffffffffffffffffffffffffffff1673ffffffffffffffffffffffffffffffffffffffff16815260200190815260200160002060405161123d906140f0565b90815260200160405180910390206112556002612e83565b90806001815401808255809150506001900390600052602060002001600090919091909150556000600a60095461128c9190613f57565b9050600a8361129b9190613f57565b816112a69190613f88565b600860008282546112b79190613e88565b925050819055506113a26040518060400160405280600581526020017f53414655550000000000000000000000000000000000000000000000000000008152503385600954428960006011600060028152602001908152602001600020805461131f9061392d565b80601f016020809104026020016040519081016040528092919081815260200182805461134b9061392d565b80156113985780601f1061136d57610100808354040283529160200191611398565b820191906000526020600020905b81548152906001019060200180831161137b57829003601f168201915b5050505050612e91565b60008290508073ffffffffffffffffffffffffffffffffffffffff166323b872dd33600460009054906101000a900473ffffffffffffffffffffffffffffffffffffffff16876040518463ffffffff1660e01b81526004016114069392919061427e565b6020604051808303816000875af1158015611425573d6000803e3d6000fd5b505050506040513d601f19601f8201168201806040525081019061144991906142ca565b503373ffffffffffffffffffffffffffffffffffffffff167f0d373d4058fadef3abf11e4b29ec0b6a90fa932bb67f54ee5f17b1e677334bb38560405161149091906130e6565b60405180910390a250505050506001808190555050565b6114af612def565b60001515600560159054906101000a900460ff16151514611505576040517f08c379a00000000000000000000000000000000000000000000000000000000081526004016114fc90614369565b60405180910390fd5b6001600560156101000a81548160ff02191690831515021790555042600681905550610960600781905550611388601260006001815260200190815260200160002081905550611194601260006002815260200190815260200160002081905550610fa0601260006003815260200190815260200160002081905550610dac601260006004815260200190815260200160002081905550610bb86012600060058152602001908152602001600020819055506109c46012600060068152602001908152602001600020819055506107d06012600060078152602001908152602001600020819055506105dc60126000600881526020019081526020016000208190555061057860126000600981526020019081526020016000208190555061051460126000600a8152602001908152602001600020819055506104b060126000600b81526020019081526020016000208190555061044c60126000600c8152602001908152602001600020819055506103e860126000600d81526020019081526020016000208190555061038460126000600e81526020019081526020016000208190555061032060126000600f8152602001908152602001600020819055506102bc6012600060108152602001908152602001600020819055506102586012600060118152602001908152602001600020819055506101f460126000601281526020019081526020016000208190555061019060126000601381526020019081526020016000208190555061012c60126000601481526020019081526020016000208190555060c86012600060158152602001908152602001600020819055506064601260006016815260200190815260200160002081905550605a60126000601781526020019081526020016000208190555060506012600060188152602001908152602001600020819055506046601260006019815260200190815260200160002081905550603c60126000601a815260200190815260200160002081905550603260126000601b815260200190815260200160002081905550602860126000601c815260200190815260200160002081905550601e60126000601d815260200190815260200160002081905550601460126000601e815260200190815260200160002081905550600a60126000601f8152602001908152602001600020819055506000601260006020815260200190815260200160002081905550565b60038060000154905081565b600b6020528060005260406000206000915090505481565b6002600154036118ef576040517f08c379a00000000000000000000000000000000000000000000000000000000081526004016118e690613d3b565b60405180910390fd5b600260018190555060011515600560149054906101000a900460ff1615151461194d576040517f08c379a0000000000000000000000000000000000000000000000000000000008152600401611944906143d5565b60405180910390fd5b60003411611990576040517f08c379a000000000000000000000000000000000000000000000000000000000815260040161198790614467565b60405180910390fd5b61199a6002612e6d565b60006119e160106040516119ad906144d3565b908152602001604051809103902060009054906101000a900473ffffffffffffffffffffffffffffffffffffffff16612d68565b905034600c60003373ffffffffffffffffffffffffffffffffffffffff1673ffffffffffffffffffffffffffffffffffffffff1681526020019081526020016000206000828254611a329190613e88565b92505081905550600e60003373ffffffffffffffffffffffffffffffffffffffff1673ffffffffffffffffffffffffffffffffffffffff168152602001908152602001600020604051611a84906144d3565b9081526020016040518091039020611a9c6002612e83565b9080600181540180825580915050600190039060005260206000200160009091909190915055600061271082611ad29190613f57565b9050655af3107a400034611ae69190613f57565b81611af19190613f88565b60086000828254611b029190613e88565b92505081905550611bf26040518060400160405280600381526020017f424e42000000000000000000000000000000000000000000000000000000000081525033348542611b4e612163565b600060116000600281526020019081526020016000208054611b6f9061392d565b80601f0160208091040260200160405190810160405280929190818152602001828054611b9b9061392d565b8015611be85780601f10611bbd57610100808354040283529160200191611be8565b820191906000526020600020905b815481529060010190602001808311611bcb57829003601f168201915b5050505050612e91565b60006103e86103e634611c059190613f88565b611c0f9190613f57565b905060006103e8600234611c239190613f88565b611c2d9190613f57565b9050600460009054906101000a900473ffffffffffffffffffffffffffffffffffffffff1673ffffffffffffffffffffffffffffffffffffffff166108fc839081150290604051600060405180830381858888f19350505050158015611c97573d6000803e3d6000fd5b50600560009054906101000a900473ffffffffffffffffffffffffffffffffffffffff1673ffffffffffffffffffffffffffffffffffffffff166108fc829081150290604051600060405180830381858888f19350505050158015611d00573d6000803e3d6000fd5b503373ffffffffffffffffffffffffffffffffffffffff167f49daaed7b931b70dfeae251af50ff2d876e41c91e49ba9cb99bdc9247146da7634604051611d4791906130e6565b60405180910390a25050505060018081905550565b611d64612def565b80600f83604051611d759190613ffb565b908152602001604051809103902060006101000a81548173ffffffffffffffffffffffffffffffffffffffff021916908373ffffffffffffffffffffffffffffffffffffffff1602179055505050565b600560009054906101000a900473ffffffffffffffffffffffffffffffffffffffff1681565b60065481565b611df9612def565b8173ffffffffffffffffffffffffffffffffffffffff1663a9059cbb828473ffffffffffffffffffffffffffffffffffffffff166370a08231306040518263ffffffff1660e01b8152600401611e4f9190613647565b602060405180830381865afa158015611e6c573d6000803e3d6000fd5b505050506040513d601f19601f82011682018060405250810190611e9091906144fd565b6040518363ffffffff1660e01b8152600401611ead92919061452a565b6020604051808303816000875af1158015611ecc573d6000803e3d6000fd5b505050506040513d601f19601f82011682018060405250810190611ef091906142ca565b505050565b611efd612def565b3373ffffffffffffffffffffffffffffffffffffffff166108fc479081150290604051600060405180830381858888f19350505050611f3b57600080fd5b565b611f45612def565b611f4f6000612f62565b565b600a602052806000526040600020600091509050806000015490806001018054611f7a9061392d565b80601f0160208091040260200160405190810160405280929190818152602001828054611fa69061392d565b8015611ff35780601f10611fc857610100808354040283529160200191611ff3565b820191906000526020600020905b815481529060010190602001808311611fd657829003601f168201915b5050505050908060020180546120089061392d565b80601f01602080910402602001604051908101604052809291908181526020018280546120349061392d565b80156120815780601f1061205657610100808354040283529160200191612081565b820191906000526020600020905b81548152906001019060200180831161206457829003601f168201915b5050505050908060030160009054906101000a900473ffffffffffffffffffffffffffffffffffffffff16908060040154908060050154908060060154908060070154908060080154908060090180546120da9061392d565b80601f01602080910402602001604051908101604052809291908181526020018280546121069061392d565b80156121535780601f1061212857610100808354040283529160200191612153565b820191906000526020600020905b81548152906001019060200180831161213657829003601f168201915b505050505090508a565b60075481565b6000806001620151806006544261217a9190614553565b6121849190613f57565b61218e9190613e88565b9050600060126000838152602001908152602001600020549050809250505090565b60008060009054906101000a900473ffffffffffffffffffffffffffffffffffffffff16905090565b6121e1612def565b8060098190555050565b6060600e60008473ffffffffffffffffffffffffffffffffffffffff1673ffffffffffffffffffffffffffffffffffffffff1681526020019081526020016000208260405161223a9190613ffb565b908152602001604051809103902080548060200260200160405190810160405280929190818152602001828054801561229257602002820191906000526020600020905b81548152602001906001019080831161227e575b5050505050905092915050565b60006122ab6003612e83565b905090565b600d602052816000526040600020602052806000526040600020600091509150505481565b60126020528060005260406000206000915090505481565b6122f5612def565b80600560146101000a81548160ff02191690831515021790555050565b61231a612def565b80600460006101000a81548173ffffffffffffffffffffffffffffffffffffffff021916908373ffffffffffffffffffffffffffffffffffffffff16021790555050565b6010818051602081018201805184825260208301602085012081835280955050505050506000915054906101000a900473ffffffffffffffffffffffffffffffffffffffff1681565b60095481565b601160205280600052604060002060009150905080546123cc9061392d565b80601f01602080910402602001604051908101604052809291908181526020018280546123f89061392d565b80156124455780601f1061241a57610100808354040283529160200191612445565b820191906000526020600020905b81548152906001019060200180831161242857829003601f168201915b505050505081565b60006124596002612e83565b905090565b6002600154036124a3576040517f08c379a000000000000000000000000000000000000000000000000000000000815260040161249a90613d3b565b60405180910390fd5b600260018190555060011515600560149054906101000a900460ff16151514612501576040517f08c379a00000000000000000000000000000000000000000000000000000000081526004016124f8906145f9565b60405180910390fd5b600073ffffffffffffffffffffffffffffffffffffffff16600f836040516125299190613ffb565b908152602001604051809103902060009054906101000a900473ffffffffffffffffffffffffffffffffffffffff1673ffffffffffffffffffffffffffffffffffffffff16036125ae576040517f08c379a00000000000000000000000000000000000000000000000000000000081526004016125a59061468b565b60405180910390fd5b600f6040516125bc906140f0565b908152602001604051809103902060009054906101000a900473ffffffffffffffffffffffffffffffffffffffff1673ffffffffffffffffffffffffffffffffffffffff16600f836040516126119190613ffb565b908152602001604051809103902060009054906101000a900473ffffffffffffffffffffffffffffffffffffffff1673ffffffffffffffffffffffffffffffffffffffff1603612696576040517f08c379a000000000000000000000000000000000000000000000000000000000815260040161268d9061471d565b60405180910390fd5b600081116126d9576040517f08c379a00000000000000000000000000000000000000000000000000000000081526004016126d0906147af565b60405180910390fd5b6126e36002612e6d565b6000670de0b6b3a7640000826126f99190613f88565b905060006127446010856040516127109190613ffb565b908152602001604051809103902060009054906101000a900473ffffffffffffffffffffffffffffffffffffffff16612d68565b90506000600f856040516127589190613ffb565b908152602001604051809103902060009054906101000a900473ffffffffffffffffffffffffffffffffffffffff16905082600d60003373ffffffffffffffffffffffffffffffffffffffff1673ffffffffffffffffffffffffffffffffffffffff16815260200190815260200160002060008373ffffffffffffffffffffffffffffffffffffffff1673ffffffffffffffffffffffffffffffffffffffff16815260200190815260200160002060008282546128159190613e88565b92505081905550600e60003373ffffffffffffffffffffffffffffffffffffffff1673ffffffffffffffffffffffffffffffffffffffff168152602001908152602001600020856040516128699190613ffb565b90815260200160405180910390206128816002612e83565b90806001815401808255809150506001900390600052602060002001600090919091909150556000612710836128b79190613f57565b9050655af3107a4000846128cb9190613f57565b816128d69190613f88565b600860008282546128e79190613e88565b925050819055506129a286338686426128fe612163565b60006011600060028152602001908152602001600020805461291f9061392d565b80601f016020809104026020016040519081016040528092919081815260200182805461294b9061392d565b80156129985780601f1061296d57610100808354040283529160200191612998565b820191906000526020600020905b81548152906001019060200180831161297b57829003601f168201915b5050505050612e91565b60006103e86103e6866129b59190613f88565b6129bf9190613f57565b905060006103e86002876129d39190613f88565b6129dd9190613f57565b905060008490508073ffffffffffffffffffffffffffffffffffffffff166323b872dd33600460009054906101000a900473ffffffffffffffffffffffffffffffffffffffff16866040518463ffffffff1660e01b8152600401612a439392919061427e565b6020604051808303816000875af1158015612a62573d6000803e3d6000fd5b505050506040513d601f19601f82011682018060405250810190612a8691906142ca565b508073ffffffffffffffffffffffffffffffffffffffff166323b872dd33600560009054906101000a900473ffffffffffffffffffffffffffffffffffffffff16856040518463ffffffff1660e01b8152600401612ae69392919061427e565b6020604051808303816000875af1158015612b05573d6000803e3d6000fd5b505050506040513d601f19601f82011682018060405250810190612b2991906142ca565b503373ffffffffffffffffffffffffffffffffffffffff1689604051612b4f9190613ffb565b60405180910390207fde68dafc8f945468d0ff18d5da3eea5c5fc0c33d2f7073dadb167ea104e3ce3689604051612b8691906130e6565b60405180910390a350505050505050600180819055505050565b600f818051602081018201805184825260208301602085012081835280955050505050506000915054906101000a900473ffffffffffffffffffffffffffffffffffffffff1681565b612bf1612def565b600073ffffffffffffffffffffffffffffffffffffffff168173ffffffffffffffffffffffffffffffffffffffff1603612c60576040517f08c379a0000000000000000000000000000000000000000000000000000000008152600401612c5790614841565b60405180910390fd5b612c6981612f62565b50565b60008073ffffffffffffffffffffffffffffffffffffffff16601083604051612c959190613ffb565b908152602001604051809103902060009054906101000a900473ffffffffffffffffffffffffffffffffffffffff1673ffffffffffffffffffffffffffffffffffffffff1603612d1a576040517f08c379a0000000000000000000000000000000000000000000000000000000008152600401612d11906148d3565b60405180910390fd5b612d61601083604051612d2d9190613ffb565b908152602001604051809103902060009054906101000a900473ffffffffffffffffffffffffffffffffffffffff16612d68565b9050919050565b60008082905060008173ffffffffffffffffffffffffffffffffffffffff1663feaf968c6040518163ffffffff1660e01b815260040160a060405180830381865afa158015612dbb573d6000803e3d6000fd5b505050506040513d601f19601f82011682018060405250810190612ddf919061496b565b5050509150508092505050919050565b612df7613026565b73ffffffffffffffffffffffffffffffffffffffff16612e156121b0565b73ffffffffffffffffffffffffffffffffffffffff1614612e6b576040517f08c379a0000000000000000000000000000000000000000000000000000000008152600401612e6290614a32565b60405180910390fd5b565b6001816000016000828254019250508190555050565b600081600001549050919050565b6000600a6000612ea16002612e83565b81526020019081526020016000209050612ebb6002612e83565b816000018190555088816002019081612ed49190613b0a565b50878160030160006101000a81548173ffffffffffffffffffffffffffffffffffffffff021916908373ffffffffffffffffffffffffffffffffffffffff16021790555086816004018190555085816005018190555084816006018190555083816007018190555082816008018190555081816009019081612f569190613b0a565b50505050505050505050565b60008060009054906101000a900473ffffffffffffffffffffffffffffffffffffffff169050816000806101000a81548173ffffffffffffffffffffffffffffffffffffffff021916908373ffffffffffffffffffffffffffffffffffffffff1602179055508173ffffffffffffffffffffffffffffffffffffffff168173ffffffffffffffffffffffffffffffffffffffff167f8be0079c531659141344cd1fd0a4f28419497f9722a3daafe3b4186f6b6457e060405160405180910390a35050565b600033905090565b6000604051905090565b600080fd5b600080fd5b600073ffffffffffffffffffffffffffffffffffffffff82169050919050565b600061306d82613042565b9050919050565b61307d81613062565b811461308857600080fd5b50565b60008135905061309a81613074565b92915050565b6000602082840312156130b6576130b5613038565b5b60006130c48482850161308b565b91505092915050565b6000819050919050565b6130e0816130cd565b82525050565b60006020820190506130fb60008301846130d7565b92915050565b60008115159050919050565b61311681613101565b82525050565b6000602082019050613131600083018461310d565b92915050565b613140816130cd565b811461314b57600080fd5b50565b60008135905061315d81613137565b92915050565b600080fd5b600080fd5b6000601f19601f8301169050919050565b7f4e487b7100000000000000000000000000000000000000000000000000000000600052604160045260246000fd5b6131b68261316d565b810181811067ffffffffffffffff821117156131d5576131d461317e565b5b80604052505050565b60006131e861302e565b90506131f482826131ad565b919050565b600067ffffffffffffffff8211156132145761321361317e565b5b61321d8261316d565b9050602081019050919050565b82818337600083830152505050565b600061324c613247846131f9565b6131de565b90508281526020810184848401111561326857613267613168565b5b61327384828561322a565b509392505050565b600082601f8301126132905761328f613163565b5b81356132a0848260208601613239565b91505092915050565b600080600080608085870312156132c3576132c2613038565b5b60006132d18782880161314e565b945050602085013567ffffffffffffffff8111156132f2576132f161303d565b5b6132fe8782880161327b565b935050604061330f8782880161314e565b92505060606133208782880161314e565b91505092959194509250565b600061333782613042565b9050919050565b6133478161332c565b82525050565b6000602082019050613362600083018461333e565b92915050565b60006020828403121561337e5761337d613038565b5b600061338c8482850161314e565b91505092915050565b600080604083850312156133ac576133ab613038565b5b600083013567ffffffffffffffff8111156133ca576133c961303d565b5b6133d68582860161327b565b92505060206133e78582860161308b565b9150509250929050565b6000806040838503121561340857613407613038565b5b60006134168582860161314e565b92505060206134278582860161314e565b9150509250929050565b61343a8161332c565b811461344557600080fd5b50565b60008135905061345781613431565b92915050565b60006020828403121561347357613472613038565b5b600061348184828501613448565b91505092915050565b600061349582613062565b9050919050565b6134a58161348a565b81146134b057600080fd5b50565b6000813590506134c28161349c565b92915050565b600080604083850312156134df576134de613038565b5b60006134ed858286016134b3565b92505060206134fe8582860161308b565b9150509250929050565b600081519050919050565b600082825260208201905092915050565b60005b83811015613542578082015181840152602081019050613527565b60008484015250505050565b600061355982613508565b6135638185613513565b9350613573818560208601613524565b61357c8161316d565b840191505092915050565b61359081613062565b82525050565b6000610140820190506135ac600083018d6130d7565b81810360208301526135be818c61354e565b905081810360408301526135d2818b61354e565b90506135e1606083018a613587565b6135ee60808301896130d7565b6135fb60a08301886130d7565b61360860c08301876130d7565b61361560e08301866130d7565b6136236101008301856130d7565b818103610120830152613636818461354e565b90509b9a5050505050505050505050565b600060208201905061365c6000830184613587565b92915050565b6000806040838503121561367957613678613038565b5b60006136878582860161308b565b925050602083013567ffffffffffffffff8111156136a8576136a761303d565b5b6136b48582860161327b565b9150509250929050565b600081519050919050565b600082825260208201905092915050565b6000819050602082019050919050565b6136f3816130cd565b82525050565b600061370583836136ea565b60208301905092915050565b6000602082019050919050565b6000613729826136be565b61373381856136c9565b935061373e836136da565b8060005b8381101561376f57815161375688826136f9565b975061376183613711565b925050600181019050613742565b5085935050505092915050565b60006020820190508181036000830152613796818461371e565b905092915050565b600080604083850312156137b5576137b4613038565b5b60006137c38582860161308b565b92505060206137d48582860161308b565b9150509250929050565b6137e781613101565b81146137f257600080fd5b50565b600081359050613804816137de565b92915050565b6000602082840312156138205761381f613038565b5b600061382e848285016137f5565b91505092915050565b60006020828403121561384d5761384c613038565b5b600082013567ffffffffffffffff81111561386b5761386a61303d565b5b6138778482850161327b565b91505092915050565b6000602082019050818103600083015261389a818461354e565b905092915050565b600080604083850312156138b9576138b8613038565b5b600083013567ffffffffffffffff8111156138d7576138d661303d565b5b6138e38582860161327b565b92505060206138f48582860161314e565b9150509250929050565b7f4e487b7100000000000000000000000000000000000000000000000000000000600052602260045260246000fd5b6000600282049050600182168061394557607f821691505b602082108103613958576139576138fe565b5b50919050565b60008190508160005260206000209050919050565b60006020601f8301049050919050565b600082821b905092915050565b6000600883026139c07fffffffffffffffffffffffffffffffffffffffffffffffffffffffffffffffff82613983565b6139ca8683613983565b95508019841693508086168417925050509392505050565b6000819050919050565b6000613a07613a026139fd846130cd565b6139e2565b6130cd565b9050919050565b6000819050919050565b613a21836139ec565b613a35613a2d82613a0e565b848454613990565b825550505050565b600090565b613a4a613a3d565b613a55818484613a18565b505050565b5b81811015613a7957613a6e600082613a42565b600181019050613a5b565b5050565b601f821115613abe57613a8f8161395e565b613a9884613973565b81016020851015613aa7578190505b613abb613ab385613973565b830182613a5a565b50505b505050565b600082821c905092915050565b6000613ae160001984600802613ac3565b1980831691505092915050565b6000613afa8383613ad0565b9150826002028217905092915050565b613b1382613508565b67ffffffffffffffff811115613b2c57613b2b61317e565b5b613b36825461392d565b613b41828285613a7d565b600060209050601f831160018114613b745760008415613b62578287015190505b613b6c8582613aee565b865550613bd4565b601f198416613b828661395e565b60005b82811015613baa57848901518255600182019150602085019450602081019050613b85565b86831015613bc75784890151613bc3601f891682613ad0565b8355505b6001600288020188555050505b505050505050565b600081549050613beb8161392d565b9050919050565b60008190508160005260206000209050919050565b818103613c15575050613ced565b613c1e82613bdc565b67ffffffffffffffff811115613c3757613c3661317e565b5b613c41825461392d565b613c4c828285613a7d565b6000601f831160018114613c7b5760008415613c69578287015490505b613c738582613aee565b865550613ce6565b601f198416613c8987613bf2565b9650613c948661395e565b60005b82811015613cbc57848901548255600182019150600185019450602081019050613c97565b86831015613cd95784890154613cd5601f891682613ad0565b8355505b6001600288020188555050505b5050505050505b565b7f5265656e7472616e637947756172643a207265656e7472616e742063616c6c00600082015250565b6000613d25601f83613513565b9150613d3082613cef565b602082019050919050565b60006020820190508181036000830152613d5481613d18565b9050919050565b7f706c656467654254433a20536163726966696365206e6f742061637469766500600082015250565b6000613d91601f83613513565b9150613d9c82613d5b565b602082019050919050565b60006020820190508181036000830152613dc081613d84565b9050919050565b7f706c656467654254433a20416d6f756e74206d7573742062652067726561746560008201527f72207468616e205a45524f000000000000000000000000000000000000000000602082015250565b6000613e23602b83613513565b9150613e2e82613dc7565b604082019050919050565b60006020820190508181036000830152613e5281613e16565b9050919050565b7f4e487b7100000000000000000000000000000000000000000000000000000000600052601160045260246000fd5b6000613e93826130cd565b9150613e9e836130cd565b9250828201905080821115613eb657613eb5613e59565b5b92915050565b600081905092915050565b7f4254430000000000000000000000000000000000000000000000000000000000600082015250565b6000613efd600383613ebc565b9150613f0882613ec7565b600382019050919050565b6000613f1e82613ef0565b9150819050919050565b7f4e487b7100000000000000000000000000000000000000000000000000000000600052601260045260246000fd5b6000613f62826130cd565b9150613f6d836130cd565b925082613f7d57613f7c613f28565b5b828204905092915050565b6000613f93826130cd565b9150613f9e836130cd565b9250828202613fac816130cd565b91508282048414831517613fc357613fc2613e59565b5b5092915050565b6000613fd582613508565b613fdf8185613ebc565b9350613fef818560208601613524565b80840191505092915050565b60006140078284613fca565b915081905092915050565b7f6465706f73697453616675753a20536163726966696365206e6f74206163746960008201527f7665000000000000000000000000000000000000000000000000000000000000602082015250565b600061406e602283613513565b915061407982614012565b604082019050919050565b6000602082019050818103600083015261409d81614061565b9050919050565b7f5341465555000000000000000000000000000000000000000000000000000000600082015250565b60006140da600583613ebc565b91506140e5826140a4565b600582019050919050565b60006140fb826140cd565b9150819050919050565b7f6465706f73697453616675753a2041646472657373206e6f742070617274206f60008201527f6620616c6c6f77656420746f6b656e206c697374000000000000000000000000602082015250565b6000614161603483613513565b915061416c82614105565b604082019050919050565b6000602082019050818103600083015261419081614154565b9050919050565b7f6465706f73697453616675753a20416d6f756e74206d7573742062652067726560008201527f61746572207468616e205a45524f000000000000000000000000000000000000602082015250565b60006141f3602e83613513565b91506141fe82614197565b604082019050919050565b60006020820190508181036000830152614222816141e6565b9050919050565b600061424461423f61423a84613042565b6139e2565b613042565b9050919050565b600061425682614229565b9050919050565b60006142688261424b565b9050919050565b6142788161425d565b82525050565b60006060820190506142936000830186613587565b6142a0602083018561426f565b6142ad60408301846130d7565b949350505050565b6000815190506142c4816137de565b92915050565b6000602082840312156142e0576142df613038565b5b60006142ee848285016142b5565b91505092915050565b7f6163746976617465426f6e75733a20426f6e757320616c72656164792061637460008201527f6976617465640000000000000000000000000000000000000000000000000000602082015250565b6000614353602683613513565b915061435e826142f7565b604082019050919050565b6000602082019050818103600083015261438281614346565b9050919050565b7f6465706f736974424e423a20536163726966696365206e6f7420616374697665600082015250565b60006143bf602083613513565b91506143ca82614389565b602082019050919050565b600060208201905081810360008301526143ee816143b2565b9050919050565b7f6465706f736974424e423a20416d6f756e74206d75737420626520677265617460008201527f6572207468616e205a45524f0000000000000000000000000000000000000000602082015250565b6000614451602c83613513565b915061445c826143f5565b604082019050919050565b6000602082019050818103600083015261448081614444565b9050919050565b7f424e420000000000000000000000000000000000000000000000000000000000600082015250565b60006144bd600383613ebc565b91506144c882614487565b600382019050919050565b60006144de826144b0565b9150819050919050565b6000815190506144f781613137565b92915050565b60006020828403121561451357614512613038565b5b6000614521848285016144e8565b91505092915050565b600060408201905061453f6000830185613587565b61454c60208301846130d7565b9392505050565b600061455e826130cd565b9150614569836130cd565b925082820390508181111561458157614580613e59565b5b92915050565b7f6465706f73697442455032303a20536163726966696365206e6f74206163746960008201527f7665000000000000000000000000000000000000000000000000000000000000602082015250565b60006145e3602283613513565b91506145ee82614587565b604082019050919050565b60006020820190508181036000830152614612816145d6565b9050919050565b7f6465706f73697442455032303a2041646472657373206e6f742070617274206f60008201527f6620616c6c6f77656420746f6b656e206c697374000000000000000000000000602082015250565b6000614675603483613513565b915061468082614619565b604082019050919050565b600060208201905081810360008301526146a481614668565b9050919050565b7f6465706f73697442455032303a2053414655552063616e6e6f7420626520646560008201527f706f736974656420686572650000000000000000000000000000000000000000602082015250565b6000614707602c83613513565b9150614712826146ab565b604082019050919050565b60006020820190508181036000830152614736816146fa565b9050919050565b7f6465706f73697442455032303a20416d6f756e74206d7573742062652067726560008201527f61746572207468616e205a45524f000000000000000000000000000000000000602082015250565b6000614799602e83613513565b91506147a48261473d565b604082019050919050565b600060208201905081810360008301526147c88161478c565b9050919050565b7f4f776e61626c653a206e6577206f776e657220697320746865207a65726f206160008201527f6464726573730000000000000000000000000000000000000000000000000000602082015250565b600061482b602683613513565b9150614836826147cf565b604082019050919050565b6000602082019050818103600083015261485a8161481e565b9050919050565b7f676574436861696e4c696e6b50726963653a2041646472657373206e6f74207060008201527f617274206f6620436861696e6c696e6b20746f6b656e206c6973740000000000602082015250565b60006148bd603b83613513565b91506148c882614861565b604082019050919050565b600060208201905081810360008301526148ec816148b0565b9050919050565b600069ffffffffffffffffffff82169050919050565b614912816148f3565b811461491d57600080fd5b50565b60008151905061492f81614909565b92915050565b6000819050919050565b61494881614935565b811461495357600080fd5b50565b6000815190506149658161493f565b92915050565b600080600080600060a0868803121561498757614986613038565b5b600061499588828901614920565b95505060206149a688828901614956565b94505060406149b7888289016144e8565b93505060606149c8888289016144e8565b92505060806149d988828901614920565b9150509295509295909350565b7f4f776e61626c653a2063616c6c6572206973206e6f7420746865206f776e6572600082015250565b6000614a1c602083613513565b9150614a27826149e6565b602082019050919050565b60006020820190508181036000830152614a4b81614a0f565b905091905056fea2646970667358221220807624df3f0fd4c1eb6c2485285d5b670b3dbecaf56fd8f563ea001b24039b7964736f6c63430008110033",
  "linkReferences": {},
  "deployedLinkReferences": {}
}