{
  "_format": "hh-sol-artifact-1",
  "contractName": "SafuuXSacrificeBTCB",
  "sourceName": "contracts/SafuuXSacrificeBTCB.sol",
  "abi": [
    {
      "inputs": [
        {
          "internalType": "address payable",
          "name": "_safuuWallet",
          "type": "address"
        },
        {
          "internalType": "address payable",
          "name": "_serviceWallet",
          "type": "address"
        }
      ],
      "stateMutability": "nonpayable",
      "type": "constructor"
    },
    {
      "anonymous": false,
      "inputs": [
        {
          "indexed": true,
          "internalType": "string",
          "name": "symbol",
          "type": "string"
        },
        {
          "indexed": true,
          "internalType": "address",
          "name": "accountAddress",
          "type": "address"
        },
        {
          "indexed": false,
          "internalType": "uint256",
          "name": "amount",
          "type": "uint256"
        }
      ],
      "name": "BTCDeposited",
      "type": "event"
    },
    {
      "anonymous": false,
      "inputs": [
        {
          "indexed": true,
          "internalType": "address",
          "name": "previousOwner",
          "type": "address"
        },
        {
          "indexed": true,
          "internalType": "address",
          "name": "newOwner",
          "type": "address"
        }
      ],
      "name": "OwnershipTransferred",
      "type": "event"
    },
    {
      "inputs": [
        {
          "internalType": "string",
          "name": "",
          "type": "string"
        }
      ],
      "name": "AllowedTokens",
      "outputs": [
        {
          "internalType": "address",
          "name": "",
          "type": "address"
        }
      ],
      "stateMutability": "view",
      "type": "function"
    },
    {
      "inputs": [
        {
          "internalType": "address",
          "name": "",
          "type": "address"
        },
        {
          "internalType": "address",
          "name": "",
          "type": "address"
        }
      ],
      "name": "BTCDeposit",
      "outputs": [
        {
          "internalType": "uint256",
          "name": "",
          "type": "uint256"
        }
      ],
      "stateMutability": "view",
      "type": "function"
    },
    {
      "inputs": [
        {
          "internalType": "string",
          "name": "",
          "type": "string"
        }
      ],
      "name": "ChainlinkContracts",
      "outputs": [
        {
          "internalType": "address",
          "name": "",
          "type": "address"
        }
      ],
      "stateMutability": "view",
      "type": "function"
    },
    {
      "inputs": [
        {
          "internalType": "uint256",
          "name": "",
          "type": "uint256"
        }
      ],
      "name": "Sacrifice",
      "outputs": [
        {
          "internalType": "uint256",
          "name": "id",
          "type": "uint256"
        },
        {
          "internalType": "string",
          "name": "tokenSymbol",
          "type": "string"
        },
        {
          "internalType": "address",
          "name": "accountAddress",
          "type": "address"
        },
        {
          "internalType": "uint256",
          "name": "tokenAmount",
          "type": "uint256"
        },
        {
          "internalType": "uint256",
          "name": "tokenPriceUSD",
          "type": "uint256"
        },
        {
          "internalType": "uint256",
          "name": "timestamp",
          "type": "uint256"
        },
        {
          "internalType": "string",
          "name": "status",
          "type": "string"
        }
      ],
      "stateMutability": "view",
      "type": "function"
    },
    {
      "inputs": [
        {
          "internalType": "uint256",
          "name": "",
          "type": "uint256"
        }
      ],
      "name": "SacrificeStatus",
      "outputs": [
        {
          "internalType": "string",
          "name": "",
          "type": "string"
        }
      ],
      "stateMutability": "view",
      "type": "function"
    },
    {
      "inputs": [
        {
          "internalType": "string",
          "name": "",
          "type": "string"
        }
      ],
      "name": "TokenDecimals",
      "outputs": [
        {
          "internalType": "uint256",
          "name": "",
          "type": "uint256"
        }
      ],
      "stateMutability": "view",
      "type": "function"
    },
    {
      "inputs": [
        {
          "internalType": "string",
          "name": "_symbol",
          "type": "string"
        },
        {
          "internalType": "uint256",
          "name": "_amount",
          "type": "uint256"
        }
      ],
      "name": "depositBTC",
      "outputs": [
        {
          "internalType": "uint256",
          "name": "",
          "type": "uint256"
        }
      ],
      "stateMutability": "nonpayable",
      "type": "function"
    },
    {
      "inputs": [
        {
          "internalType": "address",
          "name": "_account",
          "type": "address"
        },
        {
          "internalType": "string",
          "name": "_symbol",
          "type": "string"
        }
      ],
      "name": "getAccountDeposits",
      "outputs": [
        {
          "internalType": "uint256[]",
          "name": "",
          "type": "uint256[]"
        }
      ],
      "stateMutability": "view",
      "type": "function"
    },
    {
      "inputs": [
        {
          "internalType": "address",
          "name": "contractAddress",
          "type": "address"
        }
      ],
      "name": "getChainLinkPrice",
      "outputs": [
        {
          "internalType": "uint256",
          "name": "",
          "type": "uint256"
        }
      ],
      "stateMutability": "view",
      "type": "function"
    },
    {
      "inputs": [],
      "name": "getCurrentSacrificeID",
      "outputs": [
        {
          "internalType": "uint256",
          "name": "",
          "type": "uint256"
        }
      ],
      "stateMutability": "view",
      "type": "function"
    },
    {
      "inputs": [
        {
          "internalType": "string",
          "name": "_symbol",
          "type": "string"
        }
      ],
      "name": "getPriceBySymbol",
      "outputs": [
        {
          "internalType": "uint256",
          "name": "",
          "type": "uint256"
        }
      ],
      "stateMutability": "view",
      "type": "function"
    },
    {
      "inputs": [],
      "name": "isSacrificeActive",
      "outputs": [
        {
          "internalType": "bool",
          "name": "",
          "type": "bool"
        }
      ],
      "stateMutability": "view",
      "type": "function"
    },
    {
      "inputs": [],
      "name": "nextSacrificeId",
      "outputs": [
        {
          "internalType": "uint256",
          "name": "_value",
          "type": "uint256"
        }
      ],
      "stateMutability": "view",
      "type": "function"
    },
    {
      "inputs": [],
      "name": "owner",
      "outputs": [
        {
          "internalType": "address",
          "name": "",
          "type": "address"
        }
      ],
      "stateMutability": "view",
      "type": "function"
    },
    {
      "inputs": [
        {
          "internalType": "contract IERC20",
          "name": "tokenContract",
          "type": "address"
        },
        {
          "internalType": "address",
          "name": "to",
          "type": "address"
        }
      ],
      "name": "recoverBEP20",
      "outputs": [],
      "stateMutability": "nonpayable",
      "type": "function"
    },
    {
      "inputs": [],
      "name": "recoverBNB",
      "outputs": [],
      "stateMutability": "nonpayable",
      "type": "function"
    },
    {
      "inputs": [],
      "name": "renounceOwnership",
      "outputs": [],
      "stateMutability": "nonpayable",
      "type": "function"
    },
    {
      "inputs": [],
      "name": "safuuWallet",
      "outputs": [
        {
          "internalType": "address payable",
          "name": "",
          "type": "address"
        }
      ],
      "stateMutability": "view",
      "type": "function"
    },
    {
      "inputs": [],
      "name": "serviceWallet",
      "outputs": [
        {
          "internalType": "address payable",
          "name": "",
          "type": "address"
        }
      ],
      "stateMutability": "view",
      "type": "function"
    },
    {
      "inputs": [
        {
          "internalType": "string",
          "name": "_symbol",
          "type": "string"
        },
        {
          "internalType": "address",
          "name": "_tokenAddress",
          "type": "address"
        }
      ],
      "name": "setAllowedTokens",
      "outputs": [],
      "stateMutability": "nonpayable",
      "type": "function"
    },
    {
      "inputs": [
        {
          "internalType": "string",
          "name": "_symbol",
          "type": "string"
        },
        {
          "internalType": "address",
          "name": "_tokenAddress",
          "type": "address"
        }
      ],
      "name": "setChainlink",
      "outputs": [],
      "stateMutability": "nonpayable",
      "type": "function"
    },
    {
      "inputs": [
        {
          "internalType": "bool",
          "name": "_isActive",
          "type": "bool"
        }
      ],
      "name": "setSacrificeStatus",
      "outputs": [],
      "stateMutability": "nonpayable",
      "type": "function"
    },
    {
      "inputs": [
        {
          "internalType": "address payable",
          "name": "_safuuWallet",
          "type": "address"
        }
      ],
      "name": "setSafuuWallet",
      "outputs": [],
      "stateMutability": "nonpayable",
      "type": "function"
    },
    {
      "inputs": [
        {
          "internalType": "address payable",
          "name": "_serviceWallet",
          "type": "address"
        }
      ],
      "name": "setServiceWallet",
      "outputs": [],
      "stateMutability": "nonpayable",
      "type": "function"
    },
    {
      "inputs": [
        {
          "internalType": "string",
          "name": "_symbol",
          "type": "string"
        },
        {
          "internalType": "uint256",
          "name": "_decimals",
          "type": "uint256"
        }
      ],
      "name": "setTokenDecimals",
      "outputs": [],
      "stateMutability": "nonpayable",
      "type": "function"
    },
    {
      "inputs": [],
      "name": "totalSacrifice",
      "outputs": [
        {
          "internalType": "uint256",
          "name": "",
          "type": "uint256"
        }
      ],
      "stateMutability": "view",
      "type": "function"
    },
    {
      "inputs": [
        {
          "internalType": "address",
          "name": "newOwner",
          "type": "address"
        }
      ],
      "name": "transferOwnership",
      "outputs": [],
      "stateMutability": "nonpayable",
      "type": "function"
    },
    {
      "inputs": [
        {
          "internalType": "uint256",
          "name": "sacrificeId",
          "type": "uint256"
        },
        {
          "internalType": "uint256",
          "name": "_status",
          "type": "uint256"
        },
        {
          "internalType": "string",
          "name": "_symbol",
          "type": "string"
        },
        {
          "internalType": "address",
          "name": "_account",
          "type": "address"
        },
        {
          "internalType": "uint256",
          "name": "_amount",
          "type": "uint256"
        },
        {
          "internalType": "uint256",
          "name": "_priceUSD",
          "type": "uint256"
        },
        {
          "internalType": "uint256",
          "name": "_timestamp",
          "type": "uint256"
        }
      ],
      "name": "updateSacrificeData",
      "outputs": [],
      "stateMutability": "nonpayable",
      "type": "function"
    }
  ],
  "bytecode": "0x60806040523480156200001157600080fd5b506040516200372938038062003729833981810160405281019062000037919062000634565b620000576200004b620000f860201b60201c565b6200010060201b60201c565b6001808190555081600360006101000a81548173ffffffffffffffffffffffffffffffffffffffff021916908373ffffffffffffffffffffffffffffffffffffffff16021790555080600460006101000a81548173ffffffffffffffffffffffffffffffffffffffff021916908373ffffffffffffffffffffffffffffffffffffffff160217905550620000f0620001c460201b60201c565b505062000ae6565b600033905090565b60008060009054906101000a900473ffffffffffffffffffffffffffffffffffffffff169050816000806101000a81548173ffffffffffffffffffffffffffffffffffffffff021916908373ffffffffffffffffffffffffffffffffffffffff1602179055508173ffffffffffffffffffffffffffffffffffffffff168173ffffffffffffffffffffffffffffffffffffffff167f8be0079c531659141344cd1fd0a4f28419497f9722a3daafe3b4186f6b6457e060405160405180910390a35050565b6000600460146101000a81548160ff0219169083151502179055506040518060400160405280600781526020017f70656e64696e6700000000000000000000000000000000000000000000000000815250600c6000600181526020019081526020016000209081620002379190620008f5565b506040518060400160405280600981526020017f636f6d706c657465640000000000000000000000000000000000000000000000815250600c6000600281526020019081526020016000209081620002909190620008f5565b506040518060400160405280600981526020017f63616e63656c6c65640000000000000000000000000000000000000000000000815250600c6000600381526020019081526020016000209081620002e99190620008f5565b50620003456040518060400160405280600381526020017f42544300000000000000000000000000000000000000000000000000000000008152507311dae0cd6a361e07cc996f054dc7cc2506affea2620003f160201b60201c565b620003a06040518060400160405280600381526020017f4254430000000000000000000000000000000000000000000000000000000000815250735741306c21795fdcbb9b265ea0255f499dfe515c6200046460201b60201c565b620003ef6040518060400160405280600381526020017f4254430000000000000000000000000000000000000000000000000000000000815250670de0b6b3a7640000620004d760201b60201c565b565b620004016200051060201b60201c565b8060098360405162000414919062000a4a565b908152602001604051809103902060006101000a81548173ffffffffffffffffffffffffffffffffffffffff021916908373ffffffffffffffffffffffffffffffffffffffff1602179055505050565b620004746200051060201b60201c565b80600b8360405162000487919062000a4a565b908152602001604051809103902060006101000a81548173ffffffffffffffffffffffffffffffffffffffff021916908373ffffffffffffffffffffffffffffffffffffffff1602179055505050565b620004e76200051060201b60201c565b80600a83604051620004fa919062000a4a565b9081526020016040518091039020819055505050565b62000520620000f860201b60201c565b73ffffffffffffffffffffffffffffffffffffffff1662000546620005a160201b60201c565b73ffffffffffffffffffffffffffffffffffffffff16146200059f576040517f08c379a0000000000000000000000000000000000000000000000000000000008152600401620005969062000ac4565b60405180910390fd5b565b60008060009054906101000a900473ffffffffffffffffffffffffffffffffffffffff16905090565b600080fd5b600073ffffffffffffffffffffffffffffffffffffffff82169050919050565b6000620005fc82620005cf565b9050919050565b6200060e81620005ef565b81146200061a57600080fd5b50565b6000815190506200062e8162000603565b92915050565b600080604083850312156200064e576200064d620005ca565b5b60006200065e858286016200061d565b925050602062000671858286016200061d565b9150509250929050565b600081519050919050565b7f4e487b7100000000000000000000000000000000000000000000000000000000600052604160045260246000fd5b7f4e487b7100000000000000000000000000000000000000000000000000000000600052602260045260246000fd5b60006002820490506001821680620006fd57607f821691505b602082108103620007135762000712620006b5565b5b50919050565b60008190508160005260206000209050919050565b60006020601f8301049050919050565b600082821b905092915050565b6000600883026200077d7fffffffffffffffffffffffffffffffffffffffffffffffffffffffffffffffff826200073e565b6200078986836200073e565b95508019841693508086168417925050509392505050565b6000819050919050565b6000819050919050565b6000620007d6620007d0620007ca84620007a1565b620007ab565b620007a1565b9050919050565b6000819050919050565b620007f283620007b5565b6200080a6200080182620007dd565b8484546200074b565b825550505050565b600090565b6200082162000812565b6200082e818484620007e7565b505050565b5b8181101562000856576200084a60008262000817565b60018101905062000834565b5050565b601f821115620008a5576200086f8162000719565b6200087a846200072e565b810160208510156200088a578190505b620008a262000899856200072e565b83018262000833565b50505b505050565b600082821c905092915050565b6000620008ca60001984600802620008aa565b1980831691505092915050565b6000620008e58383620008b7565b9150826002028217905092915050565b62000900826200067b565b67ffffffffffffffff8111156200091c576200091b62000686565b5b620009288254620006e4565b620009358282856200085a565b600060209050601f8311600181146200096d576000841562000958578287015190505b620009648582620008d7565b865550620009d4565b601f1984166200097d8662000719565b60005b82811015620009a75784890151825560018201915060208501945060208101905062000980565b86831015620009c75784890151620009c3601f891682620008b7565b8355505b6001600288020188555050505b505050505050565b600081905092915050565b60005b8381101562000a07578082015181840152602081019050620009ea565b60008484015250505050565b600062000a20826200067b565b62000a2c8185620009dc565b935062000a3e818560208601620009e7565b80840191505092915050565b600062000a58828462000a13565b915081905092915050565b600082825260208201905092915050565b7f4f776e61626c653a2063616c6c6572206973206e6f7420746865206f776e6572600082015250565b600062000aac60208362000a63565b915062000ab98262000a74565b602082019050919050565b6000602082019050818103600083015262000adf8162000a9d565b9050919050565b612c338062000af66000396000f3fe608060405234801561001057600080fd5b50600436106101c45760003560e01c80638da5cb5b116100f9578063d2cba7e511610097578063e8bb2a9f11610071578063e8bb2a9f146104e5578063f2fde38b14610515578063f86f359314610531578063ff28ca6014610561576101c4565b8063d2cba7e51461047b578063d8e9d96a14610497578063db44865b146104c7576101c4565b8063c5a7833e116100d3578063c5a7833e146103cf578063cb49ad3e146103eb578063cb8f351e1461041b578063cc8c155d1461044b576101c4565b80638da5cb5b14610365578063a289c13b14610383578063c355eb2d146103b3576101c4565b80634fa8de95116101665780636792e38a116101405780636792e38a146102ff5780636bfdf8a01461031b578063715018a6146103255780637598e2fd1461032f576101c4565b80634fa8de9514610295578063531e0e9c146102b15780635641f3c3146102e1576101c4565b806319d38918116101a257806319d38918146102215780631a403f191461023f5780631f6f79641461025d57806323bffccc14610279576101c4565b80630b390e03146101c95780630cb4bedd146101e557806313e329ba14610203575b600080fd5b6101e360048036038101906101de9190611a53565b610591565b005b6101ed61064e565b6040516101fa9190611b2c565b60405180910390f35b61020b610661565b6040516102189190611b68565b60405180910390f35b610229610687565b6040516102369190611b92565b60405180910390f35b610247610693565b6040516102549190611b92565b60405180910390f35b61027760048036038101906102729190611bad565b610699565b005b610293600480360381019061028e9190611c35565b610702565b005b6102af60048036038101906102aa9190611bad565b61074e565b005b6102cb60048036038101906102c69190611c62565b6107b7565b6040516102d89190611b92565b60405180910390f35b6102e9610e29565b6040516102f69190611b68565b60405180910390f35b61031960048036038101906103149190611cfc565b610e4f565b005b610323610f53565b005b61032d610f9b565b005b61034960048036038101906103449190611d3c565b610faf565b60405161035c9796959493929190611df7565b60405180910390f35b61036d611121565b60405161037a9190611e74565b60405180910390f35b61039d60048036038101906103989190611e8f565b61114a565b6040516103aa9190611fa9565b60405180910390f35b6103cd60048036038101906103c89190611ff7565b6111fe565b005b6103e960048036038101906103e49190611c35565b611223565b005b61040560048036038101906104009190612024565b61126f565b6040516104129190611e74565b60405180910390f35b61043560048036038101906104309190612024565b6112b8565b6040516104429190611b92565b60405180910390f35b6104656004803603810190610460919061206d565b6112e6565b6040516104729190611b92565b60405180910390f35b61049560048036038101906104909190611c62565b61130b565b005b6104b160048036038101906104ac9190611d3c565b61133a565b6040516104be91906120ad565b60405180910390f35b6104cf6113da565b6040516104dc9190611b92565b60405180910390f35b6104ff60048036038101906104fa9190612024565b6113eb565b60405161050c9190611e74565b60405180910390f35b61052f600480360381019061052a91906120cf565b611434565b005b61054b60048036038101906105469190612024565b6114b7565b6040516105589190611b92565b60405180910390f35b61057b600480360381019061057691906120cf565b6115b3565b6040516105889190611b92565b60405180910390f35b61059961163a565b6000600660008981526020019081526020016000209050858160010190816105c19190612308565b50848160020160006101000a81548173ffffffffffffffffffffffffffffffffffffffff021916908373ffffffffffffffffffffffffffffffffffffffff160217905550838160030181905550828160040181905550818160050181905550600c60008881526020019081526020016000208160060190816106439190612405565b505050505050505050565b600460149054906101000a900460ff1681565b600360009054906101000a900473ffffffffffffffffffffffffffffffffffffffff1681565b60028060000154905081565b60055481565b6106a161163a565b80600b836040516106b29190612529565b908152602001604051809103902060006101000a81548173ffffffffffffffffffffffffffffffffffffffff021916908373ffffffffffffffffffffffffffffffffffffffff1602179055505050565b61070a61163a565b80600460006101000a81548173ffffffffffffffffffffffffffffffffffffffff021916908373ffffffffffffffffffffffffffffffffffffffff16021790555050565b61075661163a565b806009836040516107679190612529565b908152602001604051809103902060006101000a81548173ffffffffffffffffffffffffffffffffffffffff021916908373ffffffffffffffffffffffffffffffffffffffff1602179055505050565b60006002600154036107fe576040517f08c379a00000000000000000000000000000000000000000000000000000000081526004016107f59061258c565b60405180910390fd5b600260018190555060011515600460149054906101000a900460ff1615151461085c576040517f08c379a0000000000000000000000000000000000000000000000000000000008152600401610853906125f8565b60405180910390fd5b600073ffffffffffffffffffffffffffffffffffffffff166009846040516108849190612529565b908152602001604051809103902060009054906101000a900473ffffffffffffffffffffffffffffffffffffffff1673ffffffffffffffffffffffffffffffffffffffff1603610909576040517f08c379a00000000000000000000000000000000000000000000000000000000081526004016109009061268a565b60405180910390fd5b6000821161094c576040517f08c379a00000000000000000000000000000000000000000000000000000000081526004016109439061271c565b60405180910390fd5b61095660026116b8565b6000600a846040516109689190612529565b90815260200160405180910390205483610982919061276b565b905060006109cd600b866040516109999190612529565b908152602001604051809103902060009054906101000a900473ffffffffffffffffffffffffffffffffffffffff166115b3565b905060006009866040516109e19190612529565b908152602001604051809103902060009054906101000a900473ffffffffffffffffffffffffffffffffffffffff16905082600760003373ffffffffffffffffffffffffffffffffffffffff1673ffffffffffffffffffffffffffffffffffffffff16815260200190815260200160002060008373ffffffffffffffffffffffffffffffffffffffff1673ffffffffffffffffffffffffffffffffffffffff1681526020019081526020016000206000828254610a9e91906127ad565b92505081905550600860003373ffffffffffffffffffffffffffffffffffffffff1673ffffffffffffffffffffffffffffffffffffffff16815260200190815260200160002086604051610af29190612529565b9081526020016040518091039020610b0a60026116ce565b9080600181540180825580915050600190039060005260206000200160009091909190915055600061271083610b409190612810565b905061271086610b50919061276b565b81610b5b919061276b565b60056000828254610b6c91906127ad565b92505081905550610c1d8733868642600c6000600281526020019081526020016000208054610b9a9061212b565b80601f0160208091040260200160405190810160405280929190818152602001828054610bc69061212b565b8015610c135780601f10610be857610100808354040283529160200191610c13565b820191906000526020600020905b815481529060010190602001808311610bf657829003601f168201915b50505050506116dc565b60006103e86103e686610c30919061276b565b610c3a9190612810565b905060006103e8600287610c4e919061276b565b610c589190612810565b905060008490508073ffffffffffffffffffffffffffffffffffffffff166323b872dd33600360009054906101000a900473ffffffffffffffffffffffffffffffffffffffff16866040518463ffffffff1660e01b8152600401610cbe93929190612896565b6020604051808303816000875af1158015610cdd573d6000803e3d6000fd5b505050506040513d601f19601f82011682018060405250810190610d0191906128e2565b508073ffffffffffffffffffffffffffffffffffffffff166323b872dd33600460009054906101000a900473ffffffffffffffffffffffffffffffffffffffff16856040518463ffffffff1660e01b8152600401610d6193929190612896565b6020604051808303816000875af1158015610d80573d6000803e3d6000fd5b505050506040513d601f19601f82011682018060405250810190610da491906128e2565b503373ffffffffffffffffffffffffffffffffffffffff168a604051610dca9190612529565b60405180910390207fa986c6dbfd1a19903790abda864e9d9ce49c45b2113f621b2108e529806c002489604051610e019190611b92565b60405180910390a3610e1360026116ce565b9750505050505050506001808190555092915050565b600460009054906101000a900473ffffffffffffffffffffffffffffffffffffffff1681565b610e5761163a565b8173ffffffffffffffffffffffffffffffffffffffff1663a9059cbb828473ffffffffffffffffffffffffffffffffffffffff166370a08231306040518263ffffffff1660e01b8152600401610ead9190611e74565b602060405180830381865afa158015610eca573d6000803e3d6000fd5b505050506040513d601f19601f82011682018060405250810190610eee9190612924565b6040518363ffffffff1660e01b8152600401610f0b929190612951565b6020604051808303816000875af1158015610f2a573d6000803e3d6000fd5b505050506040513d601f19601f82011682018060405250810190610f4e91906128e2565b505050565b610f5b61163a565b3373ffffffffffffffffffffffffffffffffffffffff166108fc479081150290604051600060405180830381858888f19350505050610f9957600080fd5b565b610fa361163a565b610fad6000611799565b565b6006602052806000526040600020600091509050806000015490806001018054610fd89061212b565b80601f01602080910402602001604051908101604052809291908181526020018280546110049061212b565b80156110515780601f1061102657610100808354040283529160200191611051565b820191906000526020600020905b81548152906001019060200180831161103457829003601f168201915b5050505050908060020160009054906101000a900473ffffffffffffffffffffffffffffffffffffffff169080600301549080600401549080600501549080600601805461109e9061212b565b80601f01602080910402602001604051908101604052809291908181526020018280546110ca9061212b565b80156111175780601f106110ec57610100808354040283529160200191611117565b820191906000526020600020905b8154815290600101906020018083116110fa57829003601f168201915b5050505050905087565b60008060009054906101000a900473ffffffffffffffffffffffffffffffffffffffff16905090565b6060600860008473ffffffffffffffffffffffffffffffffffffffff1673ffffffffffffffffffffffffffffffffffffffff168152602001908152602001600020826040516111999190612529565b90815260200160405180910390208054806020026020016040519081016040528092919081815260200182805480156111f157602002820191906000526020600020905b8154815260200190600101908083116111dd575b5050505050905092915050565b61120661163a565b80600460146101000a81548160ff02191690831515021790555050565b61122b61163a565b80600360006101000a81548173ffffffffffffffffffffffffffffffffffffffff021916908373ffffffffffffffffffffffffffffffffffffffff16021790555050565b600b818051602081018201805184825260208301602085012081835280955050505050506000915054906101000a900473ffffffffffffffffffffffffffffffffffffffff1681565b600a818051602081018201805184825260208301602085012081835280955050505050506000915090505481565b6007602052816000526040600020602052806000526040600020600091509150505481565b61131361163a565b80600a836040516113249190612529565b9081526020016040518091039020819055505050565b600c60205280600052604060002060009150905080546113599061212b565b80601f01602080910402602001604051908101604052809291908181526020018280546113859061212b565b80156113d25780601f106113a7576101008083540402835291602001916113d2565b820191906000526020600020905b8154815290600101906020018083116113b557829003601f168201915b505050505081565b60006113e660026116ce565b905090565b6009818051602081018201805184825260208301602085012081835280955050505050506000915054906101000a900473ffffffffffffffffffffffffffffffffffffffff1681565b61143c61163a565b600073ffffffffffffffffffffffffffffffffffffffff168173ffffffffffffffffffffffffffffffffffffffff16036114ab576040517f08c379a00000000000000000000000000000000000000000000000000000000081526004016114a2906129ec565b60405180910390fd5b6114b481611799565b50565b60008073ffffffffffffffffffffffffffffffffffffffff16600b836040516114e09190612529565b908152602001604051809103902060009054906101000a900473ffffffffffffffffffffffffffffffffffffffff1673ffffffffffffffffffffffffffffffffffffffff1603611565576040517f08c379a000000000000000000000000000000000000000000000000000000000815260040161155c90612a7e565b60405180910390fd5b6115ac600b836040516115789190612529565b908152602001604051809103902060009054906101000a900473ffffffffffffffffffffffffffffffffffffffff166115b3565b9050919050565b60008082905060008173ffffffffffffffffffffffffffffffffffffffff1663feaf968c6040518163ffffffff1660e01b815260040160a060405180830381865afa158015611606573d6000803e3d6000fd5b505050506040513d601f19601f8201168201806040525081019061162a9190612b16565b5050509150508092505050919050565b61164261185d565b73ffffffffffffffffffffffffffffffffffffffff16611660611121565b73ffffffffffffffffffffffffffffffffffffffff16146116b6576040517f08c379a00000000000000000000000000000000000000000000000000000000081526004016116ad90612bdd565b60405180910390fd5b565b6001816000016000828254019250508190555050565b600081600001549050919050565b6000600660006116ec60026116ce565b8152602001908152602001600020905061170660026116ce565b81600001819055508681600101908161171f9190612308565b50858160020160006101000a81548173ffffffffffffffffffffffffffffffffffffffff021916908373ffffffffffffffffffffffffffffffffffffffff1602179055508481600301819055508381600401819055508281600501819055508181600601908161178f9190612308565b5050505050505050565b60008060009054906101000a900473ffffffffffffffffffffffffffffffffffffffff169050816000806101000a81548173ffffffffffffffffffffffffffffffffffffffff021916908373ffffffffffffffffffffffffffffffffffffffff1602179055508173ffffffffffffffffffffffffffffffffffffffff168173ffffffffffffffffffffffffffffffffffffffff167f8be0079c531659141344cd1fd0a4f28419497f9722a3daafe3b4186f6b6457e060405160405180910390a35050565b600033905090565b6000604051905090565b600080fd5b600080fd5b6000819050919050565b61188c81611879565b811461189757600080fd5b50565b6000813590506118a981611883565b92915050565b600080fd5b600080fd5b6000601f19601f8301169050919050565b7f4e487b7100000000000000000000000000000000000000000000000000000000600052604160045260246000fd5b611902826118b9565b810181811067ffffffffffffffff82111715611921576119206118ca565b5b80604052505050565b6000611934611865565b905061194082826118f9565b919050565b600067ffffffffffffffff8211156119605761195f6118ca565b5b611969826118b9565b9050602081019050919050565b82818337600083830152505050565b600061199861199384611945565b61192a565b9050828152602081018484840111156119b4576119b36118b4565b5b6119bf848285611976565b509392505050565b600082601f8301126119dc576119db6118af565b5b81356119ec848260208601611985565b91505092915050565b600073ffffffffffffffffffffffffffffffffffffffff82169050919050565b6000611a20826119f5565b9050919050565b611a3081611a15565b8114611a3b57600080fd5b50565b600081359050611a4d81611a27565b92915050565b600080600080600080600060e0888a031215611a7257611a7161186f565b5b6000611a808a828b0161189a565b9750506020611a918a828b0161189a565b965050604088013567ffffffffffffffff811115611ab257611ab1611874565b5b611abe8a828b016119c7565b9550506060611acf8a828b01611a3e565b9450506080611ae08a828b0161189a565b93505060a0611af18a828b0161189a565b92505060c0611b028a828b0161189a565b91505092959891949750929550565b60008115159050919050565b611b2681611b11565b82525050565b6000602082019050611b416000830184611b1d565b92915050565b6000611b52826119f5565b9050919050565b611b6281611b47565b82525050565b6000602082019050611b7d6000830184611b59565b92915050565b611b8c81611879565b82525050565b6000602082019050611ba76000830184611b83565b92915050565b60008060408385031215611bc457611bc361186f565b5b600083013567ffffffffffffffff811115611be257611be1611874565b5b611bee858286016119c7565b9250506020611bff85828601611a3e565b9150509250929050565b611c1281611b47565b8114611c1d57600080fd5b50565b600081359050611c2f81611c09565b92915050565b600060208284031215611c4b57611c4a61186f565b5b6000611c5984828501611c20565b91505092915050565b60008060408385031215611c7957611c7861186f565b5b600083013567ffffffffffffffff811115611c9757611c96611874565b5b611ca3858286016119c7565b9250506020611cb48582860161189a565b9150509250929050565b6000611cc982611a15565b9050919050565b611cd981611cbe565b8114611ce457600080fd5b50565b600081359050611cf681611cd0565b92915050565b60008060408385031215611d1357611d1261186f565b5b6000611d2185828601611ce7565b9250506020611d3285828601611a3e565b9150509250929050565b600060208284031215611d5257611d5161186f565b5b6000611d608482850161189a565b91505092915050565b600081519050919050565b600082825260208201905092915050565b60005b83811015611da3578082015181840152602081019050611d88565b60008484015250505050565b6000611dba82611d69565b611dc48185611d74565b9350611dd4818560208601611d85565b611ddd816118b9565b840191505092915050565b611df181611a15565b82525050565b600060e082019050611e0c600083018a611b83565b8181036020830152611e1e8189611daf565b9050611e2d6040830188611de8565b611e3a6060830187611b83565b611e476080830186611b83565b611e5460a0830185611b83565b81810360c0830152611e668184611daf565b905098975050505050505050565b6000602082019050611e896000830184611de8565b92915050565b60008060408385031215611ea657611ea561186f565b5b6000611eb485828601611a3e565b925050602083013567ffffffffffffffff811115611ed557611ed4611874565b5b611ee1858286016119c7565b9150509250929050565b600081519050919050565b600082825260208201905092915050565b6000819050602082019050919050565b611f2081611879565b82525050565b6000611f328383611f17565b60208301905092915050565b6000602082019050919050565b6000611f5682611eeb565b611f608185611ef6565b9350611f6b83611f07565b8060005b83811015611f9c578151611f838882611f26565b9750611f8e83611f3e565b925050600181019050611f6f565b5085935050505092915050565b60006020820190508181036000830152611fc38184611f4b565b905092915050565b611fd481611b11565b8114611fdf57600080fd5b50565b600081359050611ff181611fcb565b92915050565b60006020828403121561200d5761200c61186f565b5b600061201b84828501611fe2565b91505092915050565b60006020828403121561203a5761203961186f565b5b600082013567ffffffffffffffff81111561205857612057611874565b5b612064848285016119c7565b91505092915050565b600080604083850312156120845761208361186f565b5b600061209285828601611a3e565b92505060206120a385828601611a3e565b9150509250929050565b600060208201905081810360008301526120c78184611daf565b905092915050565b6000602082840312156120e5576120e461186f565b5b60006120f384828501611a3e565b91505092915050565b7f4e487b7100000000000000000000000000000000000000000000000000000000600052602260045260246000fd5b6000600282049050600182168061214357607f821691505b602082108103612156576121556120fc565b5b50919050565b60008190508160005260206000209050919050565b60006020601f8301049050919050565b600082821b905092915050565b6000600883026121be7fffffffffffffffffffffffffffffffffffffffffffffffffffffffffffffffff82612181565b6121c88683612181565b95508019841693508086168417925050509392505050565b6000819050919050565b60006122056122006121fb84611879565b6121e0565b611879565b9050919050565b6000819050919050565b61221f836121ea565b61223361222b8261220c565b84845461218e565b825550505050565b600090565b61224861223b565b612253818484612216565b505050565b5b818110156122775761226c600082612240565b600181019050612259565b5050565b601f8211156122bc5761228d8161215c565b61229684612171565b810160208510156122a5578190505b6122b96122b185612171565b830182612258565b50505b505050565b600082821c905092915050565b60006122df600019846008026122c1565b1980831691505092915050565b60006122f883836122ce565b9150826002028217905092915050565b61231182611d69565b67ffffffffffffffff81111561232a576123296118ca565b5b612334825461212b565b61233f82828561227b565b600060209050601f8311600181146123725760008415612360578287015190505b61236a85826122ec565b8655506123d2565b601f1984166123808661215c565b60005b828110156123a857848901518255600182019150602085019450602081019050612383565b868310156123c557848901516123c1601f8916826122ce565b8355505b6001600288020188555050505b505050505050565b6000815490506123e98161212b565b9050919050565b60008190508160005260206000209050919050565b8181036124135750506124eb565b61241c826123da565b67ffffffffffffffff811115612435576124346118ca565b5b61243f825461212b565b61244a82828561227b565b6000601f8311600181146124795760008415612467578287015490505b61247185826122ec565b8655506124e4565b601f198416612487876123f0565b96506124928661215c565b60005b828110156124ba57848901548255600182019150600185019450602081019050612495565b868310156124d757848901546124d3601f8916826122ce565b8355505b6001600288020188555050505b5050505050505b565b600081905092915050565b600061250382611d69565b61250d81856124ed565b935061251d818560208601611d85565b80840191505092915050565b600061253582846124f8565b915081905092915050565b7f5265656e7472616e637947756172643a207265656e7472616e742063616c6c00600082015250565b6000612576601f83611d74565b915061258182612540565b602082019050919050565b600060208201905081810360008301526125a581612569565b9050919050565b7f6465706f7369744254433a20536163726966696365206e6f7420616374697665600082015250565b60006125e2602083611d74565b91506125ed826125ac565b602082019050919050565b60006020820190508181036000830152612611816125d5565b9050919050565b7f6465706f7369744254433a2041646472657373206e6f742070617274206f662060008201527f616c6c6f77656420746f6b656e206c6973740000000000000000000000000000602082015250565b6000612674603283611d74565b915061267f82612618565b604082019050919050565b600060208201905081810360008301526126a381612667565b9050919050565b7f6465706f7369744254433a20416d6f756e74206d75737420626520677265617460008201527f6572207468616e205a45524f0000000000000000000000000000000000000000602082015250565b6000612706602c83611d74565b9150612711826126aa565b604082019050919050565b60006020820190508181036000830152612735816126f9565b9050919050565b7f4e487b7100000000000000000000000000000000000000000000000000000000600052601160045260246000fd5b600061277682611879565b915061278183611879565b925082820261278f81611879565b915082820484148315176127a6576127a561273c565b5b5092915050565b60006127b882611879565b91506127c383611879565b92508282019050808211156127db576127da61273c565b5b92915050565b7f4e487b7100000000000000000000000000000000000000000000000000000000600052601260045260246000fd5b600061281b82611879565b915061282683611879565b925082612836576128356127e1565b5b828204905092915050565b600061285c612857612852846119f5565b6121e0565b6119f5565b9050919050565b600061286e82612841565b9050919050565b600061288082612863565b9050919050565b61289081612875565b82525050565b60006060820190506128ab6000830186611de8565b6128b86020830185612887565b6128c56040830184611b83565b949350505050565b6000815190506128dc81611fcb565b92915050565b6000602082840312156128f8576128f761186f565b5b6000612906848285016128cd565b91505092915050565b60008151905061291e81611883565b92915050565b60006020828403121561293a5761293961186f565b5b60006129488482850161290f565b91505092915050565b60006040820190506129666000830185611de8565b6129736020830184611b83565b9392505050565b7f4f776e61626c653a206e6577206f776e657220697320746865207a65726f206160008201527f6464726573730000000000000000000000000000000000000000000000000000602082015250565b60006129d6602683611d74565b91506129e18261297a565b604082019050919050565b60006020820190508181036000830152612a05816129c9565b9050919050565b7f676574436861696e4c696e6b50726963653a2041646472657373206e6f74207060008201527f617274206f6620436861696e6c696e6b20746f6b656e206c6973740000000000602082015250565b6000612a68603b83611d74565b9150612a7382612a0c565b604082019050919050565b60006020820190508181036000830152612a9781612a5b565b9050919050565b600069ffffffffffffffffffff82169050919050565b612abd81612a9e565b8114612ac857600080fd5b50565b600081519050612ada81612ab4565b92915050565b6000819050919050565b612af381612ae0565b8114612afe57600080fd5b50565b600081519050612b1081612aea565b92915050565b600080600080600060a08688031215612b3257612b3161186f565b5b6000612b4088828901612acb565b9550506020612b5188828901612b01565b9450506040612b628882890161290f565b9350506060612b738882890161290f565b9250506080612b8488828901612acb565b9150509295509295909350565b7f4f776e61626c653a2063616c6c6572206973206e6f7420746865206f776e6572600082015250565b6000612bc7602083611d74565b9150612bd282612b91565b602082019050919050565b60006020820190508181036000830152612bf681612bba565b905091905056fea2646970667358221220861cfd51d0a5f024fe83154161baa4d2f61ed3b9f8774664436d03601ecad26564736f6c63430008110033",
  "linkReferences": {},
  "deployedLinkReferences": {}
}