{
  "_format": "hh-sol-artifact-1",
  "contractName": "SafuuXSacrificeETH",
  "sourceName": "contracts/SafuuXSacrificeETH.sol",
  "abi": [
    {
      "inputs": [
        {
          "internalType": "address payable",
          "name": "_safuuWallet",
          "type": "address"
        },
        {
          "internalType": "address payable",
          "name": "_serviceWallet",
          "type": "address"
        }
      ],
      "stateMutability": "nonpayable",
      "type": "constructor"
    },
    {
      "anonymous": false,
      "inputs": [
        {
          "indexed": true,
          "internalType": "address",
          "name": "accountAddress",
          "type": "address"
        },
        {
          "indexed": false,
          "internalType": "uint256",
          "name": "amount",
          "type": "uint256"
        }
      ],
      "name": "BTCPledged",
      "type": "event"
    },
    {
      "anonymous": false,
      "inputs": [
        {
          "indexed": true,
          "internalType": "string",
          "name": "symbol",
          "type": "string"
        },
        {
          "indexed": true,
          "internalType": "address",
          "name": "accountAddress",
          "type": "address"
        },
        {
          "indexed": false,
          "internalType": "uint256",
          "name": "amount",
          "type": "uint256"
        }
      ],
      "name": "ERC20Deposited",
      "type": "event"
    },
    {
      "anonymous": false,
      "inputs": [
        {
          "indexed": true,
          "internalType": "address",
          "name": "accountAddress",
          "type": "address"
        },
        {
          "indexed": false,
          "internalType": "uint256",
          "name": "amount",
          "type": "uint256"
        }
      ],
      "name": "ETHDeposited",
      "type": "event"
    },
    {
      "anonymous": false,
      "inputs": [
        {
          "indexed": true,
          "internalType": "address",
          "name": "previousOwner",
          "type": "address"
        },
        {
          "indexed": true,
          "internalType": "address",
          "name": "newOwner",
          "type": "address"
        }
      ],
      "name": "OwnershipTransferred",
      "type": "event"
    },
    {
      "inputs": [
        {
          "internalType": "string",
          "name": "",
          "type": "string"
        }
      ],
      "name": "AllowedTokens",
      "outputs": [
        {
          "internalType": "address",
          "name": "",
          "type": "address"
        }
      ],
      "stateMutability": "view",
      "type": "function"
    },
    {
      "inputs": [
        {
          "internalType": "address",
          "name": "",
          "type": "address"
        }
      ],
      "name": "BTCPledge",
      "outputs": [
        {
          "internalType": "uint256",
          "name": "",
          "type": "uint256"
        }
      ],
      "stateMutability": "view",
      "type": "function"
    },
    {
      "inputs": [
        {
          "internalType": "uint256",
          "name": "",
          "type": "uint256"
        }
      ],
      "name": "BonusPercentage",
      "outputs": [
        {
          "internalType": "uint256",
          "name": "",
          "type": "uint256"
        }
      ],
      "stateMutability": "view",
      "type": "function"
    },
    {
      "inputs": [
        {
          "internalType": "string",
          "name": "",
          "type": "string"
        }
      ],
      "name": "ChainlinkContracts",
      "outputs": [
        {
          "internalType": "address",
          "name": "",
          "type": "address"
        }
      ],
      "stateMutability": "view",
      "type": "function"
    },
    {
      "inputs": [
        {
          "internalType": "address",
          "name": "",
          "type": "address"
        },
        {
          "internalType": "address",
          "name": "",
          "type": "address"
        }
      ],
      "name": "ERC20Deposit",
      "outputs": [
        {
          "internalType": "uint256",
          "name": "",
          "type": "uint256"
        }
      ],
      "stateMutability": "view",
      "type": "function"
    },
    {
      "inputs": [
        {
          "internalType": "address",
          "name": "",
          "type": "address"
        }
      ],
      "name": "ETHDeposit",
      "outputs": [
        {
          "internalType": "uint256",
          "name": "",
          "type": "uint256"
        }
      ],
      "stateMutability": "view",
      "type": "function"
    },
    {
      "inputs": [
        {
          "internalType": "uint256",
          "name": "",
          "type": "uint256"
        }
      ],
      "name": "Sacrifice",
      "outputs": [
        {
          "internalType": "uint256",
          "name": "id",
          "type": "uint256"
        },
        {
          "internalType": "string",
          "name": "txHash",
          "type": "string"
        },
        {
          "internalType": "string",
          "name": "tokenSymbol",
          "type": "string"
        },
        {
          "internalType": "address",
          "name": "accountAddress",
          "type": "address"
        },
        {
          "internalType": "uint256",
          "name": "tokenAmount",
          "type": "uint256"
        },
        {
          "internalType": "uint256",
          "name": "tokenPriceUSD",
          "type": "uint256"
        },
        {
          "internalType": "uint256",
          "name": "timestamp",
          "type": "uint256"
        },
        {
          "internalType": "uint256",
          "name": "bonus",
          "type": "uint256"
        },
        {
          "internalType": "uint256",
          "name": "btcIndex",
          "type": "uint256"
        },
        {
          "internalType": "string",
          "name": "status",
          "type": "string"
        }
      ],
      "stateMutability": "view",
      "type": "function"
    },
    {
      "inputs": [
        {
          "internalType": "uint256",
          "name": "",
          "type": "uint256"
        }
      ],
      "name": "SacrificeStatus",
      "outputs": [
        {
          "internalType": "string",
          "name": "",
          "type": "string"
        }
      ],
      "stateMutability": "view",
      "type": "function"
    },
    {
      "inputs": [],
      "name": "activateBonus",
      "outputs": [],
      "stateMutability": "nonpayable",
      "type": "function"
    },
    {
      "inputs": [],
      "name": "bonusStart",
      "outputs": [
        {
          "internalType": "uint256",
          "name": "",
          "type": "uint256"
        }
      ],
      "stateMutability": "view",
      "type": "function"
    },
    {
      "inputs": [
        {
          "internalType": "string",
          "name": "_symbol",
          "type": "string"
        },
        {
          "internalType": "uint256",
          "name": "_amount",
          "type": "uint256"
        }
      ],
      "name": "depositERC20",
      "outputs": [],
      "stateMutability": "nonpayable",
      "type": "function"
    },
    {
      "inputs": [],
      "name": "depositETH",
      "outputs": [],
      "stateMutability": "payable",
      "type": "function"
    },
    {
      "inputs": [
        {
          "internalType": "address",
          "name": "_account",
          "type": "address"
        },
        {
          "internalType": "string",
          "name": "_symbol",
          "type": "string"
        }
      ],
      "name": "getAccountDeposits",
      "outputs": [
        {
          "internalType": "uint256[]",
          "name": "",
          "type": "uint256[]"
        }
      ],
      "stateMutability": "view",
      "type": "function"
    },
    {
      "inputs": [],
      "name": "getBonus",
      "outputs": [
        {
          "internalType": "uint256",
          "name": "",
          "type": "uint256"
        }
      ],
      "stateMutability": "view",
      "type": "function"
    },
    {
      "inputs": [
        {
          "internalType": "address",
          "name": "contractAddress",
          "type": "address"
        }
      ],
      "name": "getChainLinkPrice",
      "outputs": [
        {
          "internalType": "uint256",
          "name": "",
          "type": "uint256"
        }
      ],
      "stateMutability": "view",
      "type": "function"
    },
    {
      "inputs": [],
      "name": "getCurrentBTCIndex",
      "outputs": [
        {
          "internalType": "uint256",
          "name": "",
          "type": "uint256"
        }
      ],
      "stateMutability": "view",
      "type": "function"
    },
    {
      "inputs": [],
      "name": "getCurrentSacrificeID",
      "outputs": [
        {
          "internalType": "uint256",
          "name": "",
          "type": "uint256"
        }
      ],
      "stateMutability": "view",
      "type": "function"
    },
    {
      "inputs": [
        {
          "internalType": "string",
          "name": "_symbol",
          "type": "string"
        }
      ],
      "name": "getPriceBySymbol",
      "outputs": [
        {
          "internalType": "uint256",
          "name": "",
          "type": "uint256"
        }
      ],
      "stateMutability": "view",
      "type": "function"
    },
    {
      "inputs": [],
      "name": "isBonusActive",
      "outputs": [
        {
          "internalType": "bool",
          "name": "",
          "type": "bool"
        }
      ],
      "stateMutability": "view",
      "type": "function"
    },
    {
      "inputs": [],
      "name": "isSacrificeActive",
      "outputs": [
        {
          "internalType": "bool",
          "name": "",
          "type": "bool"
        }
      ],
      "stateMutability": "view",
      "type": "function"
    },
    {
      "inputs": [],
      "name": "nextBTCIndex",
      "outputs": [
        {
          "internalType": "uint256",
          "name": "_value",
          "type": "uint256"
        }
      ],
      "stateMutability": "view",
      "type": "function"
    },
    {
      "inputs": [],
      "name": "nextSacrificeId",
      "outputs": [
        {
          "internalType": "uint256",
          "name": "_value",
          "type": "uint256"
        }
      ],
      "stateMutability": "view",
      "type": "function"
    },
    {
      "inputs": [],
      "name": "owner",
      "outputs": [
        {
          "internalType": "address",
          "name": "",
          "type": "address"
        }
      ],
      "stateMutability": "view",
      "type": "function"
    },
    {
      "inputs": [
        {
          "internalType": "uint256",
          "name": "_amount",
          "type": "uint256"
        }
      ],
      "name": "pledgeBTC",
      "outputs": [
        {
          "internalType": "uint256",
          "name": "",
          "type": "uint256"
        }
      ],
      "stateMutability": "nonpayable",
      "type": "function"
    },
    {
      "inputs": [
        {
          "internalType": "contract IERC20",
          "name": "tokenContract",
          "type": "address"
        },
        {
          "internalType": "address",
          "name": "to",
          "type": "address"
        }
      ],
      "name": "recoverERC20",
      "outputs": [],
      "stateMutability": "nonpayable",
      "type": "function"
    },
    {
      "inputs": [],
      "name": "recoverETH",
      "outputs": [],
      "stateMutability": "nonpayable",
      "type": "function"
    },
    {
      "inputs": [],
      "name": "renounceOwnership",
      "outputs": [],
      "stateMutability": "nonpayable",
      "type": "function"
    },
    {
      "inputs": [],
      "name": "safuuWallet",
      "outputs": [
        {
          "internalType": "address payable",
          "name": "",
          "type": "address"
        }
      ],
      "stateMutability": "view",
      "type": "function"
    },
    {
      "inputs": [],
      "name": "serviceWallet",
      "outputs": [
        {
          "internalType": "address payable",
          "name": "",
          "type": "address"
        }
      ],
      "stateMutability": "view",
      "type": "function"
    },
    {
      "inputs": [
        {
          "internalType": "string",
          "name": "_symbol",
          "type": "string"
        },
        {
          "internalType": "address",
          "name": "_tokenAddress",
          "type": "address"
        }
      ],
      "name": "setAllowedTokens",
      "outputs": [],
      "stateMutability": "nonpayable",
      "type": "function"
    },
    {
      "inputs": [
        {
          "internalType": "string",
          "name": "_symbol",
          "type": "string"
        },
        {
          "internalType": "address",
          "name": "_tokenAddress",
          "type": "address"
        }
      ],
      "name": "setChainlink",
      "outputs": [],
      "stateMutability": "nonpayable",
      "type": "function"
    },
    {
      "inputs": [
        {
          "internalType": "bool",
          "name": "_isActive",
          "type": "bool"
        }
      ],
      "name": "setSacrificeStatus",
      "outputs": [],
      "stateMutability": "nonpayable",
      "type": "function"
    },
    {
      "inputs": [
        {
          "internalType": "address payable",
          "name": "_safuuWallet",
          "type": "address"
        }
      ],
      "name": "setSafuuWallet",
      "outputs": [],
      "stateMutability": "nonpayable",
      "type": "function"
    },
    {
      "inputs": [
        {
          "internalType": "address payable",
          "name": "_serviceWallet",
          "type": "address"
        }
      ],
      "name": "setServiceWallet",
      "outputs": [],
      "stateMutability": "nonpayable",
      "type": "function"
    },
    {
      "inputs": [],
      "name": "totalSacrifice",
      "outputs": [
        {
          "internalType": "uint256",
          "name": "",
          "type": "uint256"
        }
      ],
      "stateMutability": "view",
      "type": "function"
    },
    {
      "inputs": [
        {
          "internalType": "address",
          "name": "newOwner",
          "type": "address"
        }
      ],
      "name": "transferOwnership",
      "outputs": [],
      "stateMutability": "nonpayable",
      "type": "function"
    },
    {
      "inputs": [
        {
          "internalType": "uint256",
          "name": "_day",
          "type": "uint256"
        },
        {
          "internalType": "uint256",
          "name": "_percentage",
          "type": "uint256"
        }
      ],
      "name": "updateBonus",
      "outputs": [],
      "stateMutability": "nonpayable",
      "type": "function"
    },
    {
      "inputs": [
        {
          "internalType": "uint256",
          "name": "sacrificeId",
          "type": "uint256"
        },
        {
          "internalType": "string",
          "name": "_txHash",
          "type": "string"
        },
        {
          "internalType": "uint256",
          "name": "_bonus",
          "type": "uint256"
        },
        {
          "internalType": "uint256",
          "name": "_status",
          "type": "uint256"
        }
      ],
      "name": "updateSacrificeData",
      "outputs": [],
      "stateMutability": "nonpayable",
      "type": "function"
    }
  ],
  "bytecode": "0x60806040523480156200001157600080fd5b5060405162004d5738038062004d578339818101604052810190620000379190620007e9565b620000576200004b620000f860201b60201c565b6200010060201b60201c565b6001808190555081600460006101000a81548173ffffffffffffffffffffffffffffffffffffffff021916908373ffffffffffffffffffffffffffffffffffffffff16021790555080600560006101000a81548173ffffffffffffffffffffffffffffffffffffffff021916908373ffffffffffffffffffffffffffffffffffffffff160217905550620000f0620001c460201b60201c565b505062000c9b565b600033905090565b60008060009054906101000a900473ffffffffffffffffffffffffffffffffffffffff169050816000806101000a81548173ffffffffffffffffffffffffffffffffffffffff021916908373ffffffffffffffffffffffffffffffffffffffff1602179055508173ffffffffffffffffffffffffffffffffffffffff168173ffffffffffffffffffffffffffffffffffffffff167f8be0079c531659141344cd1fd0a4f28419497f9722a3daafe3b4186f6b6457e060405160405180910390a35050565b6000600560146101000a81548160ff0219169083151502179055506000600560156101000a81548160ff0219169083151502179055506040518060400160405280600781526020017f70656e64696e6700000000000000000000000000000000000000000000000000815250600f600060018152602001908152602001600020908162000252919062000aaa565b506040518060400160405280600981526020017f636f6d706c657465640000000000000000000000000000000000000000000000815250600f6000600281526020019081526020016000209081620002ab919062000aaa565b506040518060400160405280600981526020017f63616e63656c6c65640000000000000000000000000000000000000000000000815250600f600060038152602001908152602001600020908162000304919062000aaa565b50620003606040518060400160405280600481526020017f4255534400000000000000000000000000000000000000000000000000000000815250734fabb145d64652a948d72533023f6e7a623c7c53620005df60201b60201c565b620003bb6040518060400160405280600481526020017f555344430000000000000000000000000000000000000000000000000000000081525073a0b86991c6218b36c1d19d4a2e9eb0ce3606eb48620005df60201b60201c565b620004166040518060400160405280600481526020017f555344540000000000000000000000000000000000000000000000000000000081525073dac17f958d2ee523a2206206994597c13d831ec7620005df60201b60201c565b620004716040518060400160405280600381526020017f4554480000000000000000000000000000000000000000000000000000000000815250735f4ec3df9cbd43714fe2740f5e3616155c5b84196200065260201b60201c565b620004cc6040518060400160405280600381526020017f425443000000000000000000000000000000000000000000000000000000000081525073f4030086522a5beea4988f8ca5b36dbc97bee88c6200065260201b60201c565b620005276040518060400160405280600481526020017f425553440000000000000000000000000000000000000000000000000000000081525073833d8eb16d306ed1fbb5d7a2e019e106b960965a6200065260201b60201c565b620005826040518060400160405280600481526020017f5553444300000000000000000000000000000000000000000000000000000000815250738fffffd4afb6115b954bd326cbe7b4ba576818f66200065260201b60201c565b620005dd6040518060400160405280600481526020017f5553445400000000000000000000000000000000000000000000000000000000815250733e7d1eab13ad0104d2750b8863b489d65364e32d6200065260201b60201c565b565b620005ef620006c560201b60201c565b80600d8360405162000602919062000bff565b908152602001604051809103902060006101000a81548173ffffffffffffffffffffffffffffffffffffffff021916908373ffffffffffffffffffffffffffffffffffffffff1602179055505050565b62000662620006c560201b60201c565b80600e8360405162000675919062000bff565b908152602001604051809103902060006101000a81548173ffffffffffffffffffffffffffffffffffffffff021916908373ffffffffffffffffffffffffffffffffffffffff1602179055505050565b620006d5620000f860201b60201c565b73ffffffffffffffffffffffffffffffffffffffff16620006fb6200075660201b60201c565b73ffffffffffffffffffffffffffffffffffffffff161462000754576040517f08c379a00000000000000000000000000000000000000000000000000000000081526004016200074b9062000c79565b60405180910390fd5b565b60008060009054906101000a900473ffffffffffffffffffffffffffffffffffffffff16905090565b600080fd5b600073ffffffffffffffffffffffffffffffffffffffff82169050919050565b6000620007b18262000784565b9050919050565b620007c381620007a4565b8114620007cf57600080fd5b50565b600081519050620007e381620007b8565b92915050565b600080604083850312156200080357620008026200077f565b5b60006200081385828601620007d2565b92505060206200082685828601620007d2565b9150509250929050565b600081519050919050565b7f4e487b7100000000000000000000000000000000000000000000000000000000600052604160045260246000fd5b7f4e487b7100000000000000000000000000000000000000000000000000000000600052602260045260246000fd5b60006002820490506001821680620008b257607f821691505b602082108103620008c857620008c76200086a565b5b50919050565b60008190508160005260206000209050919050565b60006020601f8301049050919050565b600082821b905092915050565b600060088302620009327fffffffffffffffffffffffffffffffffffffffffffffffffffffffffffffffff82620008f3565b6200093e8683620008f3565b95508019841693508086168417925050509392505050565b6000819050919050565b6000819050919050565b60006200098b620009856200097f8462000956565b62000960565b62000956565b9050919050565b6000819050919050565b620009a7836200096a565b620009bf620009b68262000992565b84845462000900565b825550505050565b600090565b620009d6620009c7565b620009e38184846200099c565b505050565b5b8181101562000a0b57620009ff600082620009cc565b600181019050620009e9565b5050565b601f82111562000a5a5762000a2481620008ce565b62000a2f84620008e3565b8101602085101562000a3f578190505b62000a5762000a4e85620008e3565b830182620009e8565b50505b505050565b600082821c905092915050565b600062000a7f6000198460080262000a5f565b1980831691505092915050565b600062000a9a838362000a6c565b9150826002028217905092915050565b62000ab58262000830565b67ffffffffffffffff81111562000ad15762000ad06200083b565b5b62000add825462000899565b62000aea82828562000a0f565b600060209050601f83116001811462000b22576000841562000b0d578287015190505b62000b19858262000a8c565b86555062000b89565b601f19841662000b3286620008ce565b60005b8281101562000b5c5784890151825560018201915060208501945060208101905062000b35565b8683101562000b7c578489015162000b78601f89168262000a6c565b8355505b6001600288020188555050505b505050505050565b600081905092915050565b60005b8381101562000bbc57808201518184015260208101905062000b9f565b60008484015250505050565b600062000bd58262000830565b62000be1818562000b91565b935062000bf381856020860162000b9c565b80840191505092915050565b600062000c0d828462000bc8565b915081905092915050565b600082825260208201905092915050565b7f4f776e61626c653a2063616c6c6572206973206e6f7420746865206f776e6572600082015250565b600062000c6160208362000c18565b915062000c6e8262000c29565b602082019050919050565b6000602082019050818103600083015262000c948162000c52565b9050919050565b6140ac8062000cab6000396000f3fe6080604052600436106102255760003560e01c8063715018a611610123578063c5a7833e116100ab578063e8bb2a9f1161006f578063e8bb2a9f14610812578063f2fde38b1461084f578063f6326fb314610878578063f86f359314610882578063ff28ca60146108bf57610225565b8063c5a7833e1461071b578063cb49ad3e14610744578063d21859bc14610781578063d8e9d96a146107aa578063db44865b146107e757610225565b80638da5cb5b116100f25780638da5cb5b14610622578063a289c13b1461064d578063a29e0ef41461068a578063bcdd1b4d146106b5578063c355eb2d146106f257610225565b8063715018a6146105715780637598e2fd14610588578063886f039a146105ce5780638bdff161146105f757610225565b806323bffccc116101b15780633f064ee8116101755780633f064ee814610478578063482cdaac146104b55780634fa8de95146104f25780635641f3c31461051b5780636261c6621461054657610225565b806323bffccc146103a55780632462c37e146103ce5780633578a508146103f95780633903550a146104105780633ae1ad381461044d57610225565b80631622ef0f116101f85780631622ef0f146102c057806319d38918146102fd5780631a403f19146103285780631f6f79641461035357806321a8e00b1461037c57610225565b80630614117a1461022a5780630cb4bedd146102415780630f45f82c1461026c57806313e329ba14610295575b600080fd5b34801561023657600080fd5b5061023f6108fc565b005b34801561024d57600080fd5b50610256610944565b6040516102639190612916565b60405180910390f35b34801561027857600080fd5b50610293600480360381019061028e9190612ac1565b610957565b005b3480156102a157600080fd5b506102aa6109cf565b6040516102b79190612b85565b60405180910390f35b3480156102cc57600080fd5b506102e760048036038101906102e29190612ba0565b6109f5565b6040516102f49190612bdc565b60405180910390f35b34801561030957600080fd5b50610312610db5565b60405161031f9190612bdc565b60405180910390f35b34801561033457600080fd5b5061033d610dc1565b60405161034a9190612bdc565b60405180910390f35b34801561035f57600080fd5b5061037a60048036038101906103759190612c35565b610dc7565b005b34801561038857600080fd5b506103a3600480360381019061039e9190612c91565b610e30565b005b3480156103b157600080fd5b506103cc60048036038101906103c79190612cfd565b610e54565b005b3480156103da57600080fd5b506103e3610ea0565b6040516103f09190612916565b60405180910390f35b34801561040557600080fd5b5061040e610eb3565b005b34801561041c57600080fd5b5061043760048036038101906104329190612d2a565b611289565b6040516104449190612bdc565b60405180910390f35b34801561045957600080fd5b506104626112a1565b60405161046f9190612bdc565b60405180910390f35b34801561048457600080fd5b5061049f600480360381019061049a9190612d2a565b6112ad565b6040516104ac9190612bdc565b60405180910390f35b3480156104c157600080fd5b506104dc60048036038101906104d79190612d57565b6112c5565b6040516104e99190612bdc565b60405180910390f35b3480156104fe57600080fd5b5061051960048036038101906105149190612c35565b6112ea565b005b34801561052757600080fd5b50610530611353565b60405161053d9190612b85565b60405180910390f35b34801561055257600080fd5b5061055b611379565b6040516105689190612bdc565b60405180910390f35b34801561057d57600080fd5b5061058661137f565b005b34801561059457600080fd5b506105af60048036038101906105aa9190612ba0565b611393565b6040516105c59a99989796959493929190612e25565b60405180910390f35b3480156105da57600080fd5b506105f560048036038101906105f09190612f14565b61159f565b005b34801561060357600080fd5b5061060c6116a3565b6040516106199190612bdc565b60405180910390f35b34801561062e57600080fd5b506106376116f0565b6040516106449190612f54565b60405180910390f35b34801561065957600080fd5b50610674600480360381019061066f9190612f6f565b611719565b6040516106819190613089565b60405180910390f35b34801561069657600080fd5b5061069f6117cd565b6040516106ac9190612bdc565b60405180910390f35b3480156106c157600080fd5b506106dc60048036038101906106d79190612ba0565b6117de565b6040516106e99190612bdc565b60405180910390f35b3480156106fe57600080fd5b50610719600480360381019061071491906130d7565b6117f6565b005b34801561072757600080fd5b50610742600480360381019061073d9190612cfd565b61181b565b005b34801561075057600080fd5b5061076b60048036038101906107669190613104565b611867565b6040516107789190612f54565b60405180910390f35b34801561078d57600080fd5b506107a860048036038101906107a3919061314d565b6118b0565b005b3480156107b657600080fd5b506107d160048036038101906107cc9190612ba0565b611f0a565b6040516107de91906131a9565b60405180910390f35b3480156107f357600080fd5b506107fc611faa565b6040516108099190612bdc565b60405180910390f35b34801561081e57600080fd5b5061083960048036038101906108349190613104565b611fbb565b6040516108469190612f54565b60405180910390f35b34801561085b57600080fd5b5061087660048036038101906108719190612d2a565b612004565b005b610880612087565b005b34801561088e57600080fd5b506108a960048036038101906108a49190613104565b612539565b6040516108b69190612bdc565b60405180910390f35b3480156108cb57600080fd5b506108e660048036038101906108e19190612d2a565b612635565b6040516108f39190612bdc565b60405180910390f35b6109046126bc565b3373ffffffffffffffffffffffffffffffffffffffff166108fc479081150290604051600060405180830381858888f1935050505061094257600080fd5b565b600560149054906101000a900460ff1681565b61095f6126bc565b60006008600086815260200190815260200160002090508381600101908161098791906133d7565b5060106000848152602001908152602001600020548160070181905550600f60008381526020019081526020016000208160090190816109c791906134d4565b505050505050565b600460009054906101000a900473ffffffffffffffffffffffffffffffffffffffff1681565b6000600260015403610a3c576040517f08c379a0000000000000000000000000000000000000000000000000000000008152600401610a3390613608565b60405180910390fd5b600260018190555060011515600560149054906101000a900460ff16151514610a9a576040517f08c379a0000000000000000000000000000000000000000000000000000000008152600401610a9190613674565b60405180910390fd5b60008211610add576040517f08c379a0000000000000000000000000000000000000000000000000000000008152600401610ad490613706565b60405180910390fd5b610ae7600361273a565b610af1600261273a565b81600960003373ffffffffffffffffffffffffffffffffffffffff1673ffffffffffffffffffffffffffffffffffffffff1681526020019081526020016000206000828254610b409190613755565b925050819055506000610b8e600e604051610b5a906137e0565b908152602001604051809103902060009054906101000a900473ffffffffffffffffffffffffffffffffffffffff16612635565b9050600c60003373ffffffffffffffffffffffffffffffffffffffff1673ffffffffffffffffffffffffffffffffffffffff168152602001908152602001600020604051610bdb906137e0565b9081526020016040518091039020610bf36002612750565b9080600181540180825580915050600190039060005260206000200160009091909190915055600061271082610c299190613824565b905061271084610c399190613855565b81610c449190613855565b60076000828254610c559190613755565b92505081905550610d4d6040518060400160405280600381526020017f425443000000000000000000000000000000000000000000000000000000000081525033868542610ca16116a3565b610cab6003612750565b600f6000600181526020019081526020016000208054610cca906131fa565b80601f0160208091040260200160405190810160405280929190818152602001828054610cf6906131fa565b8015610d435780601f10610d1857610100808354040283529160200191610d43565b820191906000526020600020905b815481529060010190602001808311610d2657829003601f168201915b505050505061275e565b3373ffffffffffffffffffffffffffffffffffffffff167f0e0bc6b95a3bb2170a96186c22cddc5efbf78a4ca40fc5aa0abaa02d8a6d2c6485604051610d939190612bdc565b60405180910390a2610da56003612750565b9250505060018081905550919050565b60028060000154905081565b60075481565b610dcf6126bc565b80600e83604051610de091906138c8565b908152602001604051809103902060006101000a81548173ffffffffffffffffffffffffffffffffffffffff021916908373ffffffffffffffffffffffffffffffffffffffff1602179055505050565b610e386126bc565b8060106000848152602001908152602001600020819055505050565b610e5c6126bc565b80600560006101000a81548173ffffffffffffffffffffffffffffffffffffffff021916908373ffffffffffffffffffffffffffffffffffffffff16021790555050565b600560159054906101000a900460ff1681565b610ebb6126bc565b60001515600560159054906101000a900460ff16151514610f11576040517f08c379a0000000000000000000000000000000000000000000000000000000008152600401610f0890613951565b60405180910390fd5b6001600560156101000a81548160ff02191690831515021790555042600681905550611388601060006001815260200190815260200160002081905550611194601060006002815260200190815260200160002081905550610fa0601060006003815260200190815260200160002081905550610dac601060006004815260200190815260200160002081905550610bb86010600060058152602001908152602001600020819055506109c46010600060068152602001908152602001600020819055506107d06010600060078152602001908152602001600020819055506105dc60106000600881526020019081526020016000208190555061057860106000600981526020019081526020016000208190555061051460106000600a8152602001908152602001600020819055506104b060106000600b81526020019081526020016000208190555061044c60106000600c8152602001908152602001600020819055506103e860106000600d81526020019081526020016000208190555061038460106000600e81526020019081526020016000208190555061032060106000600f8152602001908152602001600020819055506102bc6010600060108152602001908152602001600020819055506102586010600060118152602001908152602001600020819055506101f460106000601281526020019081526020016000208190555061019060106000601381526020019081526020016000208190555061012c60106000601481526020019081526020016000208190555060c86010600060158152602001908152602001600020819055506064601060006016815260200190815260200160002081905550605a60106000601781526020019081526020016000208190555060506010600060188152602001908152602001600020819055506046601060006019815260200190815260200160002081905550603c60106000601a815260200190815260200160002081905550603260106000601b815260200190815260200160002081905550602860106000601c815260200190815260200160002081905550601e60106000601d815260200190815260200160002081905550601460106000601e815260200190815260200160002081905550600a60106000601f8152602001908152602001600020819055506000601060006020815260200190815260200160002081905550565b600a6020528060005260406000206000915090505481565b60038060000154905081565b60096020528060005260406000206000915090505481565b600b602052816000526040600020602052806000526040600020600091509150505481565b6112f26126bc565b80600d8360405161130391906138c8565b908152602001604051809103902060006101000a81548173ffffffffffffffffffffffffffffffffffffffff021916908373ffffffffffffffffffffffffffffffffffffffff1602179055505050565b600560009054906101000a900473ffffffffffffffffffffffffffffffffffffffff1681565b60065481565b6113876126bc565b611391600061282f565b565b60086020528060005260406000206000915090508060000154908060010180546113bc906131fa565b80601f01602080910402602001604051908101604052809291908181526020018280546113e8906131fa565b80156114355780601f1061140a57610100808354040283529160200191611435565b820191906000526020600020905b81548152906001019060200180831161141857829003601f168201915b50505050509080600201805461144a906131fa565b80601f0160208091040260200160405190810160405280929190818152602001828054611476906131fa565b80156114c35780601f10611498576101008083540402835291602001916114c3565b820191906000526020600020905b8154815290600101906020018083116114a657829003601f168201915b5050505050908060030160009054906101000a900473ffffffffffffffffffffffffffffffffffffffff169080600401549080600501549080600601549080600701549080600801549080600901805461151c906131fa565b80601f0160208091040260200160405190810160405280929190818152602001828054611548906131fa565b80156115955780601f1061156a57610100808354040283529160200191611595565b820191906000526020600020905b81548152906001019060200180831161157857829003601f168201915b505050505090508a565b6115a76126bc565b8173ffffffffffffffffffffffffffffffffffffffff1663a9059cbb828473ffffffffffffffffffffffffffffffffffffffff166370a08231306040518263ffffffff1660e01b81526004016115fd9190612f54565b602060405180830381865afa15801561161a573d6000803e3d6000fd5b505050506040513d601f19601f8201168201806040525081019061163e9190613986565b6040518363ffffffff1660e01b815260040161165b9291906139b3565b6020604051808303816000875af115801561167a573d6000803e3d6000fd5b505050506040513d601f19601f8201168201806040525081019061169e91906139f1565b505050565b600080600162015180600654426116ba9190613a1e565b6116c49190613824565b6116ce9190613755565b9050600060106000838152602001908152602001600020549050809250505090565b60008060009054906101000a900473ffffffffffffffffffffffffffffffffffffffff16905090565b6060600c60008473ffffffffffffffffffffffffffffffffffffffff1673ffffffffffffffffffffffffffffffffffffffff1681526020019081526020016000208260405161176891906138c8565b90815260200160405180910390208054806020026020016040519081016040528092919081815260200182805480156117c057602002820191906000526020600020905b8154815260200190600101908083116117ac575b5050505050905092915050565b60006117d96003612750565b905090565b60106020528060005260406000206000915090505481565b6117fe6126bc565b80600560146101000a81548160ff02191690831515021790555050565b6118236126bc565b80600460006101000a81548173ffffffffffffffffffffffffffffffffffffffff021916908373ffffffffffffffffffffffffffffffffffffffff16021790555050565b600e818051602081018201805184825260208301602085012081835280955050505050506000915054906101000a900473ffffffffffffffffffffffffffffffffffffffff1681565b6002600154036118f5576040517f08c379a00000000000000000000000000000000000000000000000000000000081526004016118ec90613608565b60405180910390fd5b600260018190555060011515600560149054906101000a900460ff16151514611953576040517f08c379a000000000000000000000000000000000000000000000000000000000815260040161194a90613ac4565b60405180910390fd5b600073ffffffffffffffffffffffffffffffffffffffff16600d8360405161197b91906138c8565b908152602001604051809103902060009054906101000a900473ffffffffffffffffffffffffffffffffffffffff1673ffffffffffffffffffffffffffffffffffffffff1603611a00576040517f08c379a00000000000000000000000000000000000000000000000000000000081526004016119f790613b56565b60405180910390fd5b60008111611a43576040517f08c379a0000000000000000000000000000000000000000000000000000000008152600401611a3a90613be8565b60405180910390fd5b611a4d600261273a565b6000670de0b6b3a764000082611a639190613855565b90506000611aae600e85604051611a7a91906138c8565b908152602001604051809103902060009054906101000a900473ffffffffffffffffffffffffffffffffffffffff16612635565b90506000600d85604051611ac291906138c8565b908152602001604051809103902060009054906101000a900473ffffffffffffffffffffffffffffffffffffffff16905082600b60003373ffffffffffffffffffffffffffffffffffffffff1673ffffffffffffffffffffffffffffffffffffffff16815260200190815260200160002060008373ffffffffffffffffffffffffffffffffffffffff1673ffffffffffffffffffffffffffffffffffffffff1681526020019081526020016000206000828254611b7f9190613755565b92505081905550600c60003373ffffffffffffffffffffffffffffffffffffffff1673ffffffffffffffffffffffffffffffffffffffff16815260200190815260200160002085604051611bd391906138c8565b9081526020016040518091039020611beb6002612750565b9080600181540180825580915050600190039060005260206000200160009091909190915055600061271083611c219190613824565b9050655af3107a400084611c359190613824565b81611c409190613855565b60076000828254611c519190613755565b92505081905550611d0c8633868642611c686116a3565b6000600f6000600281526020019081526020016000208054611c89906131fa565b80601f0160208091040260200160405190810160405280929190818152602001828054611cb5906131fa565b8015611d025780601f10611cd757610100808354040283529160200191611d02565b820191906000526020600020905b815481529060010190602001808311611ce557829003601f168201915b505050505061275e565b60006103e86103e686611d1f9190613855565b611d299190613824565b905060006103e8600287611d3d9190613855565b611d479190613824565b905060008490508073ffffffffffffffffffffffffffffffffffffffff166323b872dd33600460009054906101000a900473ffffffffffffffffffffffffffffffffffffffff16866040518463ffffffff1660e01b8152600401611dad93929190613c5d565b6020604051808303816000875af1158015611dcc573d6000803e3d6000fd5b505050506040513d601f19601f82011682018060405250810190611df091906139f1565b508073ffffffffffffffffffffffffffffffffffffffff166323b872dd33600560009054906101000a900473ffffffffffffffffffffffffffffffffffffffff16856040518463ffffffff1660e01b8152600401611e5093929190613c5d565b6020604051808303816000875af1158015611e6f573d6000803e3d6000fd5b505050506040513d601f19601f82011682018060405250810190611e9391906139f1565b503373ffffffffffffffffffffffffffffffffffffffff1689604051611eb991906138c8565b60405180910390207f2e1dd9170be11c43e92acd7f40c0bbc51d592864c2b22f70d6b86847eaffbc0a89604051611ef09190612bdc565b60405180910390a350505050505050600180819055505050565b600f6020528060005260406000206000915090508054611f29906131fa565b80601f0160208091040260200160405190810160405280929190818152602001828054611f55906131fa565b8015611fa25780601f10611f7757610100808354040283529160200191611fa2565b820191906000526020600020905b815481529060010190602001808311611f8557829003601f168201915b505050505081565b6000611fb66002612750565b905090565b600d818051602081018201805184825260208301602085012081835280955050505050506000915054906101000a900473ffffffffffffffffffffffffffffffffffffffff1681565b61200c6126bc565b600073ffffffffffffffffffffffffffffffffffffffff168173ffffffffffffffffffffffffffffffffffffffff160361207b576040517f08c379a000000000000000000000000000000000000000000000000000000000815260040161207290613d06565b60405180910390fd5b6120848161282f565b50565b6002600154036120cc576040517f08c379a00000000000000000000000000000000000000000000000000000000081526004016120c390613608565b60405180910390fd5b600260018190555060011515600560149054906101000a900460ff1615151461212a576040517f08c379a000000000000000000000000000000000000000000000000000000000815260040161212190613d72565b60405180910390fd5b6000341161216d576040517f08c379a000000000000000000000000000000000000000000000000000000000815260040161216490613e04565b60405180910390fd5b612177600261273a565b60006121be600e60405161218a90613e70565b908152602001604051809103902060009054906101000a900473ffffffffffffffffffffffffffffffffffffffff16612635565b905034600a60003373ffffffffffffffffffffffffffffffffffffffff1673ffffffffffffffffffffffffffffffffffffffff168152602001908152602001600020600082825461220f9190613755565b92505081905550600c60003373ffffffffffffffffffffffffffffffffffffffff1673ffffffffffffffffffffffffffffffffffffffff16815260200190815260200160002060405161226190613e70565b90815260200160405180910390206122796002612750565b90806001815401808255809150506001900390600052602060002001600090919091909150556000612710826122af9190613824565b9050655af3107a4000346122c39190613824565b816122ce9190613855565b600760008282546122df9190613755565b925050819055506123cf6040518060400160405280600381526020017f45544800000000000000000000000000000000000000000000000000000000008152503334854261232b6116a3565b6000600f600060028152602001908152602001600020805461234c906131fa565b80601f0160208091040260200160405190810160405280929190818152602001828054612378906131fa565b80156123c55780601f1061239a576101008083540402835291602001916123c5565b820191906000526020600020905b8154815290600101906020018083116123a857829003601f168201915b505050505061275e565b60006103e86103e6346123e29190613855565b6123ec9190613824565b905060006103e86002346124009190613855565b61240a9190613824565b9050600460009054906101000a900473ffffffffffffffffffffffffffffffffffffffff1673ffffffffffffffffffffffffffffffffffffffff166108fc839081150290604051600060405180830381858888f19350505050158015612474573d6000803e3d6000fd5b50600560009054906101000a900473ffffffffffffffffffffffffffffffffffffffff1673ffffffffffffffffffffffffffffffffffffffff166108fc829081150290604051600060405180830381858888f193505050501580156124dd573d6000803e3d6000fd5b503373ffffffffffffffffffffffffffffffffffffffff167f6c703791f399558807424f489ccd811c72b4ff0b74af547264fad7c646776df0346040516125249190612bdc565b60405180910390a25050505060018081905550565b60008073ffffffffffffffffffffffffffffffffffffffff16600e8360405161256291906138c8565b908152602001604051809103902060009054906101000a900473ffffffffffffffffffffffffffffffffffffffff1673ffffffffffffffffffffffffffffffffffffffff16036125e7576040517f08c379a00000000000000000000000000000000000000000000000000000000081526004016125de90613ef7565b60405180910390fd5b61262e600e836040516125fa91906138c8565b908152602001604051809103902060009054906101000a900473ffffffffffffffffffffffffffffffffffffffff16612635565b9050919050565b60008082905060008173ffffffffffffffffffffffffffffffffffffffff1663feaf968c6040518163ffffffff1660e01b815260040160a060405180830381865afa158015612688573d6000803e3d6000fd5b505050506040513d601f19601f820116820180604052508101906126ac9190613f8f565b5050509150508092505050919050565b6126c46128f3565b73ffffffffffffffffffffffffffffffffffffffff166126e26116f0565b73ffffffffffffffffffffffffffffffffffffffff1614612738576040517f08c379a000000000000000000000000000000000000000000000000000000000815260040161272f90614056565b60405180910390fd5b565b6001816000016000828254019250508190555050565b600081600001549050919050565b60006008600061276e6002612750565b815260200190815260200160002090506127886002612750565b8160000181905550888160020190816127a191906133d7565b50878160030160006101000a81548173ffffffffffffffffffffffffffffffffffffffff021916908373ffffffffffffffffffffffffffffffffffffffff1602179055508681600401819055508581600501819055508481600601819055508381600701819055508281600801819055508181600901908161282391906133d7565b50505050505050505050565b60008060009054906101000a900473ffffffffffffffffffffffffffffffffffffffff169050816000806101000a81548173ffffffffffffffffffffffffffffffffffffffff021916908373ffffffffffffffffffffffffffffffffffffffff1602179055508173ffffffffffffffffffffffffffffffffffffffff168173ffffffffffffffffffffffffffffffffffffffff167f8be0079c531659141344cd1fd0a4f28419497f9722a3daafe3b4186f6b6457e060405160405180910390a35050565b600033905090565b60008115159050919050565b612910816128fb565b82525050565b600060208201905061292b6000830184612907565b92915050565b6000604051905090565b600080fd5b600080fd5b6000819050919050565b61295881612945565b811461296357600080fd5b50565b6000813590506129758161294f565b92915050565b600080fd5b600080fd5b6000601f19601f8301169050919050565b7f4e487b7100000000000000000000000000000000000000000000000000000000600052604160045260246000fd5b6129ce82612985565b810181811067ffffffffffffffff821117156129ed576129ec612996565b5b80604052505050565b6000612a00612931565b9050612a0c82826129c5565b919050565b600067ffffffffffffffff821115612a2c57612a2b612996565b5b612a3582612985565b9050602081019050919050565b82818337600083830152505050565b6000612a64612a5f84612a11565b6129f6565b905082815260208101848484011115612a8057612a7f612980565b5b612a8b848285612a42565b509392505050565b600082601f830112612aa857612aa761297b565b5b8135612ab8848260208601612a51565b91505092915050565b60008060008060808587031215612adb57612ada61293b565b5b6000612ae987828801612966565b945050602085013567ffffffffffffffff811115612b0a57612b09612940565b5b612b1687828801612a93565b9350506040612b2787828801612966565b9250506060612b3887828801612966565b91505092959194509250565b600073ffffffffffffffffffffffffffffffffffffffff82169050919050565b6000612b6f82612b44565b9050919050565b612b7f81612b64565b82525050565b6000602082019050612b9a6000830184612b76565b92915050565b600060208284031215612bb657612bb561293b565b5b6000612bc484828501612966565b91505092915050565b612bd681612945565b82525050565b6000602082019050612bf16000830184612bcd565b92915050565b6000612c0282612b44565b9050919050565b612c1281612bf7565b8114612c1d57600080fd5b50565b600081359050612c2f81612c09565b92915050565b60008060408385031215612c4c57612c4b61293b565b5b600083013567ffffffffffffffff811115612c6a57612c69612940565b5b612c7685828601612a93565b9250506020612c8785828601612c20565b9150509250929050565b60008060408385031215612ca857612ca761293b565b5b6000612cb685828601612966565b9250506020612cc785828601612966565b9150509250929050565b612cda81612b64565b8114612ce557600080fd5b50565b600081359050612cf781612cd1565b92915050565b600060208284031215612d1357612d1261293b565b5b6000612d2184828501612ce8565b91505092915050565b600060208284031215612d4057612d3f61293b565b5b6000612d4e84828501612c20565b91505092915050565b60008060408385031215612d6e57612d6d61293b565b5b6000612d7c85828601612c20565b9250506020612d8d85828601612c20565b9150509250929050565b600081519050919050565b600082825260208201905092915050565b60005b83811015612dd1578082015181840152602081019050612db6565b60008484015250505050565b6000612de882612d97565b612df28185612da2565b9350612e02818560208601612db3565b612e0b81612985565b840191505092915050565b612e1f81612bf7565b82525050565b600061014082019050612e3b600083018d612bcd565b8181036020830152612e4d818c612ddd565b90508181036040830152612e61818b612ddd565b9050612e70606083018a612e16565b612e7d6080830189612bcd565b612e8a60a0830188612bcd565b612e9760c0830187612bcd565b612ea460e0830186612bcd565b612eb2610100830185612bcd565b818103610120830152612ec58184612ddd565b90509b9a5050505050505050505050565b6000612ee182612bf7565b9050919050565b612ef181612ed6565b8114612efc57600080fd5b50565b600081359050612f0e81612ee8565b92915050565b60008060408385031215612f2b57612f2a61293b565b5b6000612f3985828601612eff565b9250506020612f4a85828601612c20565b9150509250929050565b6000602082019050612f696000830184612e16565b92915050565b60008060408385031215612f8657612f8561293b565b5b6000612f9485828601612c20565b925050602083013567ffffffffffffffff811115612fb557612fb4612940565b5b612fc185828601612a93565b9150509250929050565b600081519050919050565b600082825260208201905092915050565b6000819050602082019050919050565b61300081612945565b82525050565b60006130128383612ff7565b60208301905092915050565b6000602082019050919050565b600061303682612fcb565b6130408185612fd6565b935061304b83612fe7565b8060005b8381101561307c5781516130638882613006565b975061306e8361301e565b92505060018101905061304f565b5085935050505092915050565b600060208201905081810360008301526130a3818461302b565b905092915050565b6130b4816128fb565b81146130bf57600080fd5b50565b6000813590506130d1816130ab565b92915050565b6000602082840312156130ed576130ec61293b565b5b60006130fb848285016130c2565b91505092915050565b60006020828403121561311a5761311961293b565b5b600082013567ffffffffffffffff81111561313857613137612940565b5b61314484828501612a93565b91505092915050565b600080604083850312156131645761316361293b565b5b600083013567ffffffffffffffff81111561318257613181612940565b5b61318e85828601612a93565b925050602061319f85828601612966565b9150509250929050565b600060208201905081810360008301526131c38184612ddd565b905092915050565b7f4e487b7100000000000000000000000000000000000000000000000000000000600052602260045260246000fd5b6000600282049050600182168061321257607f821691505b602082108103613225576132246131cb565b5b50919050565b60008190508160005260206000209050919050565b60006020601f8301049050919050565b600082821b905092915050565b60006008830261328d7fffffffffffffffffffffffffffffffffffffffffffffffffffffffffffffffff82613250565b6132978683613250565b95508019841693508086168417925050509392505050565b6000819050919050565b60006132d46132cf6132ca84612945565b6132af565b612945565b9050919050565b6000819050919050565b6132ee836132b9565b6133026132fa826132db565b84845461325d565b825550505050565b600090565b61331761330a565b6133228184846132e5565b505050565b5b818110156133465761333b60008261330f565b600181019050613328565b5050565b601f82111561338b5761335c8161322b565b61336584613240565b81016020851015613374578190505b61338861338085613240565b830182613327565b50505b505050565b600082821c905092915050565b60006133ae60001984600802613390565b1980831691505092915050565b60006133c7838361339d565b9150826002028217905092915050565b6133e082612d97565b67ffffffffffffffff8111156133f9576133f8612996565b5b61340382546131fa565b61340e82828561334a565b600060209050601f831160018114613441576000841561342f578287015190505b61343985826133bb565b8655506134a1565b601f19841661344f8661322b565b60005b8281101561347757848901518255600182019150602085019450602081019050613452565b868310156134945784890151613490601f89168261339d565b8355505b6001600288020188555050505b505050505050565b6000815490506134b8816131fa565b9050919050565b60008190508160005260206000209050919050565b8181036134e25750506135ba565b6134eb826134a9565b67ffffffffffffffff81111561350457613503612996565b5b61350e82546131fa565b61351982828561334a565b6000601f8311600181146135485760008415613536578287015490505b61354085826133bb565b8655506135b3565b601f198416613556876134bf565b96506135618661322b565b60005b8281101561358957848901548255600182019150600185019450602081019050613564565b868310156135a657848901546135a2601f89168261339d565b8355505b6001600288020188555050505b5050505050505b565b7f5265656e7472616e637947756172643a207265656e7472616e742063616c6c00600082015250565b60006135f2601f83612da2565b91506135fd826135bc565b602082019050919050565b60006020820190508181036000830152613621816135e5565b9050919050565b7f706c656467654254433a20536163726966696365206e6f742061637469766500600082015250565b600061365e601f83612da2565b915061366982613628565b602082019050919050565b6000602082019050818103600083015261368d81613651565b9050919050565b7f706c656467654254433a20416d6f756e74206d7573742062652067726561746560008201527f72207468616e205a45524f000000000000000000000000000000000000000000602082015250565b60006136f0602b83612da2565b91506136fb82613694565b604082019050919050565b6000602082019050818103600083015261371f816136e3565b9050919050565b7f4e487b7100000000000000000000000000000000000000000000000000000000600052601160045260246000fd5b600061376082612945565b915061376b83612945565b925082820190508082111561378357613782613726565b5b92915050565b600081905092915050565b7f4254430000000000000000000000000000000000000000000000000000000000600082015250565b60006137ca600383613789565b91506137d582613794565b600382019050919050565b60006137eb826137bd565b9150819050919050565b7f4e487b7100000000000000000000000000000000000000000000000000000000600052601260045260246000fd5b600061382f82612945565b915061383a83612945565b92508261384a576138496137f5565b5b828204905092915050565b600061386082612945565b915061386b83612945565b925082820261387981612945565b915082820484148315176138905761388f613726565b5b5092915050565b60006138a282612d97565b6138ac8185613789565b93506138bc818560208601612db3565b80840191505092915050565b60006138d48284613897565b915081905092915050565b7f6163746976617465426f6e75733a20426f6e757320616c72656164792061637460008201527f6976617465640000000000000000000000000000000000000000000000000000602082015250565b600061393b602683612da2565b9150613946826138df565b604082019050919050565b6000602082019050818103600083015261396a8161392e565b9050919050565b6000815190506139808161294f565b92915050565b60006020828403121561399c5761399b61293b565b5b60006139aa84828501613971565b91505092915050565b60006040820190506139c86000830185612e16565b6139d56020830184612bcd565b9392505050565b6000815190506139eb816130ab565b92915050565b600060208284031215613a0757613a0661293b565b5b6000613a15848285016139dc565b91505092915050565b6000613a2982612945565b9150613a3483612945565b9250828203905081811115613a4c57613a4b613726565b5b92915050565b7f6465706f73697445524332303a20536163726966696365206e6f74206163746960008201527f7665000000000000000000000000000000000000000000000000000000000000602082015250565b6000613aae602283612da2565b9150613ab982613a52565b604082019050919050565b60006020820190508181036000830152613add81613aa1565b9050919050565b7f6465706f73697445524332303a2041646472657373206e6f742070617274206f60008201527f6620616c6c6f77656420746f6b656e206c697374000000000000000000000000602082015250565b6000613b40603483612da2565b9150613b4b82613ae4565b604082019050919050565b60006020820190508181036000830152613b6f81613b33565b9050919050565b7f6465706f73697445524332303a20416d6f756e74206d7573742062652067726560008201527f61746572207468616e205a45524f000000000000000000000000000000000000602082015250565b6000613bd2602e83612da2565b9150613bdd82613b76565b604082019050919050565b60006020820190508181036000830152613c0181613bc5565b9050919050565b6000613c23613c1e613c1984612b44565b6132af565b612b44565b9050919050565b6000613c3582613c08565b9050919050565b6000613c4782613c2a565b9050919050565b613c5781613c3c565b82525050565b6000606082019050613c726000830186612e16565b613c7f6020830185613c4e565b613c8c6040830184612bcd565b949350505050565b7f4f776e61626c653a206e6577206f776e657220697320746865207a65726f206160008201527f6464726573730000000000000000000000000000000000000000000000000000602082015250565b6000613cf0602683612da2565b9150613cfb82613c94565b604082019050919050565b60006020820190508181036000830152613d1f81613ce3565b9050919050565b7f6465706f7369744554483a20536163726966696365206e6f7420616374697665600082015250565b6000613d5c602083612da2565b9150613d6782613d26565b602082019050919050565b60006020820190508181036000830152613d8b81613d4f565b9050919050565b7f6465706f7369744554483a20416d6f756e74206d75737420626520677265617460008201527f6572207468616e205a45524f0000000000000000000000000000000000000000602082015250565b6000613dee602c83612da2565b9150613df982613d92565b604082019050919050565b60006020820190508181036000830152613e1d81613de1565b9050919050565b7f4554480000000000000000000000000000000000000000000000000000000000600082015250565b6000613e5a600383613789565b9150613e6582613e24565b600382019050919050565b6000613e7b82613e4d565b9150819050919050565b7f676574436861696e4c696e6b50726963653a2041646472657373206e6f74207060008201527f617274206f6620436861696e6c696e6b20746f6b656e206c6973740000000000602082015250565b6000613ee1603b83612da2565b9150613eec82613e85565b604082019050919050565b60006020820190508181036000830152613f1081613ed4565b9050919050565b600069ffffffffffffffffffff82169050919050565b613f3681613f17565b8114613f4157600080fd5b50565b600081519050613f5381613f2d565b92915050565b6000819050919050565b613f6c81613f59565b8114613f7757600080fd5b50565b600081519050613f8981613f63565b92915050565b600080600080600060a08688031215613fab57613faa61293b565b5b6000613fb988828901613f44565b9550506020613fca88828901613f7a565b9450506040613fdb88828901613971565b9350506060613fec88828901613971565b9250506080613ffd88828901613f44565b9150509295509295909350565b7f4f776e61626c653a2063616c6c6572206973206e6f7420746865206f776e6572600082015250565b6000614040602083612da2565b915061404b8261400a565b602082019050919050565b6000602082019050818103600083015261406f81614033565b905091905056fea2646970667358221220f88cf3f640bc1ef112993bb8d179e245263b2c27c222266fb38e36bfa66cc48364736f6c63430008110033",
  "linkReferences": {},
  "deployedLinkReferences": {}
}